{
  "_format": "hh-sol-artifact-1",
  "contractName": "UniswapV2LPActions",
  "sourceName": "contracts/action/UniswapV2LPActions.sol",
  "abi": [
    {
      "inputs": [
        {
          "internalType": "address",
          "name": "_router",
          "type": "address"
        }
      ],
      "stateMutability": "nonpayable",
      "type": "constructor"
    },
    {
      "inputs": [],
      "name": "FailedToApproveTokens",
      "type": "error"
    },
    {
      "inputs": [],
      "name": "InvalidTokenGetterID",
      "type": "error"
    },
    {
      "inputs": [],
      "name": "NoValidPercentageAmount",
      "type": "error"
    },
    {
      "inputs": [],
      "name": "NoZeroAmountValid",
      "type": "error"
    },
    {
      "inputs": [],
      "name": "NotZeroAmountForBothTokensAllowed",
      "type": "error"
    },
    {
      "inputs": [],
      "name": "PoolPairDoesNotExist",
      "type": "error"
    },
    {
      "inputs": [],
      "name": "DELTA_DEADLINE",
      "outputs": [
        {
          "internalType": "uint256",
          "name": "",
          "type": "uint256"
        }
      ],
      "stateMutability": "view",
      "type": "function"
    },
    {
      "inputs": [],
      "name": "PERCENTAGE_FACTOR",
      "outputs": [
        {
          "internalType": "uint256",
          "name": "",
          "type": "uint256"
        }
      ],
      "stateMutability": "view",
      "type": "function"
    },
    {
      "inputs": [],
      "name": "WETH",
      "outputs": [
        {
          "internalType": "address",
          "name": "",
          "type": "address"
        }
      ],
      "stateMutability": "view",
      "type": "function"
    },
    {
      "inputs": [
        {
          "internalType": "uint256",
          "name": "r",
          "type": "uint256"
        },
        {
          "internalType": "uint256",
          "name": "a",
          "type": "uint256"
        }
      ],
      "name": "_getSwapAmount",
      "outputs": [
        {
          "internalType": "uint256",
          "name": "",
          "type": "uint256"
        }
      ],
      "stateMutability": "pure",
      "type": "function"
    },
    {
      "inputs": [
        {
          "internalType": "address",
          "name": "tokenA",
          "type": "address"
        },
        {
          "internalType": "address",
          "name": "tokenB",
          "type": "address"
        },
        {
          "internalType": "uint256",
          "name": "percentage",
          "type": "uint256"
        },
        {
          "internalType": "address",
          "name": "wallet",
          "type": "address"
        }
      ],
      "name": "addLiqudityPercentage",
      "outputs": [
        {
          "components": [
            {
              "internalType": "address",
              "name": "target",
              "type": "address"
            },
            {
              "internalType": "uint256",
              "name": "value",
              "type": "uint256"
            },
            {
              "internalType": "bytes",
              "name": "data",
              "type": "bytes"
            }
          ],
          "internalType": "struct IAction.PluginExecution[]",
          "name": "",
          "type": "tuple[]"
        }
      ],
      "stateMutability": "view",
      "type": "function"
    },
    {
      "inputs": [
        {
          "internalType": "address",
          "name": "token",
          "type": "address"
        },
        {
          "internalType": "uint256",
          "name": "percentage",
          "type": "uint256"
        },
        {
          "internalType": "address",
          "name": "wallet",
          "type": "address"
        }
      ],
      "name": "addLiqudityPercentageETH",
      "outputs": [
        {
          "components": [
            {
              "internalType": "address",
              "name": "target",
              "type": "address"
            },
            {
              "internalType": "uint256",
              "name": "value",
              "type": "uint256"
            },
            {
              "internalType": "bytes",
              "name": "data",
              "type": "bytes"
            }
          ],
          "internalType": "struct IAction.PluginExecution[]",
          "name": "",
          "type": "tuple[]"
        }
      ],
      "stateMutability": "view",
      "type": "function"
    },
    {
      "inputs": [
        {
          "internalType": "address",
          "name": "tokenA",
          "type": "address"
        },
        {
          "internalType": "address",
          "name": "tokenB",
          "type": "address"
        },
        {
          "internalType": "uint256",
          "name": "amountADesired",
          "type": "uint256"
        },
        {
          "internalType": "uint256",
          "name": "amountBDesired",
          "type": "uint256"
        },
        {
          "internalType": "uint256",
          "name": "amountAMin",
          "type": "uint256"
        },
        {
          "internalType": "uint256",
          "name": "amountBMin",
          "type": "uint256"
        },
        {
          "internalType": "address",
          "name": "to",
          "type": "address"
        }
      ],
      "name": "addLiquidity",
      "outputs": [
        {
          "components": [
            {
              "internalType": "address",
              "name": "target",
              "type": "address"
            },
            {
              "internalType": "uint256",
              "name": "value",
              "type": "uint256"
            },
            {
              "internalType": "bytes",
              "name": "data",
              "type": "bytes"
            }
          ],
          "internalType": "struct IAction.PluginExecution[]",
          "name": "",
          "type": "tuple[]"
        }
      ],
      "stateMutability": "view",
      "type": "function"
    },
    {
      "inputs": [
        {
          "internalType": "address",
          "name": "token",
          "type": "address"
        },
        {
          "internalType": "uint256",
          "name": "amountTokenDesired",
          "type": "uint256"
        },
        {
          "internalType": "uint256",
          "name": "amountTokenMin",
          "type": "uint256"
        },
        {
          "internalType": "uint256",
          "name": "amountETHDesired",
          "type": "uint256"
        },
        {
          "internalType": "uint256",
          "name": "amountETHMin",
          "type": "uint256"
        },
        {
          "internalType": "address",
          "name": "to",
          "type": "address"
        }
      ],
      "name": "addLiquidityETH",
      "outputs": [
        {
          "components": [
            {
              "internalType": "address",
              "name": "target",
              "type": "address"
            },
            {
              "internalType": "uint256",
              "name": "value",
              "type": "uint256"
            },
            {
              "internalType": "bytes",
              "name": "data",
              "type": "bytes"
            }
          ],
          "internalType": "struct IAction.PluginExecution[]",
          "name": "",
          "type": "tuple[]"
        }
      ],
      "stateMutability": "view",
      "type": "function"
    },
    {
      "inputs": [],
      "name": "factory",
      "outputs": [
        {
          "internalType": "address",
          "name": "",
          "type": "address"
        }
      ],
      "stateMutability": "view",
      "type": "function"
    },
    {
      "inputs": [
        {
          "internalType": "bytes4",
          "name": "selector",
          "type": "bytes4"
        },
        {
          "internalType": "bytes",
          "name": "params",
          "type": "bytes"
        }
      ],
      "name": "getTokenForSelector",
      "outputs": [
        {
          "internalType": "address",
          "name": "",
          "type": "address"
        }
      ],
      "stateMutability": "view",
      "type": "function"
    },
    {
      "inputs": [
        {
          "internalType": "address",
          "name": "tokenA",
          "type": "address"
        },
        {
          "internalType": "address",
          "name": "tokenB",
          "type": "address"
        },
        {
          "internalType": "uint256",
          "name": "liquidity",
          "type": "uint256"
        },
        {
          "internalType": "uint256",
          "name": "amountAMin",
          "type": "uint256"
        },
        {
          "internalType": "uint256",
          "name": "amountBMin",
          "type": "uint256"
        },
        {
          "internalType": "address",
          "name": "to",
          "type": "address"
        }
      ],
      "name": "removeLiquidity",
      "outputs": [
        {
          "components": [
            {
              "internalType": "address",
              "name": "target",
              "type": "address"
            },
            {
              "internalType": "uint256",
              "name": "value",
              "type": "uint256"
            },
            {
              "internalType": "bytes",
              "name": "data",
              "type": "bytes"
            }
          ],
          "internalType": "struct IAction.PluginExecution[]",
          "name": "",
          "type": "tuple[]"
        }
      ],
      "stateMutability": "view",
      "type": "function"
    },
    {
      "inputs": [
        {
          "internalType": "address",
          "name": "token",
          "type": "address"
        },
        {
          "internalType": "uint256",
          "name": "liquidity",
          "type": "uint256"
        },
        {
          "internalType": "uint256",
          "name": "amountTokenMin",
          "type": "uint256"
        },
        {
          "internalType": "uint256",
          "name": "amountETHMin",
          "type": "uint256"
        },
        {
          "internalType": "address",
          "name": "to",
          "type": "address"
        }
      ],
      "name": "removeLiquidityETH",
      "outputs": [
        {
          "components": [
            {
              "internalType": "address",
              "name": "target",
              "type": "address"
            },
            {
              "internalType": "uint256",
              "name": "value",
              "type": "uint256"
            },
            {
              "internalType": "bytes",
              "name": "data",
              "type": "bytes"
            }
          ],
          "internalType": "struct IAction.PluginExecution[]",
          "name": "",
          "type": "tuple[]"
        }
      ],
      "stateMutability": "view",
      "type": "function"
    },
    {
      "inputs": [
        {
          "internalType": "address",
          "name": "token",
          "type": "address"
        },
        {
          "internalType": "uint256",
          "name": "liquidityPercentage",
          "type": "uint256"
        },
        {
          "internalType": "address",
          "name": "to",
          "type": "address"
        }
      ],
      "name": "removeLiquidityETHPercentage",
      "outputs": [
        {
          "components": [
            {
              "internalType": "address",
              "name": "target",
              "type": "address"
            },
            {
              "internalType": "uint256",
              "name": "value",
              "type": "uint256"
            },
            {
              "internalType": "bytes",
              "name": "data",
              "type": "bytes"
            }
          ],
          "internalType": "struct IAction.PluginExecution[]",
          "name": "",
          "type": "tuple[]"
        }
      ],
      "stateMutability": "view",
      "type": "function"
    },
    {
      "inputs": [
        {
          "internalType": "address",
          "name": "tokenA",
          "type": "address"
        },
        {
          "internalType": "address",
          "name": "tokenB",
          "type": "address"
        },
        {
          "internalType": "uint256",
          "name": "percentageLiquidity",
          "type": "uint256"
        },
        {
          "internalType": "address",
          "name": "to",
          "type": "address"
        }
      ],
      "name": "removeLiquidityPercentage",
      "outputs": [
        {
          "components": [
            {
              "internalType": "address",
              "name": "target",
              "type": "address"
            },
            {
              "internalType": "uint256",
              "name": "value",
              "type": "uint256"
            },
            {
              "internalType": "bytes",
              "name": "data",
              "type": "bytes"
            }
          ],
          "internalType": "struct IAction.PluginExecution[]",
          "name": "",
          "type": "tuple[]"
        }
      ],
      "stateMutability": "view",
      "type": "function"
    },
    {
      "inputs": [],
      "name": "router",
      "outputs": [
        {
          "internalType": "address",
          "name": "",
          "type": "address"
        }
      ],
      "stateMutability": "view",
      "type": "function"
    },
    {
      "inputs": [
        {
          "internalType": "bytes4",
          "name": "",
          "type": "bytes4"
        }
      ],
      "name": "tokenGetterIDs",
      "outputs": [
        {
          "internalType": "uint8",
          "name": "",
          "type": "uint8"
        }
      ],
      "stateMutability": "view",
      "type": "function"
    },
    {
      "inputs": [],
      "name": "uniswapV2RouterAddress",
      "outputs": [
        {
          "internalType": "address",
          "name": "",
          "type": "address"
        }
      ],
      "stateMutability": "view",
      "type": "function"
    },
    {
      "inputs": [
        {
          "internalType": "address",
          "name": "tokenA",
          "type": "address"
        },
        {
          "internalType": "address",
          "name": "tokenB",
          "type": "address"
        },
        {
          "internalType": "uint256",
          "name": "amountIn",
          "type": "uint256"
        },
        {
          "internalType": "address",
          "name": "to",
          "type": "address"
        }
      ],
      "name": "zap",
      "outputs": [
        {
          "components": [
            {
              "internalType": "address",
              "name": "target",
              "type": "address"
            },
            {
              "internalType": "uint256",
              "name": "value",
              "type": "uint256"
            },
            {
              "internalType": "bytes",
              "name": "data",
              "type": "bytes"
            }
          ],
          "internalType": "struct IAction.PluginExecution[]",
          "name": "",
          "type": "tuple[]"
        }
      ],
      "stateMutability": "view",
      "type": "function"
    },
    {
      "inputs": [
        {
          "internalType": "address",
          "name": "token",
          "type": "address"
        },
        {
          "internalType": "uint256",
          "name": "amountIn",
          "type": "uint256"
        },
        {
          "internalType": "bool",
          "name": "inputETH",
          "type": "bool"
        },
        {
          "internalType": "address",
          "name": "to",
          "type": "address"
        }
      ],
      "name": "zapETH",
      "outputs": [
        {
          "components": [
            {
              "internalType": "address",
              "name": "target",
              "type": "address"
            },
            {
              "internalType": "uint256",
              "name": "value",
              "type": "uint256"
            },
            {
              "internalType": "bytes",
              "name": "data",
              "type": "bytes"
            }
          ],
          "internalType": "struct IAction.PluginExecution[]",
          "name": "",
          "type": "tuple[]"
        }
      ],
      "stateMutability": "view",
      "type": "function"
    }
  ],
  "bytecode": "0x60e060405234801561001057600080fd5b5060405161450b38038061450b83398181016040528101906100329190610683565b808073ffffffffffffffffffffffffffffffffffffffff1660808173ffffffffffffffffffffffffffffffffffffffff168152505060805173ffffffffffffffffffffffffffffffffffffffff1663ad5c46486040518163ffffffff1660e01b8152600401602060405180830381865afa1580156100b4573d6000803e3d6000fd5b505050506040513d601f19601f820116820180604052508101906100d89190610683565b73ffffffffffffffffffffffffffffffffffffffff1660c08173ffffffffffffffffffffffffffffffffffffffff168152505060805173ffffffffffffffffffffffffffffffffffffffff1663c45a01556040518163ffffffff1660e01b8152600401602060405180830381865afa158015610158573d6000803e3d6000fd5b505050506040513d601f19601f8201168201806040525081019061017c9190610683565b73ffffffffffffffffffffffffffffffffffffffff1660a08173ffffffffffffffffffffffffffffffffffffffff168152505050600160008063fbec41a860e01b7bffffffffffffffffffffffffffffffffffffffffffffffffffffffff19167bffffffffffffffffffffffffffffffffffffffffffffffffffffffff1916815260200190815260200160002060006101000a81548160ff021916908360ff160217905550600160008063c977880560e01b7bffffffffffffffffffffffffffffffffffffffffffffffffffffffff19167bffffffffffffffffffffffffffffffffffffffffffffffffffffffff1916815260200190815260200160002060006101000a81548160ff021916908360ff1602179055506001600080636587e4ce60e01b7bffffffffffffffffffffffffffffffffffffffffffffffffffffffff19167bffffffffffffffffffffffffffffffffffffffffffffffffffffffff1916815260200190815260200160002060006101000a81548160ff021916908360ff16021790555060016000806302e7b74560e01b7bffffffffffffffffffffffffffffffffffffffffffffffffffffffff19167bffffffffffffffffffffffffffffffffffffffffffffffffffffffff1916815260200190815260200160002060006101000a81548160ff021916908360ff160217905550600160008063a181031e60e01b7bffffffffffffffffffffffffffffffffffffffffffffffffffffffff19167bffffffffffffffffffffffffffffffffffffffffffffffffffffffff1916815260200190815260200160002060006101000a81548160ff021916908360ff160217905550600260008063ca3d653960e01b7bffffffffffffffffffffffffffffffffffffffffffffffffffffffff19167bffffffffffffffffffffffffffffffffffffffffffffffffffffffff1916815260200190815260200160002060006101000a81548160ff021916908360ff160217905550600360008063c0e3ee6b60e01b7bffffffffffffffffffffffffffffffffffffffffffffffffffffffff19167bffffffffffffffffffffffffffffffffffffffffffffffffffffffff1916815260200190815260200160002060006101000a81548160ff021916908360ff160217905550600460008063ea5217c360e01b7bffffffffffffffffffffffffffffffffffffffffffffffffffffffff19167bffffffffffffffffffffffffffffffffffffffffffffffffffffffff1916815260200190815260200160002060006101000a81548160ff021916908360ff160217905550600460008063d21f43b960e01b7bffffffffffffffffffffffffffffffffffffffffffffffffffffffff19167bffffffffffffffffffffffffffffffffffffffffffffffffffffffff1916815260200190815260200160002060006101000a81548160ff021916908360ff16021790555060046000806317617def60e01b7bffffffffffffffffffffffffffffffffffffffffffffffffffffffff19167bffffffffffffffffffffffffffffffffffffffffffffffffffffffff1916815260200190815260200160002060006101000a81548160ff021916908360ff160217905550506106b0565b600080fd5b600073ffffffffffffffffffffffffffffffffffffffff82169050919050565b600061065082610625565b9050919050565b61066081610645565b811461066b57600080fd5b50565b60008151905061067d81610657565b92915050565b60006020828403121561069957610698610620565b5b60006106a78482850161066e565b91505092915050565b60805160a05160c051613d8b610780600039600081816104a1015281816107b401528181610a5401528181610c18015281816111570152818161117d015281816111bc015281816118590152818161188f015281816124ab0152612791015260008181610ba401526112b201526000818161059c015281816110df015281816116bb015281816117fb0152818161199601528181611df20152818161211f015281816123140152818161256b015281816128020152818161297a01528181612a400152612b070152613d8b6000f3fe608060405234801561001057600080fd5b50600436106101215760003560e01c8063c0e3ee6b116100ad578063ea5217c311610071578063ea5217c31461037e578063ecc861d0146103ae578063ee01e5e7146103de578063f887ea40146103fc578063fbec41a81461041a57610121565b8063c0e3ee6b146102a0578063c45a0155146102d0578063c9778805146102ee578063ca3d65391461031e578063d21f43b91461034e57610121565b8063617b595a116100f4578063617b595a146101d45780636587e4ce146101f2578063a181031e14610222578063ad5c464814610252578063b1d613681461027057610121565b806302e7b7451461012657806317617def146101565780634a377e1d146101865780635581161b146101a4575b600080fd5b610140600480360381019061013b9190612c37565b61044a565b60405161014d9190612e4a565b60405180910390f35b610170600480360381019061016b9190612e6c565b6104df565b60405161017d9190612e4a565b60405180910390f35b61018e610598565b60405161019b9190612ee2565b60405180910390f35b6101be60048036038101906101b9919061308a565b6105c0565b6040516101cb9190612ee2565b60405180910390f35b6101dc610710565b6040516101e991906130f5565b60405180910390f35b61020c60048036038101906102079190613110565b610715565b6040516102199190612e4a565b60405180910390f35b61023c600480360381019061023791906131c3565b61083f565b6040516102499190612e4a565b60405180910390f35b61025a610a52565b6040516102679190612ee2565b60405180910390f35b61028a6004803603810190610285919061322a565b610a76565b6040516102979190613273565b60405180910390f35b6102ba60048036038101906102b5919061328e565b610a96565b6040516102c79190612e4a565b60405180910390f35b6102d8610ba2565b6040516102e59190612ee2565b60405180910390f35b61030860048036038101906103039190612c37565b610bc6565b6040516103159190612e4a565b60405180910390f35b6103386004803603810190610333919061331b565b610c9d565b6040516103459190612e4a565b60405180910390f35b61036860048036038101906103639190612e6c565b610e14565b6040516103759190612e4a565b60405180910390f35b61039860048036038101906103939190612e6c565b610e8b565b6040516103a59190612e4a565b60405180910390f35b6103c860048036038101906103c391906133bd565b61106d565b6040516103d591906130f5565b60405180910390f35b6103e66110d7565b6040516103f391906130f5565b60405180910390f35b6104046110dd565b6040516104119190612ee2565b60405180910390f35b610434600480360381019061042f91906133fd565b611101565b6040516104419190612e4a565b60405180910390f35b606082600081148061045d57506103e881115b15610494576040517f7de8fbf600000000000000000000000000000000000000000000000000000000815260040160405180910390fd5b6104d5856104cc6104c5887f00000000000000000000000000000000000000000000000000000000000000006112ad565b87876113be565b60008087610715565b9150509392505050565b60608260008114806104f257506103e881115b15610529576040517f7de8fbf600000000000000000000000000000000000000000000000000000000815260040160405180910390fd5b600061053587876112ad565b905060008061054689898589611460565b9150915061058a89896103e88a8661055e91906134b9565b610568919061352a565b6103e88b8661057791906134b9565b610581919061352a565b6000808c610c9d565b945050505050949350505050565b60007f0000000000000000000000000000000000000000000000000000000000000000905090565b600080600080857bffffffffffffffffffffffffffffffffffffffffffffffffffffffff19167bffffffffffffffffffffffffffffffffffffffffffffffffffffffff1916815260200190815260200160002060009054906101000a900460ff16905060008160ff161480610638575060048160ff16115b1561066f576040517fae563a1f00000000000000000000000000000000000000000000000000000000815260040160405180910390fd5b60018160ff160361068457600091505061070a565b60028160ff16036106b7576000838060200190518101906106a591906135ae565b5050505050509050809250505061070a565b60038160ff16036106e9576000838060200190518101906106d89190613650565b50505050509050809250505061070a565b6000838060200190518101906106ff91906136dd565b505050905080925050505b92915050565b601e81565b60608460008103610752576040517fded7302c00000000000000000000000000000000000000000000000000000000815260040160405180910390fd5b6000600267ffffffffffffffff81111561076f5761076e612f5f565b5b6040519080825280602002602001820160405280156107a857816020015b610795612b58565b81526020019060019003908161078d5790505b5090506107de6107d8897f00000000000000000000000000000000000000000000000000000000000000006112ad565b886116af565b816000815181106107f2576107f1613744565b5b6020026020010181905250610812888888888861080d61176e565b611782565b8160018151811061082657610825613744565b5b6020026020010181905250809250505095945050505050565b606060008060006108528888888861184d565b9250925092506000600282516108689190613773565b67ffffffffffffffff81111561088157610880612f5f565b5b6040519080825280602002602001820160405280156108ba57816020015b6108a7612b58565b81526020019060019003908161089f5790505b50905060006108cf8a8660008760008c611101565b9050826000815181106108e5576108e4613744565b5b60200260200101518260008151811061090157610900613744565b5b60200260200101819052506001835103610990578060008151811061092957610928613744565b5b60200260200101518260018151811061094557610944613744565b5b60200260200101819052508060018151811061096457610963613744565b5b6020026020010151826002815181106109805761097f613744565b5b6020026020010181905250610a42565b826001815181106109a4576109a3613744565b5b6020026020010151826001815181106109c0576109bf613744565b5b6020026020010181905250806000815181106109df576109de613744565b5b6020026020010151826002815181106109fb576109fa613744565b5b602002602001018190525080600181518110610a1a57610a19613744565b5b602002602001015182600381518110610a3657610a35613744565b5b60200260200101819052505b8195505050505050949350505050565b7f000000000000000000000000000000000000000000000000000000000000000081565b60006020528060005260406000206000915054906101000a900460ff1681565b60608460008103610ad3576040517fded7302c00000000000000000000000000000000000000000000000000000000815260040160405180910390fd5b6000600267ffffffffffffffff811115610af057610aef612f5f565b5b604051908082528060200260200182016040528015610b2957816020015b610b16612b58565b815260200190600190039081610b0e5790505b509050610b3f610b398a8a6112ad565b886116af565b81600081518110610b5357610b52613744565b5b6020026020010181905250610b74898989898989610b6f61176e565b61191b565b81600181518110610b8857610b87613744565b5b602002602001018190525080925050509695505050505050565b7f000000000000000000000000000000000000000000000000000000000000000081565b6060826000811480610bd957506103e881115b15610c10576040517f7de8fbf600000000000000000000000000000000000000000000000000000000815260040160405180910390fd5b6000610c3c867f00000000000000000000000000000000000000000000000000000000000000006112ad565b9050600080610c4c8884886119e9565b91509150610c90886103e88985610c6391906134b9565b610c6d919061352a565b60006103e88b86610c7e91906134b9565b610c88919061352a565b60008b611101565b9450505050509392505050565b6060600086148015610caf5750600085145b15610ce6576040517f2d1440d500000000000000000000000000000000000000000000000000000000815260040160405180910390fd5b60008603610d0557610d028786610cfd8b8b6112ad565b611bd5565b95505b60008503610d2457610d218887610d1c8b8b6112ad565b611bd5565b94505b6000600367ffffffffffffffff811115610d4157610d40612f5f565b5b604051908082528060200260200182016040528015610d7a57816020015b610d67612b58565b815260200190600190039081610d5f5790505b509050610d8789886116af565b81600081518110610d9b57610d9a613744565b5b6020026020010181905250610db088876116af565b81600181518110610dc457610dc3613744565b5b6020026020010181905250610de689898989898989610de161176e565b611d75565b81600281518110610dfa57610df9613744565b5b602002602001018190525080915050979650505050505050565b6060826000811480610e2757506103e881115b15610e5e576040517f7de8fbf600000000000000000000000000000000000000000000000000000000815260040160405180910390fd5b610e808686610e77610e708a8a6112ad565b88886113be565b60008088610a96565b915050949350505050565b60606000600567ffffffffffffffff811115610eaa57610ea9612f5f565b5b604051908082528060200260200182016040528015610ee357816020015b610ed0612b58565b815260200190600190039081610ec85790505b5090506000610ef287876112ad565b90506000610f01828988611e46565b9050600080610f128a8a858a611fa9565b915091506000610f338b8b868c610f2991906137a7565b866000808e610c9d565b905081600081518110610f4957610f48613744565b5b602002602001015186600081518110610f6557610f64613744565b5b602002602001018190525081600181518110610f8457610f83613744565b5b602002602001015186600181518110610fa057610f9f613744565b5b602002602001018190525080600081518110610fbf57610fbe613744565b5b602002602001015186600281518110610fdb57610fda613744565b5b602002602001018190525080600181518110610ffa57610ff9613744565b5b60200260200101518660038151811061101657611015613744565b5b60200260200101819052508060028151811061103557611034613744565b5b60200260200101518660048151811061105157611050613744565b5b6020026020010181905250859650505050505050949350505050565b60006107ca6107cd8461108091906134b9565b6110bb623cda208561109291906134b9565b623cda29876110a191906134b9565b6110ab9190613773565b866110b691906134b9565b612221565b6110c591906137a7565b6110cf919061352a565b905092915050565b6103e881565b7f000000000000000000000000000000000000000000000000000000000000000081565b60606000861480156111135750600084145b1561114a576040517f2d1440d500000000000000000000000000000000000000000000000000000000815260040160405180910390fd5b600086036111a9576111a67f0000000000000000000000000000000000000000000000000000000000000000856111a18a7f00000000000000000000000000000000000000000000000000000000000000006112ad565b611bd5565b95505b600084036111e8576111e587876111e08a7f00000000000000000000000000000000000000000000000000000000000000006112ad565b611bd5565b93505b6000600267ffffffffffffffff81111561120557611204612f5f565b5b60405190808252806020026020018201604052801561123e57816020015b61122b612b58565b8152602001906001900390816112235790505b50905061124b88886116af565b8160008151811061125f5761125e613744565b5b602002602001018190525061128088868989888861127b61176e565b61229b565b8160018151811061129457611293613744565b5b6020026020010181905250809150509695505050505050565b6000807f000000000000000000000000000000000000000000000000000000000000000073ffffffffffffffffffffffffffffffffffffffff1663e6a4390585856040518363ffffffff1660e01b815260040161130b9291906137db565b602060405180830381865afa158015611328573d6000803e3d6000fd5b505050506040513d601f19601f8201168201806040525081019061134c9190613819565b9050600073ffffffffffffffffffffffffffffffffffffffff168173ffffffffffffffffffffffffffffffffffffffff16036113b4576040517f2a11ba8500000000000000000000000000000000000000000000000000000000815260040160405180910390fd5b8091505092915050565b6000808473ffffffffffffffffffffffffffffffffffffffff166370a08231846040518263ffffffff1660e01b81526004016113fa9190612ee2565b602060405180830381865afa158015611417573d6000803e3d6000fd5b505050506040513d601f19601f8201168201806040525081019061143b9190613846565b90506103e8818561144c91906134b9565b611456919061352a565b9150509392505050565b6000806000808573ffffffffffffffffffffffffffffffffffffffff16630902f1ac6040518163ffffffff1660e01b8152600401606060405180830381865afa1580156114b1573d6000803e3d6000fd5b505050506040513d601f19601f820116820180604052508101906114d591906138f5565b50915091506000808973ffffffffffffffffffffffffffffffffffffffff168873ffffffffffffffffffffffffffffffffffffffff16630dfe16816040518163ffffffff1660e01b8152600401602060405180830381865afa15801561153f573d6000803e3d6000fd5b505050506040513d601f19601f820116820180604052508101906115639190613819565b73ffffffffffffffffffffffffffffffffffffffff160361158957839150829050611590565b8291508390505b60008a73ffffffffffffffffffffffffffffffffffffffff166370a08231896040518263ffffffff1660e01b81526004016115cb9190612ee2565b602060405180830381865afa1580156115e8573d6000803e3d6000fd5b505050506040513d601f19601f8201168201806040525081019061160c9190613846565b905060008a73ffffffffffffffffffffffffffffffffffffffff166370a082318a6040518263ffffffff1660e01b81526004016116499190612ee2565b602060405180830381865afa158015611666573d6000803e3d6000fd5b505050506040513d601f19601f8201168201806040525081019061168a9190613846565b905061169884848484612366565b809850819950505050505050505094509492505050565b6116b7612b58565b60007f0000000000000000000000000000000000000000000000000000000000000000836040516024016116ec929190613948565b60405160208183030381529060405263095ea7b360e01b6020820180517bffffffffffffffffffffffffffffffffffffffffffffffffffffffff8381831617835250505050905060405180606001604052808573ffffffffffffffffffffffffffffffffffffffff168152602001600081526020018281525091505092915050565b6000601e4261177d9190613773565b905090565b61178a612b58565b60008787878787876040516024016117a796959493929190613971565b6040516020818303038152906040526302751cec60e01b6020820180517bffffffffffffffffffffffffffffffffffffffffffffffffffffffff8381831617835250505050905060405180606001604052807f000000000000000000000000000000000000000000000000000000000000000073ffffffffffffffffffffffffffffffffffffffff16815260200160008152602001828152509150509695505050505050565b6000806060600061187e7f0000000000000000000000000000000000000000000000000000000000000000896112ad565b905060008661188d57886118af565b7f00000000000000000000000000000000000000000000000000000000000000005b905060006118be83838b611e46565b905087156118ec576118d18a82896123fe565b809550819750505080896118e591906137a7565b945061190e565b6118f78a828961266c565b8095508196505050808961190b91906137a7565b95505b5050509450945094915050565b611923612b58565b60008888888888888860405160240161194297969594939291906139d2565b60405160208183030381529060405263baa2abde60e01b6020820180517bffffffffffffffffffffffffffffffffffffffffffffffffffffffff8381831617835250505050905060405180606001604052807f000000000000000000000000000000000000000000000000000000000000000073ffffffffffffffffffffffffffffffffffffffff1681526020016000815260200182815250915050979650505050505050565b6000806000808573ffffffffffffffffffffffffffffffffffffffff16630902f1ac6040518163ffffffff1660e01b8152600401606060405180830381865afa158015611a3a573d6000803e3d6000fd5b505050506040513d601f19601f82011682018060405250810190611a5e91906138f5565b50915091506000808873ffffffffffffffffffffffffffffffffffffffff168873ffffffffffffffffffffffffffffffffffffffff16630dfe16816040518163ffffffff1660e01b8152600401602060405180830381865afa158015611ac8573d6000803e3d6000fd5b505050506040513d601f19601f82011682018060405250810190611aec9190613819565b73ffffffffffffffffffffffffffffffffffffffff1603611b1257839150829050611b19565b8291508390505b60008973ffffffffffffffffffffffffffffffffffffffff166370a08231896040518263ffffffff1660e01b8152600401611b549190612ee2565b602060405180830381865afa158015611b71573d6000803e3d6000fd5b505050506040513d601f19601f82011682018060405250810190611b959190613846565b905060008873ffffffffffffffffffffffffffffffffffffffff16319050611bbf84848484612366565b8098508199505050505050505050935093915050565b6000808273ffffffffffffffffffffffffffffffffffffffff16630dfe16816040518163ffffffff1660e01b8152600401602060405180830381865afa158015611c23573d6000803e3d6000fd5b505050506040513d601f19601f82011682018060405250810190611c479190613819565b90506000808473ffffffffffffffffffffffffffffffffffffffff16630902f1ac6040518163ffffffff1660e01b8152600401606060405180830381865afa158015611c97573d6000803e3d6000fd5b505050506040513d601f19601f82011682018060405250810190611cbb91906138f5565b50915091508673ffffffffffffffffffffffffffffffffffffffff168373ffffffffffffffffffffffffffffffffffffffff1603611d3157816dffffffffffffffffffffffffffff16816dffffffffffffffffffffffffffff1687611d2091906134b9565b611d2a919061352a565b9350611d6b565b806dffffffffffffffffffffffffffff16826dffffffffffffffffffffffffffff1687611d5e91906134b9565b611d68919061352a565b93505b5050509392505050565b611d7d612b58565b60008989898989898989604051602401611d9e989796959493929190613a41565b60405160208183030381529060405263e8e3370060e01b6020820180517bffffffffffffffffffffffffffffffffffffffffffffffffffffffff8381831617835250505050905060405180606001604052807f000000000000000000000000000000000000000000000000000000000000000073ffffffffffffffffffffffffffffffffffffffff168152602001600081526020018281525091505098975050505050505050565b60008060008573ffffffffffffffffffffffffffffffffffffffff16630902f1ac6040518163ffffffff1660e01b8152600401606060405180830381865afa158015611e96573d6000803e3d6000fd5b505050506040513d601f19601f82011682018060405250810190611eba91906138f5565b506dffffffffffffffffffffffffffff1691506dffffffffffffffffffffffffffff1691508473ffffffffffffffffffffffffffffffffffffffff168673ffffffffffffffffffffffffffffffffffffffff16630dfe16816040518163ffffffff1660e01b8152600401602060405180830381865afa158015611f41573d6000803e3d6000fd5b505050506040513d601f19601f82011682018060405250810190611f659190613819565b73ffffffffffffffffffffffffffffffffffffffff1603611f9357611f8a828561106d565b92505050611fa2565b611f9d818561106d565b925050505b9392505050565b600060606000600267ffffffffffffffff811115611fca57611fc9612f5f565b5b60405190808252806020026020018201604052801561200357816020015b611ff0612b58565b815260200190600190039081611fe85790505b50905061201087866116af565b8160008151811061202457612023613744565b5b60200260200101819052506000600267ffffffffffffffff81111561204c5761204b612f5f565b5b60405190808252806020026020018201604052801561207a5781602001602082028036833780820191505090505b509050878160008151811061209257612091613744565b5b602002602001019073ffffffffffffffffffffffffffffffffffffffff16908173ffffffffffffffffffffffffffffffffffffffff168152505086816001815181106120e1576120e0613744565b5b602002602001019073ffffffffffffffffffffffffffffffffffffffff16908173ffffffffffffffffffffffffffffffffffffffff168152505060007f000000000000000000000000000000000000000000000000000000000000000073ffffffffffffffffffffffffffffffffffffffff1663d06ca61f88846040518363ffffffff1660e01b8152600401612178929190613b6e565b600060405180830381865afa158015612195573d6000803e3d6000fd5b505050506040513d6000823e3d601f19601f820116820180604052508101906121be9190613c66565b90506121d587600084896121d061176e565b612903565b836001815181106121e9576121e8613744565b5b60200260200101819052508060018151811061220857612207613744565b5b6020026020010151839450945050505094509492505050565b600060038211156122885781905060006001600284612240919061352a565b61224a9190613773565b90505b81811015612282578091506002818285612267919061352a565b6122719190613773565b61227b919061352a565b905061224d565b50612296565b6000821461229557600190505b5b919050565b6122a3612b58565b60008887878787876040516024016122c096959493929190613971565b60405160208183030381529060405263f305d71960e01b6020820180517bffffffffffffffffffffffffffffffffffffffffffffffffffffffff8381831617835250505050905060405180606001604052807f000000000000000000000000000000000000000000000000000000000000000073ffffffffffffffffffffffffffffffffffffffff16815260200189815260200182815250915050979650505050505050565b6000808391508290506000866dffffffffffffffffffffffffffff16866dffffffffffffffffffffffffffff168661239e91906134b9565b6123a8919061352a565b9050838111156123f057856dffffffffffffffffffffffffffff16876dffffffffffffffffffffffffffff16856123df91906134b9565b6123e9919061352a565b92506123f4565b8091505b5094509492505050565b600060606000600167ffffffffffffffff81111561241f5761241e612f5f565b5b60405190808252806020026020018201604052801561245857816020015b612445612b58565b81526020019060019003908161243d5790505b5090506000600267ffffffffffffffff81111561247857612477612f5f565b5b6040519080825280602002602001820160405280156124a65781602001602082028036833780820191505090505b5090507f0000000000000000000000000000000000000000000000000000000000000000816000815181106124de576124dd613744565b5b602002602001019073ffffffffffffffffffffffffffffffffffffffff16908173ffffffffffffffffffffffffffffffffffffffff1681525050868160018151811061252d5761252c613744565b5b602002602001019073ffffffffffffffffffffffffffffffffffffffff16908173ffffffffffffffffffffffffffffffffffffffff168152505060007f000000000000000000000000000000000000000000000000000000000000000073ffffffffffffffffffffffffffffffffffffffff1663d06ca61f88846040518363ffffffff1660e01b81526004016125c4929190613b6e565b600060405180830381865afa1580156125e1573d6000803e3d6000fd5b505050506040513d6000823e3d601f19601f8201168201806040525081019061260a9190613c66565b9050612621876000848961261c61176e565b6129cb565b8360008151811061263557612634613744565b5b60200260200101819052508060018151811061265457612653613744565b5b60200260200101518394509450505050935093915050565b600060606000600267ffffffffffffffff81111561268d5761268c612f5f565b5b6040519080825280602002602001820160405280156126c657816020015b6126b3612b58565b8152602001906001900390816126ab5790505b5090506126d386866116af565b816000815181106126e7576126e6613744565b5b60200260200101819052506000600267ffffffffffffffff81111561270f5761270e612f5f565b5b60405190808252806020026020018201604052801561273d5781602001602082028036833780820191505090505b509050868160008151811061275557612754613744565b5b602002602001019073ffffffffffffffffffffffffffffffffffffffff16908173ffffffffffffffffffffffffffffffffffffffff16815250507f0000000000000000000000000000000000000000000000000000000000000000816001815181106127c4576127c3613744565b5b602002602001019073ffffffffffffffffffffffffffffffffffffffff16908173ffffffffffffffffffffffffffffffffffffffff168152505060007f000000000000000000000000000000000000000000000000000000000000000073ffffffffffffffffffffffffffffffffffffffff1663d06ca61f88846040518363ffffffff1660e01b815260040161285b929190613b6e565b600060405180830381865afa158015612878573d6000803e3d6000fd5b505050506040513d6000823e3d601f19601f820116820180604052508101906128a19190613c66565b90506128b887600084896128b361176e565b612a90565b836001815181106128cc576128cb613744565b5b6020026020010181905250806001815181106128eb576128ea613744565b5b60200260200101518394509450505050935093915050565b61290b612b58565b60008686868686604051602401612926959493929190613caf565b6040516020818303038152906040526338ed173960e01b6020820180517bffffffffffffffffffffffffffffffffffffffffffffffffffffffff8381831617835250505050905060405180606001604052807f000000000000000000000000000000000000000000000000000000000000000073ffffffffffffffffffffffffffffffffffffffff168152602001600081526020018281525091505095945050505050565b6129d3612b58565b6000858585856040516024016129ec9493929190613d09565b604051602081830303815290604052637ff36ab560e01b6020820180517bffffffffffffffffffffffffffffffffffffffffffffffffffffffff8381831617835250505050905060405180606001604052807f000000000000000000000000000000000000000000000000000000000000000073ffffffffffffffffffffffffffffffffffffffff1681526020018881526020018281525091505095945050505050565b612a98612b58565b60008686868686604051602401612ab3959493929190613caf565b6040516020818303038152906040526318cbafe560e01b6020820180517bffffffffffffffffffffffffffffffffffffffffffffffffffffffff8381831617835250505050905060405180606001604052807f000000000000000000000000000000000000000000000000000000000000000073ffffffffffffffffffffffffffffffffffffffff168152602001600081526020018281525091505095945050505050565b6040518060600160405280600073ffffffffffffffffffffffffffffffffffffffff16815260200160008152602001606081525090565b6000604051905090565b600080fd5b600080fd5b600073ffffffffffffffffffffffffffffffffffffffff82169050919050565b6000612bce82612ba3565b9050919050565b612bde81612bc3565b8114612be957600080fd5b50565b600081359050612bfb81612bd5565b92915050565b6000819050919050565b612c1481612c01565b8114612c1f57600080fd5b50565b600081359050612c3181612c0b565b92915050565b600080600060608486031215612c5057612c4f612b99565b5b6000612c5e86828701612bec565b9350506020612c6f86828701612c22565b9250506040612c8086828701612bec565b9150509250925092565b600081519050919050565b600082825260208201905092915050565b6000819050602082019050919050565b612cbf81612bc3565b82525050565b612cce81612c01565b82525050565b600081519050919050565b600082825260208201905092915050565b60005b83811015612d0e578082015181840152602081019050612cf3565b60008484015250505050565b6000601f19601f8301169050919050565b6000612d3682612cd4565b612d408185612cdf565b9350612d50818560208601612cf0565b612d5981612d1a565b840191505092915050565b6000606083016000830151612d7c6000860182612cb6565b506020830151612d8f6020860182612cc5565b5060408301518482036040860152612da78282612d2b565b9150508091505092915050565b6000612dc08383612d64565b905092915050565b6000602082019050919050565b6000612de082612c8a565b612dea8185612c95565b935083602082028501612dfc85612ca6565b8060005b85811015612e385784840389528151612e198582612db4565b9450612e2483612dc8565b925060208a01995050600181019050612e00565b50829750879550505050505092915050565b60006020820190508181036000830152612e648184612dd5565b905092915050565b60008060008060808587031215612e8657612e85612b99565b5b6000612e9487828801612bec565b9450506020612ea587828801612bec565b9350506040612eb687828801612c22565b9250506060612ec787828801612bec565b91505092959194509250565b612edc81612bc3565b82525050565b6000602082019050612ef76000830184612ed3565b92915050565b60007fffffffff0000000000000000000000000000000000000000000000000000000082169050919050565b612f3281612efd565b8114612f3d57600080fd5b50565b600081359050612f4f81612f29565b92915050565b600080fd5b600080fd5b7f4e487b7100000000000000000000000000000000000000000000000000000000600052604160045260246000fd5b612f9782612d1a565b810181811067ffffffffffffffff82111715612fb657612fb5612f5f565b5b80604052505050565b6000612fc9612b8f565b9050612fd58282612f8e565b919050565b600067ffffffffffffffff821115612ff557612ff4612f5f565b5b612ffe82612d1a565b9050602081019050919050565b82818337600083830152505050565b600061302d61302884612fda565b612fbf565b90508281526020810184848401111561304957613048612f5a565b5b61305484828561300b565b509392505050565b600082601f83011261307157613070612f55565b5b813561308184826020860161301a565b91505092915050565b600080604083850312156130a1576130a0612b99565b5b60006130af85828601612f40565b925050602083013567ffffffffffffffff8111156130d0576130cf612b9e565b5b6130dc8582860161305c565b9150509250929050565b6130ef81612c01565b82525050565b600060208201905061310a60008301846130e6565b92915050565b600080600080600060a0868803121561312c5761312b612b99565b5b600061313a88828901612bec565b955050602061314b88828901612c22565b945050604061315c88828901612c22565b935050606061316d88828901612c22565b925050608061317e88828901612bec565b9150509295509295909350565b60008115159050919050565b6131a08161318b565b81146131ab57600080fd5b50565b6000813590506131bd81613197565b92915050565b600080600080608085870312156131dd576131dc612b99565b5b60006131eb87828801612bec565b94505060206131fc87828801612c22565b935050604061320d878288016131ae565b925050606061321e87828801612bec565b91505092959194509250565b6000602082840312156132405761323f612b99565b5b600061324e84828501612f40565b91505092915050565b600060ff82169050919050565b61326d81613257565b82525050565b60006020820190506132886000830184613264565b92915050565b60008060008060008060c087890312156132ab576132aa612b99565b5b60006132b989828a01612bec565b96505060206132ca89828a01612bec565b95505060406132db89828a01612c22565b94505060606132ec89828a01612c22565b93505060806132fd89828a01612c22565b92505060a061330e89828a01612bec565b9150509295509295509295565b600080600080600080600060e0888a03121561333a57613339612b99565b5b60006133488a828b01612bec565b97505060206133598a828b01612bec565b965050604061336a8a828b01612c22565b955050606061337b8a828b01612c22565b945050608061338c8a828b01612c22565b93505060a061339d8a828b01612c22565b92505060c06133ae8a828b01612bec565b91505092959891949750929550565b600080604083850312156133d4576133d3612b99565b5b60006133e285828601612c22565b92505060206133f385828601612c22565b9150509250929050565b60008060008060008060c0878903121561341a57613419612b99565b5b600061342889828a01612bec565b965050602061343989828a01612c22565b955050604061344a89828a01612c22565b945050606061345b89828a01612c22565b935050608061346c89828a01612c22565b92505060a061347d89828a01612bec565b9150509295509295509295565b7f4e487b7100000000000000000000000000000000000000000000000000000000600052601160045260246000fd5b60006134c482612c01565b91506134cf83612c01565b92508282026134dd81612c01565b915082820484148315176134f4576134f361348a565b5b5092915050565b7f4e487b7100000000000000000000000000000000000000000000000000000000600052601260045260246000fd5b600061353582612c01565b915061354083612c01565b9250826135505761354f6134fb565b5b828204905092915050565b600061356682612ba3565b9050919050565b6135768161355b565b811461358157600080fd5b50565b6000815190506135938161356d565b92915050565b6000815190506135a881612c0b565b92915050565b600080600080600080600060e0888a0312156135cd576135cc612b99565b5b60006135db8a828b01613584565b97505060206135ec8a828b01613584565b96505060406135fd8a828b01613599565b955050606061360e8a828b01613599565b945050608061361f8a828b01613599565b93505060a06136308a828b01613599565b92505060c06136418a828b01613584565b91505092959891949750929550565b60008060008060008060c0878903121561366d5761366c612b99565b5b600061367b89828a01613584565b965050602061368c89828a01613584565b955050604061369d89828a01613599565b94505060606136ae89828a01613599565b93505060806136bf89828a01613599565b92505060a06136d089828a01613584565b9150509295509295509295565b600080600080608085870312156136f7576136f6612b99565b5b600061370587828801613584565b945050602061371687828801613584565b935050604061372787828801613599565b925050606061373887828801613584565b91505092959194509250565b7f4e487b7100000000000000000000000000000000000000000000000000000000600052603260045260246000fd5b600061377e82612c01565b915061378983612c01565b92508282019050808211156137a1576137a061348a565b5b92915050565b60006137b282612c01565b91506137bd83612c01565b92508282039050818111156137d5576137d461348a565b5b92915050565b60006040820190506137f06000830185612ed3565b6137fd6020830184612ed3565b9392505050565b60008151905061381381612bd5565b92915050565b60006020828403121561382f5761382e612b99565b5b600061383d84828501613804565b91505092915050565b60006020828403121561385c5761385b612b99565b5b600061386a84828501613599565b91505092915050565b60006dffffffffffffffffffffffffffff82169050919050565b61389681613873565b81146138a157600080fd5b50565b6000815190506138b38161388d565b92915050565b600063ffffffff82169050919050565b6138d2816138b9565b81146138dd57600080fd5b50565b6000815190506138ef816138c9565b92915050565b60008060006060848603121561390e5761390d612b99565b5b600061391c868287016138a4565b935050602061392d868287016138a4565b925050604061393e868287016138e0565b9150509250925092565b600060408201905061395d6000830185612ed3565b61396a60208301846130e6565b9392505050565b600060c0820190506139866000830189612ed3565b61399360208301886130e6565b6139a060408301876130e6565b6139ad60608301866130e6565b6139ba6080830185612ed3565b6139c760a08301846130e6565b979650505050505050565b600060e0820190506139e7600083018a612ed3565b6139f46020830189612ed3565b613a0160408301886130e6565b613a0e60608301876130e6565b613a1b60808301866130e6565b613a2860a0830185612ed3565b613a3560c08301846130e6565b98975050505050505050565b600061010082019050613a57600083018b612ed3565b613a64602083018a612ed3565b613a7160408301896130e6565b613a7e60608301886130e6565b613a8b60808301876130e6565b613a9860a08301866130e6565b613aa560c0830185612ed3565b613ab260e08301846130e6565b9998505050505050505050565b600081519050919050565b600082825260208201905092915050565b6000819050602082019050919050565b6000613af78383612cb6565b60208301905092915050565b6000602082019050919050565b6000613b1b82613abf565b613b258185613aca565b9350613b3083613adb565b8060005b83811015613b61578151613b488882613aeb565b9750613b5383613b03565b925050600181019050613b34565b5085935050505092915050565b6000604082019050613b8360008301856130e6565b8181036020830152613b958184613b10565b90509392505050565b600067ffffffffffffffff821115613bb957613bb8612f5f565b5b602082029050602081019050919050565b600080fd5b6000613be2613bdd84613b9e565b612fbf565b90508083825260208201905060208402830185811115613c0557613c04613bca565b5b835b81811015613c2e5780613c1a8882613599565b845260208401935050602081019050613c07565b5050509392505050565b600082601f830112613c4d57613c4c612f55565b5b8151613c5d848260208601613bcf565b91505092915050565b600060208284031215613c7c57613c7b612b99565b5b600082015167ffffffffffffffff811115613c9a57613c99612b9e565b5b613ca684828501613c38565b91505092915050565b600060a082019050613cc460008301886130e6565b613cd160208301876130e6565b8181036040830152613ce38186613b10565b9050613cf26060830185612ed3565b613cff60808301846130e6565b9695505050505050565b6000608082019050613d1e60008301876130e6565b8181036020830152613d308186613b10565b9050613d3f6040830185612ed3565b613d4c60608301846130e6565b9594505050505056fea26469706673582212203945c44622a1d91bfccc3c8e8e0be02e7bf9ee48a6137fa6ded78cda55e7aa8d64736f6c634300081c0033",
  "linkReferences": {},
  "deployedLinkReferences": {}
}