{
  "_format": "hh-sol-artifact-1",
  "contractName": "UniswapV2SwapActions",
  "sourceName": "contracts/action/UniswapV2SwapActions.sol",
  "abi": [
    {
      "inputs": [
        {
          "internalType": "address",
          "name": "_router",
          "type": "address"
        }
      ],
      "stateMutability": "nonpayable",
      "type": "constructor"
    },
    {
      "inputs": [],
      "name": "FailedToApproveTokens",
      "type": "error"
    },
    {
      "inputs": [],
      "name": "InvalidTokenGetterID",
      "type": "error"
    },
    {
      "inputs": [],
      "name": "NoValidPercentageAmount",
      "type": "error"
    },
    {
      "inputs": [],
      "name": "NoZeroAmountValid",
      "type": "error"
    },
    {
      "inputs": [],
      "name": "NotZeroAmountForBothTokensAllowed",
      "type": "error"
    },
    {
      "inputs": [],
      "name": "PoolPairDoesNotExist",
      "type": "error"
    },
    {
      "inputs": [],
      "name": "DELTA_DEADLINE",
      "outputs": [
        {
          "internalType": "uint256",
          "name": "",
          "type": "uint256"
        }
      ],
      "stateMutability": "view",
      "type": "function"
    },
    {
      "inputs": [],
      "name": "PERCENTAGE_FACTOR",
      "outputs": [
        {
          "internalType": "uint256",
          "name": "",
          "type": "uint256"
        }
      ],
      "stateMutability": "view",
      "type": "function"
    },
    {
      "inputs": [],
      "name": "WETH",
      "outputs": [
        {
          "internalType": "address",
          "name": "",
          "type": "address"
        }
      ],
      "stateMutability": "view",
      "type": "function"
    },
    {
      "inputs": [
        {
          "internalType": "uint256",
          "name": "r",
          "type": "uint256"
        },
        {
          "internalType": "uint256",
          "name": "a",
          "type": "uint256"
        }
      ],
      "name": "_getSwapAmount",
      "outputs": [
        {
          "internalType": "uint256",
          "name": "",
          "type": "uint256"
        }
      ],
      "stateMutability": "pure",
      "type": "function"
    },
    {
      "inputs": [],
      "name": "factory",
      "outputs": [
        {
          "internalType": "address",
          "name": "",
          "type": "address"
        }
      ],
      "stateMutability": "view",
      "type": "function"
    },
    {
      "inputs": [
        {
          "internalType": "bytes4",
          "name": "selector",
          "type": "bytes4"
        },
        {
          "internalType": "bytes",
          "name": "params",
          "type": "bytes"
        }
      ],
      "name": "getTokenForSelector",
      "outputs": [
        {
          "internalType": "address",
          "name": "",
          "type": "address"
        }
      ],
      "stateMutability": "view",
      "type": "function"
    },
    {
      "inputs": [],
      "name": "router",
      "outputs": [
        {
          "internalType": "address",
          "name": "",
          "type": "address"
        }
      ],
      "stateMutability": "view",
      "type": "function"
    },
    {
      "inputs": [
        {
          "internalType": "bytes4",
          "name": "interfaceId",
          "type": "bytes4"
        }
      ],
      "name": "supportsInterface",
      "outputs": [
        {
          "internalType": "bool",
          "name": "",
          "type": "bool"
        }
      ],
      "stateMutability": "pure",
      "type": "function"
    },
    {
      "inputs": [
        {
          "internalType": "uint256",
          "name": "amountOut",
          "type": "uint256"
        },
        {
          "internalType": "uint256",
          "name": "amountInMax",
          "type": "uint256"
        },
        {
          "internalType": "address[]",
          "name": "path",
          "type": "address[]"
        },
        {
          "internalType": "address",
          "name": "to",
          "type": "address"
        }
      ],
      "name": "swapETHForExactTokens",
      "outputs": [
        {
          "components": [
            {
              "internalType": "address",
              "name": "target",
              "type": "address"
            },
            {
              "internalType": "uint256",
              "name": "value",
              "type": "uint256"
            },
            {
              "internalType": "bytes",
              "name": "data",
              "type": "bytes"
            }
          ],
          "internalType": "struct IAction.PluginExecution[]",
          "name": "",
          "type": "tuple[]"
        }
      ],
      "stateMutability": "view",
      "type": "function"
    },
    {
      "inputs": [
        {
          "internalType": "uint256",
          "name": "amountIn",
          "type": "uint256"
        },
        {
          "internalType": "uint256",
          "name": "amountOutMin",
          "type": "uint256"
        },
        {
          "internalType": "address[]",
          "name": "path",
          "type": "address[]"
        },
        {
          "internalType": "address",
          "name": "to",
          "type": "address"
        }
      ],
      "name": "swapExactETHForTokens",
      "outputs": [
        {
          "components": [
            {
              "internalType": "address",
              "name": "target",
              "type": "address"
            },
            {
              "internalType": "uint256",
              "name": "value",
              "type": "uint256"
            },
            {
              "internalType": "bytes",
              "name": "data",
              "type": "bytes"
            }
          ],
          "internalType": "struct IAction.PluginExecution[]",
          "name": "",
          "type": "tuple[]"
        }
      ],
      "stateMutability": "view",
      "type": "function"
    },
    {
      "inputs": [
        {
          "internalType": "uint256",
          "name": "amountIn",
          "type": "uint256"
        },
        {
          "internalType": "uint256",
          "name": "amountOutMin",
          "type": "uint256"
        },
        {
          "internalType": "address[]",
          "name": "path",
          "type": "address[]"
        },
        {
          "internalType": "address",
          "name": "to",
          "type": "address"
        }
      ],
      "name": "swapExactTokensForETH",
      "outputs": [
        {
          "components": [
            {
              "internalType": "address",
              "name": "target",
              "type": "address"
            },
            {
              "internalType": "uint256",
              "name": "value",
              "type": "uint256"
            },
            {
              "internalType": "bytes",
              "name": "data",
              "type": "bytes"
            }
          ],
          "internalType": "struct IAction.PluginExecution[]",
          "name": "",
          "type": "tuple[]"
        }
      ],
      "stateMutability": "view",
      "type": "function"
    },
    {
      "inputs": [
        {
          "internalType": "uint256",
          "name": "amountIn",
          "type": "uint256"
        },
        {
          "internalType": "uint256",
          "name": "amountOutMin",
          "type": "uint256"
        },
        {
          "internalType": "address[]",
          "name": "path",
          "type": "address[]"
        },
        {
          "internalType": "address",
          "name": "to",
          "type": "address"
        }
      ],
      "name": "swapExactTokensForTokens",
      "outputs": [
        {
          "components": [
            {
              "internalType": "address",
              "name": "target",
              "type": "address"
            },
            {
              "internalType": "uint256",
              "name": "value",
              "type": "uint256"
            },
            {
              "internalType": "bytes",
              "name": "data",
              "type": "bytes"
            }
          ],
          "internalType": "struct IAction.PluginExecution[]",
          "name": "",
          "type": "tuple[]"
        }
      ],
      "stateMutability": "view",
      "type": "function"
    },
    {
      "inputs": [
        {
          "internalType": "uint256",
          "name": "percentage",
          "type": "uint256"
        },
        {
          "internalType": "address[]",
          "name": "path",
          "type": "address[]"
        },
        {
          "internalType": "address",
          "name": "to",
          "type": "address"
        }
      ],
      "name": "swapPercentageETHForTokens",
      "outputs": [
        {
          "components": [
            {
              "internalType": "address",
              "name": "target",
              "type": "address"
            },
            {
              "internalType": "uint256",
              "name": "value",
              "type": "uint256"
            },
            {
              "internalType": "bytes",
              "name": "data",
              "type": "bytes"
            }
          ],
          "internalType": "struct IAction.PluginExecution[]",
          "name": "",
          "type": "tuple[]"
        }
      ],
      "stateMutability": "view",
      "type": "function"
    },
    {
      "inputs": [
        {
          "internalType": "uint256",
          "name": "percentage",
          "type": "uint256"
        },
        {
          "internalType": "address[]",
          "name": "path",
          "type": "address[]"
        },
        {
          "internalType": "address",
          "name": "to",
          "type": "address"
        }
      ],
      "name": "swapPercentageTokensForETH",
      "outputs": [
        {
          "components": [
            {
              "internalType": "address",
              "name": "target",
              "type": "address"
            },
            {
              "internalType": "uint256",
              "name": "value",
              "type": "uint256"
            },
            {
              "internalType": "bytes",
              "name": "data",
              "type": "bytes"
            }
          ],
          "internalType": "struct IAction.PluginExecution[]",
          "name": "",
          "type": "tuple[]"
        }
      ],
      "stateMutability": "view",
      "type": "function"
    },
    {
      "inputs": [
        {
          "internalType": "uint256",
          "name": "percentage",
          "type": "uint256"
        },
        {
          "internalType": "address[]",
          "name": "path",
          "type": "address[]"
        },
        {
          "internalType": "address",
          "name": "to",
          "type": "address"
        }
      ],
      "name": "swapPercentageTokensForTokens",
      "outputs": [
        {
          "components": [
            {
              "internalType": "address",
              "name": "target",
              "type": "address"
            },
            {
              "internalType": "uint256",
              "name": "value",
              "type": "uint256"
            },
            {
              "internalType": "bytes",
              "name": "data",
              "type": "bytes"
            }
          ],
          "internalType": "struct IAction.PluginExecution[]",
          "name": "",
          "type": "tuple[]"
        }
      ],
      "stateMutability": "view",
      "type": "function"
    },
    {
      "inputs": [
        {
          "internalType": "uint256",
          "name": "amountOut",
          "type": "uint256"
        },
        {
          "internalType": "uint256",
          "name": "amountInMax",
          "type": "uint256"
        },
        {
          "internalType": "address[]",
          "name": "path",
          "type": "address[]"
        },
        {
          "internalType": "address",
          "name": "to",
          "type": "address"
        }
      ],
      "name": "swapTokensForExactETH",
      "outputs": [
        {
          "components": [
            {
              "internalType": "address",
              "name": "target",
              "type": "address"
            },
            {
              "internalType": "uint256",
              "name": "value",
              "type": "uint256"
            },
            {
              "internalType": "bytes",
              "name": "data",
              "type": "bytes"
            }
          ],
          "internalType": "struct IAction.PluginExecution[]",
          "name": "",
          "type": "tuple[]"
        }
      ],
      "stateMutability": "view",
      "type": "function"
    },
    {
      "inputs": [
        {
          "internalType": "uint256",
          "name": "amountOut",
          "type": "uint256"
        },
        {
          "internalType": "uint256",
          "name": "amountInMax",
          "type": "uint256"
        },
        {
          "internalType": "address[]",
          "name": "path",
          "type": "address[]"
        },
        {
          "internalType": "address",
          "name": "to",
          "type": "address"
        }
      ],
      "name": "swapTokensForExactTokens",
      "outputs": [
        {
          "components": [
            {
              "internalType": "address",
              "name": "target",
              "type": "address"
            },
            {
              "internalType": "uint256",
              "name": "value",
              "type": "uint256"
            },
            {
              "internalType": "bytes",
              "name": "data",
              "type": "bytes"
            }
          ],
          "internalType": "struct IAction.PluginExecution[]",
          "name": "",
          "type": "tuple[]"
        }
      ],
      "stateMutability": "view",
      "type": "function"
    },
    {
      "inputs": [
        {
          "internalType": "bytes4",
          "name": "",
          "type": "bytes4"
        }
      ],
      "name": "tokenGetterIDs",
      "outputs": [
        {
          "internalType": "uint8",
          "name": "",
          "type": "uint8"
        }
      ],
      "stateMutability": "view",
      "type": "function"
    },
    {
      "inputs": [],
      "name": "uniswapV2RouterAddress",
      "outputs": [
        {
          "internalType": "address",
          "name": "",
          "type": "address"
        }
      ],
      "stateMutability": "view",
      "type": "function"
    }
  ],
  "bytecode": "0x60e060405234801561001057600080fd5b50604051612de5380380612de583398181016040528101906100329190610612565b808073ffffffffffffffffffffffffffffffffffffffff1660808173ffffffffffffffffffffffffffffffffffffffff168152505060805173ffffffffffffffffffffffffffffffffffffffff1663ad5c46486040518163ffffffff1660e01b8152600401602060405180830381865afa1580156100b4573d6000803e3d6000fd5b505050506040513d601f19601f820116820180604052508101906100d89190610612565b73ffffffffffffffffffffffffffffffffffffffff1660c08173ffffffffffffffffffffffffffffffffffffffff168152505060805173ffffffffffffffffffffffffffffffffffffffff1663c45a01556040518163ffffffff1660e01b8152600401602060405180830381865afa158015610158573d6000803e3d6000fd5b505050506040513d601f19601f8201168201806040525081019061017c9190610612565b73ffffffffffffffffffffffffffffffffffffffff1660a08173ffffffffffffffffffffffffffffffffffffffff1681525050506001600080636b213fe960e01b7bffffffffffffffffffffffffffffffffffffffffffffffffffffffff19167bffffffffffffffffffffffffffffffffffffffffffffffffffffffff1916815260200190815260200160002060006101000a81548160ff021916908360ff1602179055506001600080632d4eaa7b60e01b7bffffffffffffffffffffffffffffffffffffffffffffffffffffffff19167bffffffffffffffffffffffffffffffffffffffffffffffffffffffff1916815260200190815260200160002060006101000a81548160ff021916908360ff160217905550600160008063e244e1ff60e01b7bffffffffffffffffffffffffffffffffffffffffffffffffffffffff19167bffffffffffffffffffffffffffffffffffffffffffffffffffffffff1916815260200190815260200160002060006101000a81548160ff021916908360ff160217905550600260008063363db5c660e01b7bffffffffffffffffffffffffffffffffffffffffffffffffffffffff19167bffffffffffffffffffffffffffffffffffffffffffffffffffffffff1916815260200190815260200160002060006101000a81548160ff021916908360ff1602179055506002600080633e8877ed60e01b7bffffffffffffffffffffffffffffffffffffffffffffffffffffffff19167bffffffffffffffffffffffffffffffffffffffffffffffffffffffff1916815260200190815260200160002060006101000a81548160ff021916908360ff160217905550600260008063472b43f360e01b7bffffffffffffffffffffffffffffffffffffffffffffffffffffffff19167bffffffffffffffffffffffffffffffffffffffffffffffffffffffff1916815260200190815260200160002060006101000a81548160ff021916908360ff16021790555060026000806342712a6760e01b7bffffffffffffffffffffffffffffffffffffffffffffffffffffffff19167bffffffffffffffffffffffffffffffffffffffffffffffffffffffff1916815260200190815260200160002060006101000a81548160ff021916908360ff1602179055506003600080630b0a6ca360e01b7bffffffffffffffffffffffffffffffffffffffffffffffffffffffff19167bffffffffffffffffffffffffffffffffffffffffffffffffffffffff1916815260200190815260200160002060006101000a81548160ff021916908360ff1602179055506003600080633e100f8760e01b7bffffffffffffffffffffffffffffffffffffffffffffffffffffffff19167bffffffffffffffffffffffffffffffffffffffffffffffffffffffff1916815260200190815260200160002060006101000a81548160ff021916908360ff1602179055505061063f565b600080fd5b600073ffffffffffffffffffffffffffffffffffffffff82169050919050565b60006105df826105b4565b9050919050565b6105ef816105d4565b81146105fa57600080fd5b50565b60008151905061060c816105e6565b92915050565b600060208284031215610628576106276105af565b5b6000610636848285016105fd565b91505092915050565b60805160a05160c0516127386106ad6000396000610f2501526000610f69015260008181610d3e01528181611175015281816112c20152818161131e015281816114480152818161149d015281816115d60152818161169e01528181611766015261186b01526127386000f3fe608060405234801561001057600080fd5b50600436106101215760003560e01c80635581161b116100ad578063c45a015511610071578063c45a015514610390578063e244e1ff146103ae578063ecc861d0146103de578063ee01e5e71461040e578063f887ea401461042c57610121565b80635581161b146102c4578063617b595a146102f45780636b213fe914610312578063ad5c464814610342578063b1d613681461036057610121565b80633e100f87116100f45780633e100f87146101e65780633e8877ed1461021657806342712a6714610246578063472b43f3146102765780634a377e1d146102a657610121565b806301ffc9a7146101265780630b0a6ca3146101565780632d4eaa7b14610186578063363db5c6146101b6575b600080fd5b610140600480360381019061013b91906119d8565b61044a565b60405161014d9190611a20565b60405180910390f35b610170600480360381019061016b9190611b34565b610494565b60405161017d9190611d68565b60405180910390f35b6101a0600480360381019061019b9190611d8a565b610529565b6040516101ad9190611d68565b60405180910390f35b6101d060048036038101906101cb9190611d8a565b610641565b6040516101dd9190611d68565b60405180910390f35b61020060048036038101906101fb9190611b34565b6107aa565b60405161020d9190611d68565b60405180910390f35b610230600480360381019061022b9190611d8a565b61083f565b60405161023d9190611d68565b60405180910390f35b610260600480360381019061025b9190611d8a565b610a08565b60405161026d9190611d68565b60405180910390f35b610290600480360381019061028b9190611d8a565b610bd1565b60405161029d9190611d68565b60405180910390f35b6102ae610d3a565b6040516102bb9190611e21565b60405180910390f35b6102de60048036038101906102d99190611f6c565b610d62565b6040516102eb9190611e21565b60405180910390f35b6102fc610eb2565b6040516103099190611fd7565b60405180910390f35b61032c60048036038101906103279190611b34565b610eb7565b6040516103399190611d68565b60405180910390f35b61034a610f23565b6040516103579190611e21565b60405180910390f35b61037a600480360381019061037591906119d8565b610f47565b604051610387919061200e565b60405180910390f35b610398610f67565b6040516103a59190611e21565b60405180910390f35b6103c860048036038101906103c39190611d8a565b610f8b565b6040516103d59190611d68565b60405180910390f35b6103f860048036038101906103f39190612029565b611103565b6040516104059190611fd7565b60405180910390f35b61041661116d565b6040516104239190611fd7565b60405180910390f35b610434611173565b6040516104419190611e21565b60405180910390f35b6000807bffffffffffffffffffffffffffffffffffffffffffffffffffffffff1916827bffffffffffffffffffffffffffffffffffffffffffffffffffffffff1916149050919050565b60608460008114806104a757506103e881115b156104de576040517f7de8fbf600000000000000000000000000000000000000000000000000000000815260040160405180910390fd5b61051e610514868660008181106104f8576104f7612069565b5b905060200201602081019061050d9190612098565b8886611197565b6000878787610641565b915050949350505050565b60608560008103610566576040517fded7302c00000000000000000000000000000000000000000000000000000000815260040160405180910390fd5b6000600167ffffffffffffffff81111561058357610582611e41565b5b6040519080825280602002602001820160405280156105bc57816020015b6105a9611935565b8152602001906001900390816105a15790505b5090506106148888888880806020026020016040519081016040528093929190818152602001838360200280828437600081840152601f19601f820116905080830192505050505050508761060f611239565b61124d565b8160008151811061062857610627612069565b5b6020026020010181905250809250505095945050505050565b6060856000810361067e576040517fded7302c00000000000000000000000000000000000000000000000000000000815260040160405180910390fd5b6000600267ffffffffffffffff81111561069b5761069a611e41565b5b6040519080825280602002602001820160405280156106d457816020015b6106c1611935565b8152602001906001900390816106b95790505b509050610709868660008181106106ee576106ed612069565b5b90506020020160208101906107039190612098565b89611312565b8160008151811061071d5761071c612069565b5b602002602001018190525061077d8888888880806020026020016040519081016040528093929190818152602001838360200280828437600081840152601f19601f8201169050808301925050505050505087610778611239565b6113d1565b8160018151811061079157610790612069565b5b6020026020010181905250809250505095945050505050565b60608460008114806107bd57506103e881115b156107f4576040517f7de8fbf600000000000000000000000000000000000000000000000000000000815260040160405180910390fd5b61083461082a8686600081811061080e5761080d612069565b5b90506020020160208101906108239190612098565b8886611197565b6000878787610bd1565b915050949350505050565b6060856000810361087c576040517fded7302c00000000000000000000000000000000000000000000000000000000815260040160405180910390fd5b60008087036108d7576108d0868680806020026020016040519081016040528093929190818152602001838360200280828437600081840152601f19601f8201169050808301925050505050505089611499565b90506108db565b8690505b6000600267ffffffffffffffff8111156108f8576108f7611e41565b5b60405190808252806020026020018201604052801561093157816020015b61091e611935565b8152602001906001900390816109165790505b5090506109668787600081811061094b5761094a612069565b5b90506020020160208101906109609190612098565b83611312565b8160008151811061097a57610979612069565b5b60200260200101819052506109da8983898980806020026020016040519081016040528093929190818152602001838360200280828437600081840152601f19601f82011690508083019250505050505050886109d5611239565b61155f565b816001815181106109ee576109ed612069565b5b602002602001018190525080935050505095945050505050565b60608560008103610a45576040517fded7302c00000000000000000000000000000000000000000000000000000000815260040160405180910390fd5b6000808703610aa057610a99868680806020026020016040519081016040528093929190818152602001838360200280828437600081840152601f19601f8201169050808301925050505050505089611499565b9050610aa4565b8690505b6000600267ffffffffffffffff811115610ac157610ac0611e41565b5b604051908082528060200260200182016040528015610afa57816020015b610ae7611935565b815260200190600190039081610adf5790505b509050610b2f87876000818110610b1457610b13612069565b5b9050602002016020810190610b299190612098565b83611312565b81600081518110610b4357610b42612069565b5b6020026020010181905250610ba38983898980806020026020016040519081016040528093929190818152602001838360200280828437600081840152601f19601f8201169050808301925050505050505088610b9e611239565b611627565b81600181518110610bb757610bb6612069565b5b602002602001018190525080935050505095945050505050565b60608560008103610c0e576040517fded7302c00000000000000000000000000000000000000000000000000000000815260040160405180910390fd5b6000600267ffffffffffffffff811115610c2b57610c2a611e41565b5b604051908082528060200260200182016040528015610c6457816020015b610c51611935565b815260200190600190039081610c495790505b509050610c9986866000818110610c7e57610c7d612069565b5b9050602002016020810190610c939190612098565b89611312565b81600081518110610cad57610cac612069565b5b6020026020010181905250610d0d8888888880806020026020016040519081016040528093929190818152602001838360200280828437600081840152601f19601f8201169050808301925050505050505087610d08611239565b6116ef565b81600181518110610d2157610d20612069565b5b6020026020010181905250809250505095945050505050565b60007f0000000000000000000000000000000000000000000000000000000000000000905090565b600080600080857bffffffffffffffffffffffffffffffffffffffffffffffffffffffff19167bffffffffffffffffffffffffffffffffffffffffffffffffffffffff1916815260200190815260200160002060009054906101000a900460ff16905060008160ff161480610dda575060038160ff16115b15610e11576040517fae563a1f00000000000000000000000000000000000000000000000000000000815260040160405180910390fd5b60018160ff1603610e26576000915050610eac565b60028160ff1603610e7157600083806020019051810190610e4791906121f0565b509250505080600081518110610e6057610e5f612069565b5b602002602001015192505050610eac565b600083806020019051810190610e879190612273565b5091505080600081518110610e9f57610e9e612069565b5b6020026020010151925050505b92915050565b601e81565b6060846000811480610eca57506103e881115b15610f01576040517f7de8fbf600000000000000000000000000000000000000000000000000000000815260040160405180910390fd5b610f18610f0e87856117b7565b6000878787610529565b915050949350505050565b7f000000000000000000000000000000000000000000000000000000000000000081565b60006020528060005260406000206000915054906101000a900460ff1681565b7f000000000000000000000000000000000000000000000000000000000000000081565b60608560008103610fc8576040517fded7302c00000000000000000000000000000000000000000000000000000000815260040160405180910390fd5b6000600167ffffffffffffffff811115610fe557610fe4611e41565b5b60405190808252806020026020018201604052801561101e57816020015b61100b611935565b8152602001906001900390816110035790505b509050600080880361107c57611075878780806020026020016040519081016040528093929190818152602001838360200280828437600081840152601f19601f820116905080830192505050505050508a611499565b9050611080565b8790505b6110d5818a898980806020026020016040519081016040528093929190818152602001838360200280828437600081840152601f19601f82011690508083019250505050505050886110d0611239565b6117f6565b826000815181106110e9576110e8612069565b5b602002602001018190525081935050505095945050505050565b60006107ca6107cd846111169190612311565b611151623cda20856111289190612311565b623cda29876111379190612311565b6111419190612353565b8661114c9190612311565b6118bb565b61115b9190612387565b61116591906123ea565b905092915050565b6103e881565b7f000000000000000000000000000000000000000000000000000000000000000081565b6000808473ffffffffffffffffffffffffffffffffffffffff166370a08231846040518263ffffffff1660e01b81526004016111d39190611e21565b602060405180830381865afa1580156111f0573d6000803e3d6000fd5b505050506040513d601f19601f82011682018060405250810190611214919061241b565b90506103e881856112259190612311565b61122f91906123ea565b9150509392505050565b6000601e426112489190612353565b905090565b611255611935565b60008585858560405160240161126e94939291906124f7565b604051602081830303815290604052637ff36ab560e01b6020820180517bffffffffffffffffffffffffffffffffffffffffffffffffffffffff8381831617835250505050905060405180606001604052807f000000000000000000000000000000000000000000000000000000000000000073ffffffffffffffffffffffffffffffffffffffff1681526020018881526020018281525091505095945050505050565b61131a611935565b60007f00000000000000000000000000000000000000000000000000000000000000008360405160240161134f929190612543565b60405160208183030381529060405263095ea7b360e01b6020820180517bffffffffffffffffffffffffffffffffffffffffffffffffffffffff8381831617835250505050905060405180606001604052808573ffffffffffffffffffffffffffffffffffffffff168152602001600081526020018281525091505092915050565b6113d9611935565b600086868686866040516024016113f495949392919061256c565b6040516020818303038152906040526318cbafe560e01b6020820180517bffffffffffffffffffffffffffffffffffffffffffffffffffffffff8381831617835250505050905060405180606001604052807f000000000000000000000000000000000000000000000000000000000000000073ffffffffffffffffffffffffffffffffffffffff168152602001600081526020018281525091505095945050505050565b60007f000000000000000000000000000000000000000000000000000000000000000073ffffffffffffffffffffffffffffffffffffffff16631f00ca7483856040518363ffffffff1660e01b81526004016114f69291906125c6565b600060405180830381865afa158015611513573d6000803e3d6000fd5b505050506040513d6000823e3d601f19601f8201168201806040525081019061153c91906126b9565b60008151811061154f5761154e612069565b5b6020026020010151905092915050565b611567611935565b6000868686868660405160240161158295949392919061256c565b604051602081830303815290604052634a25d94a60e01b6020820180517bffffffffffffffffffffffffffffffffffffffffffffffffffffffff8381831617835250505050905060405180606001604052807f000000000000000000000000000000000000000000000000000000000000000073ffffffffffffffffffffffffffffffffffffffff168152602001600081526020018281525091505095945050505050565b61162f611935565b6000868686868660405160240161164a95949392919061256c565b604051602081830303815290604052638803dbee60e01b6020820180517bffffffffffffffffffffffffffffffffffffffffffffffffffffffff8381831617835250505050905060405180606001604052807f000000000000000000000000000000000000000000000000000000000000000073ffffffffffffffffffffffffffffffffffffffff168152602001600081526020018281525091505095945050505050565b6116f7611935565b6000868686868660405160240161171295949392919061256c565b6040516020818303038152906040526338ed173960e01b6020820180517bffffffffffffffffffffffffffffffffffffffffffffffffffffffff8381831617835250505050905060405180606001604052807f000000000000000000000000000000000000000000000000000000000000000073ffffffffffffffffffffffffffffffffffffffff168152602001600081526020018281525091505095945050505050565b6000808273ffffffffffffffffffffffffffffffffffffffff163190506103e884826117e39190612311565b6117ed91906123ea565b91505092915050565b6117fe611935565b60008585858560405160240161181794939291906124f7565b60405160208183030381529060405263fb3bdb4160e01b6020820180517bffffffffffffffffffffffffffffffffffffffffffffffffffffffff8381831617835250505050905060405180606001604052807f000000000000000000000000000000000000000000000000000000000000000073ffffffffffffffffffffffffffffffffffffffff1681526020018881526020018281525091505095945050505050565b6000600382111561192257819050600060016002846118da91906123ea565b6118e49190612353565b90505b8181101561191c57809150600281828561190191906123ea565b61190b9190612353565b61191591906123ea565b90506118e7565b50611930565b6000821461192f57600190505b5b919050565b6040518060600160405280600073ffffffffffffffffffffffffffffffffffffffff16815260200160008152602001606081525090565b6000604051905090565b600080fd5b600080fd5b60007fffffffff0000000000000000000000000000000000000000000000000000000082169050919050565b6119b581611980565b81146119c057600080fd5b50565b6000813590506119d2816119ac565b92915050565b6000602082840312156119ee576119ed611976565b5b60006119fc848285016119c3565b91505092915050565b60008115159050919050565b611a1a81611a05565b82525050565b6000602082019050611a356000830184611a11565b92915050565b6000819050919050565b611a4e81611a3b565b8114611a5957600080fd5b50565b600081359050611a6b81611a45565b92915050565b600080fd5b600080fd5b600080fd5b60008083601f840112611a9657611a95611a71565b5b8235905067ffffffffffffffff811115611ab357611ab2611a76565b5b602083019150836020820283011115611acf57611ace611a7b565b5b9250929050565b600073ffffffffffffffffffffffffffffffffffffffff82169050919050565b6000611b0182611ad6565b9050919050565b611b1181611af6565b8114611b1c57600080fd5b50565b600081359050611b2e81611b08565b92915050565b60008060008060608587031215611b4e57611b4d611976565b5b6000611b5c87828801611a5c565b945050602085013567ffffffffffffffff811115611b7d57611b7c61197b565b5b611b8987828801611a80565b93509350506040611b9c87828801611b1f565b91505092959194509250565b600081519050919050565b600082825260208201905092915050565b6000819050602082019050919050565b611bdd81611af6565b82525050565b611bec81611a3b565b82525050565b600081519050919050565b600082825260208201905092915050565b60005b83811015611c2c578082015181840152602081019050611c11565b60008484015250505050565b6000601f19601f8301169050919050565b6000611c5482611bf2565b611c5e8185611bfd565b9350611c6e818560208601611c0e565b611c7781611c38565b840191505092915050565b6000606083016000830151611c9a6000860182611bd4565b506020830151611cad6020860182611be3565b5060408301518482036040860152611cc58282611c49565b9150508091505092915050565b6000611cde8383611c82565b905092915050565b6000602082019050919050565b6000611cfe82611ba8565b611d088185611bb3565b935083602082028501611d1a85611bc4565b8060005b85811015611d565784840389528151611d378582611cd2565b9450611d4283611ce6565b925060208a01995050600181019050611d1e565b50829750879550505050505092915050565b60006020820190508181036000830152611d828184611cf3565b905092915050565b600080600080600060808688031215611da657611da5611976565b5b6000611db488828901611a5c565b9550506020611dc588828901611a5c565b945050604086013567ffffffffffffffff811115611de657611de561197b565b5b611df288828901611a80565b93509350506060611e0588828901611b1f565b9150509295509295909350565b611e1b81611af6565b82525050565b6000602082019050611e366000830184611e12565b92915050565b600080fd5b7f4e487b7100000000000000000000000000000000000000000000000000000000600052604160045260246000fd5b611e7982611c38565b810181811067ffffffffffffffff82111715611e9857611e97611e41565b5b80604052505050565b6000611eab61196c565b9050611eb78282611e70565b919050565b600067ffffffffffffffff821115611ed757611ed6611e41565b5b611ee082611c38565b9050602081019050919050565b82818337600083830152505050565b6000611f0f611f0a84611ebc565b611ea1565b905082815260208101848484011115611f2b57611f2a611e3c565b5b611f36848285611eed565b509392505050565b600082601f830112611f5357611f52611a71565b5b8135611f63848260208601611efc565b91505092915050565b60008060408385031215611f8357611f82611976565b5b6000611f91858286016119c3565b925050602083013567ffffffffffffffff811115611fb257611fb161197b565b5b611fbe85828601611f3e565b9150509250929050565b611fd181611a3b565b82525050565b6000602082019050611fec6000830184611fc8565b92915050565b600060ff82169050919050565b61200881611ff2565b82525050565b60006020820190506120236000830184611fff565b92915050565b600080604083850312156120405761203f611976565b5b600061204e85828601611a5c565b925050602061205f85828601611a5c565b9150509250929050565b7f4e487b7100000000000000000000000000000000000000000000000000000000600052603260045260246000fd5b6000602082840312156120ae576120ad611976565b5b60006120bc84828501611b1f565b91505092915050565b6000815190506120d481611a45565b92915050565b600067ffffffffffffffff8211156120f5576120f4611e41565b5b602082029050602081019050919050565b60008151905061211581611b08565b92915050565b600061212e612129846120da565b611ea1565b9050808382526020820190506020840283018581111561215157612150611a7b565b5b835b8181101561217a57806121668882612106565b845260208401935050602081019050612153565b5050509392505050565b600082601f83011261219957612198611a71565b5b81516121a984826020860161211b565b91505092915050565b60006121bd82611ad6565b9050919050565b6121cd816121b2565b81146121d857600080fd5b50565b6000815190506121ea816121c4565b92915050565b6000806000806080858703121561220a57612209611976565b5b6000612218878288016120c5565b9450506020612229878288016120c5565b935050604085015167ffffffffffffffff81111561224a5761224961197b565b5b61225687828801612184565b9250506060612267878288016121db565b91505092959194509250565b60008060006060848603121561228c5761228b611976565b5b600061229a868287016120c5565b935050602084015167ffffffffffffffff8111156122bb576122ba61197b565b5b6122c786828701612184565b92505060406122d8868287016121db565b9150509250925092565b7f4e487b7100000000000000000000000000000000000000000000000000000000600052601160045260246000fd5b600061231c82611a3b565b915061232783611a3b565b925082820261233581611a3b565b9150828204841483151761234c5761234b6122e2565b5b5092915050565b600061235e82611a3b565b915061236983611a3b565b9250828201905080821115612381576123806122e2565b5b92915050565b600061239282611a3b565b915061239d83611a3b565b92508282039050818111156123b5576123b46122e2565b5b92915050565b7f4e487b7100000000000000000000000000000000000000000000000000000000600052601260045260246000fd5b60006123f582611a3b565b915061240083611a3b565b9250826124105761240f6123bb565b5b828204905092915050565b60006020828403121561243157612430611976565b5b600061243f848285016120c5565b91505092915050565b600081519050919050565b600082825260208201905092915050565b6000819050602082019050919050565b60006124808383611bd4565b60208301905092915050565b6000602082019050919050565b60006124a482612448565b6124ae8185612453565b93506124b983612464565b8060005b838110156124ea5781516124d18882612474565b97506124dc8361248c565b9250506001810190506124bd565b5085935050505092915050565b600060808201905061250c6000830187611fc8565b818103602083015261251e8186612499565b905061252d6040830185611e12565b61253a6060830184611fc8565b95945050505050565b60006040820190506125586000830185611e12565b6125656020830184611fc8565b9392505050565b600060a0820190506125816000830188611fc8565b61258e6020830187611fc8565b81810360408301526125a08186612499565b90506125af6060830185611e12565b6125bc6080830184611fc8565b9695505050505050565b60006040820190506125db6000830185611fc8565b81810360208301526125ed8184612499565b90509392505050565b600067ffffffffffffffff82111561261157612610611e41565b5b602082029050602081019050919050565b6000612635612630846125f6565b611ea1565b9050808382526020820190506020840283018581111561265857612657611a7b565b5b835b81811015612681578061266d88826120c5565b84526020840193505060208101905061265a565b5050509392505050565b600082601f8301126126a05761269f611a71565b5b81516126b0848260208601612622565b91505092915050565b6000602082840312156126cf576126ce611976565b5b600082015167ffffffffffffffff8111156126ed576126ec61197b565b5b6126f98482850161268b565b9150509291505056fea26469706673582212209af8a5d8c3fcfe2d596c79f182d6f708beb1ae3d716d619be5a7b386d3c7044a64736f6c634300081c0033",
  "linkReferences": {},
  "deployedLinkReferences": {}
}