{
  "_format": "hh-sol-artifact-1",
  "contractName": "UniswapV2LPActions",
  "sourceName": "contracts/action/UniswapV2LPActions.sol",
  "abi": [
    {
      "inputs": [
        {
          "internalType": "address",
          "name": "_router",
          "type": "address"
        }
      ],
      "stateMutability": "nonpayable",
      "type": "constructor"
    },
    {
      "inputs": [],
      "name": "FailedToApproveTokens",
      "type": "error"
    },
    {
      "inputs": [],
      "name": "InvalidTokenGetterID",
      "type": "error"
    },
    {
      "inputs": [],
      "name": "NoValidPercentageAmount",
      "type": "error"
    },
    {
      "inputs": [],
      "name": "NoZeroAmountValid",
      "type": "error"
    },
    {
      "inputs": [],
      "name": "NotZeroAmountForBothTokensAllowed",
      "type": "error"
    },
    {
      "inputs": [],
      "name": "PoolPairDoesNotExist",
      "type": "error"
    },
    {
      "inputs": [],
      "name": "DELTA_DEADLINE",
      "outputs": [
        {
          "internalType": "uint256",
          "name": "",
          "type": "uint256"
        }
      ],
      "stateMutability": "view",
      "type": "function"
    },
    {
      "inputs": [],
      "name": "PERCENTAGE_FACTOR",
      "outputs": [
        {
          "internalType": "uint256",
          "name": "",
          "type": "uint256"
        }
      ],
      "stateMutability": "view",
      "type": "function"
    },
    {
      "inputs": [],
      "name": "WETH",
      "outputs": [
        {
          "internalType": "address",
          "name": "",
          "type": "address"
        }
      ],
      "stateMutability": "view",
      "type": "function"
    },
    {
      "inputs": [
        {
          "internalType": "uint256",
          "name": "r",
          "type": "uint256"
        },
        {
          "internalType": "uint256",
          "name": "a",
          "type": "uint256"
        }
      ],
      "name": "_getSwapAmount",
      "outputs": [
        {
          "internalType": "uint256",
          "name": "",
          "type": "uint256"
        }
      ],
      "stateMutability": "pure",
      "type": "function"
    },
    {
      "inputs": [
        {
          "internalType": "address",
          "name": "tokenA",
          "type": "address"
        },
        {
          "internalType": "address",
          "name": "tokenB",
          "type": "address"
        },
        {
          "internalType": "uint256",
          "name": "percentage",
          "type": "uint256"
        },
        {
          "internalType": "address",
          "name": "wallet",
          "type": "address"
        }
      ],
      "name": "addLiqudityPercentage",
      "outputs": [
        {
          "components": [
            {
              "internalType": "address",
              "name": "target",
              "type": "address"
            },
            {
              "internalType": "uint256",
              "name": "value",
              "type": "uint256"
            },
            {
              "internalType": "bytes",
              "name": "data",
              "type": "bytes"
            }
          ],
          "internalType": "struct IAction.PluginExecution[]",
          "name": "",
          "type": "tuple[]"
        }
      ],
      "stateMutability": "view",
      "type": "function"
    },
    {
      "inputs": [
        {
          "internalType": "address",
          "name": "token",
          "type": "address"
        },
        {
          "internalType": "uint256",
          "name": "percentage",
          "type": "uint256"
        },
        {
          "internalType": "address",
          "name": "wallet",
          "type": "address"
        }
      ],
      "name": "addLiqudityPercentageETH",
      "outputs": [
        {
          "components": [
            {
              "internalType": "address",
              "name": "target",
              "type": "address"
            },
            {
              "internalType": "uint256",
              "name": "value",
              "type": "uint256"
            },
            {
              "internalType": "bytes",
              "name": "data",
              "type": "bytes"
            }
          ],
          "internalType": "struct IAction.PluginExecution[]",
          "name": "",
          "type": "tuple[]"
        }
      ],
      "stateMutability": "view",
      "type": "function"
    },
    {
      "inputs": [
        {
          "internalType": "address",
          "name": "tokenA",
          "type": "address"
        },
        {
          "internalType": "address",
          "name": "tokenB",
          "type": "address"
        },
        {
          "internalType": "uint256",
          "name": "amountADesired",
          "type": "uint256"
        },
        {
          "internalType": "uint256",
          "name": "amountBDesired",
          "type": "uint256"
        },
        {
          "internalType": "uint256",
          "name": "amountAMin",
          "type": "uint256"
        },
        {
          "internalType": "uint256",
          "name": "amountBMin",
          "type": "uint256"
        },
        {
          "internalType": "address",
          "name": "to",
          "type": "address"
        }
      ],
      "name": "addLiquidity",
      "outputs": [
        {
          "components": [
            {
              "internalType": "address",
              "name": "target",
              "type": "address"
            },
            {
              "internalType": "uint256",
              "name": "value",
              "type": "uint256"
            },
            {
              "internalType": "bytes",
              "name": "data",
              "type": "bytes"
            }
          ],
          "internalType": "struct IAction.PluginExecution[]",
          "name": "",
          "type": "tuple[]"
        }
      ],
      "stateMutability": "view",
      "type": "function"
    },
    {
      "inputs": [
        {
          "internalType": "address",
          "name": "token",
          "type": "address"
        },
        {
          "internalType": "uint256",
          "name": "amountTokenDesired",
          "type": "uint256"
        },
        {
          "internalType": "uint256",
          "name": "amountTokenMin",
          "type": "uint256"
        },
        {
          "internalType": "uint256",
          "name": "amountETHDesired",
          "type": "uint256"
        },
        {
          "internalType": "uint256",
          "name": "amountETHMin",
          "type": "uint256"
        },
        {
          "internalType": "address",
          "name": "to",
          "type": "address"
        }
      ],
      "name": "addLiquidityETH",
      "outputs": [
        {
          "components": [
            {
              "internalType": "address",
              "name": "target",
              "type": "address"
            },
            {
              "internalType": "uint256",
              "name": "value",
              "type": "uint256"
            },
            {
              "internalType": "bytes",
              "name": "data",
              "type": "bytes"
            }
          ],
          "internalType": "struct IAction.PluginExecution[]",
          "name": "",
          "type": "tuple[]"
        }
      ],
      "stateMutability": "view",
      "type": "function"
    },
    {
      "inputs": [],
      "name": "factory",
      "outputs": [
        {
          "internalType": "address",
          "name": "",
          "type": "address"
        }
      ],
      "stateMutability": "view",
      "type": "function"
    },
    {
      "inputs": [
        {
          "internalType": "bytes4",
          "name": "selector",
          "type": "bytes4"
        },
        {
          "internalType": "bytes",
          "name": "params",
          "type": "bytes"
        }
      ],
      "name": "getTokenForSelector",
      "outputs": [
        {
          "internalType": "address",
          "name": "",
          "type": "address"
        }
      ],
      "stateMutability": "view",
      "type": "function"
    },
    {
      "inputs": [
        {
          "internalType": "address",
          "name": "tokenA",
          "type": "address"
        },
        {
          "internalType": "address",
          "name": "tokenB",
          "type": "address"
        },
        {
          "internalType": "uint256",
          "name": "liquidity",
          "type": "uint256"
        },
        {
          "internalType": "uint256",
          "name": "amountAMin",
          "type": "uint256"
        },
        {
          "internalType": "uint256",
          "name": "amountBMin",
          "type": "uint256"
        },
        {
          "internalType": "address",
          "name": "to",
          "type": "address"
        }
      ],
      "name": "removeLiquidity",
      "outputs": [
        {
          "components": [
            {
              "internalType": "address",
              "name": "target",
              "type": "address"
            },
            {
              "internalType": "uint256",
              "name": "value",
              "type": "uint256"
            },
            {
              "internalType": "bytes",
              "name": "data",
              "type": "bytes"
            }
          ],
          "internalType": "struct IAction.PluginExecution[]",
          "name": "",
          "type": "tuple[]"
        }
      ],
      "stateMutability": "view",
      "type": "function"
    },
    {
      "inputs": [
        {
          "internalType": "address",
          "name": "token",
          "type": "address"
        },
        {
          "internalType": "uint256",
          "name": "liquidity",
          "type": "uint256"
        },
        {
          "internalType": "uint256",
          "name": "amountTokenMin",
          "type": "uint256"
        },
        {
          "internalType": "uint256",
          "name": "amountETHMin",
          "type": "uint256"
        },
        {
          "internalType": "address",
          "name": "to",
          "type": "address"
        }
      ],
      "name": "removeLiquidityETH",
      "outputs": [
        {
          "components": [
            {
              "internalType": "address",
              "name": "target",
              "type": "address"
            },
            {
              "internalType": "uint256",
              "name": "value",
              "type": "uint256"
            },
            {
              "internalType": "bytes",
              "name": "data",
              "type": "bytes"
            }
          ],
          "internalType": "struct IAction.PluginExecution[]",
          "name": "",
          "type": "tuple[]"
        }
      ],
      "stateMutability": "view",
      "type": "function"
    },
    {
      "inputs": [
        {
          "internalType": "address",
          "name": "token",
          "type": "address"
        },
        {
          "internalType": "uint256",
          "name": "liquidityPercentage",
          "type": "uint256"
        },
        {
          "internalType": "address",
          "name": "to",
          "type": "address"
        }
      ],
      "name": "removeLiquidityETHPercentage",
      "outputs": [
        {
          "components": [
            {
              "internalType": "address",
              "name": "target",
              "type": "address"
            },
            {
              "internalType": "uint256",
              "name": "value",
              "type": "uint256"
            },
            {
              "internalType": "bytes",
              "name": "data",
              "type": "bytes"
            }
          ],
          "internalType": "struct IAction.PluginExecution[]",
          "name": "",
          "type": "tuple[]"
        }
      ],
      "stateMutability": "view",
      "type": "function"
    },
    {
      "inputs": [
        {
          "internalType": "address",
          "name": "tokenA",
          "type": "address"
        },
        {
          "internalType": "address",
          "name": "tokenB",
          "type": "address"
        },
        {
          "internalType": "uint256",
          "name": "percentageLiquidity",
          "type": "uint256"
        },
        {
          "internalType": "address",
          "name": "to",
          "type": "address"
        }
      ],
      "name": "removeLiquidityPercentage",
      "outputs": [
        {
          "components": [
            {
              "internalType": "address",
              "name": "target",
              "type": "address"
            },
            {
              "internalType": "uint256",
              "name": "value",
              "type": "uint256"
            },
            {
              "internalType": "bytes",
              "name": "data",
              "type": "bytes"
            }
          ],
          "internalType": "struct IAction.PluginExecution[]",
          "name": "",
          "type": "tuple[]"
        }
      ],
      "stateMutability": "view",
      "type": "function"
    },
    {
      "inputs": [],
      "name": "router",
      "outputs": [
        {
          "internalType": "address",
          "name": "",
          "type": "address"
        }
      ],
      "stateMutability": "view",
      "type": "function"
    },
    {
      "inputs": [
        {
          "internalType": "bytes4",
          "name": "interfaceId",
          "type": "bytes4"
        }
      ],
      "name": "supportsInterface",
      "outputs": [
        {
          "internalType": "bool",
          "name": "",
          "type": "bool"
        }
      ],
      "stateMutability": "pure",
      "type": "function"
    },
    {
      "inputs": [
        {
          "internalType": "bytes4",
          "name": "",
          "type": "bytes4"
        }
      ],
      "name": "tokenGetterIDs",
      "outputs": [
        {
          "internalType": "uint8",
          "name": "",
          "type": "uint8"
        }
      ],
      "stateMutability": "view",
      "type": "function"
    },
    {
      "inputs": [],
      "name": "uniswapV2RouterAddress",
      "outputs": [
        {
          "internalType": "address",
          "name": "",
          "type": "address"
        }
      ],
      "stateMutability": "view",
      "type": "function"
    },
    {
      "inputs": [
        {
          "internalType": "address",
          "name": "tokenA",
          "type": "address"
        },
        {
          "internalType": "address",
          "name": "tokenB",
          "type": "address"
        },
        {
          "internalType": "uint256",
          "name": "amountIn",
          "type": "uint256"
        },
        {
          "internalType": "address",
          "name": "to",
          "type": "address"
        }
      ],
      "name": "zap",
      "outputs": [
        {
          "components": [
            {
              "internalType": "address",
              "name": "target",
              "type": "address"
            },
            {
              "internalType": "uint256",
              "name": "value",
              "type": "uint256"
            },
            {
              "internalType": "bytes",
              "name": "data",
              "type": "bytes"
            }
          ],
          "internalType": "struct IAction.PluginExecution[]",
          "name": "",
          "type": "tuple[]"
        }
      ],
      "stateMutability": "view",
      "type": "function"
    },
    {
      "inputs": [
        {
          "internalType": "address",
          "name": "token",
          "type": "address"
        },
        {
          "internalType": "uint256",
          "name": "amountIn",
          "type": "uint256"
        },
        {
          "internalType": "bool",
          "name": "inputETH",
          "type": "bool"
        },
        {
          "internalType": "address",
          "name": "to",
          "type": "address"
        }
      ],
      "name": "zapETH",
      "outputs": [
        {
          "components": [
            {
              "internalType": "address",
              "name": "target",
              "type": "address"
            },
            {
              "internalType": "uint256",
              "name": "value",
              "type": "uint256"
            },
            {
              "internalType": "bytes",
              "name": "data",
              "type": "bytes"
            }
          ],
          "internalType": "struct IAction.PluginExecution[]",
          "name": "",
          "type": "tuple[]"
        }
      ],
      "stateMutability": "view",
      "type": "function"
    }
  ],
  "bytecode": "0x60e060405234801561001057600080fd5b506040516145ba3803806145ba83398181016040528101906100329190610683565b808073ffffffffffffffffffffffffffffffffffffffff1660808173ffffffffffffffffffffffffffffffffffffffff168152505060805173ffffffffffffffffffffffffffffffffffffffff1663ad5c46486040518163ffffffff1660e01b8152600401602060405180830381865afa1580156100b4573d6000803e3d6000fd5b505050506040513d601f19601f820116820180604052508101906100d89190610683565b73ffffffffffffffffffffffffffffffffffffffff1660c08173ffffffffffffffffffffffffffffffffffffffff168152505060805173ffffffffffffffffffffffffffffffffffffffff1663c45a01556040518163ffffffff1660e01b8152600401602060405180830381865afa158015610158573d6000803e3d6000fd5b505050506040513d601f19601f8201168201806040525081019061017c9190610683565b73ffffffffffffffffffffffffffffffffffffffff1660a08173ffffffffffffffffffffffffffffffffffffffff168152505050600160008063fbec41a860e01b7bffffffffffffffffffffffffffffffffffffffffffffffffffffffff19167bffffffffffffffffffffffffffffffffffffffffffffffffffffffff1916815260200190815260200160002060006101000a81548160ff021916908360ff160217905550600160008063c977880560e01b7bffffffffffffffffffffffffffffffffffffffffffffffffffffffff19167bffffffffffffffffffffffffffffffffffffffffffffffffffffffff1916815260200190815260200160002060006101000a81548160ff021916908360ff1602179055506001600080636587e4ce60e01b7bffffffffffffffffffffffffffffffffffffffffffffffffffffffff19167bffffffffffffffffffffffffffffffffffffffffffffffffffffffff1916815260200190815260200160002060006101000a81548160ff021916908360ff16021790555060016000806302e7b74560e01b7bffffffffffffffffffffffffffffffffffffffffffffffffffffffff19167bffffffffffffffffffffffffffffffffffffffffffffffffffffffff1916815260200190815260200160002060006101000a81548160ff021916908360ff160217905550600160008063a181031e60e01b7bffffffffffffffffffffffffffffffffffffffffffffffffffffffff19167bffffffffffffffffffffffffffffffffffffffffffffffffffffffff1916815260200190815260200160002060006101000a81548160ff021916908360ff160217905550600260008063ca3d653960e01b7bffffffffffffffffffffffffffffffffffffffffffffffffffffffff19167bffffffffffffffffffffffffffffffffffffffffffffffffffffffff1916815260200190815260200160002060006101000a81548160ff021916908360ff160217905550600360008063c0e3ee6b60e01b7bffffffffffffffffffffffffffffffffffffffffffffffffffffffff19167bffffffffffffffffffffffffffffffffffffffffffffffffffffffff1916815260200190815260200160002060006101000a81548160ff021916908360ff160217905550600460008063ea5217c360e01b7bffffffffffffffffffffffffffffffffffffffffffffffffffffffff19167bffffffffffffffffffffffffffffffffffffffffffffffffffffffff1916815260200190815260200160002060006101000a81548160ff021916908360ff160217905550600460008063d21f43b960e01b7bffffffffffffffffffffffffffffffffffffffffffffffffffffffff19167bffffffffffffffffffffffffffffffffffffffffffffffffffffffff1916815260200190815260200160002060006101000a81548160ff021916908360ff16021790555060046000806317617def60e01b7bffffffffffffffffffffffffffffffffffffffffffffffffffffffff19167bffffffffffffffffffffffffffffffffffffffffffffffffffffffff1916815260200190815260200160002060006101000a81548160ff021916908360ff160217905550506106b0565b600080fd5b600073ffffffffffffffffffffffffffffffffffffffff82169050919050565b600061065082610625565b9050919050565b61066081610645565b811461066b57600080fd5b50565b60008151905061067d81610657565b92915050565b60006020828403121561069957610698610620565b5b60006106a78482850161066e565b91505092915050565b60805160a05160c051613e3a610780600039600081816105260152818161083901528181610ad901528181610c9d015281816111dc0152818161120201528181611241015281816118de01528181611914015281816125300152612816015260008181610c29015261133701526000818161062101528181611164015281816117400152818161188001528181611a1b01528181611e77015281816121a401528181612399015281816125f001528181612887015281816129ff01528181612ac50152612b8c0152613e3a6000f3fe608060405234801561001057600080fd5b506004361061012c5760003560e01c8063c0e3ee6b116100ad578063ea5217c311610071578063ea5217c3146103b9578063ecc861d0146103e9578063ee01e5e714610419578063f887ea4014610437578063fbec41a8146104555761012c565b8063c0e3ee6b146102db578063c45a01551461030b578063c977880514610329578063ca3d653914610359578063d21f43b9146103895761012c565b8063617b595a116100f4578063617b595a1461020f5780636587e4ce1461022d578063a181031e1461025d578063ad5c46481461028d578063b1d61368146102ab5761012c565b806301ffc9a71461013157806302e7b7451461016157806317617def146101915780634a377e1d146101c15780635581161b146101df575b600080fd5b61014b60048036038101906101469190612c80565b610485565b6040516101589190612cc8565b60405180910390f35b61017b60048036038101906101769190612d77565b6104cf565b6040516101889190612f8a565b60405180910390f35b6101ab60048036038101906101a69190612fac565b610564565b6040516101b89190612f8a565b60405180910390f35b6101c961061d565b6040516101d69190613022565b60405180910390f35b6101f960048036038101906101f49190613172565b610645565b6040516102069190613022565b60405180910390f35b610217610795565b60405161022491906131dd565b60405180910390f35b610247600480360381019061024291906131f8565b61079a565b6040516102549190612f8a565b60405180910390f35b6102776004803603810190610272919061329f565b6108c4565b6040516102849190612f8a565b60405180910390f35b610295610ad7565b6040516102a29190613022565b60405180910390f35b6102c560048036038101906102c09190612c80565b610afb565b6040516102d29190613322565b60405180910390f35b6102f560048036038101906102f0919061333d565b610b1b565b6040516103029190612f8a565b60405180910390f35b610313610c27565b6040516103209190613022565b60405180910390f35b610343600480360381019061033e9190612d77565b610c4b565b6040516103509190612f8a565b60405180910390f35b610373600480360381019061036e91906133ca565b610d22565b6040516103809190612f8a565b60405180910390f35b6103a3600480360381019061039e9190612fac565b610e99565b6040516103b09190612f8a565b60405180910390f35b6103d360048036038101906103ce9190612fac565b610f10565b6040516103e09190612f8a565b60405180910390f35b61040360048036038101906103fe919061346c565b6110f2565b60405161041091906131dd565b60405180910390f35b61042161115c565b60405161042e91906131dd565b60405180910390f35b61043f611162565b60405161044c9190613022565b60405180910390f35b61046f600480360381019061046a91906134ac565b611186565b60405161047c9190612f8a565b60405180910390f35b6000807bffffffffffffffffffffffffffffffffffffffffffffffffffffffff1916827bffffffffffffffffffffffffffffffffffffffffffffffffffffffff1916149050919050565b60608260008114806104e257506103e881115b15610519576040517f7de8fbf600000000000000000000000000000000000000000000000000000000815260040160405180910390fd5b61055a8561055161054a887f0000000000000000000000000000000000000000000000000000000000000000611332565b8787611443565b6000808761079a565b9150509392505050565b606082600081148061057757506103e881115b156105ae576040517f7de8fbf600000000000000000000000000000000000000000000000000000000815260040160405180910390fd5b60006105ba8787611332565b90506000806105cb898985896114e5565b9150915061060f89896103e88a866105e39190613568565b6105ed91906135d9565b6103e88b866105fc9190613568565b61060691906135d9565b6000808c610d22565b945050505050949350505050565b60007f0000000000000000000000000000000000000000000000000000000000000000905090565b600080600080857bffffffffffffffffffffffffffffffffffffffffffffffffffffffff19167bffffffffffffffffffffffffffffffffffffffffffffffffffffffff1916815260200190815260200160002060009054906101000a900460ff16905060008160ff1614806106bd575060048160ff16115b156106f4576040517fae563a1f00000000000000000000000000000000000000000000000000000000815260040160405180910390fd5b60018160ff160361070957600091505061078f565b60028160ff160361073c5760008380602001905181019061072a919061365d565b5050505050509050809250505061078f565b60038160ff160361076e5760008380602001905181019061075d91906136ff565b50505050509050809250505061078f565b600083806020019051810190610784919061378c565b505050905080925050505b92915050565b601e81565b606084600081036107d7576040517fded7302c00000000000000000000000000000000000000000000000000000000815260040160405180910390fd5b6000600267ffffffffffffffff8111156107f4576107f3613047565b5b60405190808252806020026020018201604052801561082d57816020015b61081a612bdd565b8152602001906001900390816108125790505b50905061086361085d897f0000000000000000000000000000000000000000000000000000000000000000611332565b88611734565b81600081518110610877576108766137f3565b5b602002602001018190525061089788888888886108926117f3565b611807565b816001815181106108ab576108aa6137f3565b5b6020026020010181905250809250505095945050505050565b606060008060006108d7888888886118d2565b9250925092506000600282516108ed9190613822565b67ffffffffffffffff81111561090657610905613047565b5b60405190808252806020026020018201604052801561093f57816020015b61092c612bdd565b8152602001906001900390816109245790505b50905060006109548a8660008760008c611186565b90508260008151811061096a576109696137f3565b5b602002602001015182600081518110610986576109856137f3565b5b60200260200101819052506001835103610a1557806000815181106109ae576109ad6137f3565b5b6020026020010151826001815181106109ca576109c96137f3565b5b6020026020010181905250806001815181106109e9576109e86137f3565b5b602002602001015182600281518110610a0557610a046137f3565b5b6020026020010181905250610ac7565b82600181518110610a2957610a286137f3565b5b602002602001015182600181518110610a4557610a446137f3565b5b602002602001018190525080600081518110610a6457610a636137f3565b5b602002602001015182600281518110610a8057610a7f6137f3565b5b602002602001018190525080600181518110610a9f57610a9e6137f3565b5b602002602001015182600381518110610abb57610aba6137f3565b5b60200260200101819052505b8195505050505050949350505050565b7f000000000000000000000000000000000000000000000000000000000000000081565b60006020528060005260406000206000915054906101000a900460ff1681565b60608460008103610b58576040517fded7302c00000000000000000000000000000000000000000000000000000000815260040160405180910390fd5b6000600267ffffffffffffffff811115610b7557610b74613047565b5b604051908082528060200260200182016040528015610bae57816020015b610b9b612bdd565b815260200190600190039081610b935790505b509050610bc4610bbe8a8a611332565b88611734565b81600081518110610bd857610bd76137f3565b5b6020026020010181905250610bf9898989898989610bf46117f3565b6119a0565b81600181518110610c0d57610c0c6137f3565b5b602002602001018190525080925050509695505050505050565b7f000000000000000000000000000000000000000000000000000000000000000081565b6060826000811480610c5e57506103e881115b15610c95576040517f7de8fbf600000000000000000000000000000000000000000000000000000000815260040160405180910390fd5b6000610cc1867f0000000000000000000000000000000000000000000000000000000000000000611332565b9050600080610cd1888488611a6e565b91509150610d15886103e88985610ce89190613568565b610cf291906135d9565b60006103e88b86610d039190613568565b610d0d91906135d9565b60008b611186565b9450505050509392505050565b6060600086148015610d345750600085145b15610d6b576040517f2d1440d500000000000000000000000000000000000000000000000000000000815260040160405180910390fd5b60008603610d8a57610d878786610d828b8b611332565b611c5a565b95505b60008503610da957610da68887610da18b8b611332565b611c5a565b94505b6000600367ffffffffffffffff811115610dc657610dc5613047565b5b604051908082528060200260200182016040528015610dff57816020015b610dec612bdd565b815260200190600190039081610de45790505b509050610e0c8988611734565b81600081518110610e2057610e1f6137f3565b5b6020026020010181905250610e358887611734565b81600181518110610e4957610e486137f3565b5b6020026020010181905250610e6b89898989898989610e666117f3565b611dfa565b81600281518110610e7f57610e7e6137f3565b5b602002602001018190525080915050979650505050505050565b6060826000811480610eac57506103e881115b15610ee3576040517f7de8fbf600000000000000000000000000000000000000000000000000000000815260040160405180910390fd5b610f058686610efc610ef58a8a611332565b8888611443565b60008088610b1b565b915050949350505050565b60606000600567ffffffffffffffff811115610f2f57610f2e613047565b5b604051908082528060200260200182016040528015610f6857816020015b610f55612bdd565b815260200190600190039081610f4d5790505b5090506000610f778787611332565b90506000610f86828988611ecb565b9050600080610f978a8a858a61202e565b915091506000610fb88b8b868c610fae9190613856565b866000808e610d22565b905081600081518110610fce57610fcd6137f3565b5b602002602001015186600081518110610fea57610fe96137f3565b5b602002602001018190525081600181518110611009576110086137f3565b5b602002602001015186600181518110611025576110246137f3565b5b602002602001018190525080600081518110611044576110436137f3565b5b6020026020010151866002815181106110605761105f6137f3565b5b60200260200101819052508060018151811061107f5761107e6137f3565b5b60200260200101518660038151811061109b5761109a6137f3565b5b6020026020010181905250806002815181106110ba576110b96137f3565b5b6020026020010151866004815181106110d6576110d56137f3565b5b6020026020010181905250859650505050505050949350505050565b60006107ca6107cd846111059190613568565b611140623cda20856111179190613568565b623cda29876111269190613568565b6111309190613822565b8661113b9190613568565b6122a6565b61114a9190613856565b61115491906135d9565b905092915050565b6103e881565b7f000000000000000000000000000000000000000000000000000000000000000081565b60606000861480156111985750600084145b156111cf576040517f2d1440d500000000000000000000000000000000000000000000000000000000815260040160405180910390fd5b6000860361122e5761122b7f0000000000000000000000000000000000000000000000000000000000000000856112268a7f0000000000000000000000000000000000000000000000000000000000000000611332565b611c5a565b95505b6000840361126d5761126a87876112658a7f0000000000000000000000000000000000000000000000000000000000000000611332565b611c5a565b93505b6000600267ffffffffffffffff81111561128a57611289613047565b5b6040519080825280602002602001820160405280156112c357816020015b6112b0612bdd565b8152602001906001900390816112a85790505b5090506112d08888611734565b816000815181106112e4576112e36137f3565b5b60200260200101819052506113058886898988886113006117f3565b612320565b81600181518110611319576113186137f3565b5b6020026020010181905250809150509695505050505050565b6000807f000000000000000000000000000000000000000000000000000000000000000073ffffffffffffffffffffffffffffffffffffffff1663e6a4390585856040518363ffffffff1660e01b815260040161139092919061388a565b602060405180830381865afa1580156113ad573d6000803e3d6000fd5b505050506040513d601f19601f820116820180604052508101906113d191906138c8565b9050600073ffffffffffffffffffffffffffffffffffffffff168173ffffffffffffffffffffffffffffffffffffffff1603611439576040517f2a11ba8500000000000000000000000000000000000000000000000000000000815260040160405180910390fd5b8091505092915050565b6000808473ffffffffffffffffffffffffffffffffffffffff166370a08231846040518263ffffffff1660e01b815260040161147f9190613022565b602060405180830381865afa15801561149c573d6000803e3d6000fd5b505050506040513d601f19601f820116820180604052508101906114c091906138f5565b90506103e881856114d19190613568565b6114db91906135d9565b9150509392505050565b6000806000808573ffffffffffffffffffffffffffffffffffffffff16630902f1ac6040518163ffffffff1660e01b8152600401606060405180830381865afa158015611536573d6000803e3d6000fd5b505050506040513d601f19601f8201168201806040525081019061155a91906139a4565b50915091506000808973ffffffffffffffffffffffffffffffffffffffff168873ffffffffffffffffffffffffffffffffffffffff16630dfe16816040518163ffffffff1660e01b8152600401602060405180830381865afa1580156115c4573d6000803e3d6000fd5b505050506040513d601f19601f820116820180604052508101906115e891906138c8565b73ffffffffffffffffffffffffffffffffffffffff160361160e57839150829050611615565b8291508390505b60008a73ffffffffffffffffffffffffffffffffffffffff166370a08231896040518263ffffffff1660e01b81526004016116509190613022565b602060405180830381865afa15801561166d573d6000803e3d6000fd5b505050506040513d601f19601f8201168201806040525081019061169191906138f5565b905060008a73ffffffffffffffffffffffffffffffffffffffff166370a082318a6040518263ffffffff1660e01b81526004016116ce9190613022565b602060405180830381865afa1580156116eb573d6000803e3d6000fd5b505050506040513d601f19601f8201168201806040525081019061170f91906138f5565b905061171d848484846123eb565b809850819950505050505050505094509492505050565b61173c612bdd565b60007f0000000000000000000000000000000000000000000000000000000000000000836040516024016117719291906139f7565b60405160208183030381529060405263095ea7b360e01b6020820180517bffffffffffffffffffffffffffffffffffffffffffffffffffffffff8381831617835250505050905060405180606001604052808573ffffffffffffffffffffffffffffffffffffffff168152602001600081526020018281525091505092915050565b6000601e426118029190613822565b905090565b61180f612bdd565b600087878787878760405160240161182c96959493929190613a20565b6040516020818303038152906040526302751cec60e01b6020820180517bffffffffffffffffffffffffffffffffffffffffffffffffffffffff8381831617835250505050905060405180606001604052807f000000000000000000000000000000000000000000000000000000000000000073ffffffffffffffffffffffffffffffffffffffff16815260200160008152602001828152509150509695505050505050565b600080606060006119037f000000000000000000000000000000000000000000000000000000000000000089611332565b90506000866119125788611934565b7f00000000000000000000000000000000000000000000000000000000000000005b9050600061194383838b611ecb565b90508715611971576119568a8289612483565b8095508197505050808961196a9190613856565b9450611993565b61197c8a82896126f1565b809550819650505080896119909190613856565b95505b5050509450945094915050565b6119a8612bdd565b6000888888888888886040516024016119c79796959493929190613a81565b60405160208183030381529060405263baa2abde60e01b6020820180517bffffffffffffffffffffffffffffffffffffffffffffffffffffffff8381831617835250505050905060405180606001604052807f000000000000000000000000000000000000000000000000000000000000000073ffffffffffffffffffffffffffffffffffffffff1681526020016000815260200182815250915050979650505050505050565b6000806000808573ffffffffffffffffffffffffffffffffffffffff16630902f1ac6040518163ffffffff1660e01b8152600401606060405180830381865afa158015611abf573d6000803e3d6000fd5b505050506040513d601f19601f82011682018060405250810190611ae391906139a4565b50915091506000808873ffffffffffffffffffffffffffffffffffffffff168873ffffffffffffffffffffffffffffffffffffffff16630dfe16816040518163ffffffff1660e01b8152600401602060405180830381865afa158015611b4d573d6000803e3d6000fd5b505050506040513d601f19601f82011682018060405250810190611b7191906138c8565b73ffffffffffffffffffffffffffffffffffffffff1603611b9757839150829050611b9e565b8291508390505b60008973ffffffffffffffffffffffffffffffffffffffff166370a08231896040518263ffffffff1660e01b8152600401611bd99190613022565b602060405180830381865afa158015611bf6573d6000803e3d6000fd5b505050506040513d601f19601f82011682018060405250810190611c1a91906138f5565b905060008873ffffffffffffffffffffffffffffffffffffffff16319050611c44848484846123eb565b8098508199505050505050505050935093915050565b6000808273ffffffffffffffffffffffffffffffffffffffff16630dfe16816040518163ffffffff1660e01b8152600401602060405180830381865afa158015611ca8573d6000803e3d6000fd5b505050506040513d601f19601f82011682018060405250810190611ccc91906138c8565b90506000808473ffffffffffffffffffffffffffffffffffffffff16630902f1ac6040518163ffffffff1660e01b8152600401606060405180830381865afa158015611d1c573d6000803e3d6000fd5b505050506040513d601f19601f82011682018060405250810190611d4091906139a4565b50915091508673ffffffffffffffffffffffffffffffffffffffff168373ffffffffffffffffffffffffffffffffffffffff1603611db657816dffffffffffffffffffffffffffff16816dffffffffffffffffffffffffffff1687611da59190613568565b611daf91906135d9565b9350611df0565b806dffffffffffffffffffffffffffff16826dffffffffffffffffffffffffffff1687611de39190613568565b611ded91906135d9565b93505b5050509392505050565b611e02612bdd565b60008989898989898989604051602401611e23989796959493929190613af0565b60405160208183030381529060405263e8e3370060e01b6020820180517bffffffffffffffffffffffffffffffffffffffffffffffffffffffff8381831617835250505050905060405180606001604052807f000000000000000000000000000000000000000000000000000000000000000073ffffffffffffffffffffffffffffffffffffffff168152602001600081526020018281525091505098975050505050505050565b60008060008573ffffffffffffffffffffffffffffffffffffffff16630902f1ac6040518163ffffffff1660e01b8152600401606060405180830381865afa158015611f1b573d6000803e3d6000fd5b505050506040513d601f19601f82011682018060405250810190611f3f91906139a4565b506dffffffffffffffffffffffffffff1691506dffffffffffffffffffffffffffff1691508473ffffffffffffffffffffffffffffffffffffffff168673ffffffffffffffffffffffffffffffffffffffff16630dfe16816040518163ffffffff1660e01b8152600401602060405180830381865afa158015611fc6573d6000803e3d6000fd5b505050506040513d601f19601f82011682018060405250810190611fea91906138c8565b73ffffffffffffffffffffffffffffffffffffffff16036120185761200f82856110f2565b92505050612027565b61202281856110f2565b925050505b9392505050565b600060606000600267ffffffffffffffff81111561204f5761204e613047565b5b60405190808252806020026020018201604052801561208857816020015b612075612bdd565b81526020019060019003908161206d5790505b5090506120958786611734565b816000815181106120a9576120a86137f3565b5b60200260200101819052506000600267ffffffffffffffff8111156120d1576120d0613047565b5b6040519080825280602002602001820160405280156120ff5781602001602082028036833780820191505090505b5090508781600081518110612117576121166137f3565b5b602002602001019073ffffffffffffffffffffffffffffffffffffffff16908173ffffffffffffffffffffffffffffffffffffffff16815250508681600181518110612166576121656137f3565b5b602002602001019073ffffffffffffffffffffffffffffffffffffffff16908173ffffffffffffffffffffffffffffffffffffffff168152505060007f000000000000000000000000000000000000000000000000000000000000000073ffffffffffffffffffffffffffffffffffffffff1663d06ca61f88846040518363ffffffff1660e01b81526004016121fd929190613c1d565b600060405180830381865afa15801561221a573d6000803e3d6000fd5b505050506040513d6000823e3d601f19601f820116820180604052508101906122439190613d15565b905061225a87600084896122556117f3565b612988565b8360018151811061226e5761226d6137f3565b5b60200260200101819052508060018151811061228d5761228c6137f3565b5b6020026020010151839450945050505094509492505050565b6000600382111561230d57819050600060016002846122c591906135d9565b6122cf9190613822565b90505b818110156123075780915060028182856122ec91906135d9565b6122f69190613822565b61230091906135d9565b90506122d2565b5061231b565b6000821461231a57600190505b5b919050565b612328612bdd565b600088878787878760405160240161234596959493929190613a20565b60405160208183030381529060405263f305d71960e01b6020820180517bffffffffffffffffffffffffffffffffffffffffffffffffffffffff8381831617835250505050905060405180606001604052807f000000000000000000000000000000000000000000000000000000000000000073ffffffffffffffffffffffffffffffffffffffff16815260200189815260200182815250915050979650505050505050565b6000808391508290506000866dffffffffffffffffffffffffffff16866dffffffffffffffffffffffffffff16866124239190613568565b61242d91906135d9565b90508381111561247557856dffffffffffffffffffffffffffff16876dffffffffffffffffffffffffffff16856124649190613568565b61246e91906135d9565b9250612479565b8091505b5094509492505050565b600060606000600167ffffffffffffffff8111156124a4576124a3613047565b5b6040519080825280602002602001820160405280156124dd57816020015b6124ca612bdd565b8152602001906001900390816124c25790505b5090506000600267ffffffffffffffff8111156124fd576124fc613047565b5b60405190808252806020026020018201604052801561252b5781602001602082028036833780820191505090505b5090507f000000000000000000000000000000000000000000000000000000000000000081600081518110612563576125626137f3565b5b602002602001019073ffffffffffffffffffffffffffffffffffffffff16908173ffffffffffffffffffffffffffffffffffffffff168152505086816001815181106125b2576125b16137f3565b5b602002602001019073ffffffffffffffffffffffffffffffffffffffff16908173ffffffffffffffffffffffffffffffffffffffff168152505060007f000000000000000000000000000000000000000000000000000000000000000073ffffffffffffffffffffffffffffffffffffffff1663d06ca61f88846040518363ffffffff1660e01b8152600401612649929190613c1d565b600060405180830381865afa158015612666573d6000803e3d6000fd5b505050506040513d6000823e3d601f19601f8201168201806040525081019061268f9190613d15565b90506126a687600084896126a16117f3565b612a50565b836000815181106126ba576126b96137f3565b5b6020026020010181905250806001815181106126d9576126d86137f3565b5b60200260200101518394509450505050935093915050565b600060606000600267ffffffffffffffff81111561271257612711613047565b5b60405190808252806020026020018201604052801561274b57816020015b612738612bdd565b8152602001906001900390816127305790505b5090506127588686611734565b8160008151811061276c5761276b6137f3565b5b60200260200101819052506000600267ffffffffffffffff81111561279457612793613047565b5b6040519080825280602002602001820160405280156127c25781602001602082028036833780820191505090505b50905086816000815181106127da576127d96137f3565b5b602002602001019073ffffffffffffffffffffffffffffffffffffffff16908173ffffffffffffffffffffffffffffffffffffffff16815250507f000000000000000000000000000000000000000000000000000000000000000081600181518110612849576128486137f3565b5b602002602001019073ffffffffffffffffffffffffffffffffffffffff16908173ffffffffffffffffffffffffffffffffffffffff168152505060007f000000000000000000000000000000000000000000000000000000000000000073ffffffffffffffffffffffffffffffffffffffff1663d06ca61f88846040518363ffffffff1660e01b81526004016128e0929190613c1d565b600060405180830381865afa1580156128fd573d6000803e3d6000fd5b505050506040513d6000823e3d601f19601f820116820180604052508101906129269190613d15565b905061293d87600084896129386117f3565b612b15565b83600181518110612951576129506137f3565b5b6020026020010181905250806001815181106129705761296f6137f3565b5b60200260200101518394509450505050935093915050565b612990612bdd565b600086868686866040516024016129ab959493929190613d5e565b6040516020818303038152906040526338ed173960e01b6020820180517bffffffffffffffffffffffffffffffffffffffffffffffffffffffff8381831617835250505050905060405180606001604052807f000000000000000000000000000000000000000000000000000000000000000073ffffffffffffffffffffffffffffffffffffffff168152602001600081526020018281525091505095945050505050565b612a58612bdd565b600085858585604051602401612a719493929190613db8565b604051602081830303815290604052637ff36ab560e01b6020820180517bffffffffffffffffffffffffffffffffffffffffffffffffffffffff8381831617835250505050905060405180606001604052807f000000000000000000000000000000000000000000000000000000000000000073ffffffffffffffffffffffffffffffffffffffff1681526020018881526020018281525091505095945050505050565b612b1d612bdd565b60008686868686604051602401612b38959493929190613d5e565b6040516020818303038152906040526318cbafe560e01b6020820180517bffffffffffffffffffffffffffffffffffffffffffffffffffffffff8381831617835250505050905060405180606001604052807f000000000000000000000000000000000000000000000000000000000000000073ffffffffffffffffffffffffffffffffffffffff168152602001600081526020018281525091505095945050505050565b6040518060600160405280600073ffffffffffffffffffffffffffffffffffffffff16815260200160008152602001606081525090565b6000604051905090565b600080fd5b600080fd5b60007fffffffff0000000000000000000000000000000000000000000000000000000082169050919050565b612c5d81612c28565b8114612c6857600080fd5b50565b600081359050612c7a81612c54565b92915050565b600060208284031215612c9657612c95612c1e565b5b6000612ca484828501612c6b565b91505092915050565b60008115159050919050565b612cc281612cad565b82525050565b6000602082019050612cdd6000830184612cb9565b92915050565b600073ffffffffffffffffffffffffffffffffffffffff82169050919050565b6000612d0e82612ce3565b9050919050565b612d1e81612d03565b8114612d2957600080fd5b50565b600081359050612d3b81612d15565b92915050565b6000819050919050565b612d5481612d41565b8114612d5f57600080fd5b50565b600081359050612d7181612d4b565b92915050565b600080600060608486031215612d9057612d8f612c1e565b5b6000612d9e86828701612d2c565b9350506020612daf86828701612d62565b9250506040612dc086828701612d2c565b9150509250925092565b600081519050919050565b600082825260208201905092915050565b6000819050602082019050919050565b612dff81612d03565b82525050565b612e0e81612d41565b82525050565b600081519050919050565b600082825260208201905092915050565b60005b83811015612e4e578082015181840152602081019050612e33565b60008484015250505050565b6000601f19601f8301169050919050565b6000612e7682612e14565b612e808185612e1f565b9350612e90818560208601612e30565b612e9981612e5a565b840191505092915050565b6000606083016000830151612ebc6000860182612df6565b506020830151612ecf6020860182612e05565b5060408301518482036040860152612ee78282612e6b565b9150508091505092915050565b6000612f008383612ea4565b905092915050565b6000602082019050919050565b6000612f2082612dca565b612f2a8185612dd5565b935083602082028501612f3c85612de6565b8060005b85811015612f785784840389528151612f598582612ef4565b9450612f6483612f08565b925060208a01995050600181019050612f40565b50829750879550505050505092915050565b60006020820190508181036000830152612fa48184612f15565b905092915050565b60008060008060808587031215612fc657612fc5612c1e565b5b6000612fd487828801612d2c565b9450506020612fe587828801612d2c565b9350506040612ff687828801612d62565b925050606061300787828801612d2c565b91505092959194509250565b61301c81612d03565b82525050565b60006020820190506130376000830184613013565b92915050565b600080fd5b600080fd5b7f4e487b7100000000000000000000000000000000000000000000000000000000600052604160045260246000fd5b61307f82612e5a565b810181811067ffffffffffffffff8211171561309e5761309d613047565b5b80604052505050565b60006130b1612c14565b90506130bd8282613076565b919050565b600067ffffffffffffffff8211156130dd576130dc613047565b5b6130e682612e5a565b9050602081019050919050565b82818337600083830152505050565b6000613115613110846130c2565b6130a7565b90508281526020810184848401111561313157613130613042565b5b61313c8482856130f3565b509392505050565b600082601f8301126131595761315861303d565b5b8135613169848260208601613102565b91505092915050565b6000806040838503121561318957613188612c1e565b5b600061319785828601612c6b565b925050602083013567ffffffffffffffff8111156131b8576131b7612c23565b5b6131c485828601613144565b9150509250929050565b6131d781612d41565b82525050565b60006020820190506131f260008301846131ce565b92915050565b600080600080600060a0868803121561321457613213612c1e565b5b600061322288828901612d2c565b955050602061323388828901612d62565b945050604061324488828901612d62565b935050606061325588828901612d62565b925050608061326688828901612d2c565b9150509295509295909350565b61327c81612cad565b811461328757600080fd5b50565b60008135905061329981613273565b92915050565b600080600080608085870312156132b9576132b8612c1e565b5b60006132c787828801612d2c565b94505060206132d887828801612d62565b93505060406132e98782880161328a565b92505060606132fa87828801612d2c565b91505092959194509250565b600060ff82169050919050565b61331c81613306565b82525050565b60006020820190506133376000830184613313565b92915050565b60008060008060008060c0878903121561335a57613359612c1e565b5b600061336889828a01612d2c565b965050602061337989828a01612d2c565b955050604061338a89828a01612d62565b945050606061339b89828a01612d62565b93505060806133ac89828a01612d62565b92505060a06133bd89828a01612d2c565b9150509295509295509295565b600080600080600080600060e0888a0312156133e9576133e8612c1e565b5b60006133f78a828b01612d2c565b97505060206134088a828b01612d2c565b96505060406134198a828b01612d62565b955050606061342a8a828b01612d62565b945050608061343b8a828b01612d62565b93505060a061344c8a828b01612d62565b92505060c061345d8a828b01612d2c565b91505092959891949750929550565b6000806040838503121561348357613482612c1e565b5b600061349185828601612d62565b92505060206134a285828601612d62565b9150509250929050565b60008060008060008060c087890312156134c9576134c8612c1e565b5b60006134d789828a01612d2c565b96505060206134e889828a01612d62565b95505060406134f989828a01612d62565b945050606061350a89828a01612d62565b935050608061351b89828a01612d62565b92505060a061352c89828a01612d2c565b9150509295509295509295565b7f4e487b7100000000000000000000000000000000000000000000000000000000600052601160045260246000fd5b600061357382612d41565b915061357e83612d41565b925082820261358c81612d41565b915082820484148315176135a3576135a2613539565b5b5092915050565b7f4e487b7100000000000000000000000000000000000000000000000000000000600052601260045260246000fd5b60006135e482612d41565b91506135ef83612d41565b9250826135ff576135fe6135aa565b5b828204905092915050565b600061361582612ce3565b9050919050565b6136258161360a565b811461363057600080fd5b50565b6000815190506136428161361c565b92915050565b60008151905061365781612d4b565b92915050565b600080600080600080600060e0888a03121561367c5761367b612c1e565b5b600061368a8a828b01613633565b975050602061369b8a828b01613633565b96505060406136ac8a828b01613648565b95505060606136bd8a828b01613648565b94505060806136ce8a828b01613648565b93505060a06136df8a828b01613648565b92505060c06136f08a828b01613633565b91505092959891949750929550565b60008060008060008060c0878903121561371c5761371b612c1e565b5b600061372a89828a01613633565b965050602061373b89828a01613633565b955050604061374c89828a01613648565b945050606061375d89828a01613648565b935050608061376e89828a01613648565b92505060a061377f89828a01613633565b9150509295509295509295565b600080600080608085870312156137a6576137a5612c1e565b5b60006137b487828801613633565b94505060206137c587828801613633565b93505060406137d687828801613648565b92505060606137e787828801613633565b91505092959194509250565b7f4e487b7100000000000000000000000000000000000000000000000000000000600052603260045260246000fd5b600061382d82612d41565b915061383883612d41565b92508282019050808211156138505761384f613539565b5b92915050565b600061386182612d41565b915061386c83612d41565b925082820390508181111561388457613883613539565b5b92915050565b600060408201905061389f6000830185613013565b6138ac6020830184613013565b9392505050565b6000815190506138c281612d15565b92915050565b6000602082840312156138de576138dd612c1e565b5b60006138ec848285016138b3565b91505092915050565b60006020828403121561390b5761390a612c1e565b5b600061391984828501613648565b91505092915050565b60006dffffffffffffffffffffffffffff82169050919050565b61394581613922565b811461395057600080fd5b50565b6000815190506139628161393c565b92915050565b600063ffffffff82169050919050565b61398181613968565b811461398c57600080fd5b50565b60008151905061399e81613978565b92915050565b6000806000606084860312156139bd576139bc612c1e565b5b60006139cb86828701613953565b93505060206139dc86828701613953565b92505060406139ed8682870161398f565b9150509250925092565b6000604082019050613a0c6000830185613013565b613a1960208301846131ce565b9392505050565b600060c082019050613a356000830189613013565b613a4260208301886131ce565b613a4f60408301876131ce565b613a5c60608301866131ce565b613a696080830185613013565b613a7660a08301846131ce565b979650505050505050565b600060e082019050613a96600083018a613013565b613aa36020830189613013565b613ab060408301886131ce565b613abd60608301876131ce565b613aca60808301866131ce565b613ad760a0830185613013565b613ae460c08301846131ce565b98975050505050505050565b600061010082019050613b06600083018b613013565b613b13602083018a613013565b613b2060408301896131ce565b613b2d60608301886131ce565b613b3a60808301876131ce565b613b4760a08301866131ce565b613b5460c0830185613013565b613b6160e08301846131ce565b9998505050505050505050565b600081519050919050565b600082825260208201905092915050565b6000819050602082019050919050565b6000613ba68383612df6565b60208301905092915050565b6000602082019050919050565b6000613bca82613b6e565b613bd48185613b79565b9350613bdf83613b8a565b8060005b83811015613c10578151613bf78882613b9a565b9750613c0283613bb2565b925050600181019050613be3565b5085935050505092915050565b6000604082019050613c3260008301856131ce565b8181036020830152613c448184613bbf565b90509392505050565b600067ffffffffffffffff821115613c6857613c67613047565b5b602082029050602081019050919050565b600080fd5b6000613c91613c8c84613c4d565b6130a7565b90508083825260208201905060208402830185811115613cb457613cb3613c79565b5b835b81811015613cdd5780613cc98882613648565b845260208401935050602081019050613cb6565b5050509392505050565b600082601f830112613cfc57613cfb61303d565b5b8151613d0c848260208601613c7e565b91505092915050565b600060208284031215613d2b57613d2a612c1e565b5b600082015167ffffffffffffffff811115613d4957613d48612c23565b5b613d5584828501613ce7565b91505092915050565b600060a082019050613d7360008301886131ce565b613d8060208301876131ce565b8181036040830152613d928186613bbf565b9050613da16060830185613013565b613dae60808301846131ce565b9695505050505050565b6000608082019050613dcd60008301876131ce565b8181036020830152613ddf8186613bbf565b9050613dee6040830185613013565b613dfb60608301846131ce565b9594505050505056fea264697066735822122093492a0c4a39c376943e17477389761803bb37609d9065cc6dadf2c1e0ead9e364736f6c634300081c0033",
  "linkReferences": {},
  "deployedLinkReferences": {}
}