{
  "_format": "hh-sol-artifact-1",
  "contractName": "UniswapV2SwapActions",
  "sourceName": "contracts/action/UniswapV2SwapActions.sol",
  "abi": [
    {
      "inputs": [
        {
          "internalType": "address",
          "name": "_router",
          "type": "address"
        }
      ],
      "stateMutability": "nonpayable",
      "type": "constructor"
    },
    {
      "inputs": [],
      "name": "FailedToApproveTokens",
      "type": "error"
    },
    {
      "inputs": [],
      "name": "InvalidTokenGetterID",
      "type": "error"
    },
    {
      "inputs": [],
      "name": "NoValidPercentageAmount",
      "type": "error"
    },
    {
      "inputs": [],
      "name": "NoZeroAmountValid",
      "type": "error"
    },
    {
      "inputs": [],
      "name": "NotZeroAmountForBothTokensAllowed",
      "type": "error"
    },
    {
      "inputs": [],
      "name": "PoolPairDoesNotExist",
      "type": "error"
    },
    {
      "inputs": [],
      "name": "DELTA_DEADLINE",
      "outputs": [
        {
          "internalType": "uint256",
          "name": "",
          "type": "uint256"
        }
      ],
      "stateMutability": "view",
      "type": "function"
    },
    {
      "inputs": [],
      "name": "PERCENTAGE_FACTOR",
      "outputs": [
        {
          "internalType": "uint256",
          "name": "",
          "type": "uint256"
        }
      ],
      "stateMutability": "view",
      "type": "function"
    },
    {
      "inputs": [],
      "name": "WETH",
      "outputs": [
        {
          "internalType": "address",
          "name": "",
          "type": "address"
        }
      ],
      "stateMutability": "view",
      "type": "function"
    },
    {
      "inputs": [
        {
          "internalType": "uint256",
          "name": "r",
          "type": "uint256"
        },
        {
          "internalType": "uint256",
          "name": "a",
          "type": "uint256"
        }
      ],
      "name": "_getSwapAmount",
      "outputs": [
        {
          "internalType": "uint256",
          "name": "",
          "type": "uint256"
        }
      ],
      "stateMutability": "pure",
      "type": "function"
    },
    {
      "inputs": [],
      "name": "factory",
      "outputs": [
        {
          "internalType": "address",
          "name": "",
          "type": "address"
        }
      ],
      "stateMutability": "view",
      "type": "function"
    },
    {
      "inputs": [
        {
          "internalType": "bytes4",
          "name": "selector",
          "type": "bytes4"
        },
        {
          "internalType": "bytes",
          "name": "params",
          "type": "bytes"
        }
      ],
      "name": "getTokenForSelector",
      "outputs": [
        {
          "internalType": "address",
          "name": "",
          "type": "address"
        }
      ],
      "stateMutability": "view",
      "type": "function"
    },
    {
      "inputs": [],
      "name": "router",
      "outputs": [
        {
          "internalType": "address",
          "name": "",
          "type": "address"
        }
      ],
      "stateMutability": "view",
      "type": "function"
    },
    {
      "inputs": [
        {
          "internalType": "uint256",
          "name": "amountOut",
          "type": "uint256"
        },
        {
          "internalType": "uint256",
          "name": "amountInMax",
          "type": "uint256"
        },
        {
          "internalType": "address[]",
          "name": "path",
          "type": "address[]"
        },
        {
          "internalType": "address",
          "name": "to",
          "type": "address"
        }
      ],
      "name": "swapETHForExactTokens",
      "outputs": [
        {
          "components": [
            {
              "internalType": "address",
              "name": "target",
              "type": "address"
            },
            {
              "internalType": "uint256",
              "name": "value",
              "type": "uint256"
            },
            {
              "internalType": "bytes",
              "name": "data",
              "type": "bytes"
            }
          ],
          "internalType": "struct IAction.PluginExecution[]",
          "name": "",
          "type": "tuple[]"
        }
      ],
      "stateMutability": "view",
      "type": "function"
    },
    {
      "inputs": [
        {
          "internalType": "uint256",
          "name": "amountIn",
          "type": "uint256"
        },
        {
          "internalType": "uint256",
          "name": "amountOutMin",
          "type": "uint256"
        },
        {
          "internalType": "address[]",
          "name": "path",
          "type": "address[]"
        },
        {
          "internalType": "address",
          "name": "to",
          "type": "address"
        }
      ],
      "name": "swapExactETHForTokens",
      "outputs": [
        {
          "components": [
            {
              "internalType": "address",
              "name": "target",
              "type": "address"
            },
            {
              "internalType": "uint256",
              "name": "value",
              "type": "uint256"
            },
            {
              "internalType": "bytes",
              "name": "data",
              "type": "bytes"
            }
          ],
          "internalType": "struct IAction.PluginExecution[]",
          "name": "",
          "type": "tuple[]"
        }
      ],
      "stateMutability": "view",
      "type": "function"
    },
    {
      "inputs": [
        {
          "internalType": "uint256",
          "name": "amountIn",
          "type": "uint256"
        },
        {
          "internalType": "uint256",
          "name": "amountOutMin",
          "type": "uint256"
        },
        {
          "internalType": "address[]",
          "name": "path",
          "type": "address[]"
        },
        {
          "internalType": "address",
          "name": "to",
          "type": "address"
        }
      ],
      "name": "swapExactTokensForETH",
      "outputs": [
        {
          "components": [
            {
              "internalType": "address",
              "name": "target",
              "type": "address"
            },
            {
              "internalType": "uint256",
              "name": "value",
              "type": "uint256"
            },
            {
              "internalType": "bytes",
              "name": "data",
              "type": "bytes"
            }
          ],
          "internalType": "struct IAction.PluginExecution[]",
          "name": "",
          "type": "tuple[]"
        }
      ],
      "stateMutability": "view",
      "type": "function"
    },
    {
      "inputs": [
        {
          "internalType": "uint256",
          "name": "amountIn",
          "type": "uint256"
        },
        {
          "internalType": "uint256",
          "name": "amountOutMin",
          "type": "uint256"
        },
        {
          "internalType": "address[]",
          "name": "path",
          "type": "address[]"
        },
        {
          "internalType": "address",
          "name": "to",
          "type": "address"
        }
      ],
      "name": "swapExactTokensForTokens",
      "outputs": [
        {
          "components": [
            {
              "internalType": "address",
              "name": "target",
              "type": "address"
            },
            {
              "internalType": "uint256",
              "name": "value",
              "type": "uint256"
            },
            {
              "internalType": "bytes",
              "name": "data",
              "type": "bytes"
            }
          ],
          "internalType": "struct IAction.PluginExecution[]",
          "name": "",
          "type": "tuple[]"
        }
      ],
      "stateMutability": "view",
      "type": "function"
    },
    {
      "inputs": [
        {
          "internalType": "uint256",
          "name": "percentage",
          "type": "uint256"
        },
        {
          "internalType": "address[]",
          "name": "path",
          "type": "address[]"
        },
        {
          "internalType": "address",
          "name": "to",
          "type": "address"
        }
      ],
      "name": "swapPercentageETHForTokens",
      "outputs": [
        {
          "components": [
            {
              "internalType": "address",
              "name": "target",
              "type": "address"
            },
            {
              "internalType": "uint256",
              "name": "value",
              "type": "uint256"
            },
            {
              "internalType": "bytes",
              "name": "data",
              "type": "bytes"
            }
          ],
          "internalType": "struct IAction.PluginExecution[]",
          "name": "",
          "type": "tuple[]"
        }
      ],
      "stateMutability": "view",
      "type": "function"
    },
    {
      "inputs": [
        {
          "internalType": "uint256",
          "name": "percentage",
          "type": "uint256"
        },
        {
          "internalType": "address[]",
          "name": "path",
          "type": "address[]"
        },
        {
          "internalType": "address",
          "name": "to",
          "type": "address"
        }
      ],
      "name": "swapPercentageTokensForETH",
      "outputs": [
        {
          "components": [
            {
              "internalType": "address",
              "name": "target",
              "type": "address"
            },
            {
              "internalType": "uint256",
              "name": "value",
              "type": "uint256"
            },
            {
              "internalType": "bytes",
              "name": "data",
              "type": "bytes"
            }
          ],
          "internalType": "struct IAction.PluginExecution[]",
          "name": "",
          "type": "tuple[]"
        }
      ],
      "stateMutability": "view",
      "type": "function"
    },
    {
      "inputs": [
        {
          "internalType": "uint256",
          "name": "percentage",
          "type": "uint256"
        },
        {
          "internalType": "address[]",
          "name": "path",
          "type": "address[]"
        },
        {
          "internalType": "address",
          "name": "to",
          "type": "address"
        }
      ],
      "name": "swapPercentageTokensForTokens",
      "outputs": [
        {
          "components": [
            {
              "internalType": "address",
              "name": "target",
              "type": "address"
            },
            {
              "internalType": "uint256",
              "name": "value",
              "type": "uint256"
            },
            {
              "internalType": "bytes",
              "name": "data",
              "type": "bytes"
            }
          ],
          "internalType": "struct IAction.PluginExecution[]",
          "name": "",
          "type": "tuple[]"
        }
      ],
      "stateMutability": "view",
      "type": "function"
    },
    {
      "inputs": [
        {
          "internalType": "uint256",
          "name": "amountOut",
          "type": "uint256"
        },
        {
          "internalType": "uint256",
          "name": "amountInMax",
          "type": "uint256"
        },
        {
          "internalType": "address[]",
          "name": "path",
          "type": "address[]"
        },
        {
          "internalType": "address",
          "name": "to",
          "type": "address"
        }
      ],
      "name": "swapTokensForExactETH",
      "outputs": [
        {
          "components": [
            {
              "internalType": "address",
              "name": "target",
              "type": "address"
            },
            {
              "internalType": "uint256",
              "name": "value",
              "type": "uint256"
            },
            {
              "internalType": "bytes",
              "name": "data",
              "type": "bytes"
            }
          ],
          "internalType": "struct IAction.PluginExecution[]",
          "name": "",
          "type": "tuple[]"
        }
      ],
      "stateMutability": "view",
      "type": "function"
    },
    {
      "inputs": [
        {
          "internalType": "uint256",
          "name": "amountOut",
          "type": "uint256"
        },
        {
          "internalType": "uint256",
          "name": "amountInMax",
          "type": "uint256"
        },
        {
          "internalType": "address[]",
          "name": "path",
          "type": "address[]"
        },
        {
          "internalType": "address",
          "name": "to",
          "type": "address"
        }
      ],
      "name": "swapTokensForExactTokens",
      "outputs": [
        {
          "components": [
            {
              "internalType": "address",
              "name": "target",
              "type": "address"
            },
            {
              "internalType": "uint256",
              "name": "value",
              "type": "uint256"
            },
            {
              "internalType": "bytes",
              "name": "data",
              "type": "bytes"
            }
          ],
          "internalType": "struct IAction.PluginExecution[]",
          "name": "",
          "type": "tuple[]"
        }
      ],
      "stateMutability": "view",
      "type": "function"
    },
    {
      "inputs": [
        {
          "internalType": "bytes4",
          "name": "",
          "type": "bytes4"
        }
      ],
      "name": "tokenGetterIDs",
      "outputs": [
        {
          "internalType": "uint8",
          "name": "",
          "type": "uint8"
        }
      ],
      "stateMutability": "view",
      "type": "function"
    },
    {
      "inputs": [],
      "name": "uniswapV2RouterAddress",
      "outputs": [
        {
          "internalType": "address",
          "name": "",
          "type": "address"
        }
      ],
      "stateMutability": "view",
      "type": "function"
    }
  ],
  "bytecode": "0x60e060405234801561001057600080fd5b50604051612d2a380380612d2a83398181016040528101906100329190610612565b808073ffffffffffffffffffffffffffffffffffffffff1660808173ffffffffffffffffffffffffffffffffffffffff168152505060805173ffffffffffffffffffffffffffffffffffffffff1663ad5c46486040518163ffffffff1660e01b8152600401602060405180830381865afa1580156100b4573d6000803e3d6000fd5b505050506040513d601f19601f820116820180604052508101906100d89190610612565b73ffffffffffffffffffffffffffffffffffffffff1660c08173ffffffffffffffffffffffffffffffffffffffff168152505060805173ffffffffffffffffffffffffffffffffffffffff1663c45a01556040518163ffffffff1660e01b8152600401602060405180830381865afa158015610158573d6000803e3d6000fd5b505050506040513d601f19601f8201168201806040525081019061017c9190610612565b73ffffffffffffffffffffffffffffffffffffffff1660a08173ffffffffffffffffffffffffffffffffffffffff1681525050506001600080636b213fe960e01b7bffffffffffffffffffffffffffffffffffffffffffffffffffffffff19167bffffffffffffffffffffffffffffffffffffffffffffffffffffffff1916815260200190815260200160002060006101000a81548160ff021916908360ff1602179055506001600080632d4eaa7b60e01b7bffffffffffffffffffffffffffffffffffffffffffffffffffffffff19167bffffffffffffffffffffffffffffffffffffffffffffffffffffffff1916815260200190815260200160002060006101000a81548160ff021916908360ff160217905550600160008063e244e1ff60e01b7bffffffffffffffffffffffffffffffffffffffffffffffffffffffff19167bffffffffffffffffffffffffffffffffffffffffffffffffffffffff1916815260200190815260200160002060006101000a81548160ff021916908360ff160217905550600260008063363db5c660e01b7bffffffffffffffffffffffffffffffffffffffffffffffffffffffff19167bffffffffffffffffffffffffffffffffffffffffffffffffffffffff1916815260200190815260200160002060006101000a81548160ff021916908360ff1602179055506002600080633e8877ed60e01b7bffffffffffffffffffffffffffffffffffffffffffffffffffffffff19167bffffffffffffffffffffffffffffffffffffffffffffffffffffffff1916815260200190815260200160002060006101000a81548160ff021916908360ff160217905550600260008063472b43f360e01b7bffffffffffffffffffffffffffffffffffffffffffffffffffffffff19167bffffffffffffffffffffffffffffffffffffffffffffffffffffffff1916815260200190815260200160002060006101000a81548160ff021916908360ff16021790555060026000806342712a6760e01b7bffffffffffffffffffffffffffffffffffffffffffffffffffffffff19167bffffffffffffffffffffffffffffffffffffffffffffffffffffffff1916815260200190815260200160002060006101000a81548160ff021916908360ff1602179055506003600080630b0a6ca360e01b7bffffffffffffffffffffffffffffffffffffffffffffffffffffffff19167bffffffffffffffffffffffffffffffffffffffffffffffffffffffff1916815260200190815260200160002060006101000a81548160ff021916908360ff1602179055506003600080633e100f8760e01b7bffffffffffffffffffffffffffffffffffffffffffffffffffffffff19167bffffffffffffffffffffffffffffffffffffffffffffffffffffffff1916815260200190815260200160002060006101000a81548160ff021916908360ff1602179055505061063f565b600080fd5b600073ffffffffffffffffffffffffffffffffffffffff82169050919050565b60006105df826105b4565b9050919050565b6105ef816105d4565b81146105fa57600080fd5b50565b60008151905061060c816105e6565b92915050565b600060208284031215610628576106276105af565b5b6000610636848285016105fd565b91505092915050565b60805160a05160c05161267d6106ad6000396000610ea001526000610ee4015260008181610cb9015281816110f00152818161123d01528181611299015281816113c3015281816114180152818161155101528181611619015281816116e101526117e6015261267d6000f3fe608060405234801561001057600080fd5b50600436106101165760003560e01c8063617b595a116100a2578063c45a015511610071578063c45a015514610355578063e244e1ff14610373578063ecc861d0146103a3578063ee01e5e7146103d3578063f887ea40146103f157610116565b8063617b595a146102b95780636b213fe9146102d7578063ad5c464814610307578063b1d613681461032557610116565b80633e8877ed116100e95780633e8877ed146101db57806342712a671461020b578063472b43f31461023b5780634a377e1d1461026b5780635581161b1461028957610116565b80630b0a6ca31461011b5780632d4eaa7b1461014b578063363db5c61461017b5780633e100f87146101ab575b600080fd5b610135600480360381019061013091906119f4565b61040f565b6040516101429190611c28565b60405180910390f35b61016560048036038101906101609190611c4a565b6104a4565b6040516101729190611c28565b60405180910390f35b61019560048036038101906101909190611c4a565b6105bc565b6040516101a29190611c28565b60405180910390f35b6101c560048036038101906101c091906119f4565b610725565b6040516101d29190611c28565b60405180910390f35b6101f560048036038101906101f09190611c4a565b6107ba565b6040516102029190611c28565b60405180910390f35b61022560048036038101906102209190611c4a565b610983565b6040516102329190611c28565b60405180910390f35b61025560048036038101906102509190611c4a565b610b4c565b6040516102629190611c28565b60405180910390f35b610273610cb5565b6040516102809190611ce1565b60405180910390f35b6102a3600480360381019061029e9190611e84565b610cdd565b6040516102b09190611ce1565b60405180910390f35b6102c1610e2d565b6040516102ce9190611eef565b60405180910390f35b6102f160048036038101906102ec91906119f4565b610e32565b6040516102fe9190611c28565b60405180910390f35b61030f610e9e565b60405161031c9190611ce1565b60405180910390f35b61033f600480360381019061033a9190611f0a565b610ec2565b60405161034c9190611f53565b60405180910390f35b61035d610ee2565b60405161036a9190611ce1565b60405180910390f35b61038d60048036038101906103889190611c4a565b610f06565b60405161039a9190611c28565b60405180910390f35b6103bd60048036038101906103b89190611f6e565b61107e565b6040516103ca9190611eef565b60405180910390f35b6103db6110e8565b6040516103e89190611eef565b60405180910390f35b6103f96110ee565b6040516104069190611ce1565b60405180910390f35b606084600081148061042257506103e881115b15610459576040517f7de8fbf600000000000000000000000000000000000000000000000000000000815260040160405180910390fd5b61049961048f8686600081811061047357610472611fae565b5b90506020020160208101906104889190611fdd565b8886611112565b60008787876105bc565b915050949350505050565b606085600081036104e1576040517fded7302c00000000000000000000000000000000000000000000000000000000815260040160405180910390fd5b6000600167ffffffffffffffff8111156104fe576104fd611d59565b5b60405190808252806020026020018201604052801561053757816020015b6105246118b0565b81526020019060019003908161051c5790505b50905061058f8888888880806020026020016040519081016040528093929190818152602001838360200280828437600081840152601f19601f820116905080830192505050505050508761058a6111b4565b6111c8565b816000815181106105a3576105a2611fae565b5b6020026020010181905250809250505095945050505050565b606085600081036105f9576040517fded7302c00000000000000000000000000000000000000000000000000000000815260040160405180910390fd5b6000600267ffffffffffffffff81111561061657610615611d59565b5b60405190808252806020026020018201604052801561064f57816020015b61063c6118b0565b8152602001906001900390816106345790505b5090506106848686600081811061066957610668611fae565b5b905060200201602081019061067e9190611fdd565b8961128d565b8160008151811061069857610697611fae565b5b60200260200101819052506106f88888888880806020026020016040519081016040528093929190818152602001838360200280828437600081840152601f19601f82011690508083019250505050505050876106f36111b4565b61134c565b8160018151811061070c5761070b611fae565b5b6020026020010181905250809250505095945050505050565b606084600081148061073857506103e881115b1561076f576040517f7de8fbf600000000000000000000000000000000000000000000000000000000815260040160405180910390fd5b6107af6107a58686600081811061078957610788611fae565b5b905060200201602081019061079e9190611fdd565b8886611112565b6000878787610b4c565b915050949350505050565b606085600081036107f7576040517fded7302c00000000000000000000000000000000000000000000000000000000815260040160405180910390fd5b60008087036108525761084b868680806020026020016040519081016040528093929190818152602001838360200280828437600081840152601f19601f8201169050808301925050505050505089611414565b9050610856565b8690505b6000600267ffffffffffffffff81111561087357610872611d59565b5b6040519080825280602002602001820160405280156108ac57816020015b6108996118b0565b8152602001906001900390816108915790505b5090506108e1878760008181106108c6576108c5611fae565b5b90506020020160208101906108db9190611fdd565b8361128d565b816000815181106108f5576108f4611fae565b5b60200260200101819052506109558983898980806020026020016040519081016040528093929190818152602001838360200280828437600081840152601f19601f82011690508083019250505050505050886109506111b4565b6114da565b8160018151811061096957610968611fae565b5b602002602001018190525080935050505095945050505050565b606085600081036109c0576040517fded7302c00000000000000000000000000000000000000000000000000000000815260040160405180910390fd5b6000808703610a1b57610a14868680806020026020016040519081016040528093929190818152602001838360200280828437600081840152601f19601f8201169050808301925050505050505089611414565b9050610a1f565b8690505b6000600267ffffffffffffffff811115610a3c57610a3b611d59565b5b604051908082528060200260200182016040528015610a7557816020015b610a626118b0565b815260200190600190039081610a5a5790505b509050610aaa87876000818110610a8f57610a8e611fae565b5b9050602002016020810190610aa49190611fdd565b8361128d565b81600081518110610abe57610abd611fae565b5b6020026020010181905250610b1e8983898980806020026020016040519081016040528093929190818152602001838360200280828437600081840152601f19601f8201169050808301925050505050505088610b196111b4565b6115a2565b81600181518110610b3257610b31611fae565b5b602002602001018190525080935050505095945050505050565b60608560008103610b89576040517fded7302c00000000000000000000000000000000000000000000000000000000815260040160405180910390fd5b6000600267ffffffffffffffff811115610ba657610ba5611d59565b5b604051908082528060200260200182016040528015610bdf57816020015b610bcc6118b0565b815260200190600190039081610bc45790505b509050610c1486866000818110610bf957610bf8611fae565b5b9050602002016020810190610c0e9190611fdd565b8961128d565b81600081518110610c2857610c27611fae565b5b6020026020010181905250610c888888888880806020026020016040519081016040528093929190818152602001838360200280828437600081840152601f19601f8201169050808301925050505050505087610c836111b4565b61166a565b81600181518110610c9c57610c9b611fae565b5b6020026020010181905250809250505095945050505050565b60007f0000000000000000000000000000000000000000000000000000000000000000905090565b600080600080857bffffffffffffffffffffffffffffffffffffffffffffffffffffffff19167bffffffffffffffffffffffffffffffffffffffffffffffffffffffff1916815260200190815260200160002060009054906101000a900460ff16905060008160ff161480610d55575060038160ff16115b15610d8c576040517fae563a1f00000000000000000000000000000000000000000000000000000000815260040160405180910390fd5b60018160ff1603610da1576000915050610e27565b60028160ff1603610dec57600083806020019051810190610dc29190612135565b509250505080600081518110610ddb57610dda611fae565b5b602002602001015192505050610e27565b600083806020019051810190610e0291906121b8565b5091505080600081518110610e1a57610e19611fae565b5b6020026020010151925050505b92915050565b601e81565b6060846000811480610e4557506103e881115b15610e7c576040517f7de8fbf600000000000000000000000000000000000000000000000000000000815260040160405180910390fd5b610e93610e898785611732565b60008787876104a4565b915050949350505050565b7f000000000000000000000000000000000000000000000000000000000000000081565b60006020528060005260406000206000915054906101000a900460ff1681565b7f000000000000000000000000000000000000000000000000000000000000000081565b60608560008103610f43576040517fded7302c00000000000000000000000000000000000000000000000000000000815260040160405180910390fd5b6000600167ffffffffffffffff811115610f6057610f5f611d59565b5b604051908082528060200260200182016040528015610f9957816020015b610f866118b0565b815260200190600190039081610f7e5790505b5090506000808803610ff757610ff0878780806020026020016040519081016040528093929190818152602001838360200280828437600081840152601f19601f820116905080830192505050505050508a611414565b9050610ffb565b8790505b611050818a898980806020026020016040519081016040528093929190818152602001838360200280828437600081840152601f19601f820116905080830192505050505050508861104b6111b4565b611771565b8260008151811061106457611063611fae565b5b602002602001018190525081935050505095945050505050565b60006107ca6107cd846110919190612256565b6110cc623cda20856110a39190612256565b623cda29876110b29190612256565b6110bc9190612298565b866110c79190612256565b611836565b6110d691906122cc565b6110e0919061232f565b905092915050565b6103e881565b7f000000000000000000000000000000000000000000000000000000000000000081565b6000808473ffffffffffffffffffffffffffffffffffffffff166370a08231846040518263ffffffff1660e01b815260040161114e9190611ce1565b602060405180830381865afa15801561116b573d6000803e3d6000fd5b505050506040513d601f19601f8201168201806040525081019061118f9190612360565b90506103e881856111a09190612256565b6111aa919061232f565b9150509392505050565b6000601e426111c39190612298565b905090565b6111d06118b0565b6000858585856040516024016111e9949392919061243c565b604051602081830303815290604052637ff36ab560e01b6020820180517bffffffffffffffffffffffffffffffffffffffffffffffffffffffff8381831617835250505050905060405180606001604052807f000000000000000000000000000000000000000000000000000000000000000073ffffffffffffffffffffffffffffffffffffffff1681526020018881526020018281525091505095945050505050565b6112956118b0565b60007f0000000000000000000000000000000000000000000000000000000000000000836040516024016112ca929190612488565b60405160208183030381529060405263095ea7b360e01b6020820180517bffffffffffffffffffffffffffffffffffffffffffffffffffffffff8381831617835250505050905060405180606001604052808573ffffffffffffffffffffffffffffffffffffffff168152602001600081526020018281525091505092915050565b6113546118b0565b6000868686868660405160240161136f9594939291906124b1565b6040516020818303038152906040526318cbafe560e01b6020820180517bffffffffffffffffffffffffffffffffffffffffffffffffffffffff8381831617835250505050905060405180606001604052807f000000000000000000000000000000000000000000000000000000000000000073ffffffffffffffffffffffffffffffffffffffff168152602001600081526020018281525091505095945050505050565b60007f000000000000000000000000000000000000000000000000000000000000000073ffffffffffffffffffffffffffffffffffffffff16631f00ca7483856040518363ffffffff1660e01b815260040161147192919061250b565b600060405180830381865afa15801561148e573d6000803e3d6000fd5b505050506040513d6000823e3d601f19601f820116820180604052508101906114b791906125fe565b6000815181106114ca576114c9611fae565b5b6020026020010151905092915050565b6114e26118b0565b600086868686866040516024016114fd9594939291906124b1565b604051602081830303815290604052634a25d94a60e01b6020820180517bffffffffffffffffffffffffffffffffffffffffffffffffffffffff8381831617835250505050905060405180606001604052807f000000000000000000000000000000000000000000000000000000000000000073ffffffffffffffffffffffffffffffffffffffff168152602001600081526020018281525091505095945050505050565b6115aa6118b0565b600086868686866040516024016115c59594939291906124b1565b604051602081830303815290604052638803dbee60e01b6020820180517bffffffffffffffffffffffffffffffffffffffffffffffffffffffff8381831617835250505050905060405180606001604052807f000000000000000000000000000000000000000000000000000000000000000073ffffffffffffffffffffffffffffffffffffffff168152602001600081526020018281525091505095945050505050565b6116726118b0565b6000868686868660405160240161168d9594939291906124b1565b6040516020818303038152906040526338ed173960e01b6020820180517bffffffffffffffffffffffffffffffffffffffffffffffffffffffff8381831617835250505050905060405180606001604052807f000000000000000000000000000000000000000000000000000000000000000073ffffffffffffffffffffffffffffffffffffffff168152602001600081526020018281525091505095945050505050565b6000808273ffffffffffffffffffffffffffffffffffffffff163190506103e8848261175e9190612256565b611768919061232f565b91505092915050565b6117796118b0565b600085858585604051602401611792949392919061243c565b60405160208183030381529060405263fb3bdb4160e01b6020820180517bffffffffffffffffffffffffffffffffffffffffffffffffffffffff8381831617835250505050905060405180606001604052807f000000000000000000000000000000000000000000000000000000000000000073ffffffffffffffffffffffffffffffffffffffff1681526020018881526020018281525091505095945050505050565b6000600382111561189d5781905060006001600284611855919061232f565b61185f9190612298565b90505b8181101561189757809150600281828561187c919061232f565b6118869190612298565b611890919061232f565b9050611862565b506118ab565b600082146118aa57600190505b5b919050565b6040518060600160405280600073ffffffffffffffffffffffffffffffffffffffff16815260200160008152602001606081525090565b6000604051905090565b600080fd5b600080fd5b6000819050919050565b61190e816118fb565b811461191957600080fd5b50565b60008135905061192b81611905565b92915050565b600080fd5b600080fd5b600080fd5b60008083601f84011261195657611955611931565b5b8235905067ffffffffffffffff81111561197357611972611936565b5b60208301915083602082028301111561198f5761198e61193b565b5b9250929050565b600073ffffffffffffffffffffffffffffffffffffffff82169050919050565b60006119c182611996565b9050919050565b6119d1816119b6565b81146119dc57600080fd5b50565b6000813590506119ee816119c8565b92915050565b60008060008060608587031215611a0e57611a0d6118f1565b5b6000611a1c8782880161191c565b945050602085013567ffffffffffffffff811115611a3d57611a3c6118f6565b5b611a4987828801611940565b93509350506040611a5c878288016119df565b91505092959194509250565b600081519050919050565b600082825260208201905092915050565b6000819050602082019050919050565b611a9d816119b6565b82525050565b611aac816118fb565b82525050565b600081519050919050565b600082825260208201905092915050565b60005b83811015611aec578082015181840152602081019050611ad1565b60008484015250505050565b6000601f19601f8301169050919050565b6000611b1482611ab2565b611b1e8185611abd565b9350611b2e818560208601611ace565b611b3781611af8565b840191505092915050565b6000606083016000830151611b5a6000860182611a94565b506020830151611b6d6020860182611aa3565b5060408301518482036040860152611b858282611b09565b9150508091505092915050565b6000611b9e8383611b42565b905092915050565b6000602082019050919050565b6000611bbe82611a68565b611bc88185611a73565b935083602082028501611bda85611a84565b8060005b85811015611c165784840389528151611bf78582611b92565b9450611c0283611ba6565b925060208a01995050600181019050611bde565b50829750879550505050505092915050565b60006020820190508181036000830152611c428184611bb3565b905092915050565b600080600080600060808688031215611c6657611c656118f1565b5b6000611c748882890161191c565b9550506020611c858882890161191c565b945050604086013567ffffffffffffffff811115611ca657611ca56118f6565b5b611cb288828901611940565b93509350506060611cc5888289016119df565b9150509295509295909350565b611cdb816119b6565b82525050565b6000602082019050611cf66000830184611cd2565b92915050565b60007fffffffff0000000000000000000000000000000000000000000000000000000082169050919050565b611d3181611cfc565b8114611d3c57600080fd5b50565b600081359050611d4e81611d28565b92915050565b600080fd5b7f4e487b7100000000000000000000000000000000000000000000000000000000600052604160045260246000fd5b611d9182611af8565b810181811067ffffffffffffffff82111715611db057611daf611d59565b5b80604052505050565b6000611dc36118e7565b9050611dcf8282611d88565b919050565b600067ffffffffffffffff821115611def57611dee611d59565b5b611df882611af8565b9050602081019050919050565b82818337600083830152505050565b6000611e27611e2284611dd4565b611db9565b905082815260208101848484011115611e4357611e42611d54565b5b611e4e848285611e05565b509392505050565b600082601f830112611e6b57611e6a611931565b5b8135611e7b848260208601611e14565b91505092915050565b60008060408385031215611e9b57611e9a6118f1565b5b6000611ea985828601611d3f565b925050602083013567ffffffffffffffff811115611eca57611ec96118f6565b5b611ed685828601611e56565b9150509250929050565b611ee9816118fb565b82525050565b6000602082019050611f046000830184611ee0565b92915050565b600060208284031215611f2057611f1f6118f1565b5b6000611f2e84828501611d3f565b91505092915050565b600060ff82169050919050565b611f4d81611f37565b82525050565b6000602082019050611f686000830184611f44565b92915050565b60008060408385031215611f8557611f846118f1565b5b6000611f938582860161191c565b9250506020611fa48582860161191c565b9150509250929050565b7f4e487b7100000000000000000000000000000000000000000000000000000000600052603260045260246000fd5b600060208284031215611ff357611ff26118f1565b5b6000612001848285016119df565b91505092915050565b60008151905061201981611905565b92915050565b600067ffffffffffffffff82111561203a57612039611d59565b5b602082029050602081019050919050565b60008151905061205a816119c8565b92915050565b600061207361206e8461201f565b611db9565b905080838252602082019050602084028301858111156120965761209561193b565b5b835b818110156120bf57806120ab888261204b565b845260208401935050602081019050612098565b5050509392505050565b600082601f8301126120de576120dd611931565b5b81516120ee848260208601612060565b91505092915050565b600061210282611996565b9050919050565b612112816120f7565b811461211d57600080fd5b50565b60008151905061212f81612109565b92915050565b6000806000806080858703121561214f5761214e6118f1565b5b600061215d8782880161200a565b945050602061216e8782880161200a565b935050604085015167ffffffffffffffff81111561218f5761218e6118f6565b5b61219b878288016120c9565b92505060606121ac87828801612120565b91505092959194509250565b6000806000606084860312156121d1576121d06118f1565b5b60006121df8682870161200a565b935050602084015167ffffffffffffffff811115612200576121ff6118f6565b5b61220c868287016120c9565b925050604061221d86828701612120565b9150509250925092565b7f4e487b7100000000000000000000000000000000000000000000000000000000600052601160045260246000fd5b6000612261826118fb565b915061226c836118fb565b925082820261227a816118fb565b9150828204841483151761229157612290612227565b5b5092915050565b60006122a3826118fb565b91506122ae836118fb565b92508282019050808211156122c6576122c5612227565b5b92915050565b60006122d7826118fb565b91506122e2836118fb565b92508282039050818111156122fa576122f9612227565b5b92915050565b7f4e487b7100000000000000000000000000000000000000000000000000000000600052601260045260246000fd5b600061233a826118fb565b9150612345836118fb565b92508261235557612354612300565b5b828204905092915050565b600060208284031215612376576123756118f1565b5b60006123848482850161200a565b91505092915050565b600081519050919050565b600082825260208201905092915050565b6000819050602082019050919050565b60006123c58383611a94565b60208301905092915050565b6000602082019050919050565b60006123e98261238d565b6123f38185612398565b93506123fe836123a9565b8060005b8381101561242f57815161241688826123b9565b9750612421836123d1565b925050600181019050612402565b5085935050505092915050565b60006080820190506124516000830187611ee0565b818103602083015261246381866123de565b90506124726040830185611cd2565b61247f6060830184611ee0565b95945050505050565b600060408201905061249d6000830185611cd2565b6124aa6020830184611ee0565b9392505050565b600060a0820190506124c66000830188611ee0565b6124d36020830187611ee0565b81810360408301526124e581866123de565b90506124f46060830185611cd2565b6125016080830184611ee0565b9695505050505050565b60006040820190506125206000830185611ee0565b818103602083015261253281846123de565b90509392505050565b600067ffffffffffffffff82111561255657612555611d59565b5b602082029050602081019050919050565b600061257a6125758461253b565b611db9565b9050808382526020820190506020840283018581111561259d5761259c61193b565b5b835b818110156125c657806125b2888261200a565b84526020840193505060208101905061259f565b5050509392505050565b600082601f8301126125e5576125e4611931565b5b81516125f5848260208601612567565b91505092915050565b600060208284031215612614576126136118f1565b5b600082015167ffffffffffffffff811115612632576126316118f6565b5b61263e848285016125d0565b9150509291505056fea2646970667358221220ce1e90f4b90b3425d7adb63e0938d19d0f1a22a2c57963952c084a30258d1ed764736f6c634300081c0033",
  "linkReferences": {},
  "deployedLinkReferences": {}
}