{
  "contracts/action/UniswapV2LPActions.sol": {
    "UniswapV2LPActions": {
      "abi": [
        {
          "inputs": [
            {
              "internalType": "address",
              "name": "_router",
              "type": "address"
            }
          ],
          "stateMutability": "nonpayable",
          "type": "constructor"
        },
        {
          "inputs": [],
          "name": "FailedToApproveTokens",
          "type": "error"
        },
        {
          "inputs": [],
          "name": "InvalidTokenGetterID",
          "type": "error"
        },
        {
          "inputs": [],
          "name": "NoValidPercentageAmount",
          "type": "error"
        },
        {
          "inputs": [],
          "name": "NoZeroAmountValid",
          "type": "error"
        },
        {
          "inputs": [],
          "name": "NotZeroAmountForBothTokensAllowed",
          "type": "error"
        },
        {
          "inputs": [],
          "name": "PoolPairDoesNotExist",
          "type": "error"
        },
        {
          "inputs": [],
          "name": "DELTA_DEADLINE",
          "outputs": [
            {
              "internalType": "uint256",
              "name": "",
              "type": "uint256"
            }
          ],
          "stateMutability": "view",
          "type": "function"
        },
        {
          "inputs": [],
          "name": "PERCENTAGE_FACTOR",
          "outputs": [
            {
              "internalType": "uint256",
              "name": "",
              "type": "uint256"
            }
          ],
          "stateMutability": "view",
          "type": "function"
        },
        {
          "inputs": [],
          "name": "WETH",
          "outputs": [
            {
              "internalType": "address",
              "name": "",
              "type": "address"
            }
          ],
          "stateMutability": "view",
          "type": "function"
        },
        {
          "inputs": [
            {
              "internalType": "uint256",
              "name": "r",
              "type": "uint256"
            },
            {
              "internalType": "uint256",
              "name": "a",
              "type": "uint256"
            }
          ],
          "name": "_getSwapAmount",
          "outputs": [
            {
              "internalType": "uint256",
              "name": "",
              "type": "uint256"
            }
          ],
          "stateMutability": "pure",
          "type": "function"
        },
        {
          "inputs": [
            {
              "internalType": "address",
              "name": "tokenA",
              "type": "address"
            },
            {
              "internalType": "address",
              "name": "tokenB",
              "type": "address"
            },
            {
              "internalType": "uint256",
              "name": "percentage",
              "type": "uint256"
            },
            {
              "internalType": "address",
              "name": "wallet",
              "type": "address"
            }
          ],
          "name": "addLiqudityPercentage",
          "outputs": [
            {
              "components": [
                {
                  "internalType": "address",
                  "name": "target",
                  "type": "address"
                },
                {
                  "internalType": "uint256",
                  "name": "value",
                  "type": "uint256"
                },
                {
                  "internalType": "bytes",
                  "name": "data",
                  "type": "bytes"
                }
              ],
              "internalType": "struct IAction.PluginExecution[]",
              "name": "",
              "type": "tuple[]"
            }
          ],
          "stateMutability": "view",
          "type": "function"
        },
        {
          "inputs": [
            {
              "internalType": "address",
              "name": "token",
              "type": "address"
            },
            {
              "internalType": "uint256",
              "name": "percentage",
              "type": "uint256"
            },
            {
              "internalType": "address",
              "name": "wallet",
              "type": "address"
            }
          ],
          "name": "addLiqudityPercentageETH",
          "outputs": [
            {
              "components": [
                {
                  "internalType": "address",
                  "name": "target",
                  "type": "address"
                },
                {
                  "internalType": "uint256",
                  "name": "value",
                  "type": "uint256"
                },
                {
                  "internalType": "bytes",
                  "name": "data",
                  "type": "bytes"
                }
              ],
              "internalType": "struct IAction.PluginExecution[]",
              "name": "",
              "type": "tuple[]"
            }
          ],
          "stateMutability": "view",
          "type": "function"
        },
        {
          "inputs": [
            {
              "internalType": "address",
              "name": "tokenA",
              "type": "address"
            },
            {
              "internalType": "address",
              "name": "tokenB",
              "type": "address"
            },
            {
              "internalType": "uint256",
              "name": "amountADesired",
              "type": "uint256"
            },
            {
              "internalType": "uint256",
              "name": "amountBDesired",
              "type": "uint256"
            },
            {
              "internalType": "uint256",
              "name": "amountAMin",
              "type": "uint256"
            },
            {
              "internalType": "uint256",
              "name": "amountBMin",
              "type": "uint256"
            },
            {
              "internalType": "address",
              "name": "to",
              "type": "address"
            }
          ],
          "name": "addLiquidity",
          "outputs": [
            {
              "components": [
                {
                  "internalType": "address",
                  "name": "target",
                  "type": "address"
                },
                {
                  "internalType": "uint256",
                  "name": "value",
                  "type": "uint256"
                },
                {
                  "internalType": "bytes",
                  "name": "data",
                  "type": "bytes"
                }
              ],
              "internalType": "struct IAction.PluginExecution[]",
              "name": "",
              "type": "tuple[]"
            }
          ],
          "stateMutability": "view",
          "type": "function"
        },
        {
          "inputs": [
            {
              "internalType": "address",
              "name": "token",
              "type": "address"
            },
            {
              "internalType": "uint256",
              "name": "amountTokenDesired",
              "type": "uint256"
            },
            {
              "internalType": "uint256",
              "name": "amountTokenMin",
              "type": "uint256"
            },
            {
              "internalType": "uint256",
              "name": "amountETHDesired",
              "type": "uint256"
            },
            {
              "internalType": "uint256",
              "name": "amountETHMin",
              "type": "uint256"
            },
            {
              "internalType": "address",
              "name": "to",
              "type": "address"
            }
          ],
          "name": "addLiquidityETH",
          "outputs": [
            {
              "components": [
                {
                  "internalType": "address",
                  "name": "target",
                  "type": "address"
                },
                {
                  "internalType": "uint256",
                  "name": "value",
                  "type": "uint256"
                },
                {
                  "internalType": "bytes",
                  "name": "data",
                  "type": "bytes"
                }
              ],
              "internalType": "struct IAction.PluginExecution[]",
              "name": "",
              "type": "tuple[]"
            }
          ],
          "stateMutability": "view",
          "type": "function"
        },
        {
          "inputs": [],
          "name": "factory",
          "outputs": [
            {
              "internalType": "address",
              "name": "",
              "type": "address"
            }
          ],
          "stateMutability": "view",
          "type": "function"
        },
        {
          "inputs": [
            {
              "internalType": "bytes4",
              "name": "selector",
              "type": "bytes4"
            },
            {
              "internalType": "bytes",
              "name": "params",
              "type": "bytes"
            }
          ],
          "name": "getTokenForSelector",
          "outputs": [
            {
              "internalType": "address",
              "name": "",
              "type": "address"
            }
          ],
          "stateMutability": "view",
          "type": "function"
        },
        {
          "inputs": [
            {
              "internalType": "address",
              "name": "tokenA",
              "type": "address"
            },
            {
              "internalType": "address",
              "name": "tokenB",
              "type": "address"
            },
            {
              "internalType": "uint256",
              "name": "liquidity",
              "type": "uint256"
            },
            {
              "internalType": "uint256",
              "name": "amountAMin",
              "type": "uint256"
            },
            {
              "internalType": "uint256",
              "name": "amountBMin",
              "type": "uint256"
            },
            {
              "internalType": "address",
              "name": "to",
              "type": "address"
            }
          ],
          "name": "removeLiquidity",
          "outputs": [
            {
              "components": [
                {
                  "internalType": "address",
                  "name": "target",
                  "type": "address"
                },
                {
                  "internalType": "uint256",
                  "name": "value",
                  "type": "uint256"
                },
                {
                  "internalType": "bytes",
                  "name": "data",
                  "type": "bytes"
                }
              ],
              "internalType": "struct IAction.PluginExecution[]",
              "name": "",
              "type": "tuple[]"
            }
          ],
          "stateMutability": "view",
          "type": "function"
        },
        {
          "inputs": [
            {
              "internalType": "address",
              "name": "token",
              "type": "address"
            },
            {
              "internalType": "uint256",
              "name": "liquidity",
              "type": "uint256"
            },
            {
              "internalType": "uint256",
              "name": "amountTokenMin",
              "type": "uint256"
            },
            {
              "internalType": "uint256",
              "name": "amountETHMin",
              "type": "uint256"
            },
            {
              "internalType": "address",
              "name": "to",
              "type": "address"
            }
          ],
          "name": "removeLiquidityETH",
          "outputs": [
            {
              "components": [
                {
                  "internalType": "address",
                  "name": "target",
                  "type": "address"
                },
                {
                  "internalType": "uint256",
                  "name": "value",
                  "type": "uint256"
                },
                {
                  "internalType": "bytes",
                  "name": "data",
                  "type": "bytes"
                }
              ],
              "internalType": "struct IAction.PluginExecution[]",
              "name": "",
              "type": "tuple[]"
            }
          ],
          "stateMutability": "view",
          "type": "function"
        },
        {
          "inputs": [
            {
              "internalType": "address",
              "name": "token",
              "type": "address"
            },
            {
              "internalType": "uint256",
              "name": "liquidityPercentage",
              "type": "uint256"
            },
            {
              "internalType": "address",
              "name": "to",
              "type": "address"
            }
          ],
          "name": "removeLiquidityETHPercentage",
          "outputs": [
            {
              "components": [
                {
                  "internalType": "address",
                  "name": "target",
                  "type": "address"
                },
                {
                  "internalType": "uint256",
                  "name": "value",
                  "type": "uint256"
                },
                {
                  "internalType": "bytes",
                  "name": "data",
                  "type": "bytes"
                }
              ],
              "internalType": "struct IAction.PluginExecution[]",
              "name": "",
              "type": "tuple[]"
            }
          ],
          "stateMutability": "view",
          "type": "function"
        },
        {
          "inputs": [
            {
              "internalType": "address",
              "name": "tokenA",
              "type": "address"
            },
            {
              "internalType": "address",
              "name": "tokenB",
              "type": "address"
            },
            {
              "internalType": "uint256",
              "name": "percentageLiquidity",
              "type": "uint256"
            },
            {
              "internalType": "address",
              "name": "to",
              "type": "address"
            }
          ],
          "name": "removeLiquidityPercentage",
          "outputs": [
            {
              "components": [
                {
                  "internalType": "address",
                  "name": "target",
                  "type": "address"
                },
                {
                  "internalType": "uint256",
                  "name": "value",
                  "type": "uint256"
                },
                {
                  "internalType": "bytes",
                  "name": "data",
                  "type": "bytes"
                }
              ],
              "internalType": "struct IAction.PluginExecution[]",
              "name": "",
              "type": "tuple[]"
            }
          ],
          "stateMutability": "view",
          "type": "function"
        },
        {
          "inputs": [],
          "name": "router",
          "outputs": [
            {
              "internalType": "address",
              "name": "",
              "type": "address"
            }
          ],
          "stateMutability": "view",
          "type": "function"
        },
        {
          "inputs": [
            {
              "internalType": "bytes4",
              "name": "",
              "type": "bytes4"
            }
          ],
          "name": "tokenGetterIDs",
          "outputs": [
            {
              "internalType": "uint8",
              "name": "",
              "type": "uint8"
            }
          ],
          "stateMutability": "view",
          "type": "function"
        },
        {
          "inputs": [],
          "name": "uniswapV2RouterAddress",
          "outputs": [
            {
              "internalType": "address",
              "name": "",
              "type": "address"
            }
          ],
          "stateMutability": "view",
          "type": "function"
        },
        {
          "inputs": [
            {
              "internalType": "address",
              "name": "tokenA",
              "type": "address"
            },
            {
              "internalType": "address",
              "name": "tokenB",
              "type": "address"
            },
            {
              "internalType": "uint256",
              "name": "amountIn",
              "type": "uint256"
            },
            {
              "internalType": "address",
              "name": "to",
              "type": "address"
            }
          ],
          "name": "zap",
          "outputs": [
            {
              "components": [
                {
                  "internalType": "address",
                  "name": "target",
                  "type": "address"
                },
                {
                  "internalType": "uint256",
                  "name": "value",
                  "type": "uint256"
                },
                {
                  "internalType": "bytes",
                  "name": "data",
                  "type": "bytes"
                }
              ],
              "internalType": "struct IAction.PluginExecution[]",
              "name": "",
              "type": "tuple[]"
            }
          ],
          "stateMutability": "view",
          "type": "function"
        },
        {
          "inputs": [
            {
              "internalType": "address",
              "name": "token",
              "type": "address"
            },
            {
              "internalType": "uint256",
              "name": "amountIn",
              "type": "uint256"
            },
            {
              "internalType": "bool",
              "name": "inputETH",
              "type": "bool"
            },
            {
              "internalType": "address",
              "name": "to",
              "type": "address"
            }
          ],
          "name": "zapETH",
          "outputs": [
            {
              "components": [
                {
                  "internalType": "address",
                  "name": "target",
                  "type": "address"
                },
                {
                  "internalType": "uint256",
                  "name": "value",
                  "type": "uint256"
                },
                {
                  "internalType": "bytes",
                  "name": "data",
                  "type": "bytes"
                }
              ],
              "internalType": "struct IAction.PluginExecution[]",
              "name": "",
              "type": "tuple[]"
            }
          ],
          "stateMutability": "view",
          "type": "function"
        }
      ],
      "evm": {
        "bytecode": {
          "linkReferences": {},
          "object": "60e060405234801561001057600080fd5b5060405161450b38038061450b83398181016040528101906100329190610683565b808073ffffffffffffffffffffffffffffffffffffffff1660808173ffffffffffffffffffffffffffffffffffffffff168152505060805173ffffffffffffffffffffffffffffffffffffffff1663ad5c46486040518163ffffffff1660e01b8152600401602060405180830381865afa1580156100b4573d6000803e3d6000fd5b505050506040513d601f19601f820116820180604052508101906100d89190610683565b73ffffffffffffffffffffffffffffffffffffffff1660c08173ffffffffffffffffffffffffffffffffffffffff168152505060805173ffffffffffffffffffffffffffffffffffffffff1663c45a01556040518163ffffffff1660e01b8152600401602060405180830381865afa158015610158573d6000803e3d6000fd5b505050506040513d601f19601f8201168201806040525081019061017c9190610683565b73ffffffffffffffffffffffffffffffffffffffff1660a08173ffffffffffffffffffffffffffffffffffffffff168152505050600160008063fbec41a860e01b7bffffffffffffffffffffffffffffffffffffffffffffffffffffffff19167bffffffffffffffffffffffffffffffffffffffffffffffffffffffff1916815260200190815260200160002060006101000a81548160ff021916908360ff160217905550600160008063c977880560e01b7bffffffffffffffffffffffffffffffffffffffffffffffffffffffff19167bffffffffffffffffffffffffffffffffffffffffffffffffffffffff1916815260200190815260200160002060006101000a81548160ff021916908360ff1602179055506001600080636587e4ce60e01b7bffffffffffffffffffffffffffffffffffffffffffffffffffffffff19167bffffffffffffffffffffffffffffffffffffffffffffffffffffffff1916815260200190815260200160002060006101000a81548160ff021916908360ff16021790555060016000806302e7b74560e01b7bffffffffffffffffffffffffffffffffffffffffffffffffffffffff19167bffffffffffffffffffffffffffffffffffffffffffffffffffffffff1916815260200190815260200160002060006101000a81548160ff021916908360ff160217905550600160008063a181031e60e01b7bffffffffffffffffffffffffffffffffffffffffffffffffffffffff19167bffffffffffffffffffffffffffffffffffffffffffffffffffffffff1916815260200190815260200160002060006101000a81548160ff021916908360ff160217905550600260008063ca3d653960e01b7bffffffffffffffffffffffffffffffffffffffffffffffffffffffff19167bffffffffffffffffffffffffffffffffffffffffffffffffffffffff1916815260200190815260200160002060006101000a81548160ff021916908360ff160217905550600360008063c0e3ee6b60e01b7bffffffffffffffffffffffffffffffffffffffffffffffffffffffff19167bffffffffffffffffffffffffffffffffffffffffffffffffffffffff1916815260200190815260200160002060006101000a81548160ff021916908360ff160217905550600460008063ea5217c360e01b7bffffffffffffffffffffffffffffffffffffffffffffffffffffffff19167bffffffffffffffffffffffffffffffffffffffffffffffffffffffff1916815260200190815260200160002060006101000a81548160ff021916908360ff160217905550600460008063d21f43b960e01b7bffffffffffffffffffffffffffffffffffffffffffffffffffffffff19167bffffffffffffffffffffffffffffffffffffffffffffffffffffffff1916815260200190815260200160002060006101000a81548160ff021916908360ff16021790555060046000806317617def60e01b7bffffffffffffffffffffffffffffffffffffffffffffffffffffffff19167bffffffffffffffffffffffffffffffffffffffffffffffffffffffff1916815260200190815260200160002060006101000a81548160ff021916908360ff160217905550506106b0565b600080fd5b600073ffffffffffffffffffffffffffffffffffffffff82169050919050565b600061065082610625565b9050919050565b61066081610645565b811461066b57600080fd5b50565b60008151905061067d81610657565b92915050565b60006020828403121561069957610698610620565b5b60006106a78482850161066e565b91505092915050565b60805160a05160c051613d8b610780600039600081816104a1015281816107b401528181610a5401528181610c18015281816111570152818161117d015281816111bc015281816118590152818161188f015281816124ab0152612791015260008181610ba401526112b201526000818161059c015281816110df015281816116bb015281816117fb0152818161199601528181611df20152818161211f015281816123140152818161256b015281816128020152818161297a01528181612a400152612b070152613d8b6000f3fe608060405234801561001057600080fd5b50600436106101215760003560e01c8063c0e3ee6b116100ad578063ea5217c311610071578063ea5217c31461037e578063ecc861d0146103ae578063ee01e5e7146103de578063f887ea40146103fc578063fbec41a81461041a57610121565b8063c0e3ee6b146102a0578063c45a0155146102d0578063c9778805146102ee578063ca3d65391461031e578063d21f43b91461034e57610121565b8063617b595a116100f4578063617b595a146101d45780636587e4ce146101f2578063a181031e14610222578063ad5c464814610252578063b1d613681461027057610121565b806302e7b7451461012657806317617def146101565780634a377e1d146101865780635581161b146101a4575b600080fd5b610140600480360381019061013b9190612c37565b61044a565b60405161014d9190612e4a565b60405180910390f35b610170600480360381019061016b9190612e6c565b6104df565b60405161017d9190612e4a565b60405180910390f35b61018e610598565b60405161019b9190612ee2565b60405180910390f35b6101be60048036038101906101b9919061308a565b6105c0565b6040516101cb9190612ee2565b60405180910390f35b6101dc610710565b6040516101e991906130f5565b60405180910390f35b61020c60048036038101906102079190613110565b610715565b6040516102199190612e4a565b60405180910390f35b61023c600480360381019061023791906131c3565b61083f565b6040516102499190612e4a565b60405180910390f35b61025a610a52565b6040516102679190612ee2565b60405180910390f35b61028a6004803603810190610285919061322a565b610a76565b6040516102979190613273565b60405180910390f35b6102ba60048036038101906102b5919061328e565b610a96565b6040516102c79190612e4a565b60405180910390f35b6102d8610ba2565b6040516102e59190612ee2565b60405180910390f35b61030860048036038101906103039190612c37565b610bc6565b6040516103159190612e4a565b60405180910390f35b6103386004803603810190610333919061331b565b610c9d565b6040516103459190612e4a565b60405180910390f35b61036860048036038101906103639190612e6c565b610e14565b6040516103759190612e4a565b60405180910390f35b61039860048036038101906103939190612e6c565b610e8b565b6040516103a59190612e4a565b60405180910390f35b6103c860048036038101906103c391906133bd565b61106d565b6040516103d591906130f5565b60405180910390f35b6103e66110d7565b6040516103f391906130f5565b60405180910390f35b6104046110dd565b6040516104119190612ee2565b60405180910390f35b610434600480360381019061042f91906133fd565b611101565b6040516104419190612e4a565b60405180910390f35b606082600081148061045d57506103e881115b15610494576040517f7de8fbf600000000000000000000000000000000000000000000000000000000815260040160405180910390fd5b6104d5856104cc6104c5887f00000000000000000000000000000000000000000000000000000000000000006112ad565b87876113be565b60008087610715565b9150509392505050565b60608260008114806104f257506103e881115b15610529576040517f7de8fbf600000000000000000000000000000000000000000000000000000000815260040160405180910390fd5b600061053587876112ad565b905060008061054689898589611460565b9150915061058a89896103e88a8661055e91906134b9565b610568919061352a565b6103e88b8661057791906134b9565b610581919061352a565b6000808c610c9d565b945050505050949350505050565b60007f0000000000000000000000000000000000000000000000000000000000000000905090565b600080600080857bffffffffffffffffffffffffffffffffffffffffffffffffffffffff19167bffffffffffffffffffffffffffffffffffffffffffffffffffffffff1916815260200190815260200160002060009054906101000a900460ff16905060008160ff161480610638575060048160ff16115b1561066f576040517fae563a1f00000000000000000000000000000000000000000000000000000000815260040160405180910390fd5b60018160ff160361068457600091505061070a565b60028160ff16036106b7576000838060200190518101906106a591906135ae565b5050505050509050809250505061070a565b60038160ff16036106e9576000838060200190518101906106d89190613650565b50505050509050809250505061070a565b6000838060200190518101906106ff91906136dd565b505050905080925050505b92915050565b601e81565b60608460008103610752576040517fded7302c00000000000000000000000000000000000000000000000000000000815260040160405180910390fd5b6000600267ffffffffffffffff81111561076f5761076e612f5f565b5b6040519080825280602002602001820160405280156107a857816020015b610795612b58565b81526020019060019003908161078d5790505b5090506107de6107d8897f00000000000000000000000000000000000000000000000000000000000000006112ad565b886116af565b816000815181106107f2576107f1613744565b5b6020026020010181905250610812888888888861080d61176e565b611782565b8160018151811061082657610825613744565b5b6020026020010181905250809250505095945050505050565b606060008060006108528888888861184d565b9250925092506000600282516108689190613773565b67ffffffffffffffff81111561088157610880612f5f565b5b6040519080825280602002602001820160405280156108ba57816020015b6108a7612b58565b81526020019060019003908161089f5790505b50905060006108cf8a8660008760008c611101565b9050826000815181106108e5576108e4613744565b5b60200260200101518260008151811061090157610900613744565b5b60200260200101819052506001835103610990578060008151811061092957610928613744565b5b60200260200101518260018151811061094557610944613744565b5b60200260200101819052508060018151811061096457610963613744565b5b6020026020010151826002815181106109805761097f613744565b5b6020026020010181905250610a42565b826001815181106109a4576109a3613744565b5b6020026020010151826001815181106109c0576109bf613744565b5b6020026020010181905250806000815181106109df576109de613744565b5b6020026020010151826002815181106109fb576109fa613744565b5b602002602001018190525080600181518110610a1a57610a19613744565b5b602002602001015182600381518110610a3657610a35613744565b5b60200260200101819052505b8195505050505050949350505050565b7f000000000000000000000000000000000000000000000000000000000000000081565b60006020528060005260406000206000915054906101000a900460ff1681565b60608460008103610ad3576040517fded7302c00000000000000000000000000000000000000000000000000000000815260040160405180910390fd5b6000600267ffffffffffffffff811115610af057610aef612f5f565b5b604051908082528060200260200182016040528015610b2957816020015b610b16612b58565b815260200190600190039081610b0e5790505b509050610b3f610b398a8a6112ad565b886116af565b81600081518110610b5357610b52613744565b5b6020026020010181905250610b74898989898989610b6f61176e565b61191b565b81600181518110610b8857610b87613744565b5b602002602001018190525080925050509695505050505050565b7f000000000000000000000000000000000000000000000000000000000000000081565b6060826000811480610bd957506103e881115b15610c10576040517f7de8fbf600000000000000000000000000000000000000000000000000000000815260040160405180910390fd5b6000610c3c867f00000000000000000000000000000000000000000000000000000000000000006112ad565b9050600080610c4c8884886119e9565b91509150610c90886103e88985610c6391906134b9565b610c6d919061352a565b60006103e88b86610c7e91906134b9565b610c88919061352a565b60008b611101565b9450505050509392505050565b6060600086148015610caf5750600085145b15610ce6576040517f2d1440d500000000000000000000000000000000000000000000000000000000815260040160405180910390fd5b60008603610d0557610d028786610cfd8b8b6112ad565b611bd5565b95505b60008503610d2457610d218887610d1c8b8b6112ad565b611bd5565b94505b6000600367ffffffffffffffff811115610d4157610d40612f5f565b5b604051908082528060200260200182016040528015610d7a57816020015b610d67612b58565b815260200190600190039081610d5f5790505b509050610d8789886116af565b81600081518110610d9b57610d9a613744565b5b6020026020010181905250610db088876116af565b81600181518110610dc457610dc3613744565b5b6020026020010181905250610de689898989898989610de161176e565b611d75565b81600281518110610dfa57610df9613744565b5b602002602001018190525080915050979650505050505050565b6060826000811480610e2757506103e881115b15610e5e576040517f7de8fbf600000000000000000000000000000000000000000000000000000000815260040160405180910390fd5b610e808686610e77610e708a8a6112ad565b88886113be565b60008088610a96565b915050949350505050565b60606000600567ffffffffffffffff811115610eaa57610ea9612f5f565b5b604051908082528060200260200182016040528015610ee357816020015b610ed0612b58565b815260200190600190039081610ec85790505b5090506000610ef287876112ad565b90506000610f01828988611e46565b9050600080610f128a8a858a611fa9565b915091506000610f338b8b868c610f2991906137a7565b866000808e610c9d565b905081600081518110610f4957610f48613744565b5b602002602001015186600081518110610f6557610f64613744565b5b602002602001018190525081600181518110610f8457610f83613744565b5b602002602001015186600181518110610fa057610f9f613744565b5b602002602001018190525080600081518110610fbf57610fbe613744565b5b602002602001015186600281518110610fdb57610fda613744565b5b602002602001018190525080600181518110610ffa57610ff9613744565b5b60200260200101518660038151811061101657611015613744565b5b60200260200101819052508060028151811061103557611034613744565b5b60200260200101518660048151811061105157611050613744565b5b6020026020010181905250859650505050505050949350505050565b60006107ca6107cd8461108091906134b9565b6110bb623cda208561109291906134b9565b623cda29876110a191906134b9565b6110ab9190613773565b866110b691906134b9565b612221565b6110c591906137a7565b6110cf919061352a565b905092915050565b6103e881565b7f000000000000000000000000000000000000000000000000000000000000000081565b60606000861480156111135750600084145b1561114a576040517f2d1440d500000000000000000000000000000000000000000000000000000000815260040160405180910390fd5b600086036111a9576111a67f0000000000000000000000000000000000000000000000000000000000000000856111a18a7f00000000000000000000000000000000000000000000000000000000000000006112ad565b611bd5565b95505b600084036111e8576111e587876111e08a7f00000000000000000000000000000000000000000000000000000000000000006112ad565b611bd5565b93505b6000600267ffffffffffffffff81111561120557611204612f5f565b5b60405190808252806020026020018201604052801561123e57816020015b61122b612b58565b8152602001906001900390816112235790505b50905061124b88886116af565b8160008151811061125f5761125e613744565b5b602002602001018190525061128088868989888861127b61176e565b61229b565b8160018151811061129457611293613744565b5b6020026020010181905250809150509695505050505050565b6000807f000000000000000000000000000000000000000000000000000000000000000073ffffffffffffffffffffffffffffffffffffffff1663e6a4390585856040518363ffffffff1660e01b815260040161130b9291906137db565b602060405180830381865afa158015611328573d6000803e3d6000fd5b505050506040513d601f19601f8201168201806040525081019061134c9190613819565b9050600073ffffffffffffffffffffffffffffffffffffffff168173ffffffffffffffffffffffffffffffffffffffff16036113b4576040517f2a11ba8500000000000000000000000000000000000000000000000000000000815260040160405180910390fd5b8091505092915050565b6000808473ffffffffffffffffffffffffffffffffffffffff166370a08231846040518263ffffffff1660e01b81526004016113fa9190612ee2565b602060405180830381865afa158015611417573d6000803e3d6000fd5b505050506040513d601f19601f8201168201806040525081019061143b9190613846565b90506103e8818561144c91906134b9565b611456919061352a565b9150509392505050565b6000806000808573ffffffffffffffffffffffffffffffffffffffff16630902f1ac6040518163ffffffff1660e01b8152600401606060405180830381865afa1580156114b1573d6000803e3d6000fd5b505050506040513d601f19601f820116820180604052508101906114d591906138f5565b50915091506000808973ffffffffffffffffffffffffffffffffffffffff168873ffffffffffffffffffffffffffffffffffffffff16630dfe16816040518163ffffffff1660e01b8152600401602060405180830381865afa15801561153f573d6000803e3d6000fd5b505050506040513d601f19601f820116820180604052508101906115639190613819565b73ffffffffffffffffffffffffffffffffffffffff160361158957839150829050611590565b8291508390505b60008a73ffffffffffffffffffffffffffffffffffffffff166370a08231896040518263ffffffff1660e01b81526004016115cb9190612ee2565b602060405180830381865afa1580156115e8573d6000803e3d6000fd5b505050506040513d601f19601f8201168201806040525081019061160c9190613846565b905060008a73ffffffffffffffffffffffffffffffffffffffff166370a082318a6040518263ffffffff1660e01b81526004016116499190612ee2565b602060405180830381865afa158015611666573d6000803e3d6000fd5b505050506040513d601f19601f8201168201806040525081019061168a9190613846565b905061169884848484612366565b809850819950505050505050505094509492505050565b6116b7612b58565b60007f0000000000000000000000000000000000000000000000000000000000000000836040516024016116ec929190613948565b60405160208183030381529060405263095ea7b360e01b6020820180517bffffffffffffffffffffffffffffffffffffffffffffffffffffffff8381831617835250505050905060405180606001604052808573ffffffffffffffffffffffffffffffffffffffff168152602001600081526020018281525091505092915050565b6000601e4261177d9190613773565b905090565b61178a612b58565b60008787878787876040516024016117a796959493929190613971565b6040516020818303038152906040526302751cec60e01b6020820180517bffffffffffffffffffffffffffffffffffffffffffffffffffffffff8381831617835250505050905060405180606001604052807f000000000000000000000000000000000000000000000000000000000000000073ffffffffffffffffffffffffffffffffffffffff16815260200160008152602001828152509150509695505050505050565b6000806060600061187e7f0000000000000000000000000000000000000000000000000000000000000000896112ad565b905060008661188d57886118af565b7f00000000000000000000000000000000000000000000000000000000000000005b905060006118be83838b611e46565b905087156118ec576118d18a82896123fe565b809550819750505080896118e591906137a7565b945061190e565b6118f78a828961266c565b8095508196505050808961190b91906137a7565b95505b5050509450945094915050565b611923612b58565b60008888888888888860405160240161194297969594939291906139d2565b60405160208183030381529060405263baa2abde60e01b6020820180517bffffffffffffffffffffffffffffffffffffffffffffffffffffffff8381831617835250505050905060405180606001604052807f000000000000000000000000000000000000000000000000000000000000000073ffffffffffffffffffffffffffffffffffffffff1681526020016000815260200182815250915050979650505050505050565b6000806000808573ffffffffffffffffffffffffffffffffffffffff16630902f1ac6040518163ffffffff1660e01b8152600401606060405180830381865afa158015611a3a573d6000803e3d6000fd5b505050506040513d601f19601f82011682018060405250810190611a5e91906138f5565b50915091506000808873ffffffffffffffffffffffffffffffffffffffff168873ffffffffffffffffffffffffffffffffffffffff16630dfe16816040518163ffffffff1660e01b8152600401602060405180830381865afa158015611ac8573d6000803e3d6000fd5b505050506040513d601f19601f82011682018060405250810190611aec9190613819565b73ffffffffffffffffffffffffffffffffffffffff1603611b1257839150829050611b19565b8291508390505b60008973ffffffffffffffffffffffffffffffffffffffff166370a08231896040518263ffffffff1660e01b8152600401611b549190612ee2565b602060405180830381865afa158015611b71573d6000803e3d6000fd5b505050506040513d601f19601f82011682018060405250810190611b959190613846565b905060008873ffffffffffffffffffffffffffffffffffffffff16319050611bbf84848484612366565b8098508199505050505050505050935093915050565b6000808273ffffffffffffffffffffffffffffffffffffffff16630dfe16816040518163ffffffff1660e01b8152600401602060405180830381865afa158015611c23573d6000803e3d6000fd5b505050506040513d601f19601f82011682018060405250810190611c479190613819565b90506000808473ffffffffffffffffffffffffffffffffffffffff16630902f1ac6040518163ffffffff1660e01b8152600401606060405180830381865afa158015611c97573d6000803e3d6000fd5b505050506040513d601f19601f82011682018060405250810190611cbb91906138f5565b50915091508673ffffffffffffffffffffffffffffffffffffffff168373ffffffffffffffffffffffffffffffffffffffff1603611d3157816dffffffffffffffffffffffffffff16816dffffffffffffffffffffffffffff1687611d2091906134b9565b611d2a919061352a565b9350611d6b565b806dffffffffffffffffffffffffffff16826dffffffffffffffffffffffffffff1687611d5e91906134b9565b611d68919061352a565b93505b5050509392505050565b611d7d612b58565b60008989898989898989604051602401611d9e989796959493929190613a41565b60405160208183030381529060405263e8e3370060e01b6020820180517bffffffffffffffffffffffffffffffffffffffffffffffffffffffff8381831617835250505050905060405180606001604052807f000000000000000000000000000000000000000000000000000000000000000073ffffffffffffffffffffffffffffffffffffffff168152602001600081526020018281525091505098975050505050505050565b60008060008573ffffffffffffffffffffffffffffffffffffffff16630902f1ac6040518163ffffffff1660e01b8152600401606060405180830381865afa158015611e96573d6000803e3d6000fd5b505050506040513d601f19601f82011682018060405250810190611eba91906138f5565b506dffffffffffffffffffffffffffff1691506dffffffffffffffffffffffffffff1691508473ffffffffffffffffffffffffffffffffffffffff168673ffffffffffffffffffffffffffffffffffffffff16630dfe16816040518163ffffffff1660e01b8152600401602060405180830381865afa158015611f41573d6000803e3d6000fd5b505050506040513d601f19601f82011682018060405250810190611f659190613819565b73ffffffffffffffffffffffffffffffffffffffff1603611f9357611f8a828561106d565b92505050611fa2565b611f9d818561106d565b925050505b9392505050565b600060606000600267ffffffffffffffff811115611fca57611fc9612f5f565b5b60405190808252806020026020018201604052801561200357816020015b611ff0612b58565b815260200190600190039081611fe85790505b50905061201087866116af565b8160008151811061202457612023613744565b5b60200260200101819052506000600267ffffffffffffffff81111561204c5761204b612f5f565b5b60405190808252806020026020018201604052801561207a5781602001602082028036833780820191505090505b509050878160008151811061209257612091613744565b5b602002602001019073ffffffffffffffffffffffffffffffffffffffff16908173ffffffffffffffffffffffffffffffffffffffff168152505086816001815181106120e1576120e0613744565b5b602002602001019073ffffffffffffffffffffffffffffffffffffffff16908173ffffffffffffffffffffffffffffffffffffffff168152505060007f000000000000000000000000000000000000000000000000000000000000000073ffffffffffffffffffffffffffffffffffffffff1663d06ca61f88846040518363ffffffff1660e01b8152600401612178929190613b6e565b600060405180830381865afa158015612195573d6000803e3d6000fd5b505050506040513d6000823e3d601f19601f820116820180604052508101906121be9190613c66565b90506121d587600084896121d061176e565b612903565b836001815181106121e9576121e8613744565b5b60200260200101819052508060018151811061220857612207613744565b5b6020026020010151839450945050505094509492505050565b600060038211156122885781905060006001600284612240919061352a565b61224a9190613773565b90505b81811015612282578091506002818285612267919061352a565b6122719190613773565b61227b919061352a565b905061224d565b50612296565b6000821461229557600190505b5b919050565b6122a3612b58565b60008887878787876040516024016122c096959493929190613971565b60405160208183030381529060405263f305d71960e01b6020820180517bffffffffffffffffffffffffffffffffffffffffffffffffffffffff8381831617835250505050905060405180606001604052807f000000000000000000000000000000000000000000000000000000000000000073ffffffffffffffffffffffffffffffffffffffff16815260200189815260200182815250915050979650505050505050565b6000808391508290506000866dffffffffffffffffffffffffffff16866dffffffffffffffffffffffffffff168661239e91906134b9565b6123a8919061352a565b9050838111156123f057856dffffffffffffffffffffffffffff16876dffffffffffffffffffffffffffff16856123df91906134b9565b6123e9919061352a565b92506123f4565b8091505b5094509492505050565b600060606000600167ffffffffffffffff81111561241f5761241e612f5f565b5b60405190808252806020026020018201604052801561245857816020015b612445612b58565b81526020019060019003908161243d5790505b5090506000600267ffffffffffffffff81111561247857612477612f5f565b5b6040519080825280602002602001820160405280156124a65781602001602082028036833780820191505090505b5090507f0000000000000000000000000000000000000000000000000000000000000000816000815181106124de576124dd613744565b5b602002602001019073ffffffffffffffffffffffffffffffffffffffff16908173ffffffffffffffffffffffffffffffffffffffff1681525050868160018151811061252d5761252c613744565b5b602002602001019073ffffffffffffffffffffffffffffffffffffffff16908173ffffffffffffffffffffffffffffffffffffffff168152505060007f000000000000000000000000000000000000000000000000000000000000000073ffffffffffffffffffffffffffffffffffffffff1663d06ca61f88846040518363ffffffff1660e01b81526004016125c4929190613b6e565b600060405180830381865afa1580156125e1573d6000803e3d6000fd5b505050506040513d6000823e3d601f19601f8201168201806040525081019061260a9190613c66565b9050612621876000848961261c61176e565b6129cb565b8360008151811061263557612634613744565b5b60200260200101819052508060018151811061265457612653613744565b5b60200260200101518394509450505050935093915050565b600060606000600267ffffffffffffffff81111561268d5761268c612f5f565b5b6040519080825280602002602001820160405280156126c657816020015b6126b3612b58565b8152602001906001900390816126ab5790505b5090506126d386866116af565b816000815181106126e7576126e6613744565b5b60200260200101819052506000600267ffffffffffffffff81111561270f5761270e612f5f565b5b60405190808252806020026020018201604052801561273d5781602001602082028036833780820191505090505b509050868160008151811061275557612754613744565b5b602002602001019073ffffffffffffffffffffffffffffffffffffffff16908173ffffffffffffffffffffffffffffffffffffffff16815250507f0000000000000000000000000000000000000000000000000000000000000000816001815181106127c4576127c3613744565b5b602002602001019073ffffffffffffffffffffffffffffffffffffffff16908173ffffffffffffffffffffffffffffffffffffffff168152505060007f000000000000000000000000000000000000000000000000000000000000000073ffffffffffffffffffffffffffffffffffffffff1663d06ca61f88846040518363ffffffff1660e01b815260040161285b929190613b6e565b600060405180830381865afa158015612878573d6000803e3d6000fd5b505050506040513d6000823e3d601f19601f820116820180604052508101906128a19190613c66565b90506128b887600084896128b361176e565b612a90565b836001815181106128cc576128cb613744565b5b6020026020010181905250806001815181106128eb576128ea613744565b5b60200260200101518394509450505050935093915050565b61290b612b58565b60008686868686604051602401612926959493929190613caf565b6040516020818303038152906040526338ed173960e01b6020820180517bffffffffffffffffffffffffffffffffffffffffffffffffffffffff8381831617835250505050905060405180606001604052807f000000000000000000000000000000000000000000000000000000000000000073ffffffffffffffffffffffffffffffffffffffff168152602001600081526020018281525091505095945050505050565b6129d3612b58565b6000858585856040516024016129ec9493929190613d09565b604051602081830303815290604052637ff36ab560e01b6020820180517bffffffffffffffffffffffffffffffffffffffffffffffffffffffff8381831617835250505050905060405180606001604052807f000000000000000000000000000000000000000000000000000000000000000073ffffffffffffffffffffffffffffffffffffffff1681526020018881526020018281525091505095945050505050565b612a98612b58565b60008686868686604051602401612ab3959493929190613caf565b6040516020818303038152906040526318cbafe560e01b6020820180517bffffffffffffffffffffffffffffffffffffffffffffffffffffffff8381831617835250505050905060405180606001604052807f000000000000000000000000000000000000000000000000000000000000000073ffffffffffffffffffffffffffffffffffffffff168152602001600081526020018281525091505095945050505050565b6040518060600160405280600073ffffffffffffffffffffffffffffffffffffffff16815260200160008152602001606081525090565b6000604051905090565b600080fd5b600080fd5b600073ffffffffffffffffffffffffffffffffffffffff82169050919050565b6000612bce82612ba3565b9050919050565b612bde81612bc3565b8114612be957600080fd5b50565b600081359050612bfb81612bd5565b92915050565b6000819050919050565b612c1481612c01565b8114612c1f57600080fd5b50565b600081359050612c3181612c0b565b92915050565b600080600060608486031215612c5057612c4f612b99565b5b6000612c5e86828701612bec565b9350506020612c6f86828701612c22565b9250506040612c8086828701612bec565b9150509250925092565b600081519050919050565b600082825260208201905092915050565b6000819050602082019050919050565b612cbf81612bc3565b82525050565b612cce81612c01565b82525050565b600081519050919050565b600082825260208201905092915050565b60005b83811015612d0e578082015181840152602081019050612cf3565b60008484015250505050565b6000601f19601f8301169050919050565b6000612d3682612cd4565b612d408185612cdf565b9350612d50818560208601612cf0565b612d5981612d1a565b840191505092915050565b6000606083016000830151612d7c6000860182612cb6565b506020830151612d8f6020860182612cc5565b5060408301518482036040860152612da78282612d2b565b9150508091505092915050565b6000612dc08383612d64565b905092915050565b6000602082019050919050565b6000612de082612c8a565b612dea8185612c95565b935083602082028501612dfc85612ca6565b8060005b85811015612e385784840389528151612e198582612db4565b9450612e2483612dc8565b925060208a01995050600181019050612e00565b50829750879550505050505092915050565b60006020820190508181036000830152612e648184612dd5565b905092915050565b60008060008060808587031215612e8657612e85612b99565b5b6000612e9487828801612bec565b9450506020612ea587828801612bec565b9350506040612eb687828801612c22565b9250506060612ec787828801612bec565b91505092959194509250565b612edc81612bc3565b82525050565b6000602082019050612ef76000830184612ed3565b92915050565b60007fffffffff0000000000000000000000000000000000000000000000000000000082169050919050565b612f3281612efd565b8114612f3d57600080fd5b50565b600081359050612f4f81612f29565b92915050565b600080fd5b600080fd5b7f4e487b7100000000000000000000000000000000000000000000000000000000600052604160045260246000fd5b612f9782612d1a565b810181811067ffffffffffffffff82111715612fb657612fb5612f5f565b5b80604052505050565b6000612fc9612b8f565b9050612fd58282612f8e565b919050565b600067ffffffffffffffff821115612ff557612ff4612f5f565b5b612ffe82612d1a565b9050602081019050919050565b82818337600083830152505050565b600061302d61302884612fda565b612fbf565b90508281526020810184848401111561304957613048612f5a565b5b61305484828561300b565b509392505050565b600082601f83011261307157613070612f55565b5b813561308184826020860161301a565b91505092915050565b600080604083850312156130a1576130a0612b99565b5b60006130af85828601612f40565b925050602083013567ffffffffffffffff8111156130d0576130cf612b9e565b5b6130dc8582860161305c565b9150509250929050565b6130ef81612c01565b82525050565b600060208201905061310a60008301846130e6565b92915050565b600080600080600060a0868803121561312c5761312b612b99565b5b600061313a88828901612bec565b955050602061314b88828901612c22565b945050604061315c88828901612c22565b935050606061316d88828901612c22565b925050608061317e88828901612bec565b9150509295509295909350565b60008115159050919050565b6131a08161318b565b81146131ab57600080fd5b50565b6000813590506131bd81613197565b92915050565b600080600080608085870312156131dd576131dc612b99565b5b60006131eb87828801612bec565b94505060206131fc87828801612c22565b935050604061320d878288016131ae565b925050606061321e87828801612bec565b91505092959194509250565b6000602082840312156132405761323f612b99565b5b600061324e84828501612f40565b91505092915050565b600060ff82169050919050565b61326d81613257565b82525050565b60006020820190506132886000830184613264565b92915050565b60008060008060008060c087890312156132ab576132aa612b99565b5b60006132b989828a01612bec565b96505060206132ca89828a01612bec565b95505060406132db89828a01612c22565b94505060606132ec89828a01612c22565b93505060806132fd89828a01612c22565b92505060a061330e89828a01612bec565b9150509295509295509295565b600080600080600080600060e0888a03121561333a57613339612b99565b5b60006133488a828b01612bec565b97505060206133598a828b01612bec565b965050604061336a8a828b01612c22565b955050606061337b8a828b01612c22565b945050608061338c8a828b01612c22565b93505060a061339d8a828b01612c22565b92505060c06133ae8a828b01612bec565b91505092959891949750929550565b600080604083850312156133d4576133d3612b99565b5b60006133e285828601612c22565b92505060206133f385828601612c22565b9150509250929050565b60008060008060008060c0878903121561341a57613419612b99565b5b600061342889828a01612bec565b965050602061343989828a01612c22565b955050604061344a89828a01612c22565b945050606061345b89828a01612c22565b935050608061346c89828a01612c22565b92505060a061347d89828a01612bec565b9150509295509295509295565b7f4e487b7100000000000000000000000000000000000000000000000000000000600052601160045260246000fd5b60006134c482612c01565b91506134cf83612c01565b92508282026134dd81612c01565b915082820484148315176134f4576134f361348a565b5b5092915050565b7f4e487b7100000000000000000000000000000000000000000000000000000000600052601260045260246000fd5b600061353582612c01565b915061354083612c01565b9250826135505761354f6134fb565b5b828204905092915050565b600061356682612ba3565b9050919050565b6135768161355b565b811461358157600080fd5b50565b6000815190506135938161356d565b92915050565b6000815190506135a881612c0b565b92915050565b600080600080600080600060e0888a0312156135cd576135cc612b99565b5b60006135db8a828b01613584565b97505060206135ec8a828b01613584565b96505060406135fd8a828b01613599565b955050606061360e8a828b01613599565b945050608061361f8a828b01613599565b93505060a06136308a828b01613599565b92505060c06136418a828b01613584565b91505092959891949750929550565b60008060008060008060c0878903121561366d5761366c612b99565b5b600061367b89828a01613584565b965050602061368c89828a01613584565b955050604061369d89828a01613599565b94505060606136ae89828a01613599565b93505060806136bf89828a01613599565b92505060a06136d089828a01613584565b9150509295509295509295565b600080600080608085870312156136f7576136f6612b99565b5b600061370587828801613584565b945050602061371687828801613584565b935050604061372787828801613599565b925050606061373887828801613584565b91505092959194509250565b7f4e487b7100000000000000000000000000000000000000000000000000000000600052603260045260246000fd5b600061377e82612c01565b915061378983612c01565b92508282019050808211156137a1576137a061348a565b5b92915050565b60006137b282612c01565b91506137bd83612c01565b92508282039050818111156137d5576137d461348a565b5b92915050565b60006040820190506137f06000830185612ed3565b6137fd6020830184612ed3565b9392505050565b60008151905061381381612bd5565b92915050565b60006020828403121561382f5761382e612b99565b5b600061383d84828501613804565b91505092915050565b60006020828403121561385c5761385b612b99565b5b600061386a84828501613599565b91505092915050565b60006dffffffffffffffffffffffffffff82169050919050565b61389681613873565b81146138a157600080fd5b50565b6000815190506138b38161388d565b92915050565b600063ffffffff82169050919050565b6138d2816138b9565b81146138dd57600080fd5b50565b6000815190506138ef816138c9565b92915050565b60008060006060848603121561390e5761390d612b99565b5b600061391c868287016138a4565b935050602061392d868287016138a4565b925050604061393e868287016138e0565b9150509250925092565b600060408201905061395d6000830185612ed3565b61396a60208301846130e6565b9392505050565b600060c0820190506139866000830189612ed3565b61399360208301886130e6565b6139a060408301876130e6565b6139ad60608301866130e6565b6139ba6080830185612ed3565b6139c760a08301846130e6565b979650505050505050565b600060e0820190506139e7600083018a612ed3565b6139f46020830189612ed3565b613a0160408301886130e6565b613a0e60608301876130e6565b613a1b60808301866130e6565b613a2860a0830185612ed3565b613a3560c08301846130e6565b98975050505050505050565b600061010082019050613a57600083018b612ed3565b613a64602083018a612ed3565b613a7160408301896130e6565b613a7e60608301886130e6565b613a8b60808301876130e6565b613a9860a08301866130e6565b613aa560c0830185612ed3565b613ab260e08301846130e6565b9998505050505050505050565b600081519050919050565b600082825260208201905092915050565b6000819050602082019050919050565b6000613af78383612cb6565b60208301905092915050565b6000602082019050919050565b6000613b1b82613abf565b613b258185613aca565b9350613b3083613adb565b8060005b83811015613b61578151613b488882613aeb565b9750613b5383613b03565b925050600181019050613b34565b5085935050505092915050565b6000604082019050613b8360008301856130e6565b8181036020830152613b958184613b10565b90509392505050565b600067ffffffffffffffff821115613bb957613bb8612f5f565b5b602082029050602081019050919050565b600080fd5b6000613be2613bdd84613b9e565b612fbf565b90508083825260208201905060208402830185811115613c0557613c04613bca565b5b835b81811015613c2e5780613c1a8882613599565b845260208401935050602081019050613c07565b5050509392505050565b600082601f830112613c4d57613c4c612f55565b5b8151613c5d848260208601613bcf565b91505092915050565b600060208284031215613c7c57613c7b612b99565b5b600082015167ffffffffffffffff811115613c9a57613c99612b9e565b5b613ca684828501613c38565b91505092915050565b600060a082019050613cc460008301886130e6565b613cd160208301876130e6565b8181036040830152613ce38186613b10565b9050613cf26060830185612ed3565b613cff60808301846130e6565b9695505050505050565b6000608082019050613d1e60008301876130e6565b8181036020830152613d308186613b10565b9050613d3f6040830185612ed3565b613d4c60608301846130e6565b9594505050505056fea26469706673582212203945c44622a1d91bfccc3c8e8e0be02e7bf9ee48a6137fa6ded78cda55e7aa8d64736f6c634300081c0033",
          "opcodes": "PUSH1 0xE0 PUSH1 0x40 MSTORE CALLVALUE DUP1 ISZERO PUSH2 0x10 JUMPI PUSH1 0x0 DUP1 REVERT JUMPDEST POP PUSH1 0x40 MLOAD PUSH2 0x450B CODESIZE SUB DUP1 PUSH2 0x450B DUP4 CODECOPY DUP2 DUP2 ADD PUSH1 0x40 MSTORE DUP2 ADD SWAP1 PUSH2 0x32 SWAP2 SWAP1 PUSH2 0x683 JUMP JUMPDEST DUP1 DUP1 PUSH20 0xFFFFFFFFFFFFFFFFFFFFFFFFFFFFFFFFFFFFFFFF AND PUSH1 0x80 DUP2 PUSH20 0xFFFFFFFFFFFFFFFFFFFFFFFFFFFFFFFFFFFFFFFF AND DUP2 MSTORE POP POP PUSH1 0x80 MLOAD PUSH20 0xFFFFFFFFFFFFFFFFFFFFFFFFFFFFFFFFFFFFFFFF AND PUSH4 0xAD5C4648 PUSH1 0x40 MLOAD DUP2 PUSH4 0xFFFFFFFF AND PUSH1 0xE0 SHL DUP2 MSTORE PUSH1 0x4 ADD PUSH1 0x20 PUSH1 0x40 MLOAD DUP1 DUP4 SUB DUP2 DUP7 GAS STATICCALL ISZERO DUP1 ISZERO PUSH2 0xB4 JUMPI RETURNDATASIZE PUSH1 0x0 DUP1 RETURNDATACOPY RETURNDATASIZE PUSH1 0x0 REVERT JUMPDEST POP POP POP POP PUSH1 0x40 MLOAD RETURNDATASIZE PUSH1 0x1F NOT PUSH1 0x1F DUP3 ADD AND DUP3 ADD DUP1 PUSH1 0x40 MSTORE POP DUP2 ADD SWAP1 PUSH2 0xD8 SWAP2 SWAP1 PUSH2 0x683 JUMP JUMPDEST PUSH20 0xFFFFFFFFFFFFFFFFFFFFFFFFFFFFFFFFFFFFFFFF AND PUSH1 0xC0 DUP2 PUSH20 0xFFFFFFFFFFFFFFFFFFFFFFFFFFFFFFFFFFFFFFFF AND DUP2 MSTORE POP POP PUSH1 0x80 MLOAD PUSH20 0xFFFFFFFFFFFFFFFFFFFFFFFFFFFFFFFFFFFFFFFF AND PUSH4 0xC45A0155 PUSH1 0x40 MLOAD DUP2 PUSH4 0xFFFFFFFF AND PUSH1 0xE0 SHL DUP2 MSTORE PUSH1 0x4 ADD PUSH1 0x20 PUSH1 0x40 MLOAD DUP1 DUP4 SUB DUP2 DUP7 GAS STATICCALL ISZERO DUP1 ISZERO PUSH2 0x158 JUMPI RETURNDATASIZE PUSH1 0x0 DUP1 RETURNDATACOPY RETURNDATASIZE PUSH1 0x0 REVERT JUMPDEST POP POP POP POP PUSH1 0x40 MLOAD RETURNDATASIZE PUSH1 0x1F NOT PUSH1 0x1F DUP3 ADD AND DUP3 ADD DUP1 PUSH1 0x40 MSTORE POP DUP2 ADD SWAP1 PUSH2 0x17C SWAP2 SWAP1 PUSH2 0x683 JUMP JUMPDEST PUSH20 0xFFFFFFFFFFFFFFFFFFFFFFFFFFFFFFFFFFFFFFFF AND PUSH1 0xA0 DUP2 PUSH20 0xFFFFFFFFFFFFFFFFFFFFFFFFFFFFFFFFFFFFFFFF AND DUP2 MSTORE POP POP POP PUSH1 0x1 PUSH1 0x0 DUP1 PUSH4 0xFBEC41A8 PUSH1 0xE0 SHL PUSH28 0xFFFFFFFFFFFFFFFFFFFFFFFFFFFFFFFFFFFFFFFFFFFFFFFFFFFFFFFF NOT AND PUSH28 0xFFFFFFFFFFFFFFFFFFFFFFFFFFFFFFFFFFFFFFFFFFFFFFFFFFFFFFFF NOT AND DUP2 MSTORE PUSH1 0x20 ADD SWAP1 DUP2 MSTORE PUSH1 0x20 ADD PUSH1 0x0 KECCAK256 PUSH1 0x0 PUSH2 0x100 EXP DUP2 SLOAD DUP2 PUSH1 0xFF MUL NOT AND SWAP1 DUP4 PUSH1 0xFF AND MUL OR SWAP1 SSTORE POP PUSH1 0x1 PUSH1 0x0 DUP1 PUSH4 0xC9778805 PUSH1 0xE0 SHL PUSH28 0xFFFFFFFFFFFFFFFFFFFFFFFFFFFFFFFFFFFFFFFFFFFFFFFFFFFFFFFF NOT AND PUSH28 0xFFFFFFFFFFFFFFFFFFFFFFFFFFFFFFFFFFFFFFFFFFFFFFFFFFFFFFFF NOT AND DUP2 MSTORE PUSH1 0x20 ADD SWAP1 DUP2 MSTORE PUSH1 0x20 ADD PUSH1 0x0 KECCAK256 PUSH1 0x0 PUSH2 0x100 EXP DUP2 SLOAD DUP2 PUSH1 0xFF MUL NOT AND SWAP1 DUP4 PUSH1 0xFF AND MUL OR SWAP1 SSTORE POP PUSH1 0x1 PUSH1 0x0 DUP1 PUSH4 0x6587E4CE PUSH1 0xE0 SHL PUSH28 0xFFFFFFFFFFFFFFFFFFFFFFFFFFFFFFFFFFFFFFFFFFFFFFFFFFFFFFFF NOT AND PUSH28 0xFFFFFFFFFFFFFFFFFFFFFFFFFFFFFFFFFFFFFFFFFFFFFFFFFFFFFFFF NOT AND DUP2 MSTORE PUSH1 0x20 ADD SWAP1 DUP2 MSTORE PUSH1 0x20 ADD PUSH1 0x0 KECCAK256 PUSH1 0x0 PUSH2 0x100 EXP DUP2 SLOAD DUP2 PUSH1 0xFF MUL NOT AND SWAP1 DUP4 PUSH1 0xFF AND MUL OR SWAP1 SSTORE POP PUSH1 0x1 PUSH1 0x0 DUP1 PUSH4 0x2E7B745 PUSH1 0xE0 SHL PUSH28 0xFFFFFFFFFFFFFFFFFFFFFFFFFFFFFFFFFFFFFFFFFFFFFFFFFFFFFFFF NOT AND PUSH28 0xFFFFFFFFFFFFFFFFFFFFFFFFFFFFFFFFFFFFFFFFFFFFFFFFFFFFFFFF NOT AND DUP2 MSTORE PUSH1 0x20 ADD SWAP1 DUP2 MSTORE PUSH1 0x20 ADD PUSH1 0x0 KECCAK256 PUSH1 0x0 PUSH2 0x100 EXP DUP2 SLOAD DUP2 PUSH1 0xFF MUL NOT AND SWAP1 DUP4 PUSH1 0xFF AND MUL OR SWAP1 SSTORE POP PUSH1 0x1 PUSH1 0x0 DUP1 PUSH4 0xA181031E PUSH1 0xE0 SHL PUSH28 0xFFFFFFFFFFFFFFFFFFFFFFFFFFFFFFFFFFFFFFFFFFFFFFFFFFFFFFFF NOT AND PUSH28 0xFFFFFFFFFFFFFFFFFFFFFFFFFFFFFFFFFFFFFFFFFFFFFFFFFFFFFFFF NOT AND DUP2 MSTORE PUSH1 0x20 ADD SWAP1 DUP2 MSTORE PUSH1 0x20 ADD PUSH1 0x0 KECCAK256 PUSH1 0x0 PUSH2 0x100 EXP DUP2 SLOAD DUP2 PUSH1 0xFF MUL NOT AND SWAP1 DUP4 PUSH1 0xFF AND MUL OR SWAP1 SSTORE POP PUSH1 0x2 PUSH1 0x0 DUP1 PUSH4 0xCA3D6539 PUSH1 0xE0 SHL PUSH28 0xFFFFFFFFFFFFFFFFFFFFFFFFFFFFFFFFFFFFFFFFFFFFFFFFFFFFFFFF NOT AND PUSH28 0xFFFFFFFFFFFFFFFFFFFFFFFFFFFFFFFFFFFFFFFFFFFFFFFFFFFFFFFF NOT AND DUP2 MSTORE PUSH1 0x20 ADD SWAP1 DUP2 MSTORE PUSH1 0x20 ADD PUSH1 0x0 KECCAK256 PUSH1 0x0 PUSH2 0x100 EXP DUP2 SLOAD DUP2 PUSH1 0xFF MUL NOT AND SWAP1 DUP4 PUSH1 0xFF AND MUL OR SWAP1 SSTORE POP PUSH1 0x3 PUSH1 0x0 DUP1 PUSH4 0xC0E3EE6B PUSH1 0xE0 SHL PUSH28 0xFFFFFFFFFFFFFFFFFFFFFFFFFFFFFFFFFFFFFFFFFFFFFFFFFFFFFFFF NOT AND PUSH28 0xFFFFFFFFFFFFFFFFFFFFFFFFFFFFFFFFFFFFFFFFFFFFFFFFFFFFFFFF NOT AND DUP2 MSTORE PUSH1 0x20 ADD SWAP1 DUP2 MSTORE PUSH1 0x20 ADD PUSH1 0x0 KECCAK256 PUSH1 0x0 PUSH2 0x100 EXP DUP2 SLOAD DUP2 PUSH1 0xFF MUL NOT AND SWAP1 DUP4 PUSH1 0xFF AND MUL OR SWAP1 SSTORE POP PUSH1 0x4 PUSH1 0x0 DUP1 PUSH4 0xEA5217C3 PUSH1 0xE0 SHL PUSH28 0xFFFFFFFFFFFFFFFFFFFFFFFFFFFFFFFFFFFFFFFFFFFFFFFFFFFFFFFF NOT AND PUSH28 0xFFFFFFFFFFFFFFFFFFFFFFFFFFFFFFFFFFFFFFFFFFFFFFFFFFFFFFFF NOT AND DUP2 MSTORE PUSH1 0x20 ADD SWAP1 DUP2 MSTORE PUSH1 0x20 ADD PUSH1 0x0 KECCAK256 PUSH1 0x0 PUSH2 0x100 EXP DUP2 SLOAD DUP2 PUSH1 0xFF MUL NOT AND SWAP1 DUP4 PUSH1 0xFF AND MUL OR SWAP1 SSTORE POP PUSH1 0x4 PUSH1 0x0 DUP1 PUSH4 0xD21F43B9 PUSH1 0xE0 SHL PUSH28 0xFFFFFFFFFFFFFFFFFFFFFFFFFFFFFFFFFFFFFFFFFFFFFFFFFFFFFFFF NOT AND PUSH28 0xFFFFFFFFFFFFFFFFFFFFFFFFFFFFFFFFFFFFFFFFFFFFFFFFFFFFFFFF NOT AND DUP2 MSTORE PUSH1 0x20 ADD SWAP1 DUP2 MSTORE PUSH1 0x20 ADD PUSH1 0x0 KECCAK256 PUSH1 0x0 PUSH2 0x100 EXP DUP2 SLOAD DUP2 PUSH1 0xFF MUL NOT AND SWAP1 DUP4 PUSH1 0xFF AND MUL OR SWAP1 SSTORE POP PUSH1 0x4 PUSH1 0x0 DUP1 PUSH4 0x17617DEF PUSH1 0xE0 SHL PUSH28 0xFFFFFFFFFFFFFFFFFFFFFFFFFFFFFFFFFFFFFFFFFFFFFFFFFFFFFFFF NOT AND PUSH28 0xFFFFFFFFFFFFFFFFFFFFFFFFFFFFFFFFFFFFFFFFFFFFFFFFFFFFFFFF NOT AND DUP2 MSTORE PUSH1 0x20 ADD SWAP1 DUP2 MSTORE PUSH1 0x20 ADD PUSH1 0x0 KECCAK256 PUSH1 0x0 PUSH2 0x100 EXP DUP2 SLOAD DUP2 PUSH1 0xFF MUL NOT AND SWAP1 DUP4 PUSH1 0xFF AND MUL OR SWAP1 SSTORE POP POP PUSH2 0x6B0 JUMP JUMPDEST PUSH1 0x0 DUP1 REVERT JUMPDEST PUSH1 0x0 PUSH20 0xFFFFFFFFFFFFFFFFFFFFFFFFFFFFFFFFFFFFFFFF DUP3 AND SWAP1 POP SWAP2 SWAP1 POP JUMP JUMPDEST PUSH1 0x0 PUSH2 0x650 DUP3 PUSH2 0x625 JUMP JUMPDEST SWAP1 POP SWAP2 SWAP1 POP JUMP JUMPDEST PUSH2 0x660 DUP2 PUSH2 0x645 JUMP JUMPDEST DUP2 EQ PUSH2 0x66B JUMPI PUSH1 0x0 DUP1 REVERT JUMPDEST POP JUMP JUMPDEST PUSH1 0x0 DUP2 MLOAD SWAP1 POP PUSH2 0x67D DUP2 PUSH2 0x657 JUMP JUMPDEST SWAP3 SWAP2 POP POP JUMP JUMPDEST PUSH1 0x0 PUSH1 0x20 DUP3 DUP5 SUB SLT ISZERO PUSH2 0x699 JUMPI PUSH2 0x698 PUSH2 0x620 JUMP JUMPDEST JUMPDEST PUSH1 0x0 PUSH2 0x6A7 DUP5 DUP3 DUP6 ADD PUSH2 0x66E JUMP JUMPDEST SWAP2 POP POP SWAP3 SWAP2 POP POP JUMP JUMPDEST PUSH1 0x80 MLOAD PUSH1 0xA0 MLOAD PUSH1 0xC0 MLOAD PUSH2 0x3D8B PUSH2 0x780 PUSH1 0x0 CODECOPY PUSH1 0x0 DUP2 DUP2 PUSH2 0x4A1 ADD MSTORE DUP2 DUP2 PUSH2 0x7B4 ADD MSTORE DUP2 DUP2 PUSH2 0xA54 ADD MSTORE DUP2 DUP2 PUSH2 0xC18 ADD MSTORE DUP2 DUP2 PUSH2 0x1157 ADD MSTORE DUP2 DUP2 PUSH2 0x117D ADD MSTORE DUP2 DUP2 PUSH2 0x11BC ADD MSTORE DUP2 DUP2 PUSH2 0x1859 ADD MSTORE DUP2 DUP2 PUSH2 0x188F ADD MSTORE DUP2 DUP2 PUSH2 0x24AB ADD MSTORE PUSH2 0x2791 ADD MSTORE PUSH1 0x0 DUP2 DUP2 PUSH2 0xBA4 ADD MSTORE PUSH2 0x12B2 ADD MSTORE PUSH1 0x0 DUP2 DUP2 PUSH2 0x59C ADD MSTORE DUP2 DUP2 PUSH2 0x10DF ADD MSTORE DUP2 DUP2 PUSH2 0x16BB ADD MSTORE DUP2 DUP2 PUSH2 0x17FB ADD MSTORE DUP2 DUP2 PUSH2 0x1996 ADD MSTORE DUP2 DUP2 PUSH2 0x1DF2 ADD MSTORE DUP2 DUP2 PUSH2 0x211F ADD MSTORE DUP2 DUP2 PUSH2 0x2314 ADD MSTORE DUP2 DUP2 PUSH2 0x256B ADD MSTORE DUP2 DUP2 PUSH2 0x2802 ADD MSTORE DUP2 DUP2 PUSH2 0x297A ADD MSTORE DUP2 DUP2 PUSH2 0x2A40 ADD MSTORE PUSH2 0x2B07 ADD MSTORE PUSH2 0x3D8B PUSH1 0x0 RETURN INVALID PUSH1 0x80 PUSH1 0x40 MSTORE CALLVALUE DUP1 ISZERO PUSH2 0x10 JUMPI PUSH1 0x0 DUP1 REVERT JUMPDEST POP PUSH1 0x4 CALLDATASIZE LT PUSH2 0x121 JUMPI PUSH1 0x0 CALLDATALOAD PUSH1 0xE0 SHR DUP1 PUSH4 0xC0E3EE6B GT PUSH2 0xAD JUMPI DUP1 PUSH4 0xEA5217C3 GT PUSH2 0x71 JUMPI DUP1 PUSH4 0xEA5217C3 EQ PUSH2 0x37E JUMPI DUP1 PUSH4 0xECC861D0 EQ PUSH2 0x3AE JUMPI DUP1 PUSH4 0xEE01E5E7 EQ PUSH2 0x3DE JUMPI DUP1 PUSH4 0xF887EA40 EQ PUSH2 0x3FC JUMPI DUP1 PUSH4 0xFBEC41A8 EQ PUSH2 0x41A JUMPI PUSH2 0x121 JUMP JUMPDEST DUP1 PUSH4 0xC0E3EE6B EQ PUSH2 0x2A0 JUMPI DUP1 PUSH4 0xC45A0155 EQ PUSH2 0x2D0 JUMPI DUP1 PUSH4 0xC9778805 EQ PUSH2 0x2EE JUMPI DUP1 PUSH4 0xCA3D6539 EQ PUSH2 0x31E JUMPI DUP1 PUSH4 0xD21F43B9 EQ PUSH2 0x34E JUMPI PUSH2 0x121 JUMP JUMPDEST DUP1 PUSH4 0x617B595A GT PUSH2 0xF4 JUMPI DUP1 PUSH4 0x617B595A EQ PUSH2 0x1D4 JUMPI DUP1 PUSH4 0x6587E4CE EQ PUSH2 0x1F2 JUMPI DUP1 PUSH4 0xA181031E EQ PUSH2 0x222 JUMPI DUP1 PUSH4 0xAD5C4648 EQ PUSH2 0x252 JUMPI DUP1 PUSH4 0xB1D61368 EQ PUSH2 0x270 JUMPI PUSH2 0x121 JUMP JUMPDEST DUP1 PUSH4 0x2E7B745 EQ PUSH2 0x126 JUMPI DUP1 PUSH4 0x17617DEF EQ PUSH2 0x156 JUMPI DUP1 PUSH4 0x4A377E1D EQ PUSH2 0x186 JUMPI DUP1 PUSH4 0x5581161B EQ PUSH2 0x1A4 JUMPI JUMPDEST PUSH1 0x0 DUP1 REVERT JUMPDEST PUSH2 0x140 PUSH1 0x4 DUP1 CALLDATASIZE SUB DUP2 ADD SWAP1 PUSH2 0x13B SWAP2 SWAP1 PUSH2 0x2C37 JUMP JUMPDEST PUSH2 0x44A JUMP JUMPDEST PUSH1 0x40 MLOAD PUSH2 0x14D SWAP2 SWAP1 PUSH2 0x2E4A JUMP JUMPDEST PUSH1 0x40 MLOAD DUP1 SWAP2 SUB SWAP1 RETURN JUMPDEST PUSH2 0x170 PUSH1 0x4 DUP1 CALLDATASIZE SUB DUP2 ADD SWAP1 PUSH2 0x16B SWAP2 SWAP1 PUSH2 0x2E6C JUMP JUMPDEST PUSH2 0x4DF JUMP JUMPDEST PUSH1 0x40 MLOAD PUSH2 0x17D SWAP2 SWAP1 PUSH2 0x2E4A JUMP JUMPDEST PUSH1 0x40 MLOAD DUP1 SWAP2 SUB SWAP1 RETURN JUMPDEST PUSH2 0x18E PUSH2 0x598 JUMP JUMPDEST PUSH1 0x40 MLOAD PUSH2 0x19B SWAP2 SWAP1 PUSH2 0x2EE2 JUMP JUMPDEST PUSH1 0x40 MLOAD DUP1 SWAP2 SUB SWAP1 RETURN JUMPDEST PUSH2 0x1BE PUSH1 0x4 DUP1 CALLDATASIZE SUB DUP2 ADD SWAP1 PUSH2 0x1B9 SWAP2 SWAP1 PUSH2 0x308A JUMP JUMPDEST PUSH2 0x5C0 JUMP JUMPDEST PUSH1 0x40 MLOAD PUSH2 0x1CB SWAP2 SWAP1 PUSH2 0x2EE2 JUMP JUMPDEST PUSH1 0x40 MLOAD DUP1 SWAP2 SUB SWAP1 RETURN JUMPDEST PUSH2 0x1DC PUSH2 0x710 JUMP JUMPDEST PUSH1 0x40 MLOAD PUSH2 0x1E9 SWAP2 SWAP1 PUSH2 0x30F5 JUMP JUMPDEST PUSH1 0x40 MLOAD DUP1 SWAP2 SUB SWAP1 RETURN JUMPDEST PUSH2 0x20C PUSH1 0x4 DUP1 CALLDATASIZE SUB DUP2 ADD SWAP1 PUSH2 0x207 SWAP2 SWAP1 PUSH2 0x3110 JUMP JUMPDEST PUSH2 0x715 JUMP JUMPDEST PUSH1 0x40 MLOAD PUSH2 0x219 SWAP2 SWAP1 PUSH2 0x2E4A JUMP JUMPDEST PUSH1 0x40 MLOAD DUP1 SWAP2 SUB SWAP1 RETURN JUMPDEST PUSH2 0x23C PUSH1 0x4 DUP1 CALLDATASIZE SUB DUP2 ADD SWAP1 PUSH2 0x237 SWAP2 SWAP1 PUSH2 0x31C3 JUMP JUMPDEST PUSH2 0x83F JUMP JUMPDEST PUSH1 0x40 MLOAD PUSH2 0x249 SWAP2 SWAP1 PUSH2 0x2E4A JUMP JUMPDEST PUSH1 0x40 MLOAD DUP1 SWAP2 SUB SWAP1 RETURN JUMPDEST PUSH2 0x25A PUSH2 0xA52 JUMP JUMPDEST PUSH1 0x40 MLOAD PUSH2 0x267 SWAP2 SWAP1 PUSH2 0x2EE2 JUMP JUMPDEST PUSH1 0x40 MLOAD DUP1 SWAP2 SUB SWAP1 RETURN JUMPDEST PUSH2 0x28A PUSH1 0x4 DUP1 CALLDATASIZE SUB DUP2 ADD SWAP1 PUSH2 0x285 SWAP2 SWAP1 PUSH2 0x322A JUMP JUMPDEST PUSH2 0xA76 JUMP JUMPDEST PUSH1 0x40 MLOAD PUSH2 0x297 SWAP2 SWAP1 PUSH2 0x3273 JUMP JUMPDEST PUSH1 0x40 MLOAD DUP1 SWAP2 SUB SWAP1 RETURN JUMPDEST PUSH2 0x2BA PUSH1 0x4 DUP1 CALLDATASIZE SUB DUP2 ADD SWAP1 PUSH2 0x2B5 SWAP2 SWAP1 PUSH2 0x328E JUMP JUMPDEST PUSH2 0xA96 JUMP JUMPDEST PUSH1 0x40 MLOAD PUSH2 0x2C7 SWAP2 SWAP1 PUSH2 0x2E4A JUMP JUMPDEST PUSH1 0x40 MLOAD DUP1 SWAP2 SUB SWAP1 RETURN JUMPDEST PUSH2 0x2D8 PUSH2 0xBA2 JUMP JUMPDEST PUSH1 0x40 MLOAD PUSH2 0x2E5 SWAP2 SWAP1 PUSH2 0x2EE2 JUMP JUMPDEST PUSH1 0x40 MLOAD DUP1 SWAP2 SUB SWAP1 RETURN JUMPDEST PUSH2 0x308 PUSH1 0x4 DUP1 CALLDATASIZE SUB DUP2 ADD SWAP1 PUSH2 0x303 SWAP2 SWAP1 PUSH2 0x2C37 JUMP JUMPDEST PUSH2 0xBC6 JUMP JUMPDEST PUSH1 0x40 MLOAD PUSH2 0x315 SWAP2 SWAP1 PUSH2 0x2E4A JUMP JUMPDEST PUSH1 0x40 MLOAD DUP1 SWAP2 SUB SWAP1 RETURN JUMPDEST PUSH2 0x338 PUSH1 0x4 DUP1 CALLDATASIZE SUB DUP2 ADD SWAP1 PUSH2 0x333 SWAP2 SWAP1 PUSH2 0x331B JUMP JUMPDEST PUSH2 0xC9D JUMP JUMPDEST PUSH1 0x40 MLOAD PUSH2 0x345 SWAP2 SWAP1 PUSH2 0x2E4A JUMP JUMPDEST PUSH1 0x40 MLOAD DUP1 SWAP2 SUB SWAP1 RETURN JUMPDEST PUSH2 0x368 PUSH1 0x4 DUP1 CALLDATASIZE SUB DUP2 ADD SWAP1 PUSH2 0x363 SWAP2 SWAP1 PUSH2 0x2E6C JUMP JUMPDEST PUSH2 0xE14 JUMP JUMPDEST PUSH1 0x40 MLOAD PUSH2 0x375 SWAP2 SWAP1 PUSH2 0x2E4A JUMP JUMPDEST PUSH1 0x40 MLOAD DUP1 SWAP2 SUB SWAP1 RETURN JUMPDEST PUSH2 0x398 PUSH1 0x4 DUP1 CALLDATASIZE SUB DUP2 ADD SWAP1 PUSH2 0x393 SWAP2 SWAP1 PUSH2 0x2E6C JUMP JUMPDEST PUSH2 0xE8B JUMP JUMPDEST PUSH1 0x40 MLOAD PUSH2 0x3A5 SWAP2 SWAP1 PUSH2 0x2E4A JUMP JUMPDEST PUSH1 0x40 MLOAD DUP1 SWAP2 SUB SWAP1 RETURN JUMPDEST PUSH2 0x3C8 PUSH1 0x4 DUP1 CALLDATASIZE SUB DUP2 ADD SWAP1 PUSH2 0x3C3 SWAP2 SWAP1 PUSH2 0x33BD JUMP JUMPDEST PUSH2 0x106D JUMP JUMPDEST PUSH1 0x40 MLOAD PUSH2 0x3D5 SWAP2 SWAP1 PUSH2 0x30F5 JUMP JUMPDEST PUSH1 0x40 MLOAD DUP1 SWAP2 SUB SWAP1 RETURN JUMPDEST PUSH2 0x3E6 PUSH2 0x10D7 JUMP JUMPDEST PUSH1 0x40 MLOAD PUSH2 0x3F3 SWAP2 SWAP1 PUSH2 0x30F5 JUMP JUMPDEST PUSH1 0x40 MLOAD DUP1 SWAP2 SUB SWAP1 RETURN JUMPDEST PUSH2 0x404 PUSH2 0x10DD JUMP JUMPDEST PUSH1 0x40 MLOAD PUSH2 0x411 SWAP2 SWAP1 PUSH2 0x2EE2 JUMP JUMPDEST PUSH1 0x40 MLOAD DUP1 SWAP2 SUB SWAP1 RETURN JUMPDEST PUSH2 0x434 PUSH1 0x4 DUP1 CALLDATASIZE SUB DUP2 ADD SWAP1 PUSH2 0x42F SWAP2 SWAP1 PUSH2 0x33FD JUMP JUMPDEST PUSH2 0x1101 JUMP JUMPDEST PUSH1 0x40 MLOAD PUSH2 0x441 SWAP2 SWAP1 PUSH2 0x2E4A JUMP JUMPDEST PUSH1 0x40 MLOAD DUP1 SWAP2 SUB SWAP1 RETURN JUMPDEST PUSH1 0x60 DUP3 PUSH1 0x0 DUP2 EQ DUP1 PUSH2 0x45D JUMPI POP PUSH2 0x3E8 DUP2 GT JUMPDEST ISZERO PUSH2 0x494 JUMPI PUSH1 0x40 MLOAD PUSH32 0x7DE8FBF600000000000000000000000000000000000000000000000000000000 DUP2 MSTORE PUSH1 0x4 ADD PUSH1 0x40 MLOAD DUP1 SWAP2 SUB SWAP1 REVERT JUMPDEST PUSH2 0x4D5 DUP6 PUSH2 0x4CC PUSH2 0x4C5 DUP9 PUSH32 0x0 PUSH2 0x12AD JUMP JUMPDEST DUP8 DUP8 PUSH2 0x13BE JUMP JUMPDEST PUSH1 0x0 DUP1 DUP8 PUSH2 0x715 JUMP JUMPDEST SWAP2 POP POP SWAP4 SWAP3 POP POP POP JUMP JUMPDEST PUSH1 0x60 DUP3 PUSH1 0x0 DUP2 EQ DUP1 PUSH2 0x4F2 JUMPI POP PUSH2 0x3E8 DUP2 GT JUMPDEST ISZERO PUSH2 0x529 JUMPI PUSH1 0x40 MLOAD PUSH32 0x7DE8FBF600000000000000000000000000000000000000000000000000000000 DUP2 MSTORE PUSH1 0x4 ADD PUSH1 0x40 MLOAD DUP1 SWAP2 SUB SWAP1 REVERT JUMPDEST PUSH1 0x0 PUSH2 0x535 DUP8 DUP8 PUSH2 0x12AD JUMP JUMPDEST SWAP1 POP PUSH1 0x0 DUP1 PUSH2 0x546 DUP10 DUP10 DUP6 DUP10 PUSH2 0x1460 JUMP JUMPDEST SWAP2 POP SWAP2 POP PUSH2 0x58A DUP10 DUP10 PUSH2 0x3E8 DUP11 DUP7 PUSH2 0x55E SWAP2 SWAP1 PUSH2 0x34B9 JUMP JUMPDEST PUSH2 0x568 SWAP2 SWAP1 PUSH2 0x352A JUMP JUMPDEST PUSH2 0x3E8 DUP12 DUP7 PUSH2 0x577 SWAP2 SWAP1 PUSH2 0x34B9 JUMP JUMPDEST PUSH2 0x581 SWAP2 SWAP1 PUSH2 0x352A JUMP JUMPDEST PUSH1 0x0 DUP1 DUP13 PUSH2 0xC9D JUMP JUMPDEST SWAP5 POP POP POP POP POP SWAP5 SWAP4 POP POP POP POP JUMP JUMPDEST PUSH1 0x0 PUSH32 0x0 SWAP1 POP SWAP1 JUMP JUMPDEST PUSH1 0x0 DUP1 PUSH1 0x0 DUP1 DUP6 PUSH28 0xFFFFFFFFFFFFFFFFFFFFFFFFFFFFFFFFFFFFFFFFFFFFFFFFFFFFFFFF NOT AND PUSH28 0xFFFFFFFFFFFFFFFFFFFFFFFFFFFFFFFFFFFFFFFFFFFFFFFFFFFFFFFF NOT AND DUP2 MSTORE PUSH1 0x20 ADD SWAP1 DUP2 MSTORE PUSH1 0x20 ADD PUSH1 0x0 KECCAK256 PUSH1 0x0 SWAP1 SLOAD SWAP1 PUSH2 0x100 EXP SWAP1 DIV PUSH1 0xFF AND SWAP1 POP PUSH1 0x0 DUP2 PUSH1 0xFF AND EQ DUP1 PUSH2 0x638 JUMPI POP PUSH1 0x4 DUP2 PUSH1 0xFF AND GT JUMPDEST ISZERO PUSH2 0x66F JUMPI PUSH1 0x40 MLOAD PUSH32 0xAE563A1F00000000000000000000000000000000000000000000000000000000 DUP2 MSTORE PUSH1 0x4 ADD PUSH1 0x40 MLOAD DUP1 SWAP2 SUB SWAP1 REVERT JUMPDEST PUSH1 0x1 DUP2 PUSH1 0xFF AND SUB PUSH2 0x684 JUMPI PUSH1 0x0 SWAP2 POP POP PUSH2 0x70A JUMP JUMPDEST PUSH1 0x2 DUP2 PUSH1 0xFF AND SUB PUSH2 0x6B7 JUMPI PUSH1 0x0 DUP4 DUP1 PUSH1 0x20 ADD SWAP1 MLOAD DUP2 ADD SWAP1 PUSH2 0x6A5 SWAP2 SWAP1 PUSH2 0x35AE JUMP JUMPDEST POP POP POP POP POP POP SWAP1 POP DUP1 SWAP3 POP POP POP PUSH2 0x70A JUMP JUMPDEST PUSH1 0x3 DUP2 PUSH1 0xFF AND SUB PUSH2 0x6E9 JUMPI PUSH1 0x0 DUP4 DUP1 PUSH1 0x20 ADD SWAP1 MLOAD DUP2 ADD SWAP1 PUSH2 0x6D8 SWAP2 SWAP1 PUSH2 0x3650 JUMP JUMPDEST POP POP POP POP POP SWAP1 POP DUP1 SWAP3 POP POP POP PUSH2 0x70A JUMP JUMPDEST PUSH1 0x0 DUP4 DUP1 PUSH1 0x20 ADD SWAP1 MLOAD DUP2 ADD SWAP1 PUSH2 0x6FF SWAP2 SWAP1 PUSH2 0x36DD JUMP JUMPDEST POP POP POP SWAP1 POP DUP1 SWAP3 POP POP POP JUMPDEST SWAP3 SWAP2 POP POP JUMP JUMPDEST PUSH1 0x1E DUP2 JUMP JUMPDEST PUSH1 0x60 DUP5 PUSH1 0x0 DUP2 SUB PUSH2 0x752 JUMPI PUSH1 0x40 MLOAD PUSH32 0xDED7302C00000000000000000000000000000000000000000000000000000000 DUP2 MSTORE PUSH1 0x4 ADD PUSH1 0x40 MLOAD DUP1 SWAP2 SUB SWAP1 REVERT JUMPDEST PUSH1 0x0 PUSH1 0x2 PUSH8 0xFFFFFFFFFFFFFFFF DUP2 GT ISZERO PUSH2 0x76F JUMPI PUSH2 0x76E PUSH2 0x2F5F JUMP JUMPDEST JUMPDEST PUSH1 0x40 MLOAD SWAP1 DUP1 DUP3 MSTORE DUP1 PUSH1 0x20 MUL PUSH1 0x20 ADD DUP3 ADD PUSH1 0x40 MSTORE DUP1 ISZERO PUSH2 0x7A8 JUMPI DUP2 PUSH1 0x20 ADD JUMPDEST PUSH2 0x795 PUSH2 0x2B58 JUMP JUMPDEST DUP2 MSTORE PUSH1 0x20 ADD SWAP1 PUSH1 0x1 SWAP1 SUB SWAP1 DUP2 PUSH2 0x78D JUMPI SWAP1 POP JUMPDEST POP SWAP1 POP PUSH2 0x7DE PUSH2 0x7D8 DUP10 PUSH32 0x0 PUSH2 0x12AD JUMP JUMPDEST DUP9 PUSH2 0x16AF JUMP JUMPDEST DUP2 PUSH1 0x0 DUP2 MLOAD DUP2 LT PUSH2 0x7F2 JUMPI PUSH2 0x7F1 PUSH2 0x3744 JUMP JUMPDEST JUMPDEST PUSH1 0x20 MUL PUSH1 0x20 ADD ADD DUP2 SWAP1 MSTORE POP PUSH2 0x812 DUP9 DUP9 DUP9 DUP9 DUP9 PUSH2 0x80D PUSH2 0x176E JUMP JUMPDEST PUSH2 0x1782 JUMP JUMPDEST DUP2 PUSH1 0x1 DUP2 MLOAD DUP2 LT PUSH2 0x826 JUMPI PUSH2 0x825 PUSH2 0x3744 JUMP JUMPDEST JUMPDEST PUSH1 0x20 MUL PUSH1 0x20 ADD ADD DUP2 SWAP1 MSTORE POP DUP1 SWAP3 POP POP POP SWAP6 SWAP5 POP POP POP POP POP JUMP JUMPDEST PUSH1 0x60 PUSH1 0x0 DUP1 PUSH1 0x0 PUSH2 0x852 DUP9 DUP9 DUP9 DUP9 PUSH2 0x184D JUMP JUMPDEST SWAP3 POP SWAP3 POP SWAP3 POP PUSH1 0x0 PUSH1 0x2 DUP3 MLOAD PUSH2 0x868 SWAP2 SWAP1 PUSH2 0x3773 JUMP JUMPDEST PUSH8 0xFFFFFFFFFFFFFFFF DUP2 GT ISZERO PUSH2 0x881 JUMPI PUSH2 0x880 PUSH2 0x2F5F JUMP JUMPDEST JUMPDEST PUSH1 0x40 MLOAD SWAP1 DUP1 DUP3 MSTORE DUP1 PUSH1 0x20 MUL PUSH1 0x20 ADD DUP3 ADD PUSH1 0x40 MSTORE DUP1 ISZERO PUSH2 0x8BA JUMPI DUP2 PUSH1 0x20 ADD JUMPDEST PUSH2 0x8A7 PUSH2 0x2B58 JUMP JUMPDEST DUP2 MSTORE PUSH1 0x20 ADD SWAP1 PUSH1 0x1 SWAP1 SUB SWAP1 DUP2 PUSH2 0x89F JUMPI SWAP1 POP JUMPDEST POP SWAP1 POP PUSH1 0x0 PUSH2 0x8CF DUP11 DUP7 PUSH1 0x0 DUP8 PUSH1 0x0 DUP13 PUSH2 0x1101 JUMP JUMPDEST SWAP1 POP DUP3 PUSH1 0x0 DUP2 MLOAD DUP2 LT PUSH2 0x8E5 JUMPI PUSH2 0x8E4 PUSH2 0x3744 JUMP JUMPDEST JUMPDEST PUSH1 0x20 MUL PUSH1 0x20 ADD ADD MLOAD DUP3 PUSH1 0x0 DUP2 MLOAD DUP2 LT PUSH2 0x901 JUMPI PUSH2 0x900 PUSH2 0x3744 JUMP JUMPDEST JUMPDEST PUSH1 0x20 MUL PUSH1 0x20 ADD ADD DUP2 SWAP1 MSTORE POP PUSH1 0x1 DUP4 MLOAD SUB PUSH2 0x990 JUMPI DUP1 PUSH1 0x0 DUP2 MLOAD DUP2 LT PUSH2 0x929 JUMPI PUSH2 0x928 PUSH2 0x3744 JUMP JUMPDEST JUMPDEST PUSH1 0x20 MUL PUSH1 0x20 ADD ADD MLOAD DUP3 PUSH1 0x1 DUP2 MLOAD DUP2 LT PUSH2 0x945 JUMPI PUSH2 0x944 PUSH2 0x3744 JUMP JUMPDEST JUMPDEST PUSH1 0x20 MUL PUSH1 0x20 ADD ADD DUP2 SWAP1 MSTORE POP DUP1 PUSH1 0x1 DUP2 MLOAD DUP2 LT PUSH2 0x964 JUMPI PUSH2 0x963 PUSH2 0x3744 JUMP JUMPDEST JUMPDEST PUSH1 0x20 MUL PUSH1 0x20 ADD ADD MLOAD DUP3 PUSH1 0x2 DUP2 MLOAD DUP2 LT PUSH2 0x980 JUMPI PUSH2 0x97F PUSH2 0x3744 JUMP JUMPDEST JUMPDEST PUSH1 0x20 MUL PUSH1 0x20 ADD ADD DUP2 SWAP1 MSTORE POP PUSH2 0xA42 JUMP JUMPDEST DUP3 PUSH1 0x1 DUP2 MLOAD DUP2 LT PUSH2 0x9A4 JUMPI PUSH2 0x9A3 PUSH2 0x3744 JUMP JUMPDEST JUMPDEST PUSH1 0x20 MUL PUSH1 0x20 ADD ADD MLOAD DUP3 PUSH1 0x1 DUP2 MLOAD DUP2 LT PUSH2 0x9C0 JUMPI PUSH2 0x9BF PUSH2 0x3744 JUMP JUMPDEST JUMPDEST PUSH1 0x20 MUL PUSH1 0x20 ADD ADD DUP2 SWAP1 MSTORE POP DUP1 PUSH1 0x0 DUP2 MLOAD DUP2 LT PUSH2 0x9DF JUMPI PUSH2 0x9DE PUSH2 0x3744 JUMP JUMPDEST JUMPDEST PUSH1 0x20 MUL PUSH1 0x20 ADD ADD MLOAD DUP3 PUSH1 0x2 DUP2 MLOAD DUP2 LT PUSH2 0x9FB JUMPI PUSH2 0x9FA PUSH2 0x3744 JUMP JUMPDEST JUMPDEST PUSH1 0x20 MUL PUSH1 0x20 ADD ADD DUP2 SWAP1 MSTORE POP DUP1 PUSH1 0x1 DUP2 MLOAD DUP2 LT PUSH2 0xA1A JUMPI PUSH2 0xA19 PUSH2 0x3744 JUMP JUMPDEST JUMPDEST PUSH1 0x20 MUL PUSH1 0x20 ADD ADD MLOAD DUP3 PUSH1 0x3 DUP2 MLOAD DUP2 LT PUSH2 0xA36 JUMPI PUSH2 0xA35 PUSH2 0x3744 JUMP JUMPDEST JUMPDEST PUSH1 0x20 MUL PUSH1 0x20 ADD ADD DUP2 SWAP1 MSTORE POP JUMPDEST DUP2 SWAP6 POP POP POP POP POP POP SWAP5 SWAP4 POP POP POP POP JUMP JUMPDEST PUSH32 0x0 DUP2 JUMP JUMPDEST PUSH1 0x0 PUSH1 0x20 MSTORE DUP1 PUSH1 0x0 MSTORE PUSH1 0x40 PUSH1 0x0 KECCAK256 PUSH1 0x0 SWAP2 POP SLOAD SWAP1 PUSH2 0x100 EXP SWAP1 DIV PUSH1 0xFF AND DUP2 JUMP JUMPDEST PUSH1 0x60 DUP5 PUSH1 0x0 DUP2 SUB PUSH2 0xAD3 JUMPI PUSH1 0x40 MLOAD PUSH32 0xDED7302C00000000000000000000000000000000000000000000000000000000 DUP2 MSTORE PUSH1 0x4 ADD PUSH1 0x40 MLOAD DUP1 SWAP2 SUB SWAP1 REVERT JUMPDEST PUSH1 0x0 PUSH1 0x2 PUSH8 0xFFFFFFFFFFFFFFFF DUP2 GT ISZERO PUSH2 0xAF0 JUMPI PUSH2 0xAEF PUSH2 0x2F5F JUMP JUMPDEST JUMPDEST PUSH1 0x40 MLOAD SWAP1 DUP1 DUP3 MSTORE DUP1 PUSH1 0x20 MUL PUSH1 0x20 ADD DUP3 ADD PUSH1 0x40 MSTORE DUP1 ISZERO PUSH2 0xB29 JUMPI DUP2 PUSH1 0x20 ADD JUMPDEST PUSH2 0xB16 PUSH2 0x2B58 JUMP JUMPDEST DUP2 MSTORE PUSH1 0x20 ADD SWAP1 PUSH1 0x1 SWAP1 SUB SWAP1 DUP2 PUSH2 0xB0E JUMPI SWAP1 POP JUMPDEST POP SWAP1 POP PUSH2 0xB3F PUSH2 0xB39 DUP11 DUP11 PUSH2 0x12AD JUMP JUMPDEST DUP9 PUSH2 0x16AF JUMP JUMPDEST DUP2 PUSH1 0x0 DUP2 MLOAD DUP2 LT PUSH2 0xB53 JUMPI PUSH2 0xB52 PUSH2 0x3744 JUMP JUMPDEST JUMPDEST PUSH1 0x20 MUL PUSH1 0x20 ADD ADD DUP2 SWAP1 MSTORE POP PUSH2 0xB74 DUP10 DUP10 DUP10 DUP10 DUP10 DUP10 PUSH2 0xB6F PUSH2 0x176E JUMP JUMPDEST PUSH2 0x191B JUMP JUMPDEST DUP2 PUSH1 0x1 DUP2 MLOAD DUP2 LT PUSH2 0xB88 JUMPI PUSH2 0xB87 PUSH2 0x3744 JUMP JUMPDEST JUMPDEST PUSH1 0x20 MUL PUSH1 0x20 ADD ADD DUP2 SWAP1 MSTORE POP DUP1 SWAP3 POP POP POP SWAP7 SWAP6 POP POP POP POP POP POP JUMP JUMPDEST PUSH32 0x0 DUP2 JUMP JUMPDEST PUSH1 0x60 DUP3 PUSH1 0x0 DUP2 EQ DUP1 PUSH2 0xBD9 JUMPI POP PUSH2 0x3E8 DUP2 GT JUMPDEST ISZERO PUSH2 0xC10 JUMPI PUSH1 0x40 MLOAD PUSH32 0x7DE8FBF600000000000000000000000000000000000000000000000000000000 DUP2 MSTORE PUSH1 0x4 ADD PUSH1 0x40 MLOAD DUP1 SWAP2 SUB SWAP1 REVERT JUMPDEST PUSH1 0x0 PUSH2 0xC3C DUP7 PUSH32 0x0 PUSH2 0x12AD JUMP JUMPDEST SWAP1 POP PUSH1 0x0 DUP1 PUSH2 0xC4C DUP9 DUP5 DUP9 PUSH2 0x19E9 JUMP JUMPDEST SWAP2 POP SWAP2 POP PUSH2 0xC90 DUP9 PUSH2 0x3E8 DUP10 DUP6 PUSH2 0xC63 SWAP2 SWAP1 PUSH2 0x34B9 JUMP JUMPDEST PUSH2 0xC6D SWAP2 SWAP1 PUSH2 0x352A JUMP JUMPDEST PUSH1 0x0 PUSH2 0x3E8 DUP12 DUP7 PUSH2 0xC7E SWAP2 SWAP1 PUSH2 0x34B9 JUMP JUMPDEST PUSH2 0xC88 SWAP2 SWAP1 PUSH2 0x352A JUMP JUMPDEST PUSH1 0x0 DUP12 PUSH2 0x1101 JUMP JUMPDEST SWAP5 POP POP POP POP POP SWAP4 SWAP3 POP POP POP JUMP JUMPDEST PUSH1 0x60 PUSH1 0x0 DUP7 EQ DUP1 ISZERO PUSH2 0xCAF JUMPI POP PUSH1 0x0 DUP6 EQ JUMPDEST ISZERO PUSH2 0xCE6 JUMPI PUSH1 0x40 MLOAD PUSH32 0x2D1440D500000000000000000000000000000000000000000000000000000000 DUP2 MSTORE PUSH1 0x4 ADD PUSH1 0x40 MLOAD DUP1 SWAP2 SUB SWAP1 REVERT JUMPDEST PUSH1 0x0 DUP7 SUB PUSH2 0xD05 JUMPI PUSH2 0xD02 DUP8 DUP7 PUSH2 0xCFD DUP12 DUP12 PUSH2 0x12AD JUMP JUMPDEST PUSH2 0x1BD5 JUMP JUMPDEST SWAP6 POP JUMPDEST PUSH1 0x0 DUP6 SUB PUSH2 0xD24 JUMPI PUSH2 0xD21 DUP9 DUP8 PUSH2 0xD1C DUP12 DUP12 PUSH2 0x12AD JUMP JUMPDEST PUSH2 0x1BD5 JUMP JUMPDEST SWAP5 POP JUMPDEST PUSH1 0x0 PUSH1 0x3 PUSH8 0xFFFFFFFFFFFFFFFF DUP2 GT ISZERO PUSH2 0xD41 JUMPI PUSH2 0xD40 PUSH2 0x2F5F JUMP JUMPDEST JUMPDEST PUSH1 0x40 MLOAD SWAP1 DUP1 DUP3 MSTORE DUP1 PUSH1 0x20 MUL PUSH1 0x20 ADD DUP3 ADD PUSH1 0x40 MSTORE DUP1 ISZERO PUSH2 0xD7A JUMPI DUP2 PUSH1 0x20 ADD JUMPDEST PUSH2 0xD67 PUSH2 0x2B58 JUMP JUMPDEST DUP2 MSTORE PUSH1 0x20 ADD SWAP1 PUSH1 0x1 SWAP1 SUB SWAP1 DUP2 PUSH2 0xD5F JUMPI SWAP1 POP JUMPDEST POP SWAP1 POP PUSH2 0xD87 DUP10 DUP9 PUSH2 0x16AF JUMP JUMPDEST DUP2 PUSH1 0x0 DUP2 MLOAD DUP2 LT PUSH2 0xD9B JUMPI PUSH2 0xD9A PUSH2 0x3744 JUMP JUMPDEST JUMPDEST PUSH1 0x20 MUL PUSH1 0x20 ADD ADD DUP2 SWAP1 MSTORE POP PUSH2 0xDB0 DUP9 DUP8 PUSH2 0x16AF JUMP JUMPDEST DUP2 PUSH1 0x1 DUP2 MLOAD DUP2 LT PUSH2 0xDC4 JUMPI PUSH2 0xDC3 PUSH2 0x3744 JUMP JUMPDEST JUMPDEST PUSH1 0x20 MUL PUSH1 0x20 ADD ADD DUP2 SWAP1 MSTORE POP PUSH2 0xDE6 DUP10 DUP10 DUP10 DUP10 DUP10 DUP10 DUP10 PUSH2 0xDE1 PUSH2 0x176E JUMP JUMPDEST PUSH2 0x1D75 JUMP JUMPDEST DUP2 PUSH1 0x2 DUP2 MLOAD DUP2 LT PUSH2 0xDFA JUMPI PUSH2 0xDF9 PUSH2 0x3744 JUMP JUMPDEST JUMPDEST PUSH1 0x20 MUL PUSH1 0x20 ADD ADD DUP2 SWAP1 MSTORE POP DUP1 SWAP2 POP POP SWAP8 SWAP7 POP POP POP POP POP POP POP JUMP JUMPDEST PUSH1 0x60 DUP3 PUSH1 0x0 DUP2 EQ DUP1 PUSH2 0xE27 JUMPI POP PUSH2 0x3E8 DUP2 GT JUMPDEST ISZERO PUSH2 0xE5E JUMPI PUSH1 0x40 MLOAD PUSH32 0x7DE8FBF600000000000000000000000000000000000000000000000000000000 DUP2 MSTORE PUSH1 0x4 ADD PUSH1 0x40 MLOAD DUP1 SWAP2 SUB SWAP1 REVERT JUMPDEST PUSH2 0xE80 DUP7 DUP7 PUSH2 0xE77 PUSH2 0xE70 DUP11 DUP11 PUSH2 0x12AD JUMP JUMPDEST DUP9 DUP9 PUSH2 0x13BE JUMP JUMPDEST PUSH1 0x0 DUP1 DUP9 PUSH2 0xA96 JUMP JUMPDEST SWAP2 POP POP SWAP5 SWAP4 POP POP POP POP JUMP JUMPDEST PUSH1 0x60 PUSH1 0x0 PUSH1 0x5 PUSH8 0xFFFFFFFFFFFFFFFF DUP2 GT ISZERO PUSH2 0xEAA JUMPI PUSH2 0xEA9 PUSH2 0x2F5F JUMP JUMPDEST JUMPDEST PUSH1 0x40 MLOAD SWAP1 DUP1 DUP3 MSTORE DUP1 PUSH1 0x20 MUL PUSH1 0x20 ADD DUP3 ADD PUSH1 0x40 MSTORE DUP1 ISZERO PUSH2 0xEE3 JUMPI DUP2 PUSH1 0x20 ADD JUMPDEST PUSH2 0xED0 PUSH2 0x2B58 JUMP JUMPDEST DUP2 MSTORE PUSH1 0x20 ADD SWAP1 PUSH1 0x1 SWAP1 SUB SWAP1 DUP2 PUSH2 0xEC8 JUMPI SWAP1 POP JUMPDEST POP SWAP1 POP PUSH1 0x0 PUSH2 0xEF2 DUP8 DUP8 PUSH2 0x12AD JUMP JUMPDEST SWAP1 POP PUSH1 0x0 PUSH2 0xF01 DUP3 DUP10 DUP9 PUSH2 0x1E46 JUMP JUMPDEST SWAP1 POP PUSH1 0x0 DUP1 PUSH2 0xF12 DUP11 DUP11 DUP6 DUP11 PUSH2 0x1FA9 JUMP JUMPDEST SWAP2 POP SWAP2 POP PUSH1 0x0 PUSH2 0xF33 DUP12 DUP12 DUP7 DUP13 PUSH2 0xF29 SWAP2 SWAP1 PUSH2 0x37A7 JUMP JUMPDEST DUP7 PUSH1 0x0 DUP1 DUP15 PUSH2 0xC9D JUMP JUMPDEST SWAP1 POP DUP2 PUSH1 0x0 DUP2 MLOAD DUP2 LT PUSH2 0xF49 JUMPI PUSH2 0xF48 PUSH2 0x3744 JUMP JUMPDEST JUMPDEST PUSH1 0x20 MUL PUSH1 0x20 ADD ADD MLOAD DUP7 PUSH1 0x0 DUP2 MLOAD DUP2 LT PUSH2 0xF65 JUMPI PUSH2 0xF64 PUSH2 0x3744 JUMP JUMPDEST JUMPDEST PUSH1 0x20 MUL PUSH1 0x20 ADD ADD DUP2 SWAP1 MSTORE POP DUP2 PUSH1 0x1 DUP2 MLOAD DUP2 LT PUSH2 0xF84 JUMPI PUSH2 0xF83 PUSH2 0x3744 JUMP JUMPDEST JUMPDEST PUSH1 0x20 MUL PUSH1 0x20 ADD ADD MLOAD DUP7 PUSH1 0x1 DUP2 MLOAD DUP2 LT PUSH2 0xFA0 JUMPI PUSH2 0xF9F PUSH2 0x3744 JUMP JUMPDEST JUMPDEST PUSH1 0x20 MUL PUSH1 0x20 ADD ADD DUP2 SWAP1 MSTORE POP DUP1 PUSH1 0x0 DUP2 MLOAD DUP2 LT PUSH2 0xFBF JUMPI PUSH2 0xFBE PUSH2 0x3744 JUMP JUMPDEST JUMPDEST PUSH1 0x20 MUL PUSH1 0x20 ADD ADD MLOAD DUP7 PUSH1 0x2 DUP2 MLOAD DUP2 LT PUSH2 0xFDB JUMPI PUSH2 0xFDA PUSH2 0x3744 JUMP JUMPDEST JUMPDEST PUSH1 0x20 MUL PUSH1 0x20 ADD ADD DUP2 SWAP1 MSTORE POP DUP1 PUSH1 0x1 DUP2 MLOAD DUP2 LT PUSH2 0xFFA JUMPI PUSH2 0xFF9 PUSH2 0x3744 JUMP JUMPDEST JUMPDEST PUSH1 0x20 MUL PUSH1 0x20 ADD ADD MLOAD DUP7 PUSH1 0x3 DUP2 MLOAD DUP2 LT PUSH2 0x1016 JUMPI PUSH2 0x1015 PUSH2 0x3744 JUMP JUMPDEST JUMPDEST PUSH1 0x20 MUL PUSH1 0x20 ADD ADD DUP2 SWAP1 MSTORE POP DUP1 PUSH1 0x2 DUP2 MLOAD DUP2 LT PUSH2 0x1035 JUMPI PUSH2 0x1034 PUSH2 0x3744 JUMP JUMPDEST JUMPDEST PUSH1 0x20 MUL PUSH1 0x20 ADD ADD MLOAD DUP7 PUSH1 0x4 DUP2 MLOAD DUP2 LT PUSH2 0x1051 JUMPI PUSH2 0x1050 PUSH2 0x3744 JUMP JUMPDEST JUMPDEST PUSH1 0x20 MUL PUSH1 0x20 ADD ADD DUP2 SWAP1 MSTORE POP DUP6 SWAP7 POP POP POP POP POP POP POP SWAP5 SWAP4 POP POP POP POP JUMP JUMPDEST PUSH1 0x0 PUSH2 0x7CA PUSH2 0x7CD DUP5 PUSH2 0x1080 SWAP2 SWAP1 PUSH2 0x34B9 JUMP JUMPDEST PUSH2 0x10BB PUSH3 0x3CDA20 DUP6 PUSH2 0x1092 SWAP2 SWAP1 PUSH2 0x34B9 JUMP JUMPDEST PUSH3 0x3CDA29 DUP8 PUSH2 0x10A1 SWAP2 SWAP1 PUSH2 0x34B9 JUMP JUMPDEST PUSH2 0x10AB SWAP2 SWAP1 PUSH2 0x3773 JUMP JUMPDEST DUP7 PUSH2 0x10B6 SWAP2 SWAP1 PUSH2 0x34B9 JUMP JUMPDEST PUSH2 0x2221 JUMP JUMPDEST PUSH2 0x10C5 SWAP2 SWAP1 PUSH2 0x37A7 JUMP JUMPDEST PUSH2 0x10CF SWAP2 SWAP1 PUSH2 0x352A JUMP JUMPDEST SWAP1 POP SWAP3 SWAP2 POP POP JUMP JUMPDEST PUSH2 0x3E8 DUP2 JUMP JUMPDEST PUSH32 0x0 DUP2 JUMP JUMPDEST PUSH1 0x60 PUSH1 0x0 DUP7 EQ DUP1 ISZERO PUSH2 0x1113 JUMPI POP PUSH1 0x0 DUP5 EQ JUMPDEST ISZERO PUSH2 0x114A JUMPI PUSH1 0x40 MLOAD PUSH32 0x2D1440D500000000000000000000000000000000000000000000000000000000 DUP2 MSTORE PUSH1 0x4 ADD PUSH1 0x40 MLOAD DUP1 SWAP2 SUB SWAP1 REVERT JUMPDEST PUSH1 0x0 DUP7 SUB PUSH2 0x11A9 JUMPI PUSH2 0x11A6 PUSH32 0x0 DUP6 PUSH2 0x11A1 DUP11 PUSH32 0x0 PUSH2 0x12AD JUMP JUMPDEST PUSH2 0x1BD5 JUMP JUMPDEST SWAP6 POP JUMPDEST PUSH1 0x0 DUP5 SUB PUSH2 0x11E8 JUMPI PUSH2 0x11E5 DUP8 DUP8 PUSH2 0x11E0 DUP11 PUSH32 0x0 PUSH2 0x12AD JUMP JUMPDEST PUSH2 0x1BD5 JUMP JUMPDEST SWAP4 POP JUMPDEST PUSH1 0x0 PUSH1 0x2 PUSH8 0xFFFFFFFFFFFFFFFF DUP2 GT ISZERO PUSH2 0x1205 JUMPI PUSH2 0x1204 PUSH2 0x2F5F JUMP JUMPDEST JUMPDEST PUSH1 0x40 MLOAD SWAP1 DUP1 DUP3 MSTORE DUP1 PUSH1 0x20 MUL PUSH1 0x20 ADD DUP3 ADD PUSH1 0x40 MSTORE DUP1 ISZERO PUSH2 0x123E JUMPI DUP2 PUSH1 0x20 ADD JUMPDEST PUSH2 0x122B PUSH2 0x2B58 JUMP JUMPDEST DUP2 MSTORE PUSH1 0x20 ADD SWAP1 PUSH1 0x1 SWAP1 SUB SWAP1 DUP2 PUSH2 0x1223 JUMPI SWAP1 POP JUMPDEST POP SWAP1 POP PUSH2 0x124B DUP9 DUP9 PUSH2 0x16AF JUMP JUMPDEST DUP2 PUSH1 0x0 DUP2 MLOAD DUP2 LT PUSH2 0x125F JUMPI PUSH2 0x125E PUSH2 0x3744 JUMP JUMPDEST JUMPDEST PUSH1 0x20 MUL PUSH1 0x20 ADD ADD DUP2 SWAP1 MSTORE POP PUSH2 0x1280 DUP9 DUP7 DUP10 DUP10 DUP9 DUP9 PUSH2 0x127B PUSH2 0x176E JUMP JUMPDEST PUSH2 0x229B JUMP JUMPDEST DUP2 PUSH1 0x1 DUP2 MLOAD DUP2 LT PUSH2 0x1294 JUMPI PUSH2 0x1293 PUSH2 0x3744 JUMP JUMPDEST JUMPDEST PUSH1 0x20 MUL PUSH1 0x20 ADD ADD DUP2 SWAP1 MSTORE POP DUP1 SWAP2 POP POP SWAP7 SWAP6 POP POP POP POP POP POP JUMP JUMPDEST PUSH1 0x0 DUP1 PUSH32 0x0 PUSH20 0xFFFFFFFFFFFFFFFFFFFFFFFFFFFFFFFFFFFFFFFF AND PUSH4 0xE6A43905 DUP6 DUP6 PUSH1 0x40 MLOAD DUP4 PUSH4 0xFFFFFFFF AND PUSH1 0xE0 SHL DUP2 MSTORE PUSH1 0x4 ADD PUSH2 0x130B SWAP3 SWAP2 SWAP1 PUSH2 0x37DB JUMP JUMPDEST PUSH1 0x20 PUSH1 0x40 MLOAD DUP1 DUP4 SUB DUP2 DUP7 GAS STATICCALL ISZERO DUP1 ISZERO PUSH2 0x1328 JUMPI RETURNDATASIZE PUSH1 0x0 DUP1 RETURNDATACOPY RETURNDATASIZE PUSH1 0x0 REVERT JUMPDEST POP POP POP POP PUSH1 0x40 MLOAD RETURNDATASIZE PUSH1 0x1F NOT PUSH1 0x1F DUP3 ADD AND DUP3 ADD DUP1 PUSH1 0x40 MSTORE POP DUP2 ADD SWAP1 PUSH2 0x134C SWAP2 SWAP1 PUSH2 0x3819 JUMP JUMPDEST SWAP1 POP PUSH1 0x0 PUSH20 0xFFFFFFFFFFFFFFFFFFFFFFFFFFFFFFFFFFFFFFFF AND DUP2 PUSH20 0xFFFFFFFFFFFFFFFFFFFFFFFFFFFFFFFFFFFFFFFF AND SUB PUSH2 0x13B4 JUMPI PUSH1 0x40 MLOAD PUSH32 0x2A11BA8500000000000000000000000000000000000000000000000000000000 DUP2 MSTORE PUSH1 0x4 ADD PUSH1 0x40 MLOAD DUP1 SWAP2 SUB SWAP1 REVERT JUMPDEST DUP1 SWAP2 POP POP SWAP3 SWAP2 POP POP JUMP JUMPDEST PUSH1 0x0 DUP1 DUP5 PUSH20 0xFFFFFFFFFFFFFFFFFFFFFFFFFFFFFFFFFFFFFFFF AND PUSH4 0x70A08231 DUP5 PUSH1 0x40 MLOAD DUP3 PUSH4 0xFFFFFFFF AND PUSH1 0xE0 SHL DUP2 MSTORE PUSH1 0x4 ADD PUSH2 0x13FA SWAP2 SWAP1 PUSH2 0x2EE2 JUMP JUMPDEST PUSH1 0x20 PUSH1 0x40 MLOAD DUP1 DUP4 SUB DUP2 DUP7 GAS STATICCALL ISZERO DUP1 ISZERO PUSH2 0x1417 JUMPI RETURNDATASIZE PUSH1 0x0 DUP1 RETURNDATACOPY RETURNDATASIZE PUSH1 0x0 REVERT JUMPDEST POP POP POP POP PUSH1 0x40 MLOAD RETURNDATASIZE PUSH1 0x1F NOT PUSH1 0x1F DUP3 ADD AND DUP3 ADD DUP1 PUSH1 0x40 MSTORE POP DUP2 ADD SWAP1 PUSH2 0x143B SWAP2 SWAP1 PUSH2 0x3846 JUMP JUMPDEST SWAP1 POP PUSH2 0x3E8 DUP2 DUP6 PUSH2 0x144C SWAP2 SWAP1 PUSH2 0x34B9 JUMP JUMPDEST PUSH2 0x1456 SWAP2 SWAP1 PUSH2 0x352A JUMP JUMPDEST SWAP2 POP POP SWAP4 SWAP3 POP POP POP JUMP JUMPDEST PUSH1 0x0 DUP1 PUSH1 0x0 DUP1 DUP6 PUSH20 0xFFFFFFFFFFFFFFFFFFFFFFFFFFFFFFFFFFFFFFFF AND PUSH4 0x902F1AC PUSH1 0x40 MLOAD DUP2 PUSH4 0xFFFFFFFF AND PUSH1 0xE0 SHL DUP2 MSTORE PUSH1 0x4 ADD PUSH1 0x60 PUSH1 0x40 MLOAD DUP1 DUP4 SUB DUP2 DUP7 GAS STATICCALL ISZERO DUP1 ISZERO PUSH2 0x14B1 JUMPI RETURNDATASIZE PUSH1 0x0 DUP1 RETURNDATACOPY RETURNDATASIZE PUSH1 0x0 REVERT JUMPDEST POP POP POP POP PUSH1 0x40 MLOAD RETURNDATASIZE PUSH1 0x1F NOT PUSH1 0x1F DUP3 ADD AND DUP3 ADD DUP1 PUSH1 0x40 MSTORE POP DUP2 ADD SWAP1 PUSH2 0x14D5 SWAP2 SWAP1 PUSH2 0x38F5 JUMP JUMPDEST POP SWAP2 POP SWAP2 POP PUSH1 0x0 DUP1 DUP10 PUSH20 0xFFFFFFFFFFFFFFFFFFFFFFFFFFFFFFFFFFFFFFFF AND DUP9 PUSH20 0xFFFFFFFFFFFFFFFFFFFFFFFFFFFFFFFFFFFFFFFF AND PUSH4 0xDFE1681 PUSH1 0x40 MLOAD DUP2 PUSH4 0xFFFFFFFF AND PUSH1 0xE0 SHL DUP2 MSTORE PUSH1 0x4 ADD PUSH1 0x20 PUSH1 0x40 MLOAD DUP1 DUP4 SUB DUP2 DUP7 GAS STATICCALL ISZERO DUP1 ISZERO PUSH2 0x153F JUMPI RETURNDATASIZE PUSH1 0x0 DUP1 RETURNDATACOPY RETURNDATASIZE PUSH1 0x0 REVERT JUMPDEST POP POP POP POP PUSH1 0x40 MLOAD RETURNDATASIZE PUSH1 0x1F NOT PUSH1 0x1F DUP3 ADD AND DUP3 ADD DUP1 PUSH1 0x40 MSTORE POP DUP2 ADD SWAP1 PUSH2 0x1563 SWAP2 SWAP1 PUSH2 0x3819 JUMP JUMPDEST PUSH20 0xFFFFFFFFFFFFFFFFFFFFFFFFFFFFFFFFFFFFFFFF AND SUB PUSH2 0x1589 JUMPI DUP4 SWAP2 POP DUP3 SWAP1 POP PUSH2 0x1590 JUMP JUMPDEST DUP3 SWAP2 POP DUP4 SWAP1 POP JUMPDEST PUSH1 0x0 DUP11 PUSH20 0xFFFFFFFFFFFFFFFFFFFFFFFFFFFFFFFFFFFFFFFF AND PUSH4 0x70A08231 DUP10 PUSH1 0x40 MLOAD DUP3 PUSH4 0xFFFFFFFF AND PUSH1 0xE0 SHL DUP2 MSTORE PUSH1 0x4 ADD PUSH2 0x15CB SWAP2 SWAP1 PUSH2 0x2EE2 JUMP JUMPDEST PUSH1 0x20 PUSH1 0x40 MLOAD DUP1 DUP4 SUB DUP2 DUP7 GAS STATICCALL ISZERO DUP1 ISZERO PUSH2 0x15E8 JUMPI RETURNDATASIZE PUSH1 0x0 DUP1 RETURNDATACOPY RETURNDATASIZE PUSH1 0x0 REVERT JUMPDEST POP POP POP POP PUSH1 0x40 MLOAD RETURNDATASIZE PUSH1 0x1F NOT PUSH1 0x1F DUP3 ADD AND DUP3 ADD DUP1 PUSH1 0x40 MSTORE POP DUP2 ADD SWAP1 PUSH2 0x160C SWAP2 SWAP1 PUSH2 0x3846 JUMP JUMPDEST SWAP1 POP PUSH1 0x0 DUP11 PUSH20 0xFFFFFFFFFFFFFFFFFFFFFFFFFFFFFFFFFFFFFFFF AND PUSH4 0x70A08231 DUP11 PUSH1 0x40 MLOAD DUP3 PUSH4 0xFFFFFFFF AND PUSH1 0xE0 SHL DUP2 MSTORE PUSH1 0x4 ADD PUSH2 0x1649 SWAP2 SWAP1 PUSH2 0x2EE2 JUMP JUMPDEST PUSH1 0x20 PUSH1 0x40 MLOAD DUP1 DUP4 SUB DUP2 DUP7 GAS STATICCALL ISZERO DUP1 ISZERO PUSH2 0x1666 JUMPI RETURNDATASIZE PUSH1 0x0 DUP1 RETURNDATACOPY RETURNDATASIZE PUSH1 0x0 REVERT JUMPDEST POP POP POP POP PUSH1 0x40 MLOAD RETURNDATASIZE PUSH1 0x1F NOT PUSH1 0x1F DUP3 ADD AND DUP3 ADD DUP1 PUSH1 0x40 MSTORE POP DUP2 ADD SWAP1 PUSH2 0x168A SWAP2 SWAP1 PUSH2 0x3846 JUMP JUMPDEST SWAP1 POP PUSH2 0x1698 DUP5 DUP5 DUP5 DUP5 PUSH2 0x2366 JUMP JUMPDEST DUP1 SWAP9 POP DUP2 SWAP10 POP POP POP POP POP POP POP POP POP SWAP5 POP SWAP5 SWAP3 POP POP POP JUMP JUMPDEST PUSH2 0x16B7 PUSH2 0x2B58 JUMP JUMPDEST PUSH1 0x0 PUSH32 0x0 DUP4 PUSH1 0x40 MLOAD PUSH1 0x24 ADD PUSH2 0x16EC SWAP3 SWAP2 SWAP1 PUSH2 0x3948 JUMP JUMPDEST PUSH1 0x40 MLOAD PUSH1 0x20 DUP2 DUP4 SUB SUB DUP2 MSTORE SWAP1 PUSH1 0x40 MSTORE PUSH4 0x95EA7B3 PUSH1 0xE0 SHL PUSH1 0x20 DUP3 ADD DUP1 MLOAD PUSH28 0xFFFFFFFFFFFFFFFFFFFFFFFFFFFFFFFFFFFFFFFFFFFFFFFFFFFFFFFF DUP4 DUP2 DUP4 AND OR DUP4 MSTORE POP POP POP POP SWAP1 POP PUSH1 0x40 MLOAD DUP1 PUSH1 0x60 ADD PUSH1 0x40 MSTORE DUP1 DUP6 PUSH20 0xFFFFFFFFFFFFFFFFFFFFFFFFFFFFFFFFFFFFFFFF AND DUP2 MSTORE PUSH1 0x20 ADD PUSH1 0x0 DUP2 MSTORE PUSH1 0x20 ADD DUP3 DUP2 MSTORE POP SWAP2 POP POP SWAP3 SWAP2 POP POP JUMP JUMPDEST PUSH1 0x0 PUSH1 0x1E TIMESTAMP PUSH2 0x177D SWAP2 SWAP1 PUSH2 0x3773 JUMP JUMPDEST SWAP1 POP SWAP1 JUMP JUMPDEST PUSH2 0x178A PUSH2 0x2B58 JUMP JUMPDEST PUSH1 0x0 DUP8 DUP8 DUP8 DUP8 DUP8 DUP8 PUSH1 0x40 MLOAD PUSH1 0x24 ADD PUSH2 0x17A7 SWAP7 SWAP6 SWAP5 SWAP4 SWAP3 SWAP2 SWAP1 PUSH2 0x3971 JUMP JUMPDEST PUSH1 0x40 MLOAD PUSH1 0x20 DUP2 DUP4 SUB SUB DUP2 MSTORE SWAP1 PUSH1 0x40 MSTORE PUSH4 0x2751CEC PUSH1 0xE0 SHL PUSH1 0x20 DUP3 ADD DUP1 MLOAD PUSH28 0xFFFFFFFFFFFFFFFFFFFFFFFFFFFFFFFFFFFFFFFFFFFFFFFFFFFFFFFF DUP4 DUP2 DUP4 AND OR DUP4 MSTORE POP POP POP POP SWAP1 POP PUSH1 0x40 MLOAD DUP1 PUSH1 0x60 ADD PUSH1 0x40 MSTORE DUP1 PUSH32 0x0 PUSH20 0xFFFFFFFFFFFFFFFFFFFFFFFFFFFFFFFFFFFFFFFF AND DUP2 MSTORE PUSH1 0x20 ADD PUSH1 0x0 DUP2 MSTORE PUSH1 0x20 ADD DUP3 DUP2 MSTORE POP SWAP2 POP POP SWAP7 SWAP6 POP POP POP POP POP POP JUMP JUMPDEST PUSH1 0x0 DUP1 PUSH1 0x60 PUSH1 0x0 PUSH2 0x187E PUSH32 0x0 DUP10 PUSH2 0x12AD JUMP JUMPDEST SWAP1 POP PUSH1 0x0 DUP7 PUSH2 0x188D JUMPI DUP9 PUSH2 0x18AF JUMP JUMPDEST PUSH32 0x0 JUMPDEST SWAP1 POP PUSH1 0x0 PUSH2 0x18BE DUP4 DUP4 DUP12 PUSH2 0x1E46 JUMP JUMPDEST SWAP1 POP DUP8 ISZERO PUSH2 0x18EC JUMPI PUSH2 0x18D1 DUP11 DUP3 DUP10 PUSH2 0x23FE JUMP JUMPDEST DUP1 SWAP6 POP DUP2 SWAP8 POP POP POP DUP1 DUP10 PUSH2 0x18E5 SWAP2 SWAP1 PUSH2 0x37A7 JUMP JUMPDEST SWAP5 POP PUSH2 0x190E JUMP JUMPDEST PUSH2 0x18F7 DUP11 DUP3 DUP10 PUSH2 0x266C JUMP JUMPDEST DUP1 SWAP6 POP DUP2 SWAP7 POP POP POP DUP1 DUP10 PUSH2 0x190B SWAP2 SWAP1 PUSH2 0x37A7 JUMP JUMPDEST SWAP6 POP JUMPDEST POP POP POP SWAP5 POP SWAP5 POP SWAP5 SWAP2 POP POP JUMP JUMPDEST PUSH2 0x1923 PUSH2 0x2B58 JUMP JUMPDEST PUSH1 0x0 DUP9 DUP9 DUP9 DUP9 DUP9 DUP9 DUP9 PUSH1 0x40 MLOAD PUSH1 0x24 ADD PUSH2 0x1942 SWAP8 SWAP7 SWAP6 SWAP5 SWAP4 SWAP3 SWAP2 SWAP1 PUSH2 0x39D2 JUMP JUMPDEST PUSH1 0x40 MLOAD PUSH1 0x20 DUP2 DUP4 SUB SUB DUP2 MSTORE SWAP1 PUSH1 0x40 MSTORE PUSH4 0xBAA2ABDE PUSH1 0xE0 SHL PUSH1 0x20 DUP3 ADD DUP1 MLOAD PUSH28 0xFFFFFFFFFFFFFFFFFFFFFFFFFFFFFFFFFFFFFFFFFFFFFFFFFFFFFFFF DUP4 DUP2 DUP4 AND OR DUP4 MSTORE POP POP POP POP SWAP1 POP PUSH1 0x40 MLOAD DUP1 PUSH1 0x60 ADD PUSH1 0x40 MSTORE DUP1 PUSH32 0x0 PUSH20 0xFFFFFFFFFFFFFFFFFFFFFFFFFFFFFFFFFFFFFFFF AND DUP2 MSTORE PUSH1 0x20 ADD PUSH1 0x0 DUP2 MSTORE PUSH1 0x20 ADD DUP3 DUP2 MSTORE POP SWAP2 POP POP SWAP8 SWAP7 POP POP POP POP POP POP POP JUMP JUMPDEST PUSH1 0x0 DUP1 PUSH1 0x0 DUP1 DUP6 PUSH20 0xFFFFFFFFFFFFFFFFFFFFFFFFFFFFFFFFFFFFFFFF AND PUSH4 0x902F1AC PUSH1 0x40 MLOAD DUP2 PUSH4 0xFFFFFFFF AND PUSH1 0xE0 SHL DUP2 MSTORE PUSH1 0x4 ADD PUSH1 0x60 PUSH1 0x40 MLOAD DUP1 DUP4 SUB DUP2 DUP7 GAS STATICCALL ISZERO DUP1 ISZERO PUSH2 0x1A3A JUMPI RETURNDATASIZE PUSH1 0x0 DUP1 RETURNDATACOPY RETURNDATASIZE PUSH1 0x0 REVERT JUMPDEST POP POP POP POP PUSH1 0x40 MLOAD RETURNDATASIZE PUSH1 0x1F NOT PUSH1 0x1F DUP3 ADD AND DUP3 ADD DUP1 PUSH1 0x40 MSTORE POP DUP2 ADD SWAP1 PUSH2 0x1A5E SWAP2 SWAP1 PUSH2 0x38F5 JUMP JUMPDEST POP SWAP2 POP SWAP2 POP PUSH1 0x0 DUP1 DUP9 PUSH20 0xFFFFFFFFFFFFFFFFFFFFFFFFFFFFFFFFFFFFFFFF AND DUP9 PUSH20 0xFFFFFFFFFFFFFFFFFFFFFFFFFFFFFFFFFFFFFFFF AND PUSH4 0xDFE1681 PUSH1 0x40 MLOAD DUP2 PUSH4 0xFFFFFFFF AND PUSH1 0xE0 SHL DUP2 MSTORE PUSH1 0x4 ADD PUSH1 0x20 PUSH1 0x40 MLOAD DUP1 DUP4 SUB DUP2 DUP7 GAS STATICCALL ISZERO DUP1 ISZERO PUSH2 0x1AC8 JUMPI RETURNDATASIZE PUSH1 0x0 DUP1 RETURNDATACOPY RETURNDATASIZE PUSH1 0x0 REVERT JUMPDEST POP POP POP POP PUSH1 0x40 MLOAD RETURNDATASIZE PUSH1 0x1F NOT PUSH1 0x1F DUP3 ADD AND DUP3 ADD DUP1 PUSH1 0x40 MSTORE POP DUP2 ADD SWAP1 PUSH2 0x1AEC SWAP2 SWAP1 PUSH2 0x3819 JUMP JUMPDEST PUSH20 0xFFFFFFFFFFFFFFFFFFFFFFFFFFFFFFFFFFFFFFFF AND SUB PUSH2 0x1B12 JUMPI DUP4 SWAP2 POP DUP3 SWAP1 POP PUSH2 0x1B19 JUMP JUMPDEST DUP3 SWAP2 POP DUP4 SWAP1 POP JUMPDEST PUSH1 0x0 DUP10 PUSH20 0xFFFFFFFFFFFFFFFFFFFFFFFFFFFFFFFFFFFFFFFF AND PUSH4 0x70A08231 DUP10 PUSH1 0x40 MLOAD DUP3 PUSH4 0xFFFFFFFF AND PUSH1 0xE0 SHL DUP2 MSTORE PUSH1 0x4 ADD PUSH2 0x1B54 SWAP2 SWAP1 PUSH2 0x2EE2 JUMP JUMPDEST PUSH1 0x20 PUSH1 0x40 MLOAD DUP1 DUP4 SUB DUP2 DUP7 GAS STATICCALL ISZERO DUP1 ISZERO PUSH2 0x1B71 JUMPI RETURNDATASIZE PUSH1 0x0 DUP1 RETURNDATACOPY RETURNDATASIZE PUSH1 0x0 REVERT JUMPDEST POP POP POP POP PUSH1 0x40 MLOAD RETURNDATASIZE PUSH1 0x1F NOT PUSH1 0x1F DUP3 ADD AND DUP3 ADD DUP1 PUSH1 0x40 MSTORE POP DUP2 ADD SWAP1 PUSH2 0x1B95 SWAP2 SWAP1 PUSH2 0x3846 JUMP JUMPDEST SWAP1 POP PUSH1 0x0 DUP9 PUSH20 0xFFFFFFFFFFFFFFFFFFFFFFFFFFFFFFFFFFFFFFFF AND BALANCE SWAP1 POP PUSH2 0x1BBF DUP5 DUP5 DUP5 DUP5 PUSH2 0x2366 JUMP JUMPDEST DUP1 SWAP9 POP DUP2 SWAP10 POP POP POP POP POP POP POP POP POP SWAP4 POP SWAP4 SWAP2 POP POP JUMP JUMPDEST PUSH1 0x0 DUP1 DUP3 PUSH20 0xFFFFFFFFFFFFFFFFFFFFFFFFFFFFFFFFFFFFFFFF AND PUSH4 0xDFE1681 PUSH1 0x40 MLOAD DUP2 PUSH4 0xFFFFFFFF AND PUSH1 0xE0 SHL DUP2 MSTORE PUSH1 0x4 ADD PUSH1 0x20 PUSH1 0x40 MLOAD DUP1 DUP4 SUB DUP2 DUP7 GAS STATICCALL ISZERO DUP1 ISZERO PUSH2 0x1C23 JUMPI RETURNDATASIZE PUSH1 0x0 DUP1 RETURNDATACOPY RETURNDATASIZE PUSH1 0x0 REVERT JUMPDEST POP POP POP POP PUSH1 0x40 MLOAD RETURNDATASIZE PUSH1 0x1F NOT PUSH1 0x1F DUP3 ADD AND DUP3 ADD DUP1 PUSH1 0x40 MSTORE POP DUP2 ADD SWAP1 PUSH2 0x1C47 SWAP2 SWAP1 PUSH2 0x3819 JUMP JUMPDEST SWAP1 POP PUSH1 0x0 DUP1 DUP5 PUSH20 0xFFFFFFFFFFFFFFFFFFFFFFFFFFFFFFFFFFFFFFFF AND PUSH4 0x902F1AC PUSH1 0x40 MLOAD DUP2 PUSH4 0xFFFFFFFF AND PUSH1 0xE0 SHL DUP2 MSTORE PUSH1 0x4 ADD PUSH1 0x60 PUSH1 0x40 MLOAD DUP1 DUP4 SUB DUP2 DUP7 GAS STATICCALL ISZERO DUP1 ISZERO PUSH2 0x1C97 JUMPI RETURNDATASIZE PUSH1 0x0 DUP1 RETURNDATACOPY RETURNDATASIZE PUSH1 0x0 REVERT JUMPDEST POP POP POP POP PUSH1 0x40 MLOAD RETURNDATASIZE PUSH1 0x1F NOT PUSH1 0x1F DUP3 ADD AND DUP3 ADD DUP1 PUSH1 0x40 MSTORE POP DUP2 ADD SWAP1 PUSH2 0x1CBB SWAP2 SWAP1 PUSH2 0x38F5 JUMP JUMPDEST POP SWAP2 POP SWAP2 POP DUP7 PUSH20 0xFFFFFFFFFFFFFFFFFFFFFFFFFFFFFFFFFFFFFFFF AND DUP4 PUSH20 0xFFFFFFFFFFFFFFFFFFFFFFFFFFFFFFFFFFFFFFFF AND SUB PUSH2 0x1D31 JUMPI DUP2 PUSH14 0xFFFFFFFFFFFFFFFFFFFFFFFFFFFF AND DUP2 PUSH14 0xFFFFFFFFFFFFFFFFFFFFFFFFFFFF AND DUP8 PUSH2 0x1D20 SWAP2 SWAP1 PUSH2 0x34B9 JUMP JUMPDEST PUSH2 0x1D2A SWAP2 SWAP1 PUSH2 0x352A JUMP JUMPDEST SWAP4 POP PUSH2 0x1D6B JUMP JUMPDEST DUP1 PUSH14 0xFFFFFFFFFFFFFFFFFFFFFFFFFFFF AND DUP3 PUSH14 0xFFFFFFFFFFFFFFFFFFFFFFFFFFFF AND DUP8 PUSH2 0x1D5E SWAP2 SWAP1 PUSH2 0x34B9 JUMP JUMPDEST PUSH2 0x1D68 SWAP2 SWAP1 PUSH2 0x352A JUMP JUMPDEST SWAP4 POP JUMPDEST POP POP POP SWAP4 SWAP3 POP POP POP JUMP JUMPDEST PUSH2 0x1D7D PUSH2 0x2B58 JUMP JUMPDEST PUSH1 0x0 DUP10 DUP10 DUP10 DUP10 DUP10 DUP10 DUP10 DUP10 PUSH1 0x40 MLOAD PUSH1 0x24 ADD PUSH2 0x1D9E SWAP9 SWAP8 SWAP7 SWAP6 SWAP5 SWAP4 SWAP3 SWAP2 SWAP1 PUSH2 0x3A41 JUMP JUMPDEST PUSH1 0x40 MLOAD PUSH1 0x20 DUP2 DUP4 SUB SUB DUP2 MSTORE SWAP1 PUSH1 0x40 MSTORE PUSH4 0xE8E33700 PUSH1 0xE0 SHL PUSH1 0x20 DUP3 ADD DUP1 MLOAD PUSH28 0xFFFFFFFFFFFFFFFFFFFFFFFFFFFFFFFFFFFFFFFFFFFFFFFFFFFFFFFF DUP4 DUP2 DUP4 AND OR DUP4 MSTORE POP POP POP POP SWAP1 POP PUSH1 0x40 MLOAD DUP1 PUSH1 0x60 ADD PUSH1 0x40 MSTORE DUP1 PUSH32 0x0 PUSH20 0xFFFFFFFFFFFFFFFFFFFFFFFFFFFFFFFFFFFFFFFF AND DUP2 MSTORE PUSH1 0x20 ADD PUSH1 0x0 DUP2 MSTORE PUSH1 0x20 ADD DUP3 DUP2 MSTORE POP SWAP2 POP POP SWAP9 SWAP8 POP POP POP POP POP POP POP POP JUMP JUMPDEST PUSH1 0x0 DUP1 PUSH1 0x0 DUP6 PUSH20 0xFFFFFFFFFFFFFFFFFFFFFFFFFFFFFFFFFFFFFFFF AND PUSH4 0x902F1AC PUSH1 0x40 MLOAD DUP2 PUSH4 0xFFFFFFFF AND PUSH1 0xE0 SHL DUP2 MSTORE PUSH1 0x4 ADD PUSH1 0x60 PUSH1 0x40 MLOAD DUP1 DUP4 SUB DUP2 DUP7 GAS STATICCALL ISZERO DUP1 ISZERO PUSH2 0x1E96 JUMPI RETURNDATASIZE PUSH1 0x0 DUP1 RETURNDATACOPY RETURNDATASIZE PUSH1 0x0 REVERT JUMPDEST POP POP POP POP PUSH1 0x40 MLOAD RETURNDATASIZE PUSH1 0x1F NOT PUSH1 0x1F DUP3 ADD AND DUP3 ADD DUP1 PUSH1 0x40 MSTORE POP DUP2 ADD SWAP1 PUSH2 0x1EBA SWAP2 SWAP1 PUSH2 0x38F5 JUMP JUMPDEST POP PUSH14 0xFFFFFFFFFFFFFFFFFFFFFFFFFFFF AND SWAP2 POP PUSH14 0xFFFFFFFFFFFFFFFFFFFFFFFFFFFF AND SWAP2 POP DUP5 PUSH20 0xFFFFFFFFFFFFFFFFFFFFFFFFFFFFFFFFFFFFFFFF AND DUP7 PUSH20 0xFFFFFFFFFFFFFFFFFFFFFFFFFFFFFFFFFFFFFFFF AND PUSH4 0xDFE1681 PUSH1 0x40 MLOAD DUP2 PUSH4 0xFFFFFFFF AND PUSH1 0xE0 SHL DUP2 MSTORE PUSH1 0x4 ADD PUSH1 0x20 PUSH1 0x40 MLOAD DUP1 DUP4 SUB DUP2 DUP7 GAS STATICCALL ISZERO DUP1 ISZERO PUSH2 0x1F41 JUMPI RETURNDATASIZE PUSH1 0x0 DUP1 RETURNDATACOPY RETURNDATASIZE PUSH1 0x0 REVERT JUMPDEST POP POP POP POP PUSH1 0x40 MLOAD RETURNDATASIZE PUSH1 0x1F NOT PUSH1 0x1F DUP3 ADD AND DUP3 ADD DUP1 PUSH1 0x40 MSTORE POP DUP2 ADD SWAP1 PUSH2 0x1F65 SWAP2 SWAP1 PUSH2 0x3819 JUMP JUMPDEST PUSH20 0xFFFFFFFFFFFFFFFFFFFFFFFFFFFFFFFFFFFFFFFF AND SUB PUSH2 0x1F93 JUMPI PUSH2 0x1F8A DUP3 DUP6 PUSH2 0x106D JUMP JUMPDEST SWAP3 POP POP POP PUSH2 0x1FA2 JUMP JUMPDEST PUSH2 0x1F9D DUP2 DUP6 PUSH2 0x106D JUMP JUMPDEST SWAP3 POP POP POP JUMPDEST SWAP4 SWAP3 POP POP POP JUMP JUMPDEST PUSH1 0x0 PUSH1 0x60 PUSH1 0x0 PUSH1 0x2 PUSH8 0xFFFFFFFFFFFFFFFF DUP2 GT ISZERO PUSH2 0x1FCA JUMPI PUSH2 0x1FC9 PUSH2 0x2F5F JUMP JUMPDEST JUMPDEST PUSH1 0x40 MLOAD SWAP1 DUP1 DUP3 MSTORE DUP1 PUSH1 0x20 MUL PUSH1 0x20 ADD DUP3 ADD PUSH1 0x40 MSTORE DUP1 ISZERO PUSH2 0x2003 JUMPI DUP2 PUSH1 0x20 ADD JUMPDEST PUSH2 0x1FF0 PUSH2 0x2B58 JUMP JUMPDEST DUP2 MSTORE PUSH1 0x20 ADD SWAP1 PUSH1 0x1 SWAP1 SUB SWAP1 DUP2 PUSH2 0x1FE8 JUMPI SWAP1 POP JUMPDEST POP SWAP1 POP PUSH2 0x2010 DUP8 DUP7 PUSH2 0x16AF JUMP JUMPDEST DUP2 PUSH1 0x0 DUP2 MLOAD DUP2 LT PUSH2 0x2024 JUMPI PUSH2 0x2023 PUSH2 0x3744 JUMP JUMPDEST JUMPDEST PUSH1 0x20 MUL PUSH1 0x20 ADD ADD DUP2 SWAP1 MSTORE POP PUSH1 0x0 PUSH1 0x2 PUSH8 0xFFFFFFFFFFFFFFFF DUP2 GT ISZERO PUSH2 0x204C JUMPI PUSH2 0x204B PUSH2 0x2F5F JUMP JUMPDEST JUMPDEST PUSH1 0x40 MLOAD SWAP1 DUP1 DUP3 MSTORE DUP1 PUSH1 0x20 MUL PUSH1 0x20 ADD DUP3 ADD PUSH1 0x40 MSTORE DUP1 ISZERO PUSH2 0x207A JUMPI DUP2 PUSH1 0x20 ADD PUSH1 0x20 DUP3 MUL DUP1 CALLDATASIZE DUP4 CALLDATACOPY DUP1 DUP3 ADD SWAP2 POP POP SWAP1 POP JUMPDEST POP SWAP1 POP DUP8 DUP2 PUSH1 0x0 DUP2 MLOAD DUP2 LT PUSH2 0x2092 JUMPI PUSH2 0x2091 PUSH2 0x3744 JUMP JUMPDEST JUMPDEST PUSH1 0x20 MUL PUSH1 0x20 ADD ADD SWAP1 PUSH20 0xFFFFFFFFFFFFFFFFFFFFFFFFFFFFFFFFFFFFFFFF AND SWAP1 DUP2 PUSH20 0xFFFFFFFFFFFFFFFFFFFFFFFFFFFFFFFFFFFFFFFF AND DUP2 MSTORE POP POP DUP7 DUP2 PUSH1 0x1 DUP2 MLOAD DUP2 LT PUSH2 0x20E1 JUMPI PUSH2 0x20E0 PUSH2 0x3744 JUMP JUMPDEST JUMPDEST PUSH1 0x20 MUL PUSH1 0x20 ADD ADD SWAP1 PUSH20 0xFFFFFFFFFFFFFFFFFFFFFFFFFFFFFFFFFFFFFFFF AND SWAP1 DUP2 PUSH20 0xFFFFFFFFFFFFFFFFFFFFFFFFFFFFFFFFFFFFFFFF AND DUP2 MSTORE POP POP PUSH1 0x0 PUSH32 0x0 PUSH20 0xFFFFFFFFFFFFFFFFFFFFFFFFFFFFFFFFFFFFFFFF AND PUSH4 0xD06CA61F DUP9 DUP5 PUSH1 0x40 MLOAD DUP4 PUSH4 0xFFFFFFFF AND PUSH1 0xE0 SHL DUP2 MSTORE PUSH1 0x4 ADD PUSH2 0x2178 SWAP3 SWAP2 SWAP1 PUSH2 0x3B6E JUMP JUMPDEST PUSH1 0x0 PUSH1 0x40 MLOAD DUP1 DUP4 SUB DUP2 DUP7 GAS STATICCALL ISZERO DUP1 ISZERO PUSH2 0x2195 JUMPI RETURNDATASIZE PUSH1 0x0 DUP1 RETURNDATACOPY RETURNDATASIZE PUSH1 0x0 REVERT JUMPDEST POP POP POP POP PUSH1 0x40 MLOAD RETURNDATASIZE PUSH1 0x0 DUP3 RETURNDATACOPY RETURNDATASIZE PUSH1 0x1F NOT PUSH1 0x1F DUP3 ADD AND DUP3 ADD DUP1 PUSH1 0x40 MSTORE POP DUP2 ADD SWAP1 PUSH2 0x21BE SWAP2 SWAP1 PUSH2 0x3C66 JUMP JUMPDEST SWAP1 POP PUSH2 0x21D5 DUP8 PUSH1 0x0 DUP5 DUP10 PUSH2 0x21D0 PUSH2 0x176E JUMP JUMPDEST PUSH2 0x2903 JUMP JUMPDEST DUP4 PUSH1 0x1 DUP2 MLOAD DUP2 LT PUSH2 0x21E9 JUMPI PUSH2 0x21E8 PUSH2 0x3744 JUMP JUMPDEST JUMPDEST PUSH1 0x20 MUL PUSH1 0x20 ADD ADD DUP2 SWAP1 MSTORE POP DUP1 PUSH1 0x1 DUP2 MLOAD DUP2 LT PUSH2 0x2208 JUMPI PUSH2 0x2207 PUSH2 0x3744 JUMP JUMPDEST JUMPDEST PUSH1 0x20 MUL PUSH1 0x20 ADD ADD MLOAD DUP4 SWAP5 POP SWAP5 POP POP POP POP SWAP5 POP SWAP5 SWAP3 POP POP POP JUMP JUMPDEST PUSH1 0x0 PUSH1 0x3 DUP3 GT ISZERO PUSH2 0x2288 JUMPI DUP2 SWAP1 POP PUSH1 0x0 PUSH1 0x1 PUSH1 0x2 DUP5 PUSH2 0x2240 SWAP2 SWAP1 PUSH2 0x352A JUMP JUMPDEST PUSH2 0x224A SWAP2 SWAP1 PUSH2 0x3773 JUMP JUMPDEST SWAP1 POP JUMPDEST DUP2 DUP2 LT ISZERO PUSH2 0x2282 JUMPI DUP1 SWAP2 POP PUSH1 0x2 DUP2 DUP3 DUP6 PUSH2 0x2267 SWAP2 SWAP1 PUSH2 0x352A JUMP JUMPDEST PUSH2 0x2271 SWAP2 SWAP1 PUSH2 0x3773 JUMP JUMPDEST PUSH2 0x227B SWAP2 SWAP1 PUSH2 0x352A JUMP JUMPDEST SWAP1 POP PUSH2 0x224D JUMP JUMPDEST POP PUSH2 0x2296 JUMP JUMPDEST PUSH1 0x0 DUP3 EQ PUSH2 0x2295 JUMPI PUSH1 0x1 SWAP1 POP JUMPDEST JUMPDEST SWAP2 SWAP1 POP JUMP JUMPDEST PUSH2 0x22A3 PUSH2 0x2B58 JUMP JUMPDEST PUSH1 0x0 DUP9 DUP8 DUP8 DUP8 DUP8 DUP8 PUSH1 0x40 MLOAD PUSH1 0x24 ADD PUSH2 0x22C0 SWAP7 SWAP6 SWAP5 SWAP4 SWAP3 SWAP2 SWAP1 PUSH2 0x3971 JUMP JUMPDEST PUSH1 0x40 MLOAD PUSH1 0x20 DUP2 DUP4 SUB SUB DUP2 MSTORE SWAP1 PUSH1 0x40 MSTORE PUSH4 0xF305D719 PUSH1 0xE0 SHL PUSH1 0x20 DUP3 ADD DUP1 MLOAD PUSH28 0xFFFFFFFFFFFFFFFFFFFFFFFFFFFFFFFFFFFFFFFFFFFFFFFFFFFFFFFF DUP4 DUP2 DUP4 AND OR DUP4 MSTORE POP POP POP POP SWAP1 POP PUSH1 0x40 MLOAD DUP1 PUSH1 0x60 ADD PUSH1 0x40 MSTORE DUP1 PUSH32 0x0 PUSH20 0xFFFFFFFFFFFFFFFFFFFFFFFFFFFFFFFFFFFFFFFF AND DUP2 MSTORE PUSH1 0x20 ADD DUP10 DUP2 MSTORE PUSH1 0x20 ADD DUP3 DUP2 MSTORE POP SWAP2 POP POP SWAP8 SWAP7 POP POP POP POP POP POP POP JUMP JUMPDEST PUSH1 0x0 DUP1 DUP4 SWAP2 POP DUP3 SWAP1 POP PUSH1 0x0 DUP7 PUSH14 0xFFFFFFFFFFFFFFFFFFFFFFFFFFFF AND DUP7 PUSH14 0xFFFFFFFFFFFFFFFFFFFFFFFFFFFF AND DUP7 PUSH2 0x239E SWAP2 SWAP1 PUSH2 0x34B9 JUMP JUMPDEST PUSH2 0x23A8 SWAP2 SWAP1 PUSH2 0x352A JUMP JUMPDEST SWAP1 POP DUP4 DUP2 GT ISZERO PUSH2 0x23F0 JUMPI DUP6 PUSH14 0xFFFFFFFFFFFFFFFFFFFFFFFFFFFF AND DUP8 PUSH14 0xFFFFFFFFFFFFFFFFFFFFFFFFFFFF AND DUP6 PUSH2 0x23DF SWAP2 SWAP1 PUSH2 0x34B9 JUMP JUMPDEST PUSH2 0x23E9 SWAP2 SWAP1 PUSH2 0x352A JUMP JUMPDEST SWAP3 POP PUSH2 0x23F4 JUMP JUMPDEST DUP1 SWAP2 POP JUMPDEST POP SWAP5 POP SWAP5 SWAP3 POP POP POP JUMP JUMPDEST PUSH1 0x0 PUSH1 0x60 PUSH1 0x0 PUSH1 0x1 PUSH8 0xFFFFFFFFFFFFFFFF DUP2 GT ISZERO PUSH2 0x241F JUMPI PUSH2 0x241E PUSH2 0x2F5F JUMP JUMPDEST JUMPDEST PUSH1 0x40 MLOAD SWAP1 DUP1 DUP3 MSTORE DUP1 PUSH1 0x20 MUL PUSH1 0x20 ADD DUP3 ADD PUSH1 0x40 MSTORE DUP1 ISZERO PUSH2 0x2458 JUMPI DUP2 PUSH1 0x20 ADD JUMPDEST PUSH2 0x2445 PUSH2 0x2B58 JUMP JUMPDEST DUP2 MSTORE PUSH1 0x20 ADD SWAP1 PUSH1 0x1 SWAP1 SUB SWAP1 DUP2 PUSH2 0x243D JUMPI SWAP1 POP JUMPDEST POP SWAP1 POP PUSH1 0x0 PUSH1 0x2 PUSH8 0xFFFFFFFFFFFFFFFF DUP2 GT ISZERO PUSH2 0x2478 JUMPI PUSH2 0x2477 PUSH2 0x2F5F JUMP JUMPDEST JUMPDEST PUSH1 0x40 MLOAD SWAP1 DUP1 DUP3 MSTORE DUP1 PUSH1 0x20 MUL PUSH1 0x20 ADD DUP3 ADD PUSH1 0x40 MSTORE DUP1 ISZERO PUSH2 0x24A6 JUMPI DUP2 PUSH1 0x20 ADD PUSH1 0x20 DUP3 MUL DUP1 CALLDATASIZE DUP4 CALLDATACOPY DUP1 DUP3 ADD SWAP2 POP POP SWAP1 POP JUMPDEST POP SWAP1 POP PUSH32 0x0 DUP2 PUSH1 0x0 DUP2 MLOAD DUP2 LT PUSH2 0x24DE JUMPI PUSH2 0x24DD PUSH2 0x3744 JUMP JUMPDEST JUMPDEST PUSH1 0x20 MUL PUSH1 0x20 ADD ADD SWAP1 PUSH20 0xFFFFFFFFFFFFFFFFFFFFFFFFFFFFFFFFFFFFFFFF AND SWAP1 DUP2 PUSH20 0xFFFFFFFFFFFFFFFFFFFFFFFFFFFFFFFFFFFFFFFF AND DUP2 MSTORE POP POP DUP7 DUP2 PUSH1 0x1 DUP2 MLOAD DUP2 LT PUSH2 0x252D JUMPI PUSH2 0x252C PUSH2 0x3744 JUMP JUMPDEST JUMPDEST PUSH1 0x20 MUL PUSH1 0x20 ADD ADD SWAP1 PUSH20 0xFFFFFFFFFFFFFFFFFFFFFFFFFFFFFFFFFFFFFFFF AND SWAP1 DUP2 PUSH20 0xFFFFFFFFFFFFFFFFFFFFFFFFFFFFFFFFFFFFFFFF AND DUP2 MSTORE POP POP PUSH1 0x0 PUSH32 0x0 PUSH20 0xFFFFFFFFFFFFFFFFFFFFFFFFFFFFFFFFFFFFFFFF AND PUSH4 0xD06CA61F DUP9 DUP5 PUSH1 0x40 MLOAD DUP4 PUSH4 0xFFFFFFFF AND PUSH1 0xE0 SHL DUP2 MSTORE PUSH1 0x4 ADD PUSH2 0x25C4 SWAP3 SWAP2 SWAP1 PUSH2 0x3B6E JUMP JUMPDEST PUSH1 0x0 PUSH1 0x40 MLOAD DUP1 DUP4 SUB DUP2 DUP7 GAS STATICCALL ISZERO DUP1 ISZERO PUSH2 0x25E1 JUMPI RETURNDATASIZE PUSH1 0x0 DUP1 RETURNDATACOPY RETURNDATASIZE PUSH1 0x0 REVERT JUMPDEST POP POP POP POP PUSH1 0x40 MLOAD RETURNDATASIZE PUSH1 0x0 DUP3 RETURNDATACOPY RETURNDATASIZE PUSH1 0x1F NOT PUSH1 0x1F DUP3 ADD AND DUP3 ADD DUP1 PUSH1 0x40 MSTORE POP DUP2 ADD SWAP1 PUSH2 0x260A SWAP2 SWAP1 PUSH2 0x3C66 JUMP JUMPDEST SWAP1 POP PUSH2 0x2621 DUP8 PUSH1 0x0 DUP5 DUP10 PUSH2 0x261C PUSH2 0x176E JUMP JUMPDEST PUSH2 0x29CB JUMP JUMPDEST DUP4 PUSH1 0x0 DUP2 MLOAD DUP2 LT PUSH2 0x2635 JUMPI PUSH2 0x2634 PUSH2 0x3744 JUMP JUMPDEST JUMPDEST PUSH1 0x20 MUL PUSH1 0x20 ADD ADD DUP2 SWAP1 MSTORE POP DUP1 PUSH1 0x1 DUP2 MLOAD DUP2 LT PUSH2 0x2654 JUMPI PUSH2 0x2653 PUSH2 0x3744 JUMP JUMPDEST JUMPDEST PUSH1 0x20 MUL PUSH1 0x20 ADD ADD MLOAD DUP4 SWAP5 POP SWAP5 POP POP POP POP SWAP4 POP SWAP4 SWAP2 POP POP JUMP JUMPDEST PUSH1 0x0 PUSH1 0x60 PUSH1 0x0 PUSH1 0x2 PUSH8 0xFFFFFFFFFFFFFFFF DUP2 GT ISZERO PUSH2 0x268D JUMPI PUSH2 0x268C PUSH2 0x2F5F JUMP JUMPDEST JUMPDEST PUSH1 0x40 MLOAD SWAP1 DUP1 DUP3 MSTORE DUP1 PUSH1 0x20 MUL PUSH1 0x20 ADD DUP3 ADD PUSH1 0x40 MSTORE DUP1 ISZERO PUSH2 0x26C6 JUMPI DUP2 PUSH1 0x20 ADD JUMPDEST PUSH2 0x26B3 PUSH2 0x2B58 JUMP JUMPDEST DUP2 MSTORE PUSH1 0x20 ADD SWAP1 PUSH1 0x1 SWAP1 SUB SWAP1 DUP2 PUSH2 0x26AB JUMPI SWAP1 POP JUMPDEST POP SWAP1 POP PUSH2 0x26D3 DUP7 DUP7 PUSH2 0x16AF JUMP JUMPDEST DUP2 PUSH1 0x0 DUP2 MLOAD DUP2 LT PUSH2 0x26E7 JUMPI PUSH2 0x26E6 PUSH2 0x3744 JUMP JUMPDEST JUMPDEST PUSH1 0x20 MUL PUSH1 0x20 ADD ADD DUP2 SWAP1 MSTORE POP PUSH1 0x0 PUSH1 0x2 PUSH8 0xFFFFFFFFFFFFFFFF DUP2 GT ISZERO PUSH2 0x270F JUMPI PUSH2 0x270E PUSH2 0x2F5F JUMP JUMPDEST JUMPDEST PUSH1 0x40 MLOAD SWAP1 DUP1 DUP3 MSTORE DUP1 PUSH1 0x20 MUL PUSH1 0x20 ADD DUP3 ADD PUSH1 0x40 MSTORE DUP1 ISZERO PUSH2 0x273D JUMPI DUP2 PUSH1 0x20 ADD PUSH1 0x20 DUP3 MUL DUP1 CALLDATASIZE DUP4 CALLDATACOPY DUP1 DUP3 ADD SWAP2 POP POP SWAP1 POP JUMPDEST POP SWAP1 POP DUP7 DUP2 PUSH1 0x0 DUP2 MLOAD DUP2 LT PUSH2 0x2755 JUMPI PUSH2 0x2754 PUSH2 0x3744 JUMP JUMPDEST JUMPDEST PUSH1 0x20 MUL PUSH1 0x20 ADD ADD SWAP1 PUSH20 0xFFFFFFFFFFFFFFFFFFFFFFFFFFFFFFFFFFFFFFFF AND SWAP1 DUP2 PUSH20 0xFFFFFFFFFFFFFFFFFFFFFFFFFFFFFFFFFFFFFFFF AND DUP2 MSTORE POP POP PUSH32 0x0 DUP2 PUSH1 0x1 DUP2 MLOAD DUP2 LT PUSH2 0x27C4 JUMPI PUSH2 0x27C3 PUSH2 0x3744 JUMP JUMPDEST JUMPDEST PUSH1 0x20 MUL PUSH1 0x20 ADD ADD SWAP1 PUSH20 0xFFFFFFFFFFFFFFFFFFFFFFFFFFFFFFFFFFFFFFFF AND SWAP1 DUP2 PUSH20 0xFFFFFFFFFFFFFFFFFFFFFFFFFFFFFFFFFFFFFFFF AND DUP2 MSTORE POP POP PUSH1 0x0 PUSH32 0x0 PUSH20 0xFFFFFFFFFFFFFFFFFFFFFFFFFFFFFFFFFFFFFFFF AND PUSH4 0xD06CA61F DUP9 DUP5 PUSH1 0x40 MLOAD DUP4 PUSH4 0xFFFFFFFF AND PUSH1 0xE0 SHL DUP2 MSTORE PUSH1 0x4 ADD PUSH2 0x285B SWAP3 SWAP2 SWAP1 PUSH2 0x3B6E JUMP JUMPDEST PUSH1 0x0 PUSH1 0x40 MLOAD DUP1 DUP4 SUB DUP2 DUP7 GAS STATICCALL ISZERO DUP1 ISZERO PUSH2 0x2878 JUMPI RETURNDATASIZE PUSH1 0x0 DUP1 RETURNDATACOPY RETURNDATASIZE PUSH1 0x0 REVERT JUMPDEST POP POP POP POP PUSH1 0x40 MLOAD RETURNDATASIZE PUSH1 0x0 DUP3 RETURNDATACOPY RETURNDATASIZE PUSH1 0x1F NOT PUSH1 0x1F DUP3 ADD AND DUP3 ADD DUP1 PUSH1 0x40 MSTORE POP DUP2 ADD SWAP1 PUSH2 0x28A1 SWAP2 SWAP1 PUSH2 0x3C66 JUMP JUMPDEST SWAP1 POP PUSH2 0x28B8 DUP8 PUSH1 0x0 DUP5 DUP10 PUSH2 0x28B3 PUSH2 0x176E JUMP JUMPDEST PUSH2 0x2A90 JUMP JUMPDEST DUP4 PUSH1 0x1 DUP2 MLOAD DUP2 LT PUSH2 0x28CC JUMPI PUSH2 0x28CB PUSH2 0x3744 JUMP JUMPDEST JUMPDEST PUSH1 0x20 MUL PUSH1 0x20 ADD ADD DUP2 SWAP1 MSTORE POP DUP1 PUSH1 0x1 DUP2 MLOAD DUP2 LT PUSH2 0x28EB JUMPI PUSH2 0x28EA PUSH2 0x3744 JUMP JUMPDEST JUMPDEST PUSH1 0x20 MUL PUSH1 0x20 ADD ADD MLOAD DUP4 SWAP5 POP SWAP5 POP POP POP POP SWAP4 POP SWAP4 SWAP2 POP POP JUMP JUMPDEST PUSH2 0x290B PUSH2 0x2B58 JUMP JUMPDEST PUSH1 0x0 DUP7 DUP7 DUP7 DUP7 DUP7 PUSH1 0x40 MLOAD PUSH1 0x24 ADD PUSH2 0x2926 SWAP6 SWAP5 SWAP4 SWAP3 SWAP2 SWAP1 PUSH2 0x3CAF JUMP JUMPDEST PUSH1 0x40 MLOAD PUSH1 0x20 DUP2 DUP4 SUB SUB DUP2 MSTORE SWAP1 PUSH1 0x40 MSTORE PUSH4 0x38ED1739 PUSH1 0xE0 SHL PUSH1 0x20 DUP3 ADD DUP1 MLOAD PUSH28 0xFFFFFFFFFFFFFFFFFFFFFFFFFFFFFFFFFFFFFFFFFFFFFFFFFFFFFFFF DUP4 DUP2 DUP4 AND OR DUP4 MSTORE POP POP POP POP SWAP1 POP PUSH1 0x40 MLOAD DUP1 PUSH1 0x60 ADD PUSH1 0x40 MSTORE DUP1 PUSH32 0x0 PUSH20 0xFFFFFFFFFFFFFFFFFFFFFFFFFFFFFFFFFFFFFFFF AND DUP2 MSTORE PUSH1 0x20 ADD PUSH1 0x0 DUP2 MSTORE PUSH1 0x20 ADD DUP3 DUP2 MSTORE POP SWAP2 POP POP SWAP6 SWAP5 POP POP POP POP POP JUMP JUMPDEST PUSH2 0x29D3 PUSH2 0x2B58 JUMP JUMPDEST PUSH1 0x0 DUP6 DUP6 DUP6 DUP6 PUSH1 0x40 MLOAD PUSH1 0x24 ADD PUSH2 0x29EC SWAP5 SWAP4 SWAP3 SWAP2 SWAP1 PUSH2 0x3D09 JUMP JUMPDEST PUSH1 0x40 MLOAD PUSH1 0x20 DUP2 DUP4 SUB SUB DUP2 MSTORE SWAP1 PUSH1 0x40 MSTORE PUSH4 0x7FF36AB5 PUSH1 0xE0 SHL PUSH1 0x20 DUP3 ADD DUP1 MLOAD PUSH28 0xFFFFFFFFFFFFFFFFFFFFFFFFFFFFFFFFFFFFFFFFFFFFFFFFFFFFFFFF DUP4 DUP2 DUP4 AND OR DUP4 MSTORE POP POP POP POP SWAP1 POP PUSH1 0x40 MLOAD DUP1 PUSH1 0x60 ADD PUSH1 0x40 MSTORE DUP1 PUSH32 0x0 PUSH20 0xFFFFFFFFFFFFFFFFFFFFFFFFFFFFFFFFFFFFFFFF AND DUP2 MSTORE PUSH1 0x20 ADD DUP9 DUP2 MSTORE PUSH1 0x20 ADD DUP3 DUP2 MSTORE POP SWAP2 POP POP SWAP6 SWAP5 POP POP POP POP POP JUMP JUMPDEST PUSH2 0x2A98 PUSH2 0x2B58 JUMP JUMPDEST PUSH1 0x0 DUP7 DUP7 DUP7 DUP7 DUP7 PUSH1 0x40 MLOAD PUSH1 0x24 ADD PUSH2 0x2AB3 SWAP6 SWAP5 SWAP4 SWAP3 SWAP2 SWAP1 PUSH2 0x3CAF JUMP JUMPDEST PUSH1 0x40 MLOAD PUSH1 0x20 DUP2 DUP4 SUB SUB DUP2 MSTORE SWAP1 PUSH1 0x40 MSTORE PUSH4 0x18CBAFE5 PUSH1 0xE0 SHL PUSH1 0x20 DUP3 ADD DUP1 MLOAD PUSH28 0xFFFFFFFFFFFFFFFFFFFFFFFFFFFFFFFFFFFFFFFFFFFFFFFFFFFFFFFF DUP4 DUP2 DUP4 AND OR DUP4 MSTORE POP POP POP POP SWAP1 POP PUSH1 0x40 MLOAD DUP1 PUSH1 0x60 ADD PUSH1 0x40 MSTORE DUP1 PUSH32 0x0 PUSH20 0xFFFFFFFFFFFFFFFFFFFFFFFFFFFFFFFFFFFFFFFF AND DUP2 MSTORE PUSH1 0x20 ADD PUSH1 0x0 DUP2 MSTORE PUSH1 0x20 ADD DUP3 DUP2 MSTORE POP SWAP2 POP POP SWAP6 SWAP5 POP POP POP POP POP JUMP JUMPDEST PUSH1 0x40 MLOAD DUP1 PUSH1 0x60 ADD PUSH1 0x40 MSTORE DUP1 PUSH1 0x0 PUSH20 0xFFFFFFFFFFFFFFFFFFFFFFFFFFFFFFFFFFFFFFFF AND DUP2 MSTORE PUSH1 0x20 ADD PUSH1 0x0 DUP2 MSTORE PUSH1 0x20 ADD PUSH1 0x60 DUP2 MSTORE POP SWAP1 JUMP JUMPDEST PUSH1 0x0 PUSH1 0x40 MLOAD SWAP1 POP SWAP1 JUMP JUMPDEST PUSH1 0x0 DUP1 REVERT JUMPDEST PUSH1 0x0 DUP1 REVERT JUMPDEST PUSH1 0x0 PUSH20 0xFFFFFFFFFFFFFFFFFFFFFFFFFFFFFFFFFFFFFFFF DUP3 AND SWAP1 POP SWAP2 SWAP1 POP JUMP JUMPDEST PUSH1 0x0 PUSH2 0x2BCE DUP3 PUSH2 0x2BA3 JUMP JUMPDEST SWAP1 POP SWAP2 SWAP1 POP JUMP JUMPDEST PUSH2 0x2BDE DUP2 PUSH2 0x2BC3 JUMP JUMPDEST DUP2 EQ PUSH2 0x2BE9 JUMPI PUSH1 0x0 DUP1 REVERT JUMPDEST POP JUMP JUMPDEST PUSH1 0x0 DUP2 CALLDATALOAD SWAP1 POP PUSH2 0x2BFB DUP2 PUSH2 0x2BD5 JUMP JUMPDEST SWAP3 SWAP2 POP POP JUMP JUMPDEST PUSH1 0x0 DUP2 SWAP1 POP SWAP2 SWAP1 POP JUMP JUMPDEST PUSH2 0x2C14 DUP2 PUSH2 0x2C01 JUMP JUMPDEST DUP2 EQ PUSH2 0x2C1F JUMPI PUSH1 0x0 DUP1 REVERT JUMPDEST POP JUMP JUMPDEST PUSH1 0x0 DUP2 CALLDATALOAD SWAP1 POP PUSH2 0x2C31 DUP2 PUSH2 0x2C0B JUMP JUMPDEST SWAP3 SWAP2 POP POP JUMP JUMPDEST PUSH1 0x0 DUP1 PUSH1 0x0 PUSH1 0x60 DUP5 DUP7 SUB SLT ISZERO PUSH2 0x2C50 JUMPI PUSH2 0x2C4F PUSH2 0x2B99 JUMP JUMPDEST JUMPDEST PUSH1 0x0 PUSH2 0x2C5E DUP7 DUP3 DUP8 ADD PUSH2 0x2BEC JUMP JUMPDEST SWAP4 POP POP PUSH1 0x20 PUSH2 0x2C6F DUP7 DUP3 DUP8 ADD PUSH2 0x2C22 JUMP JUMPDEST SWAP3 POP POP PUSH1 0x40 PUSH2 0x2C80 DUP7 DUP3 DUP8 ADD PUSH2 0x2BEC JUMP JUMPDEST SWAP2 POP POP SWAP3 POP SWAP3 POP SWAP3 JUMP JUMPDEST PUSH1 0x0 DUP2 MLOAD SWAP1 POP SWAP2 SWAP1 POP JUMP JUMPDEST PUSH1 0x0 DUP3 DUP3 MSTORE PUSH1 0x20 DUP3 ADD SWAP1 POP SWAP3 SWAP2 POP POP JUMP JUMPDEST PUSH1 0x0 DUP2 SWAP1 POP PUSH1 0x20 DUP3 ADD SWAP1 POP SWAP2 SWAP1 POP JUMP JUMPDEST PUSH2 0x2CBF DUP2 PUSH2 0x2BC3 JUMP JUMPDEST DUP3 MSTORE POP POP JUMP JUMPDEST PUSH2 0x2CCE DUP2 PUSH2 0x2C01 JUMP JUMPDEST DUP3 MSTORE POP POP JUMP JUMPDEST PUSH1 0x0 DUP2 MLOAD SWAP1 POP SWAP2 SWAP1 POP JUMP JUMPDEST PUSH1 0x0 DUP3 DUP3 MSTORE PUSH1 0x20 DUP3 ADD SWAP1 POP SWAP3 SWAP2 POP POP JUMP JUMPDEST PUSH1 0x0 JUMPDEST DUP4 DUP2 LT ISZERO PUSH2 0x2D0E JUMPI DUP1 DUP3 ADD MLOAD DUP2 DUP5 ADD MSTORE PUSH1 0x20 DUP2 ADD SWAP1 POP PUSH2 0x2CF3 JUMP JUMPDEST PUSH1 0x0 DUP5 DUP5 ADD MSTORE POP POP POP POP JUMP JUMPDEST PUSH1 0x0 PUSH1 0x1F NOT PUSH1 0x1F DUP4 ADD AND SWAP1 POP SWAP2 SWAP1 POP JUMP JUMPDEST PUSH1 0x0 PUSH2 0x2D36 DUP3 PUSH2 0x2CD4 JUMP JUMPDEST PUSH2 0x2D40 DUP2 DUP6 PUSH2 0x2CDF JUMP JUMPDEST SWAP4 POP PUSH2 0x2D50 DUP2 DUP6 PUSH1 0x20 DUP7 ADD PUSH2 0x2CF0 JUMP JUMPDEST PUSH2 0x2D59 DUP2 PUSH2 0x2D1A JUMP JUMPDEST DUP5 ADD SWAP2 POP POP SWAP3 SWAP2 POP POP JUMP JUMPDEST PUSH1 0x0 PUSH1 0x60 DUP4 ADD PUSH1 0x0 DUP4 ADD MLOAD PUSH2 0x2D7C PUSH1 0x0 DUP7 ADD DUP3 PUSH2 0x2CB6 JUMP JUMPDEST POP PUSH1 0x20 DUP4 ADD MLOAD PUSH2 0x2D8F PUSH1 0x20 DUP7 ADD DUP3 PUSH2 0x2CC5 JUMP JUMPDEST POP PUSH1 0x40 DUP4 ADD MLOAD DUP5 DUP3 SUB PUSH1 0x40 DUP7 ADD MSTORE PUSH2 0x2DA7 DUP3 DUP3 PUSH2 0x2D2B JUMP JUMPDEST SWAP2 POP POP DUP1 SWAP2 POP POP SWAP3 SWAP2 POP POP JUMP JUMPDEST PUSH1 0x0 PUSH2 0x2DC0 DUP4 DUP4 PUSH2 0x2D64 JUMP JUMPDEST SWAP1 POP SWAP3 SWAP2 POP POP JUMP JUMPDEST PUSH1 0x0 PUSH1 0x20 DUP3 ADD SWAP1 POP SWAP2 SWAP1 POP JUMP JUMPDEST PUSH1 0x0 PUSH2 0x2DE0 DUP3 PUSH2 0x2C8A JUMP JUMPDEST PUSH2 0x2DEA DUP2 DUP6 PUSH2 0x2C95 JUMP JUMPDEST SWAP4 POP DUP4 PUSH1 0x20 DUP3 MUL DUP6 ADD PUSH2 0x2DFC DUP6 PUSH2 0x2CA6 JUMP JUMPDEST DUP1 PUSH1 0x0 JUMPDEST DUP6 DUP2 LT ISZERO PUSH2 0x2E38 JUMPI DUP5 DUP5 SUB DUP10 MSTORE DUP2 MLOAD PUSH2 0x2E19 DUP6 DUP3 PUSH2 0x2DB4 JUMP JUMPDEST SWAP5 POP PUSH2 0x2E24 DUP4 PUSH2 0x2DC8 JUMP JUMPDEST SWAP3 POP PUSH1 0x20 DUP11 ADD SWAP10 POP POP PUSH1 0x1 DUP2 ADD SWAP1 POP PUSH2 0x2E00 JUMP JUMPDEST POP DUP3 SWAP8 POP DUP8 SWAP6 POP POP POP POP POP POP SWAP3 SWAP2 POP POP JUMP JUMPDEST PUSH1 0x0 PUSH1 0x20 DUP3 ADD SWAP1 POP DUP2 DUP2 SUB PUSH1 0x0 DUP4 ADD MSTORE PUSH2 0x2E64 DUP2 DUP5 PUSH2 0x2DD5 JUMP JUMPDEST SWAP1 POP SWAP3 SWAP2 POP POP JUMP JUMPDEST PUSH1 0x0 DUP1 PUSH1 0x0 DUP1 PUSH1 0x80 DUP6 DUP8 SUB SLT ISZERO PUSH2 0x2E86 JUMPI PUSH2 0x2E85 PUSH2 0x2B99 JUMP JUMPDEST JUMPDEST PUSH1 0x0 PUSH2 0x2E94 DUP8 DUP3 DUP9 ADD PUSH2 0x2BEC JUMP JUMPDEST SWAP5 POP POP PUSH1 0x20 PUSH2 0x2EA5 DUP8 DUP3 DUP9 ADD PUSH2 0x2BEC JUMP JUMPDEST SWAP4 POP POP PUSH1 0x40 PUSH2 0x2EB6 DUP8 DUP3 DUP9 ADD PUSH2 0x2C22 JUMP JUMPDEST SWAP3 POP POP PUSH1 0x60 PUSH2 0x2EC7 DUP8 DUP3 DUP9 ADD PUSH2 0x2BEC JUMP JUMPDEST SWAP2 POP POP SWAP3 SWAP6 SWAP2 SWAP5 POP SWAP3 POP JUMP JUMPDEST PUSH2 0x2EDC DUP2 PUSH2 0x2BC3 JUMP JUMPDEST DUP3 MSTORE POP POP JUMP JUMPDEST PUSH1 0x0 PUSH1 0x20 DUP3 ADD SWAP1 POP PUSH2 0x2EF7 PUSH1 0x0 DUP4 ADD DUP5 PUSH2 0x2ED3 JUMP JUMPDEST SWAP3 SWAP2 POP POP JUMP JUMPDEST PUSH1 0x0 PUSH32 0xFFFFFFFF00000000000000000000000000000000000000000000000000000000 DUP3 AND SWAP1 POP SWAP2 SWAP1 POP JUMP JUMPDEST PUSH2 0x2F32 DUP2 PUSH2 0x2EFD JUMP JUMPDEST DUP2 EQ PUSH2 0x2F3D JUMPI PUSH1 0x0 DUP1 REVERT JUMPDEST POP JUMP JUMPDEST PUSH1 0x0 DUP2 CALLDATALOAD SWAP1 POP PUSH2 0x2F4F DUP2 PUSH2 0x2F29 JUMP JUMPDEST SWAP3 SWAP2 POP POP JUMP JUMPDEST PUSH1 0x0 DUP1 REVERT JUMPDEST PUSH1 0x0 DUP1 REVERT JUMPDEST PUSH32 0x4E487B7100000000000000000000000000000000000000000000000000000000 PUSH1 0x0 MSTORE PUSH1 0x41 PUSH1 0x4 MSTORE PUSH1 0x24 PUSH1 0x0 REVERT JUMPDEST PUSH2 0x2F97 DUP3 PUSH2 0x2D1A JUMP JUMPDEST DUP2 ADD DUP2 DUP2 LT PUSH8 0xFFFFFFFFFFFFFFFF DUP3 GT OR ISZERO PUSH2 0x2FB6 JUMPI PUSH2 0x2FB5 PUSH2 0x2F5F JUMP JUMPDEST JUMPDEST DUP1 PUSH1 0x40 MSTORE POP POP POP JUMP JUMPDEST PUSH1 0x0 PUSH2 0x2FC9 PUSH2 0x2B8F JUMP JUMPDEST SWAP1 POP PUSH2 0x2FD5 DUP3 DUP3 PUSH2 0x2F8E JUMP JUMPDEST SWAP2 SWAP1 POP JUMP JUMPDEST PUSH1 0x0 PUSH8 0xFFFFFFFFFFFFFFFF DUP3 GT ISZERO PUSH2 0x2FF5 JUMPI PUSH2 0x2FF4 PUSH2 0x2F5F JUMP JUMPDEST JUMPDEST PUSH2 0x2FFE DUP3 PUSH2 0x2D1A JUMP JUMPDEST SWAP1 POP PUSH1 0x20 DUP2 ADD SWAP1 POP SWAP2 SWAP1 POP JUMP JUMPDEST DUP3 DUP2 DUP4 CALLDATACOPY PUSH1 0x0 DUP4 DUP4 ADD MSTORE POP POP POP JUMP JUMPDEST PUSH1 0x0 PUSH2 0x302D PUSH2 0x3028 DUP5 PUSH2 0x2FDA JUMP JUMPDEST PUSH2 0x2FBF JUMP JUMPDEST SWAP1 POP DUP3 DUP2 MSTORE PUSH1 0x20 DUP2 ADD DUP5 DUP5 DUP5 ADD GT ISZERO PUSH2 0x3049 JUMPI PUSH2 0x3048 PUSH2 0x2F5A JUMP JUMPDEST JUMPDEST PUSH2 0x3054 DUP5 DUP3 DUP6 PUSH2 0x300B JUMP JUMPDEST POP SWAP4 SWAP3 POP POP POP JUMP JUMPDEST PUSH1 0x0 DUP3 PUSH1 0x1F DUP4 ADD SLT PUSH2 0x3071 JUMPI PUSH2 0x3070 PUSH2 0x2F55 JUMP JUMPDEST JUMPDEST DUP2 CALLDATALOAD PUSH2 0x3081 DUP5 DUP3 PUSH1 0x20 DUP7 ADD PUSH2 0x301A JUMP JUMPDEST SWAP2 POP POP SWAP3 SWAP2 POP POP JUMP JUMPDEST PUSH1 0x0 DUP1 PUSH1 0x40 DUP4 DUP6 SUB SLT ISZERO PUSH2 0x30A1 JUMPI PUSH2 0x30A0 PUSH2 0x2B99 JUMP JUMPDEST JUMPDEST PUSH1 0x0 PUSH2 0x30AF DUP6 DUP3 DUP7 ADD PUSH2 0x2F40 JUMP JUMPDEST SWAP3 POP POP PUSH1 0x20 DUP4 ADD CALLDATALOAD PUSH8 0xFFFFFFFFFFFFFFFF DUP2 GT ISZERO PUSH2 0x30D0 JUMPI PUSH2 0x30CF PUSH2 0x2B9E JUMP JUMPDEST JUMPDEST PUSH2 0x30DC DUP6 DUP3 DUP7 ADD PUSH2 0x305C JUMP JUMPDEST SWAP2 POP POP SWAP3 POP SWAP3 SWAP1 POP JUMP JUMPDEST PUSH2 0x30EF DUP2 PUSH2 0x2C01 JUMP JUMPDEST DUP3 MSTORE POP POP JUMP JUMPDEST PUSH1 0x0 PUSH1 0x20 DUP3 ADD SWAP1 POP PUSH2 0x310A PUSH1 0x0 DUP4 ADD DUP5 PUSH2 0x30E6 JUMP JUMPDEST SWAP3 SWAP2 POP POP JUMP JUMPDEST PUSH1 0x0 DUP1 PUSH1 0x0 DUP1 PUSH1 0x0 PUSH1 0xA0 DUP7 DUP9 SUB SLT ISZERO PUSH2 0x312C JUMPI PUSH2 0x312B PUSH2 0x2B99 JUMP JUMPDEST JUMPDEST PUSH1 0x0 PUSH2 0x313A DUP9 DUP3 DUP10 ADD PUSH2 0x2BEC JUMP JUMPDEST SWAP6 POP POP PUSH1 0x20 PUSH2 0x314B DUP9 DUP3 DUP10 ADD PUSH2 0x2C22 JUMP JUMPDEST SWAP5 POP POP PUSH1 0x40 PUSH2 0x315C DUP9 DUP3 DUP10 ADD PUSH2 0x2C22 JUMP JUMPDEST SWAP4 POP POP PUSH1 0x60 PUSH2 0x316D DUP9 DUP3 DUP10 ADD PUSH2 0x2C22 JUMP JUMPDEST SWAP3 POP POP PUSH1 0x80 PUSH2 0x317E DUP9 DUP3 DUP10 ADD PUSH2 0x2BEC JUMP JUMPDEST SWAP2 POP POP SWAP3 SWAP6 POP SWAP3 SWAP6 SWAP1 SWAP4 POP JUMP JUMPDEST PUSH1 0x0 DUP2 ISZERO ISZERO SWAP1 POP SWAP2 SWAP1 POP JUMP JUMPDEST PUSH2 0x31A0 DUP2 PUSH2 0x318B JUMP JUMPDEST DUP2 EQ PUSH2 0x31AB JUMPI PUSH1 0x0 DUP1 REVERT JUMPDEST POP JUMP JUMPDEST PUSH1 0x0 DUP2 CALLDATALOAD SWAP1 POP PUSH2 0x31BD DUP2 PUSH2 0x3197 JUMP JUMPDEST SWAP3 SWAP2 POP POP JUMP JUMPDEST PUSH1 0x0 DUP1 PUSH1 0x0 DUP1 PUSH1 0x80 DUP6 DUP8 SUB SLT ISZERO PUSH2 0x31DD JUMPI PUSH2 0x31DC PUSH2 0x2B99 JUMP JUMPDEST JUMPDEST PUSH1 0x0 PUSH2 0x31EB DUP8 DUP3 DUP9 ADD PUSH2 0x2BEC JUMP JUMPDEST SWAP5 POP POP PUSH1 0x20 PUSH2 0x31FC DUP8 DUP3 DUP9 ADD PUSH2 0x2C22 JUMP JUMPDEST SWAP4 POP POP PUSH1 0x40 PUSH2 0x320D DUP8 DUP3 DUP9 ADD PUSH2 0x31AE JUMP JUMPDEST SWAP3 POP POP PUSH1 0x60 PUSH2 0x321E DUP8 DUP3 DUP9 ADD PUSH2 0x2BEC JUMP JUMPDEST SWAP2 POP POP SWAP3 SWAP6 SWAP2 SWAP5 POP SWAP3 POP JUMP JUMPDEST PUSH1 0x0 PUSH1 0x20 DUP3 DUP5 SUB SLT ISZERO PUSH2 0x3240 JUMPI PUSH2 0x323F PUSH2 0x2B99 JUMP JUMPDEST JUMPDEST PUSH1 0x0 PUSH2 0x324E DUP5 DUP3 DUP6 ADD PUSH2 0x2F40 JUMP JUMPDEST SWAP2 POP POP SWAP3 SWAP2 POP POP JUMP JUMPDEST PUSH1 0x0 PUSH1 0xFF DUP3 AND SWAP1 POP SWAP2 SWAP1 POP JUMP JUMPDEST PUSH2 0x326D DUP2 PUSH2 0x3257 JUMP JUMPDEST DUP3 MSTORE POP POP JUMP JUMPDEST PUSH1 0x0 PUSH1 0x20 DUP3 ADD SWAP1 POP PUSH2 0x3288 PUSH1 0x0 DUP4 ADD DUP5 PUSH2 0x3264 JUMP JUMPDEST SWAP3 SWAP2 POP POP JUMP JUMPDEST PUSH1 0x0 DUP1 PUSH1 0x0 DUP1 PUSH1 0x0 DUP1 PUSH1 0xC0 DUP8 DUP10 SUB SLT ISZERO PUSH2 0x32AB JUMPI PUSH2 0x32AA PUSH2 0x2B99 JUMP JUMPDEST JUMPDEST PUSH1 0x0 PUSH2 0x32B9 DUP10 DUP3 DUP11 ADD PUSH2 0x2BEC JUMP JUMPDEST SWAP7 POP POP PUSH1 0x20 PUSH2 0x32CA DUP10 DUP3 DUP11 ADD PUSH2 0x2BEC JUMP JUMPDEST SWAP6 POP POP PUSH1 0x40 PUSH2 0x32DB DUP10 DUP3 DUP11 ADD PUSH2 0x2C22 JUMP JUMPDEST SWAP5 POP POP PUSH1 0x60 PUSH2 0x32EC DUP10 DUP3 DUP11 ADD PUSH2 0x2C22 JUMP JUMPDEST SWAP4 POP POP PUSH1 0x80 PUSH2 0x32FD DUP10 DUP3 DUP11 ADD PUSH2 0x2C22 JUMP JUMPDEST SWAP3 POP POP PUSH1 0xA0 PUSH2 0x330E DUP10 DUP3 DUP11 ADD PUSH2 0x2BEC JUMP JUMPDEST SWAP2 POP POP SWAP3 SWAP6 POP SWAP3 SWAP6 POP SWAP3 SWAP6 JUMP JUMPDEST PUSH1 0x0 DUP1 PUSH1 0x0 DUP1 PUSH1 0x0 DUP1 PUSH1 0x0 PUSH1 0xE0 DUP9 DUP11 SUB SLT ISZERO PUSH2 0x333A JUMPI PUSH2 0x3339 PUSH2 0x2B99 JUMP JUMPDEST JUMPDEST PUSH1 0x0 PUSH2 0x3348 DUP11 DUP3 DUP12 ADD PUSH2 0x2BEC JUMP JUMPDEST SWAP8 POP POP PUSH1 0x20 PUSH2 0x3359 DUP11 DUP3 DUP12 ADD PUSH2 0x2BEC JUMP JUMPDEST SWAP7 POP POP PUSH1 0x40 PUSH2 0x336A DUP11 DUP3 DUP12 ADD PUSH2 0x2C22 JUMP JUMPDEST SWAP6 POP POP PUSH1 0x60 PUSH2 0x337B DUP11 DUP3 DUP12 ADD PUSH2 0x2C22 JUMP JUMPDEST SWAP5 POP POP PUSH1 0x80 PUSH2 0x338C DUP11 DUP3 DUP12 ADD PUSH2 0x2C22 JUMP JUMPDEST SWAP4 POP POP PUSH1 0xA0 PUSH2 0x339D DUP11 DUP3 DUP12 ADD PUSH2 0x2C22 JUMP JUMPDEST SWAP3 POP POP PUSH1 0xC0 PUSH2 0x33AE DUP11 DUP3 DUP12 ADD PUSH2 0x2BEC JUMP JUMPDEST SWAP2 POP POP SWAP3 SWAP6 SWAP9 SWAP2 SWAP5 SWAP8 POP SWAP3 SWAP6 POP JUMP JUMPDEST PUSH1 0x0 DUP1 PUSH1 0x40 DUP4 DUP6 SUB SLT ISZERO PUSH2 0x33D4 JUMPI PUSH2 0x33D3 PUSH2 0x2B99 JUMP JUMPDEST JUMPDEST PUSH1 0x0 PUSH2 0x33E2 DUP6 DUP3 DUP7 ADD PUSH2 0x2C22 JUMP JUMPDEST SWAP3 POP POP PUSH1 0x20 PUSH2 0x33F3 DUP6 DUP3 DUP7 ADD PUSH2 0x2C22 JUMP JUMPDEST SWAP2 POP POP SWAP3 POP SWAP3 SWAP1 POP JUMP JUMPDEST PUSH1 0x0 DUP1 PUSH1 0x0 DUP1 PUSH1 0x0 DUP1 PUSH1 0xC0 DUP8 DUP10 SUB SLT ISZERO PUSH2 0x341A JUMPI PUSH2 0x3419 PUSH2 0x2B99 JUMP JUMPDEST JUMPDEST PUSH1 0x0 PUSH2 0x3428 DUP10 DUP3 DUP11 ADD PUSH2 0x2BEC JUMP JUMPDEST SWAP7 POP POP PUSH1 0x20 PUSH2 0x3439 DUP10 DUP3 DUP11 ADD PUSH2 0x2C22 JUMP JUMPDEST SWAP6 POP POP PUSH1 0x40 PUSH2 0x344A DUP10 DUP3 DUP11 ADD PUSH2 0x2C22 JUMP JUMPDEST SWAP5 POP POP PUSH1 0x60 PUSH2 0x345B DUP10 DUP3 DUP11 ADD PUSH2 0x2C22 JUMP JUMPDEST SWAP4 POP POP PUSH1 0x80 PUSH2 0x346C DUP10 DUP3 DUP11 ADD PUSH2 0x2C22 JUMP JUMPDEST SWAP3 POP POP PUSH1 0xA0 PUSH2 0x347D DUP10 DUP3 DUP11 ADD PUSH2 0x2BEC JUMP JUMPDEST SWAP2 POP POP SWAP3 SWAP6 POP SWAP3 SWAP6 POP SWAP3 SWAP6 JUMP JUMPDEST PUSH32 0x4E487B7100000000000000000000000000000000000000000000000000000000 PUSH1 0x0 MSTORE PUSH1 0x11 PUSH1 0x4 MSTORE PUSH1 0x24 PUSH1 0x0 REVERT JUMPDEST PUSH1 0x0 PUSH2 0x34C4 DUP3 PUSH2 0x2C01 JUMP JUMPDEST SWAP2 POP PUSH2 0x34CF DUP4 PUSH2 0x2C01 JUMP JUMPDEST SWAP3 POP DUP3 DUP3 MUL PUSH2 0x34DD DUP2 PUSH2 0x2C01 JUMP JUMPDEST SWAP2 POP DUP3 DUP3 DIV DUP5 EQ DUP4 ISZERO OR PUSH2 0x34F4 JUMPI PUSH2 0x34F3 PUSH2 0x348A JUMP JUMPDEST JUMPDEST POP SWAP3 SWAP2 POP POP JUMP JUMPDEST PUSH32 0x4E487B7100000000000000000000000000000000000000000000000000000000 PUSH1 0x0 MSTORE PUSH1 0x12 PUSH1 0x4 MSTORE PUSH1 0x24 PUSH1 0x0 REVERT JUMPDEST PUSH1 0x0 PUSH2 0x3535 DUP3 PUSH2 0x2C01 JUMP JUMPDEST SWAP2 POP PUSH2 0x3540 DUP4 PUSH2 0x2C01 JUMP JUMPDEST SWAP3 POP DUP3 PUSH2 0x3550 JUMPI PUSH2 0x354F PUSH2 0x34FB JUMP JUMPDEST JUMPDEST DUP3 DUP3 DIV SWAP1 POP SWAP3 SWAP2 POP POP JUMP JUMPDEST PUSH1 0x0 PUSH2 0x3566 DUP3 PUSH2 0x2BA3 JUMP JUMPDEST SWAP1 POP SWAP2 SWAP1 POP JUMP JUMPDEST PUSH2 0x3576 DUP2 PUSH2 0x355B JUMP JUMPDEST DUP2 EQ PUSH2 0x3581 JUMPI PUSH1 0x0 DUP1 REVERT JUMPDEST POP JUMP JUMPDEST PUSH1 0x0 DUP2 MLOAD SWAP1 POP PUSH2 0x3593 DUP2 PUSH2 0x356D JUMP JUMPDEST SWAP3 SWAP2 POP POP JUMP JUMPDEST PUSH1 0x0 DUP2 MLOAD SWAP1 POP PUSH2 0x35A8 DUP2 PUSH2 0x2C0B JUMP JUMPDEST SWAP3 SWAP2 POP POP JUMP JUMPDEST PUSH1 0x0 DUP1 PUSH1 0x0 DUP1 PUSH1 0x0 DUP1 PUSH1 0x0 PUSH1 0xE0 DUP9 DUP11 SUB SLT ISZERO PUSH2 0x35CD JUMPI PUSH2 0x35CC PUSH2 0x2B99 JUMP JUMPDEST JUMPDEST PUSH1 0x0 PUSH2 0x35DB DUP11 DUP3 DUP12 ADD PUSH2 0x3584 JUMP JUMPDEST SWAP8 POP POP PUSH1 0x20 PUSH2 0x35EC DUP11 DUP3 DUP12 ADD PUSH2 0x3584 JUMP JUMPDEST SWAP7 POP POP PUSH1 0x40 PUSH2 0x35FD DUP11 DUP3 DUP12 ADD PUSH2 0x3599 JUMP JUMPDEST SWAP6 POP POP PUSH1 0x60 PUSH2 0x360E DUP11 DUP3 DUP12 ADD PUSH2 0x3599 JUMP JUMPDEST SWAP5 POP POP PUSH1 0x80 PUSH2 0x361F DUP11 DUP3 DUP12 ADD PUSH2 0x3599 JUMP JUMPDEST SWAP4 POP POP PUSH1 0xA0 PUSH2 0x3630 DUP11 DUP3 DUP12 ADD PUSH2 0x3599 JUMP JUMPDEST SWAP3 POP POP PUSH1 0xC0 PUSH2 0x3641 DUP11 DUP3 DUP12 ADD PUSH2 0x3584 JUMP JUMPDEST SWAP2 POP POP SWAP3 SWAP6 SWAP9 SWAP2 SWAP5 SWAP8 POP SWAP3 SWAP6 POP JUMP JUMPDEST PUSH1 0x0 DUP1 PUSH1 0x0 DUP1 PUSH1 0x0 DUP1 PUSH1 0xC0 DUP8 DUP10 SUB SLT ISZERO PUSH2 0x366D JUMPI PUSH2 0x366C PUSH2 0x2B99 JUMP JUMPDEST JUMPDEST PUSH1 0x0 PUSH2 0x367B DUP10 DUP3 DUP11 ADD PUSH2 0x3584 JUMP JUMPDEST SWAP7 POP POP PUSH1 0x20 PUSH2 0x368C DUP10 DUP3 DUP11 ADD PUSH2 0x3584 JUMP JUMPDEST SWAP6 POP POP PUSH1 0x40 PUSH2 0x369D DUP10 DUP3 DUP11 ADD PUSH2 0x3599 JUMP JUMPDEST SWAP5 POP POP PUSH1 0x60 PUSH2 0x36AE DUP10 DUP3 DUP11 ADD PUSH2 0x3599 JUMP JUMPDEST SWAP4 POP POP PUSH1 0x80 PUSH2 0x36BF DUP10 DUP3 DUP11 ADD PUSH2 0x3599 JUMP JUMPDEST SWAP3 POP POP PUSH1 0xA0 PUSH2 0x36D0 DUP10 DUP3 DUP11 ADD PUSH2 0x3584 JUMP JUMPDEST SWAP2 POP POP SWAP3 SWAP6 POP SWAP3 SWAP6 POP SWAP3 SWAP6 JUMP JUMPDEST PUSH1 0x0 DUP1 PUSH1 0x0 DUP1 PUSH1 0x80 DUP6 DUP8 SUB SLT ISZERO PUSH2 0x36F7 JUMPI PUSH2 0x36F6 PUSH2 0x2B99 JUMP JUMPDEST JUMPDEST PUSH1 0x0 PUSH2 0x3705 DUP8 DUP3 DUP9 ADD PUSH2 0x3584 JUMP JUMPDEST SWAP5 POP POP PUSH1 0x20 PUSH2 0x3716 DUP8 DUP3 DUP9 ADD PUSH2 0x3584 JUMP JUMPDEST SWAP4 POP POP PUSH1 0x40 PUSH2 0x3727 DUP8 DUP3 DUP9 ADD PUSH2 0x3599 JUMP JUMPDEST SWAP3 POP POP PUSH1 0x60 PUSH2 0x3738 DUP8 DUP3 DUP9 ADD PUSH2 0x3584 JUMP JUMPDEST SWAP2 POP POP SWAP3 SWAP6 SWAP2 SWAP5 POP SWAP3 POP JUMP JUMPDEST PUSH32 0x4E487B7100000000000000000000000000000000000000000000000000000000 PUSH1 0x0 MSTORE PUSH1 0x32 PUSH1 0x4 MSTORE PUSH1 0x24 PUSH1 0x0 REVERT JUMPDEST PUSH1 0x0 PUSH2 0x377E DUP3 PUSH2 0x2C01 JUMP JUMPDEST SWAP2 POP PUSH2 0x3789 DUP4 PUSH2 0x2C01 JUMP JUMPDEST SWAP3 POP DUP3 DUP3 ADD SWAP1 POP DUP1 DUP3 GT ISZERO PUSH2 0x37A1 JUMPI PUSH2 0x37A0 PUSH2 0x348A JUMP JUMPDEST JUMPDEST SWAP3 SWAP2 POP POP JUMP JUMPDEST PUSH1 0x0 PUSH2 0x37B2 DUP3 PUSH2 0x2C01 JUMP JUMPDEST SWAP2 POP PUSH2 0x37BD DUP4 PUSH2 0x2C01 JUMP JUMPDEST SWAP3 POP DUP3 DUP3 SUB SWAP1 POP DUP2 DUP2 GT ISZERO PUSH2 0x37D5 JUMPI PUSH2 0x37D4 PUSH2 0x348A JUMP JUMPDEST JUMPDEST SWAP3 SWAP2 POP POP JUMP JUMPDEST PUSH1 0x0 PUSH1 0x40 DUP3 ADD SWAP1 POP PUSH2 0x37F0 PUSH1 0x0 DUP4 ADD DUP6 PUSH2 0x2ED3 JUMP JUMPDEST PUSH2 0x37FD PUSH1 0x20 DUP4 ADD DUP5 PUSH2 0x2ED3 JUMP JUMPDEST SWAP4 SWAP3 POP POP POP JUMP JUMPDEST PUSH1 0x0 DUP2 MLOAD SWAP1 POP PUSH2 0x3813 DUP2 PUSH2 0x2BD5 JUMP JUMPDEST SWAP3 SWAP2 POP POP JUMP JUMPDEST PUSH1 0x0 PUSH1 0x20 DUP3 DUP5 SUB SLT ISZERO PUSH2 0x382F JUMPI PUSH2 0x382E PUSH2 0x2B99 JUMP JUMPDEST JUMPDEST PUSH1 0x0 PUSH2 0x383D DUP5 DUP3 DUP6 ADD PUSH2 0x3804 JUMP JUMPDEST SWAP2 POP POP SWAP3 SWAP2 POP POP JUMP JUMPDEST PUSH1 0x0 PUSH1 0x20 DUP3 DUP5 SUB SLT ISZERO PUSH2 0x385C JUMPI PUSH2 0x385B PUSH2 0x2B99 JUMP JUMPDEST JUMPDEST PUSH1 0x0 PUSH2 0x386A DUP5 DUP3 DUP6 ADD PUSH2 0x3599 JUMP JUMPDEST SWAP2 POP POP SWAP3 SWAP2 POP POP JUMP JUMPDEST PUSH1 0x0 PUSH14 0xFFFFFFFFFFFFFFFFFFFFFFFFFFFF DUP3 AND SWAP1 POP SWAP2 SWAP1 POP JUMP JUMPDEST PUSH2 0x3896 DUP2 PUSH2 0x3873 JUMP JUMPDEST DUP2 EQ PUSH2 0x38A1 JUMPI PUSH1 0x0 DUP1 REVERT JUMPDEST POP JUMP JUMPDEST PUSH1 0x0 DUP2 MLOAD SWAP1 POP PUSH2 0x38B3 DUP2 PUSH2 0x388D JUMP JUMPDEST SWAP3 SWAP2 POP POP JUMP JUMPDEST PUSH1 0x0 PUSH4 0xFFFFFFFF DUP3 AND SWAP1 POP SWAP2 SWAP1 POP JUMP JUMPDEST PUSH2 0x38D2 DUP2 PUSH2 0x38B9 JUMP JUMPDEST DUP2 EQ PUSH2 0x38DD JUMPI PUSH1 0x0 DUP1 REVERT JUMPDEST POP JUMP JUMPDEST PUSH1 0x0 DUP2 MLOAD SWAP1 POP PUSH2 0x38EF DUP2 PUSH2 0x38C9 JUMP JUMPDEST SWAP3 SWAP2 POP POP JUMP JUMPDEST PUSH1 0x0 DUP1 PUSH1 0x0 PUSH1 0x60 DUP5 DUP7 SUB SLT ISZERO PUSH2 0x390E JUMPI PUSH2 0x390D PUSH2 0x2B99 JUMP JUMPDEST JUMPDEST PUSH1 0x0 PUSH2 0x391C DUP7 DUP3 DUP8 ADD PUSH2 0x38A4 JUMP JUMPDEST SWAP4 POP POP PUSH1 0x20 PUSH2 0x392D DUP7 DUP3 DUP8 ADD PUSH2 0x38A4 JUMP JUMPDEST SWAP3 POP POP PUSH1 0x40 PUSH2 0x393E DUP7 DUP3 DUP8 ADD PUSH2 0x38E0 JUMP JUMPDEST SWAP2 POP POP SWAP3 POP SWAP3 POP SWAP3 JUMP JUMPDEST PUSH1 0x0 PUSH1 0x40 DUP3 ADD SWAP1 POP PUSH2 0x395D PUSH1 0x0 DUP4 ADD DUP6 PUSH2 0x2ED3 JUMP JUMPDEST PUSH2 0x396A PUSH1 0x20 DUP4 ADD DUP5 PUSH2 0x30E6 JUMP JUMPDEST SWAP4 SWAP3 POP POP POP JUMP JUMPDEST PUSH1 0x0 PUSH1 0xC0 DUP3 ADD SWAP1 POP PUSH2 0x3986 PUSH1 0x0 DUP4 ADD DUP10 PUSH2 0x2ED3 JUMP JUMPDEST PUSH2 0x3993 PUSH1 0x20 DUP4 ADD DUP9 PUSH2 0x30E6 JUMP JUMPDEST PUSH2 0x39A0 PUSH1 0x40 DUP4 ADD DUP8 PUSH2 0x30E6 JUMP JUMPDEST PUSH2 0x39AD PUSH1 0x60 DUP4 ADD DUP7 PUSH2 0x30E6 JUMP JUMPDEST PUSH2 0x39BA PUSH1 0x80 DUP4 ADD DUP6 PUSH2 0x2ED3 JUMP JUMPDEST PUSH2 0x39C7 PUSH1 0xA0 DUP4 ADD DUP5 PUSH2 0x30E6 JUMP JUMPDEST SWAP8 SWAP7 POP POP POP POP POP POP POP JUMP JUMPDEST PUSH1 0x0 PUSH1 0xE0 DUP3 ADD SWAP1 POP PUSH2 0x39E7 PUSH1 0x0 DUP4 ADD DUP11 PUSH2 0x2ED3 JUMP JUMPDEST PUSH2 0x39F4 PUSH1 0x20 DUP4 ADD DUP10 PUSH2 0x2ED3 JUMP JUMPDEST PUSH2 0x3A01 PUSH1 0x40 DUP4 ADD DUP9 PUSH2 0x30E6 JUMP JUMPDEST PUSH2 0x3A0E PUSH1 0x60 DUP4 ADD DUP8 PUSH2 0x30E6 JUMP JUMPDEST PUSH2 0x3A1B PUSH1 0x80 DUP4 ADD DUP7 PUSH2 0x30E6 JUMP JUMPDEST PUSH2 0x3A28 PUSH1 0xA0 DUP4 ADD DUP6 PUSH2 0x2ED3 JUMP JUMPDEST PUSH2 0x3A35 PUSH1 0xC0 DUP4 ADD DUP5 PUSH2 0x30E6 JUMP JUMPDEST SWAP9 SWAP8 POP POP POP POP POP POP POP POP JUMP JUMPDEST PUSH1 0x0 PUSH2 0x100 DUP3 ADD SWAP1 POP PUSH2 0x3A57 PUSH1 0x0 DUP4 ADD DUP12 PUSH2 0x2ED3 JUMP JUMPDEST PUSH2 0x3A64 PUSH1 0x20 DUP4 ADD DUP11 PUSH2 0x2ED3 JUMP JUMPDEST PUSH2 0x3A71 PUSH1 0x40 DUP4 ADD DUP10 PUSH2 0x30E6 JUMP JUMPDEST PUSH2 0x3A7E PUSH1 0x60 DUP4 ADD DUP9 PUSH2 0x30E6 JUMP JUMPDEST PUSH2 0x3A8B PUSH1 0x80 DUP4 ADD DUP8 PUSH2 0x30E6 JUMP JUMPDEST PUSH2 0x3A98 PUSH1 0xA0 DUP4 ADD DUP7 PUSH2 0x30E6 JUMP JUMPDEST PUSH2 0x3AA5 PUSH1 0xC0 DUP4 ADD DUP6 PUSH2 0x2ED3 JUMP JUMPDEST PUSH2 0x3AB2 PUSH1 0xE0 DUP4 ADD DUP5 PUSH2 0x30E6 JUMP JUMPDEST SWAP10 SWAP9 POP POP POP POP POP POP POP POP POP JUMP JUMPDEST PUSH1 0x0 DUP2 MLOAD SWAP1 POP SWAP2 SWAP1 POP JUMP JUMPDEST PUSH1 0x0 DUP3 DUP3 MSTORE PUSH1 0x20 DUP3 ADD SWAP1 POP SWAP3 SWAP2 POP POP JUMP JUMPDEST PUSH1 0x0 DUP2 SWAP1 POP PUSH1 0x20 DUP3 ADD SWAP1 POP SWAP2 SWAP1 POP JUMP JUMPDEST PUSH1 0x0 PUSH2 0x3AF7 DUP4 DUP4 PUSH2 0x2CB6 JUMP JUMPDEST PUSH1 0x20 DUP4 ADD SWAP1 POP SWAP3 SWAP2 POP POP JUMP JUMPDEST PUSH1 0x0 PUSH1 0x20 DUP3 ADD SWAP1 POP SWAP2 SWAP1 POP JUMP JUMPDEST PUSH1 0x0 PUSH2 0x3B1B DUP3 PUSH2 0x3ABF JUMP JUMPDEST PUSH2 0x3B25 DUP2 DUP6 PUSH2 0x3ACA JUMP JUMPDEST SWAP4 POP PUSH2 0x3B30 DUP4 PUSH2 0x3ADB JUMP JUMPDEST DUP1 PUSH1 0x0 JUMPDEST DUP4 DUP2 LT ISZERO PUSH2 0x3B61 JUMPI DUP2 MLOAD PUSH2 0x3B48 DUP9 DUP3 PUSH2 0x3AEB JUMP JUMPDEST SWAP8 POP PUSH2 0x3B53 DUP4 PUSH2 0x3B03 JUMP JUMPDEST SWAP3 POP POP PUSH1 0x1 DUP2 ADD SWAP1 POP PUSH2 0x3B34 JUMP JUMPDEST POP DUP6 SWAP4 POP POP POP POP SWAP3 SWAP2 POP POP JUMP JUMPDEST PUSH1 0x0 PUSH1 0x40 DUP3 ADD SWAP1 POP PUSH2 0x3B83 PUSH1 0x0 DUP4 ADD DUP6 PUSH2 0x30E6 JUMP JUMPDEST DUP2 DUP2 SUB PUSH1 0x20 DUP4 ADD MSTORE PUSH2 0x3B95 DUP2 DUP5 PUSH2 0x3B10 JUMP JUMPDEST SWAP1 POP SWAP4 SWAP3 POP POP POP JUMP JUMPDEST PUSH1 0x0 PUSH8 0xFFFFFFFFFFFFFFFF DUP3 GT ISZERO PUSH2 0x3BB9 JUMPI PUSH2 0x3BB8 PUSH2 0x2F5F JUMP JUMPDEST JUMPDEST PUSH1 0x20 DUP3 MUL SWAP1 POP PUSH1 0x20 DUP2 ADD SWAP1 POP SWAP2 SWAP1 POP JUMP JUMPDEST PUSH1 0x0 DUP1 REVERT JUMPDEST PUSH1 0x0 PUSH2 0x3BE2 PUSH2 0x3BDD DUP5 PUSH2 0x3B9E JUMP JUMPDEST PUSH2 0x2FBF JUMP JUMPDEST SWAP1 POP DUP1 DUP4 DUP3 MSTORE PUSH1 0x20 DUP3 ADD SWAP1 POP PUSH1 0x20 DUP5 MUL DUP4 ADD DUP6 DUP2 GT ISZERO PUSH2 0x3C05 JUMPI PUSH2 0x3C04 PUSH2 0x3BCA JUMP JUMPDEST JUMPDEST DUP4 JUMPDEST DUP2 DUP2 LT ISZERO PUSH2 0x3C2E JUMPI DUP1 PUSH2 0x3C1A DUP9 DUP3 PUSH2 0x3599 JUMP JUMPDEST DUP5 MSTORE PUSH1 0x20 DUP5 ADD SWAP4 POP POP PUSH1 0x20 DUP2 ADD SWAP1 POP PUSH2 0x3C07 JUMP JUMPDEST POP POP POP SWAP4 SWAP3 POP POP POP JUMP JUMPDEST PUSH1 0x0 DUP3 PUSH1 0x1F DUP4 ADD SLT PUSH2 0x3C4D JUMPI PUSH2 0x3C4C PUSH2 0x2F55 JUMP JUMPDEST JUMPDEST DUP2 MLOAD PUSH2 0x3C5D DUP5 DUP3 PUSH1 0x20 DUP7 ADD PUSH2 0x3BCF JUMP JUMPDEST SWAP2 POP POP SWAP3 SWAP2 POP POP JUMP JUMPDEST PUSH1 0x0 PUSH1 0x20 DUP3 DUP5 SUB SLT ISZERO PUSH2 0x3C7C JUMPI PUSH2 0x3C7B PUSH2 0x2B99 JUMP JUMPDEST JUMPDEST PUSH1 0x0 DUP3 ADD MLOAD PUSH8 0xFFFFFFFFFFFFFFFF DUP2 GT ISZERO PUSH2 0x3C9A JUMPI PUSH2 0x3C99 PUSH2 0x2B9E JUMP JUMPDEST JUMPDEST PUSH2 0x3CA6 DUP5 DUP3 DUP6 ADD PUSH2 0x3C38 JUMP JUMPDEST SWAP2 POP POP SWAP3 SWAP2 POP POP JUMP JUMPDEST PUSH1 0x0 PUSH1 0xA0 DUP3 ADD SWAP1 POP PUSH2 0x3CC4 PUSH1 0x0 DUP4 ADD DUP9 PUSH2 0x30E6 JUMP JUMPDEST PUSH2 0x3CD1 PUSH1 0x20 DUP4 ADD DUP8 PUSH2 0x30E6 JUMP JUMPDEST DUP2 DUP2 SUB PUSH1 0x40 DUP4 ADD MSTORE PUSH2 0x3CE3 DUP2 DUP7 PUSH2 0x3B10 JUMP JUMPDEST SWAP1 POP PUSH2 0x3CF2 PUSH1 0x60 DUP4 ADD DUP6 PUSH2 0x2ED3 JUMP JUMPDEST PUSH2 0x3CFF PUSH1 0x80 DUP4 ADD DUP5 PUSH2 0x30E6 JUMP JUMPDEST SWAP7 SWAP6 POP POP POP POP POP POP JUMP JUMPDEST PUSH1 0x0 PUSH1 0x80 DUP3 ADD SWAP1 POP PUSH2 0x3D1E PUSH1 0x0 DUP4 ADD DUP8 PUSH2 0x30E6 JUMP JUMPDEST DUP2 DUP2 SUB PUSH1 0x20 DUP4 ADD MSTORE PUSH2 0x3D30 DUP2 DUP7 PUSH2 0x3B10 JUMP JUMPDEST SWAP1 POP PUSH2 0x3D3F PUSH1 0x40 DUP4 ADD DUP6 PUSH2 0x2ED3 JUMP JUMPDEST PUSH2 0x3D4C PUSH1 0x60 DUP4 ADD DUP5 PUSH2 0x30E6 JUMP JUMPDEST SWAP6 SWAP5 POP POP POP POP POP JUMP INVALID LOG2 PUSH5 0x6970667358 0x22 SLT KECCAK256 CODECOPY GASLIMIT 0xC4 CHAINID 0x22 LOG1 0xD9 SHL 0xFC 0xCC EXTCODECOPY DUP15 DUP15 SIGNEXTEND 0xE0 0x2E PUSH28 0xF9EE48A6137FA6DED78CDA55E7AA8D64736F6C634300081C00330000 "
        },
        "methodIdentifiers": {
          "DELTA_DEADLINE()": "617b595a",
          "PERCENTAGE_FACTOR()": "ee01e5e7",
          "WETH()": "ad5c4648",
          "_getSwapAmount(uint256,uint256)": "ecc861d0",
          "addLiqudityPercentage(address,address,uint256,address)": "17617def",
          "addLiqudityPercentageETH(address,uint256,address)": "c9778805",
          "addLiquidity(address,address,uint256,uint256,uint256,uint256,address)": "ca3d6539",
          "addLiquidityETH(address,uint256,uint256,uint256,uint256,address)": "fbec41a8",
          "factory()": "c45a0155",
          "getTokenForSelector(bytes4,bytes)": "5581161b",
          "removeLiquidity(address,address,uint256,uint256,uint256,address)": "c0e3ee6b",
          "removeLiquidityETH(address,uint256,uint256,uint256,address)": "6587e4ce",
          "removeLiquidityETHPercentage(address,uint256,address)": "02e7b745",
          "removeLiquidityPercentage(address,address,uint256,address)": "d21f43b9",
          "router()": "f887ea40",
          "tokenGetterIDs(bytes4)": "b1d61368",
          "uniswapV2RouterAddress()": "4a377e1d",
          "zap(address,address,uint256,address)": "ea5217c3",
          "zapETH(address,uint256,bool,address)": "a181031e"
        }
      }
    }
  }
}