{
  "contracts/action/UniswapV2Base.sol": {
    "UniswapV2Base": {
      "abi": [
        {
          "inputs": [
            {
              "internalType": "address",
              "name": "_router",
              "type": "address"
            }
          ],
          "stateMutability": "nonpayable",
          "type": "constructor"
        },
        {
          "inputs": [],
          "name": "FailedToApproveTokens",
          "type": "error"
        },
        {
          "inputs": [],
          "name": "InvalidTokenGetterID",
          "type": "error"
        },
        {
          "inputs": [],
          "name": "NoValidPercentageAmount",
          "type": "error"
        },
        {
          "inputs": [],
          "name": "NoZeroAmountValid",
          "type": "error"
        },
        {
          "inputs": [],
          "name": "NotZeroAmountForBothTokensAllowed",
          "type": "error"
        },
        {
          "inputs": [],
          "name": "PoolPairDoesNotExist",
          "type": "error"
        },
        {
          "inputs": [],
          "name": "DELTA_DEADLINE",
          "outputs": [
            {
              "internalType": "uint256",
              "name": "",
              "type": "uint256"
            }
          ],
          "stateMutability": "view",
          "type": "function"
        },
        {
          "inputs": [],
          "name": "PERCENTAGE_FACTOR",
          "outputs": [
            {
              "internalType": "uint256",
              "name": "",
              "type": "uint256"
            }
          ],
          "stateMutability": "view",
          "type": "function"
        },
        {
          "inputs": [],
          "name": "WETH",
          "outputs": [
            {
              "internalType": "address",
              "name": "",
              "type": "address"
            }
          ],
          "stateMutability": "view",
          "type": "function"
        },
        {
          "inputs": [
            {
              "internalType": "uint256",
              "name": "r",
              "type": "uint256"
            },
            {
              "internalType": "uint256",
              "name": "a",
              "type": "uint256"
            }
          ],
          "name": "_getSwapAmount",
          "outputs": [
            {
              "internalType": "uint256",
              "name": "",
              "type": "uint256"
            }
          ],
          "stateMutability": "pure",
          "type": "function"
        },
        {
          "inputs": [],
          "name": "factory",
          "outputs": [
            {
              "internalType": "address",
              "name": "",
              "type": "address"
            }
          ],
          "stateMutability": "view",
          "type": "function"
        },
        {
          "inputs": [
            {
              "internalType": "bytes4",
              "name": "",
              "type": "bytes4"
            },
            {
              "internalType": "bytes",
              "name": "",
              "type": "bytes"
            }
          ],
          "name": "getTokenForSelector",
          "outputs": [
            {
              "internalType": "address",
              "name": "",
              "type": "address"
            }
          ],
          "stateMutability": "view",
          "type": "function"
        },
        {
          "inputs": [],
          "name": "router",
          "outputs": [
            {
              "internalType": "address",
              "name": "",
              "type": "address"
            }
          ],
          "stateMutability": "view",
          "type": "function"
        },
        {
          "inputs": [
            {
              "internalType": "bytes4",
              "name": "",
              "type": "bytes4"
            }
          ],
          "name": "tokenGetterIDs",
          "outputs": [
            {
              "internalType": "uint8",
              "name": "",
              "type": "uint8"
            }
          ],
          "stateMutability": "view",
          "type": "function"
        },
        {
          "inputs": [],
          "name": "uniswapV2RouterAddress",
          "outputs": [
            {
              "internalType": "address",
              "name": "",
              "type": "address"
            }
          ],
          "stateMutability": "view",
          "type": "function"
        }
      ],
      "evm": {
        "bytecode": {
          "linkReferences": {},
          "object": "60e060405234801561001057600080fd5b50604051610ade380380610ade83398181016040528101906100329190610217565b8073ffffffffffffffffffffffffffffffffffffffff1660808173ffffffffffffffffffffffffffffffffffffffff168152505060805173ffffffffffffffffffffffffffffffffffffffff1663ad5c46486040518163ffffffff1660e01b8152600401602060405180830381865afa1580156100b3573d6000803e3d6000fd5b505050506040513d601f19601f820116820180604052508101906100d79190610217565b73ffffffffffffffffffffffffffffffffffffffff1660c08173ffffffffffffffffffffffffffffffffffffffff168152505060805173ffffffffffffffffffffffffffffffffffffffff1663c45a01556040518163ffffffff1660e01b8152600401602060405180830381865afa158015610157573d6000803e3d6000fd5b505050506040513d601f19601f8201168201806040525081019061017b9190610217565b73ffffffffffffffffffffffffffffffffffffffff1660a08173ffffffffffffffffffffffffffffffffffffffff168152505050610244565b600080fd5b600073ffffffffffffffffffffffffffffffffffffffff82169050919050565b60006101e4826101b9565b9050919050565b6101f4816101d9565b81146101ff57600080fd5b50565b600081519050610211816101eb565b92915050565b60006020828403121561022d5761022c6101b4565b5b600061023b84828501610202565b91505092915050565b60805160a05160c05161086461027a6000396000610213015260006102570152600081816101e001526102eb01526108646000f3fe608060405234801561001057600080fd5b50600436106100935760003560e01c8063b1d6136811610066578063b1d6136814610122578063c45a015514610152578063ecc861d014610170578063ee01e5e7146101a0578063f887ea40146101be57610093565b80634a377e1d146100985780635581161b146100b6578063617b595a146100e6578063ad5c464814610104575b600080fd5b6100a06101dc565b6040516100ad91906103c8565b60405180910390f35b6100d060048036038101906100cb9190610595565b610204565b6040516100dd91906103c8565b60405180910390f35b6100ee61020c565b6040516100fb919061060a565b60405180910390f35b61010c610211565b60405161011991906103c8565b60405180910390f35b61013c60048036038101906101379190610625565b610235565b604051610149919061066e565b60405180910390f35b61015a610255565b60405161016791906103c8565b60405180910390f35b61018a600480360381019061018591906106b5565b610279565b604051610197919061060a565b60405180910390f35b6101a86102e3565b6040516101b5919061060a565b60405180910390f35b6101c66102e9565b6040516101d391906103c8565b60405180910390f35b60007f0000000000000000000000000000000000000000000000000000000000000000905090565b600092915050565b601e81565b7f000000000000000000000000000000000000000000000000000000000000000081565b60006020528060005260406000206000915054906101000a900460ff1681565b7f000000000000000000000000000000000000000000000000000000000000000081565b60006107ca6107cd8461028c9190610724565b6102c7623cda208561029e9190610724565b623cda29876102ad9190610724565b6102b79190610766565b866102c29190610724565b61030d565b6102d1919061079a565b6102db91906107fd565b905092915050565b6103e881565b7f000000000000000000000000000000000000000000000000000000000000000081565b60006003821115610374578190506000600160028461032c91906107fd565b6103369190610766565b90505b8181101561036e57809150600281828561035391906107fd565b61035d9190610766565b61036791906107fd565b9050610339565b50610382565b6000821461038157600190505b5b919050565b600073ffffffffffffffffffffffffffffffffffffffff82169050919050565b60006103b282610387565b9050919050565b6103c2816103a7565b82525050565b60006020820190506103dd60008301846103b9565b92915050565b6000604051905090565b600080fd5b600080fd5b60007fffffffff0000000000000000000000000000000000000000000000000000000082169050919050565b61042c816103f7565b811461043757600080fd5b50565b60008135905061044981610423565b92915050565b600080fd5b600080fd5b6000601f19601f8301169050919050565b7f4e487b7100000000000000000000000000000000000000000000000000000000600052604160045260246000fd5b6104a282610459565b810181811067ffffffffffffffff821117156104c1576104c061046a565b5b80604052505050565b60006104d46103e3565b90506104e08282610499565b919050565b600067ffffffffffffffff821115610500576104ff61046a565b5b61050982610459565b9050602081019050919050565b82818337600083830152505050565b6000610538610533846104e5565b6104ca565b90508281526020810184848401111561055457610553610454565b5b61055f848285610516565b509392505050565b600082601f83011261057c5761057b61044f565b5b813561058c848260208601610525565b91505092915050565b600080604083850312156105ac576105ab6103ed565b5b60006105ba8582860161043a565b925050602083013567ffffffffffffffff8111156105db576105da6103f2565b5b6105e785828601610567565b9150509250929050565b6000819050919050565b610604816105f1565b82525050565b600060208201905061061f60008301846105fb565b92915050565b60006020828403121561063b5761063a6103ed565b5b60006106498482850161043a565b91505092915050565b600060ff82169050919050565b61066881610652565b82525050565b6000602082019050610683600083018461065f565b92915050565b610692816105f1565b811461069d57600080fd5b50565b6000813590506106af81610689565b92915050565b600080604083850312156106cc576106cb6103ed565b5b60006106da858286016106a0565b92505060206106eb858286016106a0565b9150509250929050565b7f4e487b7100000000000000000000000000000000000000000000000000000000600052601160045260246000fd5b600061072f826105f1565b915061073a836105f1565b9250828202610748816105f1565b9150828204841483151761075f5761075e6106f5565b5b5092915050565b6000610771826105f1565b915061077c836105f1565b9250828201905080821115610794576107936106f5565b5b92915050565b60006107a5826105f1565b91506107b0836105f1565b92508282039050818111156107c8576107c76106f5565b5b92915050565b7f4e487b7100000000000000000000000000000000000000000000000000000000600052601260045260246000fd5b6000610808826105f1565b9150610813836105f1565b925082610823576108226107ce565b5b82820490509291505056fea264697066735822122091b327de1b64f33cf39aab72f9523f78f6de92e5b092f6bcd00dd5473b0146cd64736f6c634300081c0033",
          "opcodes": "PUSH1 0xE0 PUSH1 0x40 MSTORE CALLVALUE DUP1 ISZERO PUSH2 0x10 JUMPI PUSH1 0x0 DUP1 REVERT JUMPDEST POP PUSH1 0x40 MLOAD PUSH2 0xADE CODESIZE SUB DUP1 PUSH2 0xADE DUP4 CODECOPY DUP2 DUP2 ADD PUSH1 0x40 MSTORE DUP2 ADD SWAP1 PUSH2 0x32 SWAP2 SWAP1 PUSH2 0x217 JUMP JUMPDEST DUP1 PUSH20 0xFFFFFFFFFFFFFFFFFFFFFFFFFFFFFFFFFFFFFFFF AND PUSH1 0x80 DUP2 PUSH20 0xFFFFFFFFFFFFFFFFFFFFFFFFFFFFFFFFFFFFFFFF AND DUP2 MSTORE POP POP PUSH1 0x80 MLOAD PUSH20 0xFFFFFFFFFFFFFFFFFFFFFFFFFFFFFFFFFFFFFFFF AND PUSH4 0xAD5C4648 PUSH1 0x40 MLOAD DUP2 PUSH4 0xFFFFFFFF AND PUSH1 0xE0 SHL DUP2 MSTORE PUSH1 0x4 ADD PUSH1 0x20 PUSH1 0x40 MLOAD DUP1 DUP4 SUB DUP2 DUP7 GAS STATICCALL ISZERO DUP1 ISZERO PUSH2 0xB3 JUMPI RETURNDATASIZE PUSH1 0x0 DUP1 RETURNDATACOPY RETURNDATASIZE PUSH1 0x0 REVERT JUMPDEST POP POP POP POP PUSH1 0x40 MLOAD RETURNDATASIZE PUSH1 0x1F NOT PUSH1 0x1F DUP3 ADD AND DUP3 ADD DUP1 PUSH1 0x40 MSTORE POP DUP2 ADD SWAP1 PUSH2 0xD7 SWAP2 SWAP1 PUSH2 0x217 JUMP JUMPDEST PUSH20 0xFFFFFFFFFFFFFFFFFFFFFFFFFFFFFFFFFFFFFFFF AND PUSH1 0xC0 DUP2 PUSH20 0xFFFFFFFFFFFFFFFFFFFFFFFFFFFFFFFFFFFFFFFF AND DUP2 MSTORE POP POP PUSH1 0x80 MLOAD PUSH20 0xFFFFFFFFFFFFFFFFFFFFFFFFFFFFFFFFFFFFFFFF AND PUSH4 0xC45A0155 PUSH1 0x40 MLOAD DUP2 PUSH4 0xFFFFFFFF AND PUSH1 0xE0 SHL DUP2 MSTORE PUSH1 0x4 ADD PUSH1 0x20 PUSH1 0x40 MLOAD DUP1 DUP4 SUB DUP2 DUP7 GAS STATICCALL ISZERO DUP1 ISZERO PUSH2 0x157 JUMPI RETURNDATASIZE PUSH1 0x0 DUP1 RETURNDATACOPY RETURNDATASIZE PUSH1 0x0 REVERT JUMPDEST POP POP POP POP PUSH1 0x40 MLOAD RETURNDATASIZE PUSH1 0x1F NOT PUSH1 0x1F DUP3 ADD AND DUP3 ADD DUP1 PUSH1 0x40 MSTORE POP DUP2 ADD SWAP1 PUSH2 0x17B SWAP2 SWAP1 PUSH2 0x217 JUMP JUMPDEST PUSH20 0xFFFFFFFFFFFFFFFFFFFFFFFFFFFFFFFFFFFFFFFF AND PUSH1 0xA0 DUP2 PUSH20 0xFFFFFFFFFFFFFFFFFFFFFFFFFFFFFFFFFFFFFFFF AND DUP2 MSTORE POP POP POP PUSH2 0x244 JUMP JUMPDEST PUSH1 0x0 DUP1 REVERT JUMPDEST PUSH1 0x0 PUSH20 0xFFFFFFFFFFFFFFFFFFFFFFFFFFFFFFFFFFFFFFFF DUP3 AND SWAP1 POP SWAP2 SWAP1 POP JUMP JUMPDEST PUSH1 0x0 PUSH2 0x1E4 DUP3 PUSH2 0x1B9 JUMP JUMPDEST SWAP1 POP SWAP2 SWAP1 POP JUMP JUMPDEST PUSH2 0x1F4 DUP2 PUSH2 0x1D9 JUMP JUMPDEST DUP2 EQ PUSH2 0x1FF JUMPI PUSH1 0x0 DUP1 REVERT JUMPDEST POP JUMP JUMPDEST PUSH1 0x0 DUP2 MLOAD SWAP1 POP PUSH2 0x211 DUP2 PUSH2 0x1EB JUMP JUMPDEST SWAP3 SWAP2 POP POP JUMP JUMPDEST PUSH1 0x0 PUSH1 0x20 DUP3 DUP5 SUB SLT ISZERO PUSH2 0x22D JUMPI PUSH2 0x22C PUSH2 0x1B4 JUMP JUMPDEST JUMPDEST PUSH1 0x0 PUSH2 0x23B DUP5 DUP3 DUP6 ADD PUSH2 0x202 JUMP JUMPDEST SWAP2 POP POP SWAP3 SWAP2 POP POP JUMP JUMPDEST PUSH1 0x80 MLOAD PUSH1 0xA0 MLOAD PUSH1 0xC0 MLOAD PUSH2 0x864 PUSH2 0x27A PUSH1 0x0 CODECOPY PUSH1 0x0 PUSH2 0x213 ADD MSTORE PUSH1 0x0 PUSH2 0x257 ADD MSTORE PUSH1 0x0 DUP2 DUP2 PUSH2 0x1E0 ADD MSTORE PUSH2 0x2EB ADD MSTORE PUSH2 0x864 PUSH1 0x0 RETURN INVALID PUSH1 0x80 PUSH1 0x40 MSTORE CALLVALUE DUP1 ISZERO PUSH2 0x10 JUMPI PUSH1 0x0 DUP1 REVERT JUMPDEST POP PUSH1 0x4 CALLDATASIZE LT PUSH2 0x93 JUMPI PUSH1 0x0 CALLDATALOAD PUSH1 0xE0 SHR DUP1 PUSH4 0xB1D61368 GT PUSH2 0x66 JUMPI DUP1 PUSH4 0xB1D61368 EQ PUSH2 0x122 JUMPI DUP1 PUSH4 0xC45A0155 EQ PUSH2 0x152 JUMPI DUP1 PUSH4 0xECC861D0 EQ PUSH2 0x170 JUMPI DUP1 PUSH4 0xEE01E5E7 EQ PUSH2 0x1A0 JUMPI DUP1 PUSH4 0xF887EA40 EQ PUSH2 0x1BE JUMPI PUSH2 0x93 JUMP JUMPDEST DUP1 PUSH4 0x4A377E1D EQ PUSH2 0x98 JUMPI DUP1 PUSH4 0x5581161B EQ PUSH2 0xB6 JUMPI DUP1 PUSH4 0x617B595A EQ PUSH2 0xE6 JUMPI DUP1 PUSH4 0xAD5C4648 EQ PUSH2 0x104 JUMPI JUMPDEST PUSH1 0x0 DUP1 REVERT JUMPDEST PUSH2 0xA0 PUSH2 0x1DC JUMP JUMPDEST PUSH1 0x40 MLOAD PUSH2 0xAD SWAP2 SWAP1 PUSH2 0x3C8 JUMP JUMPDEST PUSH1 0x40 MLOAD DUP1 SWAP2 SUB SWAP1 RETURN JUMPDEST PUSH2 0xD0 PUSH1 0x4 DUP1 CALLDATASIZE SUB DUP2 ADD SWAP1 PUSH2 0xCB SWAP2 SWAP1 PUSH2 0x595 JUMP JUMPDEST PUSH2 0x204 JUMP JUMPDEST PUSH1 0x40 MLOAD PUSH2 0xDD SWAP2 SWAP1 PUSH2 0x3C8 JUMP JUMPDEST PUSH1 0x40 MLOAD DUP1 SWAP2 SUB SWAP1 RETURN JUMPDEST PUSH2 0xEE PUSH2 0x20C JUMP JUMPDEST PUSH1 0x40 MLOAD PUSH2 0xFB SWAP2 SWAP1 PUSH2 0x60A JUMP JUMPDEST PUSH1 0x40 MLOAD DUP1 SWAP2 SUB SWAP1 RETURN JUMPDEST PUSH2 0x10C PUSH2 0x211 JUMP JUMPDEST PUSH1 0x40 MLOAD PUSH2 0x119 SWAP2 SWAP1 PUSH2 0x3C8 JUMP JUMPDEST PUSH1 0x40 MLOAD DUP1 SWAP2 SUB SWAP1 RETURN JUMPDEST PUSH2 0x13C PUSH1 0x4 DUP1 CALLDATASIZE SUB DUP2 ADD SWAP1 PUSH2 0x137 SWAP2 SWAP1 PUSH2 0x625 JUMP JUMPDEST PUSH2 0x235 JUMP JUMPDEST PUSH1 0x40 MLOAD PUSH2 0x149 SWAP2 SWAP1 PUSH2 0x66E JUMP JUMPDEST PUSH1 0x40 MLOAD DUP1 SWAP2 SUB SWAP1 RETURN JUMPDEST PUSH2 0x15A PUSH2 0x255 JUMP JUMPDEST PUSH1 0x40 MLOAD PUSH2 0x167 SWAP2 SWAP1 PUSH2 0x3C8 JUMP JUMPDEST PUSH1 0x40 MLOAD DUP1 SWAP2 SUB SWAP1 RETURN JUMPDEST PUSH2 0x18A PUSH1 0x4 DUP1 CALLDATASIZE SUB DUP2 ADD SWAP1 PUSH2 0x185 SWAP2 SWAP1 PUSH2 0x6B5 JUMP JUMPDEST PUSH2 0x279 JUMP JUMPDEST PUSH1 0x40 MLOAD PUSH2 0x197 SWAP2 SWAP1 PUSH2 0x60A JUMP JUMPDEST PUSH1 0x40 MLOAD DUP1 SWAP2 SUB SWAP1 RETURN JUMPDEST PUSH2 0x1A8 PUSH2 0x2E3 JUMP JUMPDEST PUSH1 0x40 MLOAD PUSH2 0x1B5 SWAP2 SWAP1 PUSH2 0x60A JUMP JUMPDEST PUSH1 0x40 MLOAD DUP1 SWAP2 SUB SWAP1 RETURN JUMPDEST PUSH2 0x1C6 PUSH2 0x2E9 JUMP JUMPDEST PUSH1 0x40 MLOAD PUSH2 0x1D3 SWAP2 SWAP1 PUSH2 0x3C8 JUMP JUMPDEST PUSH1 0x40 MLOAD DUP1 SWAP2 SUB SWAP1 RETURN JUMPDEST PUSH1 0x0 PUSH32 0x0 SWAP1 POP SWAP1 JUMP JUMPDEST PUSH1 0x0 SWAP3 SWAP2 POP POP JUMP JUMPDEST PUSH1 0x1E DUP2 JUMP JUMPDEST PUSH32 0x0 DUP2 JUMP JUMPDEST PUSH1 0x0 PUSH1 0x20 MSTORE DUP1 PUSH1 0x0 MSTORE PUSH1 0x40 PUSH1 0x0 KECCAK256 PUSH1 0x0 SWAP2 POP SLOAD SWAP1 PUSH2 0x100 EXP SWAP1 DIV PUSH1 0xFF AND DUP2 JUMP JUMPDEST PUSH32 0x0 DUP2 JUMP JUMPDEST PUSH1 0x0 PUSH2 0x7CA PUSH2 0x7CD DUP5 PUSH2 0x28C SWAP2 SWAP1 PUSH2 0x724 JUMP JUMPDEST PUSH2 0x2C7 PUSH3 0x3CDA20 DUP6 PUSH2 0x29E SWAP2 SWAP1 PUSH2 0x724 JUMP JUMPDEST PUSH3 0x3CDA29 DUP8 PUSH2 0x2AD SWAP2 SWAP1 PUSH2 0x724 JUMP JUMPDEST PUSH2 0x2B7 SWAP2 SWAP1 PUSH2 0x766 JUMP JUMPDEST DUP7 PUSH2 0x2C2 SWAP2 SWAP1 PUSH2 0x724 JUMP JUMPDEST PUSH2 0x30D JUMP JUMPDEST PUSH2 0x2D1 SWAP2 SWAP1 PUSH2 0x79A JUMP JUMPDEST PUSH2 0x2DB SWAP2 SWAP1 PUSH2 0x7FD JUMP JUMPDEST SWAP1 POP SWAP3 SWAP2 POP POP JUMP JUMPDEST PUSH2 0x3E8 DUP2 JUMP JUMPDEST PUSH32 0x0 DUP2 JUMP JUMPDEST PUSH1 0x0 PUSH1 0x3 DUP3 GT ISZERO PUSH2 0x374 JUMPI DUP2 SWAP1 POP PUSH1 0x0 PUSH1 0x1 PUSH1 0x2 DUP5 PUSH2 0x32C SWAP2 SWAP1 PUSH2 0x7FD JUMP JUMPDEST PUSH2 0x336 SWAP2 SWAP1 PUSH2 0x766 JUMP JUMPDEST SWAP1 POP JUMPDEST DUP2 DUP2 LT ISZERO PUSH2 0x36E JUMPI DUP1 SWAP2 POP PUSH1 0x2 DUP2 DUP3 DUP6 PUSH2 0x353 SWAP2 SWAP1 PUSH2 0x7FD JUMP JUMPDEST PUSH2 0x35D SWAP2 SWAP1 PUSH2 0x766 JUMP JUMPDEST PUSH2 0x367 SWAP2 SWAP1 PUSH2 0x7FD JUMP JUMPDEST SWAP1 POP PUSH2 0x339 JUMP JUMPDEST POP PUSH2 0x382 JUMP JUMPDEST PUSH1 0x0 DUP3 EQ PUSH2 0x381 JUMPI PUSH1 0x1 SWAP1 POP JUMPDEST JUMPDEST SWAP2 SWAP1 POP JUMP JUMPDEST PUSH1 0x0 PUSH20 0xFFFFFFFFFFFFFFFFFFFFFFFFFFFFFFFFFFFFFFFF DUP3 AND SWAP1 POP SWAP2 SWAP1 POP JUMP JUMPDEST PUSH1 0x0 PUSH2 0x3B2 DUP3 PUSH2 0x387 JUMP JUMPDEST SWAP1 POP SWAP2 SWAP1 POP JUMP JUMPDEST PUSH2 0x3C2 DUP2 PUSH2 0x3A7 JUMP JUMPDEST DUP3 MSTORE POP POP JUMP JUMPDEST PUSH1 0x0 PUSH1 0x20 DUP3 ADD SWAP1 POP PUSH2 0x3DD PUSH1 0x0 DUP4 ADD DUP5 PUSH2 0x3B9 JUMP JUMPDEST SWAP3 SWAP2 POP POP JUMP JUMPDEST PUSH1 0x0 PUSH1 0x40 MLOAD SWAP1 POP SWAP1 JUMP JUMPDEST PUSH1 0x0 DUP1 REVERT JUMPDEST PUSH1 0x0 DUP1 REVERT JUMPDEST PUSH1 0x0 PUSH32 0xFFFFFFFF00000000000000000000000000000000000000000000000000000000 DUP3 AND SWAP1 POP SWAP2 SWAP1 POP JUMP JUMPDEST PUSH2 0x42C DUP2 PUSH2 0x3F7 JUMP JUMPDEST DUP2 EQ PUSH2 0x437 JUMPI PUSH1 0x0 DUP1 REVERT JUMPDEST POP JUMP JUMPDEST PUSH1 0x0 DUP2 CALLDATALOAD SWAP1 POP PUSH2 0x449 DUP2 PUSH2 0x423 JUMP JUMPDEST SWAP3 SWAP2 POP POP JUMP JUMPDEST PUSH1 0x0 DUP1 REVERT JUMPDEST PUSH1 0x0 DUP1 REVERT JUMPDEST PUSH1 0x0 PUSH1 0x1F NOT PUSH1 0x1F DUP4 ADD AND SWAP1 POP SWAP2 SWAP1 POP JUMP JUMPDEST PUSH32 0x4E487B7100000000000000000000000000000000000000000000000000000000 PUSH1 0x0 MSTORE PUSH1 0x41 PUSH1 0x4 MSTORE PUSH1 0x24 PUSH1 0x0 REVERT JUMPDEST PUSH2 0x4A2 DUP3 PUSH2 0x459 JUMP JUMPDEST DUP2 ADD DUP2 DUP2 LT PUSH8 0xFFFFFFFFFFFFFFFF DUP3 GT OR ISZERO PUSH2 0x4C1 JUMPI PUSH2 0x4C0 PUSH2 0x46A JUMP JUMPDEST JUMPDEST DUP1 PUSH1 0x40 MSTORE POP POP POP JUMP JUMPDEST PUSH1 0x0 PUSH2 0x4D4 PUSH2 0x3E3 JUMP JUMPDEST SWAP1 POP PUSH2 0x4E0 DUP3 DUP3 PUSH2 0x499 JUMP JUMPDEST SWAP2 SWAP1 POP JUMP JUMPDEST PUSH1 0x0 PUSH8 0xFFFFFFFFFFFFFFFF DUP3 GT ISZERO PUSH2 0x500 JUMPI PUSH2 0x4FF PUSH2 0x46A JUMP JUMPDEST JUMPDEST PUSH2 0x509 DUP3 PUSH2 0x459 JUMP JUMPDEST SWAP1 POP PUSH1 0x20 DUP2 ADD SWAP1 POP SWAP2 SWAP1 POP JUMP JUMPDEST DUP3 DUP2 DUP4 CALLDATACOPY PUSH1 0x0 DUP4 DUP4 ADD MSTORE POP POP POP JUMP JUMPDEST PUSH1 0x0 PUSH2 0x538 PUSH2 0x533 DUP5 PUSH2 0x4E5 JUMP JUMPDEST PUSH2 0x4CA JUMP JUMPDEST SWAP1 POP DUP3 DUP2 MSTORE PUSH1 0x20 DUP2 ADD DUP5 DUP5 DUP5 ADD GT ISZERO PUSH2 0x554 JUMPI PUSH2 0x553 PUSH2 0x454 JUMP JUMPDEST JUMPDEST PUSH2 0x55F DUP5 DUP3 DUP6 PUSH2 0x516 JUMP JUMPDEST POP SWAP4 SWAP3 POP POP POP JUMP JUMPDEST PUSH1 0x0 DUP3 PUSH1 0x1F DUP4 ADD SLT PUSH2 0x57C JUMPI PUSH2 0x57B PUSH2 0x44F JUMP JUMPDEST JUMPDEST DUP2 CALLDATALOAD PUSH2 0x58C DUP5 DUP3 PUSH1 0x20 DUP7 ADD PUSH2 0x525 JUMP JUMPDEST SWAP2 POP POP SWAP3 SWAP2 POP POP JUMP JUMPDEST PUSH1 0x0 DUP1 PUSH1 0x40 DUP4 DUP6 SUB SLT ISZERO PUSH2 0x5AC JUMPI PUSH2 0x5AB PUSH2 0x3ED JUMP JUMPDEST JUMPDEST PUSH1 0x0 PUSH2 0x5BA DUP6 DUP3 DUP7 ADD PUSH2 0x43A JUMP JUMPDEST SWAP3 POP POP PUSH1 0x20 DUP4 ADD CALLDATALOAD PUSH8 0xFFFFFFFFFFFFFFFF DUP2 GT ISZERO PUSH2 0x5DB JUMPI PUSH2 0x5DA PUSH2 0x3F2 JUMP JUMPDEST JUMPDEST PUSH2 0x5E7 DUP6 DUP3 DUP7 ADD PUSH2 0x567 JUMP JUMPDEST SWAP2 POP POP SWAP3 POP SWAP3 SWAP1 POP JUMP JUMPDEST PUSH1 0x0 DUP2 SWAP1 POP SWAP2 SWAP1 POP JUMP JUMPDEST PUSH2 0x604 DUP2 PUSH2 0x5F1 JUMP JUMPDEST DUP3 MSTORE POP POP JUMP JUMPDEST PUSH1 0x0 PUSH1 0x20 DUP3 ADD SWAP1 POP PUSH2 0x61F PUSH1 0x0 DUP4 ADD DUP5 PUSH2 0x5FB JUMP JUMPDEST SWAP3 SWAP2 POP POP JUMP JUMPDEST PUSH1 0x0 PUSH1 0x20 DUP3 DUP5 SUB SLT ISZERO PUSH2 0x63B JUMPI PUSH2 0x63A PUSH2 0x3ED JUMP JUMPDEST JUMPDEST PUSH1 0x0 PUSH2 0x649 DUP5 DUP3 DUP6 ADD PUSH2 0x43A JUMP JUMPDEST SWAP2 POP POP SWAP3 SWAP2 POP POP JUMP JUMPDEST PUSH1 0x0 PUSH1 0xFF DUP3 AND SWAP1 POP SWAP2 SWAP1 POP JUMP JUMPDEST PUSH2 0x668 DUP2 PUSH2 0x652 JUMP JUMPDEST DUP3 MSTORE POP POP JUMP JUMPDEST PUSH1 0x0 PUSH1 0x20 DUP3 ADD SWAP1 POP PUSH2 0x683 PUSH1 0x0 DUP4 ADD DUP5 PUSH2 0x65F JUMP JUMPDEST SWAP3 SWAP2 POP POP JUMP JUMPDEST PUSH2 0x692 DUP2 PUSH2 0x5F1 JUMP JUMPDEST DUP2 EQ PUSH2 0x69D JUMPI PUSH1 0x0 DUP1 REVERT JUMPDEST POP JUMP JUMPDEST PUSH1 0x0 DUP2 CALLDATALOAD SWAP1 POP PUSH2 0x6AF DUP2 PUSH2 0x689 JUMP JUMPDEST SWAP3 SWAP2 POP POP JUMP JUMPDEST PUSH1 0x0 DUP1 PUSH1 0x40 DUP4 DUP6 SUB SLT ISZERO PUSH2 0x6CC JUMPI PUSH2 0x6CB PUSH2 0x3ED JUMP JUMPDEST JUMPDEST PUSH1 0x0 PUSH2 0x6DA DUP6 DUP3 DUP7 ADD PUSH2 0x6A0 JUMP JUMPDEST SWAP3 POP POP PUSH1 0x20 PUSH2 0x6EB DUP6 DUP3 DUP7 ADD PUSH2 0x6A0 JUMP JUMPDEST SWAP2 POP POP SWAP3 POP SWAP3 SWAP1 POP JUMP JUMPDEST PUSH32 0x4E487B7100000000000000000000000000000000000000000000000000000000 PUSH1 0x0 MSTORE PUSH1 0x11 PUSH1 0x4 MSTORE PUSH1 0x24 PUSH1 0x0 REVERT JUMPDEST PUSH1 0x0 PUSH2 0x72F DUP3 PUSH2 0x5F1 JUMP JUMPDEST SWAP2 POP PUSH2 0x73A DUP4 PUSH2 0x5F1 JUMP JUMPDEST SWAP3 POP DUP3 DUP3 MUL PUSH2 0x748 DUP2 PUSH2 0x5F1 JUMP JUMPDEST SWAP2 POP DUP3 DUP3 DIV DUP5 EQ DUP4 ISZERO OR PUSH2 0x75F JUMPI PUSH2 0x75E PUSH2 0x6F5 JUMP JUMPDEST JUMPDEST POP SWAP3 SWAP2 POP POP JUMP JUMPDEST PUSH1 0x0 PUSH2 0x771 DUP3 PUSH2 0x5F1 JUMP JUMPDEST SWAP2 POP PUSH2 0x77C DUP4 PUSH2 0x5F1 JUMP JUMPDEST SWAP3 POP DUP3 DUP3 ADD SWAP1 POP DUP1 DUP3 GT ISZERO PUSH2 0x794 JUMPI PUSH2 0x793 PUSH2 0x6F5 JUMP JUMPDEST JUMPDEST SWAP3 SWAP2 POP POP JUMP JUMPDEST PUSH1 0x0 PUSH2 0x7A5 DUP3 PUSH2 0x5F1 JUMP JUMPDEST SWAP2 POP PUSH2 0x7B0 DUP4 PUSH2 0x5F1 JUMP JUMPDEST SWAP3 POP DUP3 DUP3 SUB SWAP1 POP DUP2 DUP2 GT ISZERO PUSH2 0x7C8 JUMPI PUSH2 0x7C7 PUSH2 0x6F5 JUMP JUMPDEST JUMPDEST SWAP3 SWAP2 POP POP JUMP JUMPDEST PUSH32 0x4E487B7100000000000000000000000000000000000000000000000000000000 PUSH1 0x0 MSTORE PUSH1 0x12 PUSH1 0x4 MSTORE PUSH1 0x24 PUSH1 0x0 REVERT JUMPDEST PUSH1 0x0 PUSH2 0x808 DUP3 PUSH2 0x5F1 JUMP JUMPDEST SWAP2 POP PUSH2 0x813 DUP4 PUSH2 0x5F1 JUMP JUMPDEST SWAP3 POP DUP3 PUSH2 0x823 JUMPI PUSH2 0x822 PUSH2 0x7CE JUMP JUMPDEST JUMPDEST DUP3 DUP3 DIV SWAP1 POP SWAP3 SWAP2 POP POP JUMP INVALID LOG2 PUSH5 0x6970667358 0x22 SLT KECCAK256 SWAP2 0xB3 0x27 0xDE SHL PUSH5 0xF33CF39AAB PUSH19 0xF9523F78F6DE92E5B092F6BCD00DD5473B0146 0xCD PUSH5 0x736F6C6343 STOP ADDMOD SHR STOP CALLER "
        },
        "methodIdentifiers": {
          "DELTA_DEADLINE()": "617b595a",
          "PERCENTAGE_FACTOR()": "ee01e5e7",
          "WETH()": "ad5c4648",
          "_getSwapAmount(uint256,uint256)": "ecc861d0",
          "factory()": "c45a0155",
          "getTokenForSelector(bytes4,bytes)": "5581161b",
          "router()": "f887ea40",
          "tokenGetterIDs(bytes4)": "b1d61368",
          "uniswapV2RouterAddress()": "4a377e1d"
        }
      }
    }
  }
}